{
  "_format": "hh-sol-artifact-1",
  "contractName": "HeadOrTailTokenGame",
  "sourceName": "contracts/HeadOrTailTokenGame.sol",
  "abi": [
    {
      "inputs": [
        {
          "internalType": "address",
          "name": "_vrfCoordinator",
          "type": "address"
        },
        {
          "internalType": "address",
          "name": "_gameTokenAddress",
          "type": "address"
        }
      ],
      "stateMutability": "nonpayable",
      "type": "constructor"
    },
    {
      "anonymous": false,
      "inputs": [
        {
          "indexed": true,
          "internalType": "address",
          "name": "player",
          "type": "address"
        },
        {
          "indexed": true,
          "internalType": "uint256",
          "name": "requestId",
          "type": "uint256"
        },
        {
          "indexed": false,
          "internalType": "uint256",
          "name": "gameId",
          "type": "uint256"
        },
        {
          "indexed": false,
          "internalType": "bool",
          "name": "isWinner",
          "type": "bool"
        },
        {
          "indexed": false,
          "internalType": "uint256",
          "name": "betAmount",
          "type": "uint256"
        },
        {
          "indexed": false,
          "internalType": "uint256",
          "name": "amountWon",
          "type": "uint256"
        },
        {
          "indexed": false,
          "internalType": "bool",
          "name": "bonus",
          "type": "bool"
        },
        {
          "indexed": false,
          "internalType": "bool",
          "name": "isHead",
          "type": "bool"
        }
      ],
      "name": "GameResult",
      "type": "event"
    },
    {
      "anonymous": false,
      "inputs": [
        {
          "indexed": true,
          "internalType": "address",
          "name": "previousOwner",
          "type": "address"
        },
        {
          "indexed": true,
          "internalType": "address",
          "name": "newOwner",
          "type": "address"
        }
      ],
      "name": "OwnershipTransferred",
      "type": "event"
    },
    {
      "anonymous": false,
      "inputs": [
        {
          "indexed": true,
          "internalType": "uint256",
          "name": "requestId",
          "type": "uint256"
        }
      ],
      "name": "RequestedRandomNumber",
      "type": "event"
    },
    {
      "inputs": [
        {
          "internalType": "uint256",
          "name": "",
          "type": "uint256"
        }
      ],
      "name": "allowedBetAmounts",
      "outputs": [
        {
          "internalType": "uint256",
          "name": "",
          "type": "uint256"
        }
      ],
      "stateMutability": "view",
      "type": "function"
    },
    {
      "inputs": [
        {
          "internalType": "uint256",
          "name": "",
          "type": "uint256"
        }
      ],
      "name": "gameStatus",
      "outputs": [
        {
          "internalType": "uint256",
          "name": "fees",
          "type": "uint256"
        },
        {
          "internalType": "uint256",
          "name": "randomWord",
          "type": "uint256"
        },
        {
          "internalType": "address",
          "name": "player",
          "type": "address"
        },
        {
          "internalType": "bool",
          "name": "isWinner",
          "type": "bool"
        },
        {
          "internalType": "bool",
          "name": "fulfilled",
          "type": "bool"
        },
        {
          "internalType": "bool",
          "name": "isHead",
          "type": "bool"
        },
        {
          "internalType": "uint256",
          "name": "betAmount",
          "type": "uint256"
        }
      ],
      "stateMutability": "view",
      "type": "function"
    },
    {
      "inputs": [],
      "name": "gameToken",
      "outputs": [
        {
          "internalType": "contract IERC20",
          "name": "",
          "type": "address"
        }
      ],
      "stateMutability": "view",
      "type": "function"
    },
    {
      "inputs": [],
      "name": "getBalance",
      "outputs": [
        {
          "internalType": "uint256",
          "name": "",
          "type": "uint256"
        }
      ],
      "stateMutability": "view",
      "type": "function"
    },
    {
      "inputs": [],
      "name": "getBonus",
      "outputs": [
        {
          "internalType": "uint256",
          "name": "",
          "type": "uint256"
        }
      ],
      "stateMutability": "view",
      "type": "function"
    },
    {
      "inputs": [],
      "name": "getRtp",
      "outputs": [
        {
          "internalType": "uint256",
          "name": "",
          "type": "uint256"
        }
      ],
      "stateMutability": "view",
      "type": "function"
    },
    {
      "inputs": [],
      "name": "getTotalHead",
      "outputs": [
        {
          "internalType": "uint256",
          "name": "",
          "type": "uint256"
        }
      ],
      "stateMutability": "view",
      "type": "function"
    },
    {
      "inputs": [],
      "name": "getTotalTail",
      "outputs": [
        {
          "internalType": "uint256",
          "name": "",
          "type": "uint256"
        }
      ],
      "stateMutability": "view",
      "type": "function"
    },
    {
      "inputs": [],
      "name": "getVRFCoordinator",
      "outputs": [
        {
          "internalType": "address",
          "name": "",
          "type": "address"
        }
      ],
      "stateMutability": "view",
      "type": "function"
    },
    {
      "inputs": [],
      "name": "owner",
      "outputs": [
        {
          "internalType": "address",
          "name": "",
          "type": "address"
        }
      ],
      "stateMutability": "view",
      "type": "function"
    },
    {
      "inputs": [
        {
          "internalType": "bool",
          "name": "choice",
          "type": "bool"
        }
      ],
      "name": "play",
      "outputs": [
        {
          "internalType": "uint256",
          "name": "",
          "type": "uint256"
        }
      ],
      "stateMutability": "nonpayable",
      "type": "function"
    },
    {
      "inputs": [
        {
          "internalType": "uint256",
          "name": "requestId",
          "type": "uint256"
        },
        {
          "internalType": "uint256[]",
          "name": "randomWords",
          "type": "uint256[]"
        }
      ],
      "name": "rawFulfillRandomWords",
      "outputs": [],
      "stateMutability": "nonpayable",
      "type": "function"
    },
    {
      "inputs": [],
      "name": "renounceOwnership",
      "outputs": [],
      "stateMutability": "nonpayable",
      "type": "function"
    },
    {
      "inputs": [
        {
          "internalType": "uint256",
          "name": "_bonus",
          "type": "uint256"
        }
      ],
      "name": "setBonus",
      "outputs": [],
      "stateMutability": "nonpayable",
      "type": "function"
    },
    {
      "inputs": [
        {
          "internalType": "uint256",
          "name": "_rtp",
          "type": "uint256"
        }
      ],
      "name": "setRtp",
      "outputs": [],
      "stateMutability": "nonpayable",
      "type": "function"
    },
    {
      "inputs": [
        {
          "internalType": "uint256",
          "name": "amount",
          "type": "uint256"
        }
      ],
      "name": "topUpBalance",
      "outputs": [],
      "stateMutability": "nonpayable",
      "type": "function"
    },
    {
      "inputs": [
        {
          "internalType": "address",
          "name": "newOwner",
          "type": "address"
        }
      ],
      "name": "transferOwnership",
      "outputs": [],
      "stateMutability": "nonpayable",
      "type": "function"
    },
    {
      "inputs": [],
      "name": "withdrawFunds",
      "outputs": [],
      "stateMutability": "nonpayable",
      "type": "function"
    }
  ],
  "bytecode": "0x60a06040526011600355601660045560046005553480156200002057600080fd5b506040516200243b3803806200243b83398181016040528101906200004691906200032a565b620000666200005a6200017760201b60201c565b6200017f60201b60201c565b8173ffffffffffffffffffffffffffffffffffffffff1660808173ffffffffffffffffffffffffffffffffffffffff168152505080600160006101000a81548173ffffffffffffffffffffffffffffffffffffffff021916908373ffffffffffffffffffffffffffffffffffffffff1602179055506040518060a0016040528067016345785d8a000067ffffffffffffffff1681526020016702c68af0bb14000067ffffffffffffffff168152602001670429d069189e000067ffffffffffffffff16815260200167058d15e17628000067ffffffffffffffff1681526020016706f05b59d3b2000067ffffffffffffffff1681525060089060056200016e92919062000243565b50505062000371565b600033905090565b60008060009054906101000a900473ffffffffffffffffffffffffffffffffffffffff169050816000806101000a81548173ffffffffffffffffffffffffffffffffffffffff021916908373ffffffffffffffffffffffffffffffffffffffff1602179055508173ffffffffffffffffffffffffffffffffffffffff168173ffffffffffffffffffffffffffffffffffffffff167f8be0079c531659141344cd1fd0a4f28419497f9722a3daafe3b4186f6b6457e060405160405180910390a35050565b8280548282559060005260206000209081019282156200028e579160200282015b828111156200028d578251829067ffffffffffffffff1690559160200191906001019062000264565b5b5090506200029d9190620002a1565b5090565b5b80821115620002bc576000816000905550600101620002a2565b5090565b600080fd5b600073ffffffffffffffffffffffffffffffffffffffff82169050919050565b6000620002f282620002c5565b9050919050565b6200030481620002e5565b81146200031057600080fd5b50565b6000815190506200032481620002f9565b92915050565b60008060408385031215620003445762000343620002c0565b5b6000620003548582860162000313565b9250506020620003678582860162000313565b9150509250929050565b6080516120a06200039b6000396000818161040201528181610744015261099201526120a06000f3fe608060405234801561001057600080fd5b50600436106101165760003560e01c8063a378f371116100a2578063c3dfdae611610071578063c3dfdae61461029d578063c5f22083146102bb578063c9e2774c146102d9578063f2fde38b14610309578063f303773e1461032557610116565b8063a378f37114610215578063a635392d14610233578063b62aaa211461024f578063c23c87d51461026d57610116565b806324600fc3116100e957806324600fc31461018f57806334239c9c14610199578063715018a6146101cf5780638bdff161146101d95780638da5cb5b146101f757610116565b80630b023a231461011b5780630b98f9751461013957806312065fe0146101555780631fe543e314610173575b600080fd5b610123610341565b604051610130919061135c565b60405180910390f35b610153600480360381019061014e91906113b7565b61034b565b005b61015d61035d565b60405161016a919061135c565b60405180910390f35b61018d6004803603810190610188919061153d565b610400565b005b61019761049c565b005b6101b360048036038101906101ae91906113b7565b610670565b6040516101c697969594939291906115f5565b60405180910390f35b6101d76106f9565b005b6101e161070d565b6040516101ee919061135c565b60405180910390f35b6101ff610717565b60405161020c9190611664565b60405180910390f35b61021d610740565b60405161022a9190611664565b60405180910390f35b61024d600480360381019061024891906113b7565b610768565b005b61025761084c565b604051610264919061135c565b60405180910390f35b610287600480360381019061028291906116ab565b610856565b604051610294919061135c565b60405180910390f35b6102a5610ba1565b6040516102b29190611737565b60405180910390f35b6102c3610bc7565b6040516102d0919061135c565b60405180910390f35b6102f360048036038101906102ee91906113b7565b610bd1565b604051610300919061135c565b60405180910390f35b610323600480360381019061031e919061177e565b610bf5565b005b61033f600480360381019061033a91906113b7565b610c78565b005b6000600754905090565b610353610c8a565b8060048190555050565b6000600160009054906101000a900473ffffffffffffffffffffffffffffffffffffffff1673ffffffffffffffffffffffffffffffffffffffff166370a08231306040518263ffffffff1660e01b81526004016103ba9190611664565b602060405180830381865afa1580156103d7573d6000803e3d6000fd5b505050506040513d601f19601f820116820180604052508101906103fb91906117c0565b905090565b7f000000000000000000000000000000000000000000000000000000000000000073ffffffffffffffffffffffffffffffffffffffff163373ffffffffffffffffffffffffffffffffffffffff161461048e576040517f08c379a00000000000000000000000000000000000000000000000000000000081526004016104859061184a565b60405180910390fd5b6104988282610d08565b5050565b6104a4610c8a565b6000600160009054906101000a900473ffffffffffffffffffffffffffffffffffffffff1673ffffffffffffffffffffffffffffffffffffffff166370a08231306040518263ffffffff1660e01b81526004016105019190611664565b602060405180830381865afa15801561051e573d6000803e3d6000fd5b505050506040513d601f19601f8201168201806040525081019061054291906117c0565b905060008111610587576040517f08c379a000000000000000000000000000000000000000000000000000000000815260040161057e906118b6565b60405180910390fd5b600160009054906101000a900473ffffffffffffffffffffffffffffffffffffffff1673ffffffffffffffffffffffffffffffffffffffff1663a9059cbb6105cd610717565b836040518363ffffffff1660e01b81526004016105eb9291906118d6565b6020604051808303816000875af115801561060a573d6000803e3d6000fd5b505050506040513d601f19601f8201168201806040525081019061062e9190611914565b61066d576040517f08c379a00000000000000000000000000000000000000000000000000000000081526004016106649061198d565b60405180910390fd5b50565b60096020528060005260406000206000915090508060000154908060010154908060020160009054906101000a900473ffffffffffffffffffffffffffffffffffffffff16908060020160149054906101000a900460ff16908060020160159054906101000a900460ff16908060020160169054906101000a900460ff16908060030154905087565b610701610c8a565b61070b6000611130565b565b6000600454905090565b60008060009054906101000a900473ffffffffffffffffffffffffffffffffffffffff16905090565b60007f0000000000000000000000000000000000000000000000000000000000000000905090565b600160009054906101000a900473ffffffffffffffffffffffffffffffffffffffff1673ffffffffffffffffffffffffffffffffffffffff166323b872dd3330846040518463ffffffff1660e01b81526004016107c7939291906119ad565b6020604051808303816000875af11580156107e6573d6000803e3d6000fd5b505050506040513d601f19601f8201168201806040525081019061080a9190611914565b610849576040517f08c379a000000000000000000000000000000000000000000000000000000000815260040161084090611a30565b60405180910390fd5b50565b6000600354905090565b6000610861336111f4565b6108a0576040517f08c379a000000000000000000000000000000000000000000000000000000000815260040161089790611ac2565b60405180910390fd5b60006108ab33611208565b9050600160009054906101000a900473ffffffffffffffffffffffffffffffffffffffff1673ffffffffffffffffffffffffffffffffffffffff166323b872dd3330846040518463ffffffff1660e01b815260040161090c939291906119ad565b6020604051808303816000875af115801561092b573d6000803e3d6000fd5b505050506040513d601f19601f8201168201806040525081019061094f9190611914565b61098e576040517f08c379a000000000000000000000000000000000000000000000000000000000815260040161098590611b2e565b60405180910390fd5b60007f000000000000000000000000000000000000000000000000000000000000000073ffffffffffffffffffffffffffffffffffffffff16635d3b1d306000806001620186a060016040518663ffffffff1660e01b81526004016109f7959493929190611caa565b6020604051808303816000875af1158015610a16573d6000803e3d6000fd5b505050506040513d601f19601f82011682018060405250810190610a3a91906117c0565b90506040518060e0016040528060008152602001600081526020013373ffffffffffffffffffffffffffffffffffffffff16815260200160001515815260200160001515815260200185151581526020018381525060096000838152602001908152602001600020600082015181600001556020820151816001015560408201518160020160006101000a81548173ffffffffffffffffffffffffffffffffffffffff021916908373ffffffffffffffffffffffffffffffffffffffff16021790555060608201518160020160146101000a81548160ff02191690831515021790555060808201518160020160156101000a81548160ff02191690831515021790555060a08201518160020160166101000a81548160ff02191690831515021790555060c08201518160030155905050807f28a75f9a78cd502748cecc04795531fd051165f83e4be1270400ac7130873e2e60405160405180910390a28092505050919050565b600160009054906101000a900473ffffffffffffffffffffffffffffffffffffffff1681565b6000600654905090565b60088181548110610be157600080fd5b906000526020600020016000915090505481565b610bfd610c8a565b600073ffffffffffffffffffffffffffffffffffffffff168173ffffffffffffffffffffffffffffffffffffffff1603610c6c576040517f08c379a0000000000000000000000000000000000000000000000000000000008152600401610c6390611d6f565b60405180910390fd5b610c7581611130565b50565b610c80610c8a565b8060038190555050565b610c9261130d565b73ffffffffffffffffffffffffffffffffffffffff16610cb0610717565b73ffffffffffffffffffffffffffffffffffffffff1614610d06576040517f08c379a0000000000000000000000000000000000000000000000000000000008152600401610cfd90611ddb565b60405180910390fd5b565b60016009600084815260200190815260200160002060020160156101000a81548160ff02191690831515021790555080600081518110610d4b57610d4a611dfb565b5b602002602001015160096000848152602001908152602001600020600101819055506000606482600081518110610d8557610d84611dfb565b5b6020026020010151610d979190611e59565b9050600080600283610da99190611e59565b14905060006009600086815260200190815260200160002060020160169054906101000a900460ff16151582151514905060006005548410905082610e045760076000815480929190610dfb90611eb9565b91905055610e1c565b60066000815480929190610e1790611eb9565b919050555b506000821561106857610e746009600089815260200190815260200160002060030154600a84610e4e57600354610e52565b6004545b670de0b6b3a7640000610e659190611f01565b610e6f9190611f43565b611315565b90506000600160009054906101000a900473ffffffffffffffffffffffffffffffffffffffff1673ffffffffffffffffffffffffffffffffffffffff166370a08231306040518263ffffffff1660e01b8152600401610ed39190611664565b602060405180830381865afa158015610ef0573d6000803e3d6000fd5b505050506040513d601f19601f82011682018060405250810190610f1491906117c0565b905080821115610f22578091505b6001600960008a815260200190815260200160002060020160146101000a81548160ff021916908315150217905550600160009054906101000a900473ffffffffffffffffffffffffffffffffffffffff1673ffffffffffffffffffffffffffffffffffffffff1663a9059cbb600960008b815260200190815260200160002060020160009054906101000a900473ffffffffffffffffffffffffffffffffffffffff16846040518363ffffffff1660e01b8152600401610fe49291906118d6565b6020604051808303816000875af1158015611003573d6000803e3d6000fd5b505050506040513d601f19601f820116820180604052508101906110279190611914565b611066576040517f08c379a000000000000000000000000000000000000000000000000000000000815260040161105d90611fc0565b60405180910390fd5b505b6002600081548092919061107b90611eb9565b9190505550866009600089815260200190815260200160002060020160009054906101000a900473ffffffffffffffffffffffffffffffffffffffff1673ffffffffffffffffffffffffffffffffffffffff167f3fceb718577531f659be1037b1dd265e5e32134c2be981e0bc1579f2250b085060025486600960008d81526020019081526020016000206003015486888b60405161111f96959493929190611fe0565b60405180910390a350505050505050565b60008060009054906101000a900473ffffffffffffffffffffffffffffffffffffffff169050816000806101000a81548173ffffffffffffffffffffffffffffffffffffffff021916908373ffffffffffffffffffffffffffffffffffffffff1602179055508173ffffffffffffffffffffffffffffffffffffffff168173ffffffffffffffffffffffffffffffffffffffff167f8be0079c531659141344cd1fd0a4f28419497f9722a3daafe3b4186f6b6457e060405160405180910390a35050565b60008061120083611208565b119050919050565b600080600090505b6008805490508110156113025760006008828154811061123357611232611dfb565b5b9060005260206000200154905080600160009054906101000a900473ffffffffffffffffffffffffffffffffffffffff1673ffffffffffffffffffffffffffffffffffffffff1663dd62ed3e86306040518363ffffffff1660e01b815260040161129e929190612041565b602060405180830381865afa1580156112bb573d6000803e3d6000fd5b505050506040513d601f19601f820116820180604052508101906112df91906117c0565b106112ee578092505050611308565b5080806112fa90611eb9565b915050611210565b50600090505b919050565b600033905090565b600080670de0b6b3a7640000838561132d9190611f01565b6113379190611f43565b90508091505092915050565b6000819050919050565b61135681611343565b82525050565b6000602082019050611371600083018461134d565b92915050565b6000604051905090565b600080fd5b600080fd5b61139481611343565b811461139f57600080fd5b50565b6000813590506113b18161138b565b92915050565b6000602082840312156113cd576113cc611381565b5b60006113db848285016113a2565b91505092915050565b600080fd5b6000601f19601f8301169050919050565b7f4e487b7100000000000000000000000000000000000000000000000000000000600052604160045260246000fd5b611432826113e9565b810181811067ffffffffffffffff82111715611451576114506113fa565b5b80604052505050565b6000611464611377565b90506114708282611429565b919050565b600067ffffffffffffffff8211156114905761148f6113fa565b5b602082029050602081019050919050565b600080fd5b60006114b96114b484611475565b61145a565b905080838252602082019050602084028301858111156114dc576114db6114a1565b5b835b8181101561150557806114f188826113a2565b8452602084019350506020810190506114de565b5050509392505050565b600082601f830112611524576115236113e4565b5b81356115348482602086016114a6565b91505092915050565b6000806040838503121561155457611553611381565b5b6000611562858286016113a2565b925050602083013567ffffffffffffffff81111561158357611582611386565b5b61158f8582860161150f565b9150509250929050565b600073ffffffffffffffffffffffffffffffffffffffff82169050919050565b60006115c482611599565b9050919050565b6115d4816115b9565b82525050565b60008115159050919050565b6115ef816115da565b82525050565b600060e08201905061160a600083018a61134d565b611617602083018961134d565b61162460408301886115cb565b61163160608301876115e6565b61163e60808301866115e6565b61164b60a08301856115e6565b61165860c083018461134d565b98975050505050505050565b600060208201905061167960008301846115cb565b92915050565b611688816115da565b811461169357600080fd5b50565b6000813590506116a58161167f565b92915050565b6000602082840312156116c1576116c0611381565b5b60006116cf84828501611696565b91505092915050565b6000819050919050565b60006116fd6116f86116f384611599565b6116d8565b611599565b9050919050565b600061170f826116e2565b9050919050565b600061172182611704565b9050919050565b61173181611716565b82525050565b600060208201905061174c6000830184611728565b92915050565b61175b816115b9565b811461176657600080fd5b50565b60008135905061177881611752565b92915050565b60006020828403121561179457611793611381565b5b60006117a284828501611769565b91505092915050565b6000815190506117ba8161138b565b92915050565b6000602082840312156117d6576117d5611381565b5b60006117e4848285016117ab565b91505092915050565b600082825260208201905092915050565b7f4f6e6c79205652462063616e2066756c66696c6c000000000000000000000000600082015250565b60006118346014836117ed565b915061183f826117fe565b602082019050919050565b6000602082019050818103600083015261186381611827565b9050919050565b7f436f6e74726163742062616c616e636520697320656d7074792e000000000000600082015250565b60006118a0601a836117ed565b91506118ab8261186a565b602082019050919050565b600060208201905081810360008301526118cf81611893565b9050919050565b60006040820190506118eb60008301856115cb565b6118f8602083018461134d565b9392505050565b60008151905061190e8161167f565b92915050565b60006020828403121561192a57611929611381565b5b6000611938848285016118ff565b91505092915050565b7f5769746864726177616c206661696c6564000000000000000000000000000000600082015250565b60006119776011836117ed565b915061198282611941565b602082019050919050565b600060208201905081810360008301526119a68161196a565b9050919050565b60006060820190506119c260008301866115cb565b6119cf60208301856115cb565b6119dc604083018461134d565b949350505050565b7f546f702d7570206661696c656400000000000000000000000000000000000000600082015250565b6000611a1a600d836117ed565b9150611a25826119e4565b602082019050919050565b60006020820190508181036000830152611a4981611a0d565b9050919050565b7f506c656173652073656e6420636f727265637420616d6f756e7420746f20706c60008201527f6179207468652067616d652e0000000000000000000000000000000000000000602082015250565b6000611aac602c836117ed565b9150611ab782611a50565b604082019050919050565b60006020820190508181036000830152611adb81611a9f565b9050919050565b7f546f6b656e207472616e73666572206661696c65640000000000000000000000600082015250565b6000611b186015836117ed565b9150611b2382611ae2565b602082019050919050565b60006020820190508181036000830152611b4781611b0b565b9050919050565b6000819050919050565b6000819050919050565b60008160001b9050919050565b6000611b8a611b85611b8084611b4e565b611b62565b611b58565b9050919050565b611b9a81611b6f565b82525050565b600067ffffffffffffffff82169050919050565b6000611bcf611bca611bc584611b4e565b6116d8565b611ba0565b9050919050565b611bdf81611bb4565b82525050565b6000819050919050565b600061ffff82169050919050565b6000611c18611c13611c0e84611be5565b6116d8565b611bef565b9050919050565b611c2881611bfd565b82525050565b6000819050919050565b600063ffffffff82169050919050565b6000611c63611c5e611c5984611c2e565b6116d8565b611c38565b9050919050565b611c7381611c48565b82525050565b6000611c94611c8f611c8a84611be5565b6116d8565b611c38565b9050919050565b611ca481611c79565b82525050565b600060a082019050611cbf6000830188611b91565b611ccc6020830187611bd6565b611cd96040830186611c1f565b611ce66060830185611c6a565b611cf36080830184611c9b565b9695505050505050565b7f4f776e61626c653a206e6577206f776e657220697320746865207a65726f206160008201527f6464726573730000000000000000000000000000000000000000000000000000602082015250565b6000611d596026836117ed565b9150611d6482611cfd565b604082019050919050565b60006020820190508181036000830152611d8881611d4c565b9050919050565b7f4f776e61626c653a2063616c6c6572206973206e6f7420746865206f776e6572600082015250565b6000611dc56020836117ed565b9150611dd082611d8f565b602082019050919050565b60006020820190508181036000830152611df481611db8565b9050919050565b7f4e487b7100000000000000000000000000000000000000000000000000000000600052603260045260246000fd5b7f4e487b7100000000000000000000000000000000000000000000000000000000600052601260045260246000fd5b6000611e6482611343565b9150611e6f83611343565b925082611e7f57611e7e611e2a565b5b828206905092915050565b7f4e487b7100000000000000000000000000000000000000000000000000000000600052601160045260246000fd5b6000611ec482611343565b91507fffffffffffffffffffffffffffffffffffffffffffffffffffffffffffffffff8203611ef657611ef5611e8a565b5b600182019050919050565b6000611f0c82611343565b9150611f1783611343565b9250828202611f2581611343565b91508282048414831517611f3c57611f3b611e8a565b5b5092915050565b6000611f4e82611343565b9150611f5983611343565b925082611f6957611f68611e2a565b5b828204905092915050565b7f57696e6e696e6773207472616e73666572206661696c65640000000000000000600082015250565b6000611faa6018836117ed565b9150611fb582611f74565b602082019050919050565b60006020820190508181036000830152611fd981611f9d565b9050919050565b600060c082019050611ff5600083018961134d565b61200260208301886115e6565b61200f604083018761134d565b61201c606083018661134d565b61202960808301856115e6565b61203660a08301846115e6565b979650505050505050565b600060408201905061205660008301856115cb565b61206360208301846115cb565b939250505056fea2646970667358221220d952f47361b10d34aad100fd5e08502c022871699723198e5ad9114105b303d364736f6c63430008130033",
  "linkReferences": {},
  "deployedLinkReferences": {}
}