{
  "_format": "hh-sol-artifact-1",
  "contractName": "MockVRFCoordinatorV2Simple",
  "sourceName": "contracts/MockVRFCoordinatorV2Simple.sol",
  "abi": [
    {
      "inputs": [
        {
          "internalType": "uint256",
          "name": "requestId",
          "type": "uint256"
        }
      ],
      "name": "fulfillRandomWords",
      "outputs": [],
      "stateMutability": "nonpayable",
      "type": "function"
    },
    {
      "inputs": [
        {
          "internalType": "bytes32",
          "name": "",
          "type": "bytes32"
        },
        {
          "internalType": "uint64",
          "name": "",
          "type": "uint64"
        },
        {
          "internalType": "uint16",
          "name": "",
          "type": "uint16"
        },
        {
          "internalType": "uint32",
          "name": "",
          "type": "uint32"
        },
        {
          "internalType": "uint32",
          "name": "",
          "type": "uint32"
        }
      ],
      "name": "requestRandomWords",
      "outputs": [
        {
          "internalType": "uint256",
          "name": "requestId",
          "type": "uint256"
        }
      ],
      "stateMutability": "nonpayable",
      "type": "function"
    }
  ],
  "bytecode": "0x60806040526000805534801561001457600080fd5b50610cdf806100246000396000f3fe608060405234801561001057600080fd5b50600436106100365760003560e01c80635d3b1d301461003b578063d6100d1c1461006b575b600080fd5b61005560048036038101906100509190610651565b610087565b60405161006291906106e5565b60405180910390f35b6100856004803603810190610080919061072c565b610233565b005b600080600081548092919061009b90610788565b9190505590506000600167ffffffffffffffff8111156100be576100bd6107d0565b5b6040519080825280602002602001820160405280156100ec5781602001602082028036833780820191505090505b5090504243338460015460014361010391906107ff565b40604051602001610119969594939291906108ef565b6040516020818303038152906040528051906020012060001c6001819055506001548160008151811061014f5761014e61095f565b5b60200260200101818152505060405180606001604052803373ffffffffffffffffffffffffffffffffffffffff168152602001828152602001600015158152506002600084815260200190815260200160002060008201518160000160006101000a81548173ffffffffffffffffffffffffffffffffffffffff021916908373ffffffffffffffffffffffffffffffffffffffff16021790555060208201518160010190805190602001906102059291906104f6565b5060408201518160020160006101000a81548160ff0219169083151502179055509050505095945050505050565b6002600082815260200190815260200160002060020160009054906101000a900460ff1615610297576040517f08c379a000000000000000000000000000000000000000000000000000000000815260040161028e906109eb565b60405180910390fd5b600073ffffffffffffffffffffffffffffffffffffffff166002600083815260200190815260200160002060000160009054906101000a900473ffffffffffffffffffffffffffffffffffffffff1673ffffffffffffffffffffffffffffffffffffffff160361033c576040517f08c379a000000000000000000000000000000000000000000000000000000000815260040161033390610a57565b60405180910390fd5b60016002600083815260200190815260200160002060020160006101000a81548160ff02191690831515021790555060006002600083815260200190815260200160002060000160009054906101000a900473ffffffffffffffffffffffffffffffffffffffff1673ffffffffffffffffffffffffffffffffffffffff1682600260008581526020019081526020016000206001016040516024016103e2929190610b85565b6040516020818303038152906040527f1fe543e3000000000000000000000000000000000000000000000000000000007bffffffffffffffffffffffffffffffffffffffffffffffffffffffff19166020820180517bffffffffffffffffffffffffffffffffffffffffffffffffffffffff838183161783525050505060405161046c9190610c26565b6000604051808303816000865af19150503d80600081146104a9576040519150601f19603f3d011682016040523d82523d6000602084013e6104ae565b606091505b50509050806104f2576040517f08c379a00000000000000000000000000000000000000000000000000000000081526004016104e990610c89565b60405180910390fd5b5050565b828054828255906000526020600020908101928215610532579160200282015b82811115610531578251825591602001919060010190610516565b5b50905061053f9190610543565b5090565b5b8082111561055c576000816000905550600101610544565b5090565b600080fd5b6000819050919050565b61057881610565565b811461058357600080fd5b50565b6000813590506105958161056f565b92915050565b600067ffffffffffffffff82169050919050565b6105b88161059b565b81146105c357600080fd5b50565b6000813590506105d5816105af565b92915050565b600061ffff82169050919050565b6105f2816105db565b81146105fd57600080fd5b50565b60008135905061060f816105e9565b92915050565b600063ffffffff82169050919050565b61062e81610615565b811461063957600080fd5b50565b60008135905061064b81610625565b92915050565b600080600080600060a0868803121561066d5761066c610560565b5b600061067b88828901610586565b955050602061068c888289016105c6565b945050604061069d88828901610600565b93505060606106ae8882890161063c565b92505060806106bf8882890161063c565b9150509295509295909350565b6000819050919050565b6106df816106cc565b82525050565b60006020820190506106fa60008301846106d6565b92915050565b610709816106cc565b811461071457600080fd5b50565b60008135905061072681610700565b92915050565b60006020828403121561074257610741610560565b5b600061075084828501610717565b91505092915050565b7f4e487b7100000000000000000000000000000000000000000000000000000000600052601160045260246000fd5b6000610793826106cc565b91507fffffffffffffffffffffffffffffffffffffffffffffffffffffffffffffffff82036107c5576107c4610759565b5b600182019050919050565b7f4e487b7100000000000000000000000000000000000000000000000000000000600052604160045260246000fd5b600061080a826106cc565b9150610815836106cc565b925082820390508181111561082d5761082c610759565b5b92915050565b6000819050919050565b61084e610849826106cc565b610833565b82525050565b600073ffffffffffffffffffffffffffffffffffffffff82169050919050565b600061087f82610854565b9050919050565b60008160601b9050919050565b600061089e82610886565b9050919050565b60006108b082610893565b9050919050565b6108c86108c382610874565b6108a5565b82525050565b6000819050919050565b6108e96108e482610565565b6108ce565b82525050565b60006108fb828961083d565b60208201915061090b828861083d565b60208201915061091b82876108b7565b60148201915061092b828661083d565b60208201915061093b828561083d565b60208201915061094b82846108d8565b602082019150819050979650505050505050565b7f4e487b7100000000000000000000000000000000000000000000000000000000600052603260045260246000fd5b600082825260208201905092915050565b7f5265717565737420616c72656164792066756c66696c6c656400000000000000600082015250565b60006109d560198361098e565b91506109e08261099f565b602082019050919050565b60006020820190508181036000830152610a04816109c8565b9050919050565b7f5265717565737420646f6573206e6f7420657869737400000000000000000000600082015250565b6000610a4160168361098e565b9150610a4c82610a0b565b602082019050919050565b60006020820190508181036000830152610a7081610a34565b9050919050565b600081549050919050565b600082825260208201905092915050565b60008190508160005260206000209050919050565b610ab1816106cc565b82525050565b6000610ac38383610aa8565b60208301905092915050565b60008160001c9050919050565b6000819050919050565b6000610af9610af483610acf565b610adc565b9050919050565b6000610b0c8254610ae6565b9050919050565b6000600182019050919050565b6000610b2b82610a77565b610b358185610a82565b9350610b4083610a93565b8060005b83811015610b7857610b5582610b00565b610b5f8882610ab7565b9750610b6a83610b13565b925050600181019050610b44565b5085935050505092915050565b6000604082019050610b9a60008301856106d6565b8181036020830152610bac8184610b20565b90509392505050565b600081519050919050565b600081905092915050565b60005b83811015610be9578082015181840152602081019050610bce565b60008484015250505050565b6000610c0082610bb5565b610c0a8185610bc0565b9350610c1a818560208601610bcb565b80840191505092915050565b6000610c328284610bf5565b915081905092915050565b7f4d6f636b205652462063616c6c6261636b206661696c65640000000000000000600082015250565b6000610c7360188361098e565b9150610c7e82610c3d565b602082019050919050565b60006020820190508181036000830152610ca281610c66565b905091905056fea2646970667358221220dc445b02d38ed1919ca4fe38e4aa5feb628b658d0c9c70a6d4ce3406f349ddda64736f6c63430008130033",
  "linkReferences": {},
  "deployedLinkReferences": {}
}