{"contracts/HeadOrTailTokenGame.sol":{"HeadOrTailTokenGame":{"abi":[{"inputs":[{"internalType":"address","name":"_vrfCoordinator","type":"address"},{"internalType":"address","name":"_gameTokenAddress","type":"address"}],"stateMutability":"nonpayable","type":"constructor"},{"anonymous":false,"inputs":[{"indexed":true,"internalType":"address","name":"player","type":"address"},{"indexed":true,"internalType":"uint256","name":"requestId","type":"uint256"},{"indexed":false,"internalType":"uint256","name":"gameId","type":"uint256"},{"indexed":false,"internalType":"bool","name":"isWinner","type":"bool"},{"indexed":false,"internalType":"uint256","name":"betAmount","type":"uint256"},{"indexed":false,"internalType":"uint256","name":"amountWon","type":"uint256"},{"indexed":false,"internalType":"bool","name":"bonus","type":"bool"},{"indexed":false,"internalType":"bool","name":"isHead","type":"bool"}],"name":"GameResult","type":"event"},{"anonymous":false,"inputs":[{"indexed":true,"internalType":"address","name":"previousOwner","type":"address"},{"indexed":true,"internalType":"address","name":"newOwner","type":"address"}],"name":"OwnershipTransferred","type":"event"},{"anonymous":false,"inputs":[{"indexed":true,"internalType":"uint256","name":"requestId","type":"uint256"}],"name":"RequestedRandomNumber","type":"event"},{"inputs":[{"internalType":"uint256","name":"","type":"uint256"}],"name":"allowedBetAmounts","outputs":[{"internalType":"uint256","name":"","type":"uint256"}],"stateMutability":"view","type":"function"},{"inputs":[{"internalType":"uint256","name":"","type":"uint256"}],"name":"gameStatus","outputs":[{"internalType":"uint256","name":"fees","type":"uint256"},{"internalType":"uint256","name":"randomWord","type":"uint256"},{"internalType":"address","name":"player","type":"address"},{"internalType":"bool","name":"isWinner","type":"bool"},{"internalType":"bool","name":"fulfilled","type":"bool"},{"internalType":"bool","name":"isHead","type":"bool"},{"internalType":"uint256","name":"betAmount","type":"uint256"}],"stateMutability":"view","type":"function"},{"inputs":[],"name":"gameToken","outputs":[{"internalType":"contract IERC20","name":"","type":"address"}],"stateMutability":"view","type":"function"},{"inputs":[],"name":"getBalance","outputs":[{"internalType":"uint256","name":"","type":"uint256"}],"stateMutability":"view","type":"function"},{"inputs":[],"name":"getBonus","outputs":[{"internalType":"uint256","name":"","type":"uint256"}],"stateMutability":"view","type":"function"},{"inputs":[],"name":"getRtp","outputs":[{"internalType":"uint256","name":"","type":"uint256"}],"stateMutability":"view","type":"function"},{"inputs":[],"name":"getTotalHead","outputs":[{"internalType":"uint256","name":"","type":"uint256"}],"stateMutability":"view","type":"function"},{"inputs":[],"name":"getTotalTail","outputs":[{"internalType":"uint256","name":"","type":"uint256"}],"stateMutability":"view","type":"function"},{"inputs":[],"name":"getVRFCoordinator","outputs":[{"internalType":"address","name":"","type":"address"}],"stateMutability":"view","type":"function"},{"inputs":[],"name":"owner","outputs":[{"internalType":"address","name":"","type":"address"}],"stateMutability":"view","type":"function"},{"inputs":[{"internalType":"bool","name":"choice","type":"bool"}],"name":"play","outputs":[{"internalType":"uint256","name":"","type":"uint256"}],"stateMutability":"nonpayable","type":"function"},{"inputs":[{"internalType":"uint256","name":"requestId","type":"uint256"},{"internalType":"uint256[]","name":"randomWords","type":"uint256[]"}],"name":"rawFulfillRandomWords","outputs":[],"stateMutability":"nonpayable","type":"function"},{"inputs":[],"name":"renounceOwnership","outputs":[],"stateMutability":"nonpayable","type":"function"},{"inputs":[{"internalType":"uint256","name":"_bonus","type":"uint256"}],"name":"setBonus","outputs":[],"stateMutability":"nonpayable","type":"function"},{"inputs":[{"internalType":"uint256","name":"_rtp","type":"uint256"}],"name":"setRtp","outputs":[],"stateMutability":"nonpayable","type":"function"},{"inputs":[{"internalType":"uint256","name":"amount","type":"uint256"}],"name":"topUpBalance","outputs":[],"stateMutability":"nonpayable","type":"function"},{"inputs":[{"internalType":"address","name":"newOwner","type":"address"}],"name":"transferOwnership","outputs":[],"stateMutability":"nonpayable","type":"function"},{"inputs":[],"name":"withdrawFunds","outputs":[],"stateMutability":"nonpayable","type":"function"}],"evm":{"bytecode":{"linkReferences":{},"object":"60a06040526011600355601660045560046005553480156200002057600080fd5b506040516200243b3803806200243b83398181016040528101906200004691906200032a565b620000666200005a6200017760201b60201c565b6200017f60201b60201c565b8173ffffffffffffffffffffffffffffffffffffffff1660808173ffffffffffffffffffffffffffffffffffffffff168152505080600160006101000a81548173ffffffffffffffffffffffffffffffffffffffff021916908373ffffffffffffffffffffffffffffffffffffffff1602179055506040518060a0016040528067016345785d8a000067ffffffffffffffff1681526020016702c68af0bb14000067ffffffffffffffff168152602001670429d069189e000067ffffffffffffffff16815260200167058d15e17628000067ffffffffffffffff1681526020016706f05b59d3b2000067ffffffffffffffff1681525060089060056200016e92919062000243565b50505062000371565b600033905090565b60008060009054906101000a900473ffffffffffffffffffffffffffffffffffffffff169050816000806101000a81548173ffffffffffffffffffffffffffffffffffffffff021916908373ffffffffffffffffffffffffffffffffffffffff1602179055508173ffffffffffffffffffffffffffffffffffffffff168173ffffffffffffffffffffffffffffffffffffffff167f8be0079c531659141344cd1fd0a4f28419497f9722a3daafe3b4186f6b6457e060405160405180910390a35050565b8280548282559060005260206000209081019282156200028e579160200282015b828111156200028d578251829067ffffffffffffffff1690559160200191906001019062000264565b5b5090506200029d9190620002a1565b5090565b5b80821115620002bc576000816000905550600101620002a2565b5090565b600080fd5b600073ffffffffffffffffffffffffffffffffffffffff82169050919050565b6000620002f282620002c5565b9050919050565b6200030481620002e5565b81146200031057600080fd5b50565b6000815190506200032481620002f9565b92915050565b60008060408385031215620003445762000343620002c0565b5b6000620003548582860162000313565b9250506020620003678582860162000313565b9150509250929050565b6080516120a06200039b6000396000818161040201528181610744015261099201526120a06000f3fe608060405234801561001057600080fd5b50600436106101165760003560e01c8063a378f371116100a2578063c3dfdae611610071578063c3dfdae61461029d578063c5f22083146102bb578063c9e2774c146102d9578063f2fde38b14610309578063f303773e1461032557610116565b8063a378f37114610215578063a635392d14610233578063b62aaa211461024f578063c23c87d51461026d57610116565b806324600fc3116100e957806324600fc31461018f57806334239c9c14610199578063715018a6146101cf5780638bdff161146101d95780638da5cb5b146101f757610116565b80630b023a231461011b5780630b98f9751461013957806312065fe0146101555780631fe543e314610173575b600080fd5b610123610341565b604051610130919061135c565b60405180910390f35b610153600480360381019061014e91906113b7565b61034b565b005b61015d61035d565b60405161016a919061135c565b60405180910390f35b61018d6004803603810190610188919061153d565b610400565b005b61019761049c565b005b6101b360048036038101906101ae91906113b7565b610670565b6040516101c697969594939291906115f5565b60405180910390f35b6101d76106f9565b005b6101e161070d565b6040516101ee919061135c565b60405180910390f35b6101ff610717565b60405161020c9190611664565b60405180910390f35b61021d610740565b60405161022a9190611664565b60405180910390f35b61024d600480360381019061024891906113b7565b610768565b005b61025761084c565b604051610264919061135c565b60405180910390f35b610287600480360381019061028291906116ab565b610856565b604051610294919061135c565b60405180910390f35b6102a5610ba1565b6040516102b29190611737565b60405180910390f35b6102c3610bc7565b6040516102d0919061135c565b60405180910390f35b6102f360048036038101906102ee91906113b7565b610bd1565b604051610300919061135c565b60405180910390f35b610323600480360381019061031e919061177e565b610bf5565b005b61033f600480360381019061033a91906113b7565b610c78565b005b6000600754905090565b610353610c8a565b8060048190555050565b6000600160009054906101000a900473ffffffffffffffffffffffffffffffffffffffff1673ffffffffffffffffffffffffffffffffffffffff166370a08231306040518263ffffffff1660e01b81526004016103ba9190611664565b602060405180830381865afa1580156103d7573d6000803e3d6000fd5b505050506040513d601f19601f820116820180604052508101906103fb91906117c0565b905090565b7f000000000000000000000000000000000000000000000000000000000000000073ffffffffffffffffffffffffffffffffffffffff163373ffffffffffffffffffffffffffffffffffffffff161461048e576040517f08c379a00000000000000000000000000000000000000000000000000000000081526004016104859061184a565b60405180910390fd5b6104988282610d08565b5050565b6104a4610c8a565b6000600160009054906101000a900473ffffffffffffffffffffffffffffffffffffffff1673ffffffffffffffffffffffffffffffffffffffff166370a08231306040518263ffffffff1660e01b81526004016105019190611664565b602060405180830381865afa15801561051e573d6000803e3d6000fd5b505050506040513d601f19601f8201168201806040525081019061054291906117c0565b905060008111610587576040517f08c379a000000000000000000000000000000000000000000000000000000000815260040161057e906118b6565b60405180910390fd5b600160009054906101000a900473ffffffffffffffffffffffffffffffffffffffff1673ffffffffffffffffffffffffffffffffffffffff1663a9059cbb6105cd610717565b836040518363ffffffff1660e01b81526004016105eb9291906118d6565b6020604051808303816000875af115801561060a573d6000803e3d6000fd5b505050506040513d601f19601f8201168201806040525081019061062e9190611914565b61066d576040517f08c379a00000000000000000000000000000000000000000000000000000000081526004016106649061198d565b60405180910390fd5b50565b60096020528060005260406000206000915090508060000154908060010154908060020160009054906101000a900473ffffffffffffffffffffffffffffffffffffffff16908060020160149054906101000a900460ff16908060020160159054906101000a900460ff16908060020160169054906101000a900460ff16908060030154905087565b610701610c8a565b61070b6000611130565b565b6000600454905090565b60008060009054906101000a900473ffffffffffffffffffffffffffffffffffffffff16905090565b60007f0000000000000000000000000000000000000000000000000000000000000000905090565b600160009054906101000a900473ffffffffffffffffffffffffffffffffffffffff1673ffffffffffffffffffffffffffffffffffffffff166323b872dd3330846040518463ffffffff1660e01b81526004016107c7939291906119ad565b6020604051808303816000875af11580156107e6573d6000803e3d6000fd5b505050506040513d601f19601f8201168201806040525081019061080a9190611914565b610849576040517f08c379a000000000000000000000000000000000000000000000000000000000815260040161084090611a30565b60405180910390fd5b50565b6000600354905090565b6000610861336111f4565b6108a0576040517f08c379a000000000000000000000000000000000000000000000000000000000815260040161089790611ac2565b60405180910390fd5b60006108ab33611208565b9050600160009054906101000a900473ffffffffffffffffffffffffffffffffffffffff1673ffffffffffffffffffffffffffffffffffffffff166323b872dd3330846040518463ffffffff1660e01b815260040161090c939291906119ad565b6020604051808303816000875af115801561092b573d6000803e3d6000fd5b505050506040513d601f19601f8201168201806040525081019061094f9190611914565b61098e576040517f08c379a000000000000000000000000000000000000000000000000000000000815260040161098590611b2e565b60405180910390fd5b60007f000000000000000000000000000000000000000000000000000000000000000073ffffffffffffffffffffffffffffffffffffffff16635d3b1d306000806001620186a060016040518663ffffffff1660e01b81526004016109f7959493929190611caa565b6020604051808303816000875af1158015610a16573d6000803e3d6000fd5b505050506040513d601f19601f82011682018060405250810190610a3a91906117c0565b90506040518060e0016040528060008152602001600081526020013373ffffffffffffffffffffffffffffffffffffffff16815260200160001515815260200160001515815260200185151581526020018381525060096000838152602001908152602001600020600082015181600001556020820151816001015560408201518160020160006101000a81548173ffffffffffffffffffffffffffffffffffffffff021916908373ffffffffffffffffffffffffffffffffffffffff16021790555060608201518160020160146101000a81548160ff02191690831515021790555060808201518160020160156101000a81548160ff02191690831515021790555060a08201518160020160166101000a81548160ff02191690831515021790555060c08201518160030155905050807f28a75f9a78cd502748cecc04795531fd051165f83e4be1270400ac7130873e2e60405160405180910390a28092505050919050565b600160009054906101000a900473ffffffffffffffffffffffffffffffffffffffff1681565b6000600654905090565b60088181548110610be157600080fd5b906000526020600020016000915090505481565b610bfd610c8a565b600073ffffffffffffffffffffffffffffffffffffffff168173ffffffffffffffffffffffffffffffffffffffff1603610c6c576040517f08c379a0000000000000000000000000000000000000000000000000000000008152600401610c6390611d6f565b60405180910390fd5b610c7581611130565b50565b610c80610c8a565b8060038190555050565b610c9261130d565b73ffffffffffffffffffffffffffffffffffffffff16610cb0610717565b73ffffffffffffffffffffffffffffffffffffffff1614610d06576040517f08c379a0000000000000000000000000000000000000000000000000000000008152600401610cfd90611ddb565b60405180910390fd5b565b60016009600084815260200190815260200160002060020160156101000a81548160ff02191690831515021790555080600081518110610d4b57610d4a611dfb565b5b602002602001015160096000848152602001908152602001600020600101819055506000606482600081518110610d8557610d84611dfb565b5b6020026020010151610d979190611e59565b9050600080600283610da99190611e59565b14905060006009600086815260200190815260200160002060020160169054906101000a900460ff16151582151514905060006005548410905082610e045760076000815480929190610dfb90611eb9565b91905055610e1c565b60066000815480929190610e1790611eb9565b919050555b506000821561106857610e746009600089815260200190815260200160002060030154600a84610e4e57600354610e52565b6004545b670de0b6b3a7640000610e659190611f01565b610e6f9190611f43565b611315565b90506000600160009054906101000a900473ffffffffffffffffffffffffffffffffffffffff1673ffffffffffffffffffffffffffffffffffffffff166370a08231306040518263ffffffff1660e01b8152600401610ed39190611664565b602060405180830381865afa158015610ef0573d6000803e3d6000fd5b505050506040513d601f19601f82011682018060405250810190610f1491906117c0565b905080821115610f22578091505b6001600960008a815260200190815260200160002060020160146101000a81548160ff021916908315150217905550600160009054906101000a900473ffffffffffffffffffffffffffffffffffffffff1673ffffffffffffffffffffffffffffffffffffffff1663a9059cbb600960008b815260200190815260200160002060020160009054906101000a900473ffffffffffffffffffffffffffffffffffffffff16846040518363ffffffff1660e01b8152600401610fe49291906118d6565b6020604051808303816000875af1158015611003573d6000803e3d6000fd5b505050506040513d601f19601f820116820180604052508101906110279190611914565b611066576040517f08c379a000000000000000000000000000000000000000000000000000000000815260040161105d90611fc0565b60405180910390fd5b505b6002600081548092919061107b90611eb9565b9190505550866009600089815260200190815260200160002060020160009054906101000a900473ffffffffffffffffffffffffffffffffffffffff1673ffffffffffffffffffffffffffffffffffffffff167f3fceb718577531f659be1037b1dd265e5e32134c2be981e0bc1579f2250b085060025486600960008d81526020019081526020016000206003015486888b60405161111f96959493929190611fe0565b60405180910390a350505050505050565b60008060009054906101000a900473ffffffffffffffffffffffffffffffffffffffff169050816000806101000a81548173ffffffffffffffffffffffffffffffffffffffff021916908373ffffffffffffffffffffffffffffffffffffffff1602179055508173ffffffffffffffffffffffffffffffffffffffff168173ffffffffffffffffffffffffffffffffffffffff167f8be0079c531659141344cd1fd0a4f28419497f9722a3daafe3b4186f6b6457e060405160405180910390a35050565b60008061120083611208565b119050919050565b600080600090505b6008805490508110156113025760006008828154811061123357611232611dfb565b5b9060005260206000200154905080600160009054906101000a900473ffffffffffffffffffffffffffffffffffffffff1673ffffffffffffffffffffffffffffffffffffffff1663dd62ed3e86306040518363ffffffff1660e01b815260040161129e929190612041565b602060405180830381865afa1580156112bb573d6000803e3d6000fd5b505050506040513d601f19601f820116820180604052508101906112df91906117c0565b106112ee578092505050611308565b5080806112fa90611eb9565b915050611210565b50600090505b919050565b600033905090565b600080670de0b6b3a7640000838561132d9190611f01565b6113379190611f43565b90508091505092915050565b6000819050919050565b61135681611343565b82525050565b6000602082019050611371600083018461134d565b92915050565b6000604051905090565b600080fd5b600080fd5b61139481611343565b811461139f57600080fd5b50565b6000813590506113b18161138b565b92915050565b6000602082840312156113cd576113cc611381565b5b60006113db848285016113a2565b91505092915050565b600080fd5b6000601f19601f8301169050919050565b7f4e487b7100000000000000000000000000000000000000000000000000000000600052604160045260246000fd5b611432826113e9565b810181811067ffffffffffffffff82111715611451576114506113fa565b5b80604052505050565b6000611464611377565b90506114708282611429565b919050565b600067ffffffffffffffff8211156114905761148f6113fa565b5b602082029050602081019050919050565b600080fd5b60006114b96114b484611475565b61145a565b905080838252602082019050602084028301858111156114dc576114db6114a1565b5b835b8181101561150557806114f188826113a2565b8452602084019350506020810190506114de565b5050509392505050565b600082601f830112611524576115236113e4565b5b81356115348482602086016114a6565b91505092915050565b6000806040838503121561155457611553611381565b5b6000611562858286016113a2565b925050602083013567ffffffffffffffff81111561158357611582611386565b5b61158f8582860161150f565b9150509250929050565b600073ffffffffffffffffffffffffffffffffffffffff82169050919050565b60006115c482611599565b9050919050565b6115d4816115b9565b82525050565b60008115159050919050565b6115ef816115da565b82525050565b600060e08201905061160a600083018a61134d565b611617602083018961134d565b61162460408301886115cb565b61163160608301876115e6565b61163e60808301866115e6565b61164b60a08301856115e6565b61165860c083018461134d565b98975050505050505050565b600060208201905061167960008301846115cb565b92915050565b611688816115da565b811461169357600080fd5b50565b6000813590506116a58161167f565b92915050565b6000602082840312156116c1576116c0611381565b5b60006116cf84828501611696565b91505092915050565b6000819050919050565b60006116fd6116f86116f384611599565b6116d8565b611599565b9050919050565b600061170f826116e2565b9050919050565b600061172182611704565b9050919050565b61173181611716565b82525050565b600060208201905061174c6000830184611728565b92915050565b61175b816115b9565b811461176657600080fd5b50565b60008135905061177881611752565b92915050565b60006020828403121561179457611793611381565b5b60006117a284828501611769565b91505092915050565b6000815190506117ba8161138b565b92915050565b6000602082840312156117d6576117d5611381565b5b60006117e4848285016117ab565b91505092915050565b600082825260208201905092915050565b7f4f6e6c79205652462063616e2066756c66696c6c000000000000000000000000600082015250565b60006118346014836117ed565b915061183f826117fe565b602082019050919050565b6000602082019050818103600083015261186381611827565b9050919050565b7f436f6e74726163742062616c616e636520697320656d7074792e000000000000600082015250565b60006118a0601a836117ed565b91506118ab8261186a565b602082019050919050565b600060208201905081810360008301526118cf81611893565b9050919050565b60006040820190506118eb60008301856115cb565b6118f8602083018461134d565b9392505050565b60008151905061190e8161167f565b92915050565b60006020828403121561192a57611929611381565b5b6000611938848285016118ff565b91505092915050565b7f5769746864726177616c206661696c6564000000000000000000000000000000600082015250565b60006119776011836117ed565b915061198282611941565b602082019050919050565b600060208201905081810360008301526119a68161196a565b9050919050565b60006060820190506119c260008301866115cb565b6119cf60208301856115cb565b6119dc604083018461134d565b949350505050565b7f546f702d7570206661696c656400000000000000000000000000000000000000600082015250565b6000611a1a600d836117ed565b9150611a25826119e4565b602082019050919050565b60006020820190508181036000830152611a4981611a0d565b9050919050565b7f506c656173652073656e6420636f727265637420616d6f756e7420746f20706c60008201527f6179207468652067616d652e0000000000000000000000000000000000000000602082015250565b6000611aac602c836117ed565b9150611ab782611a50565b604082019050919050565b60006020820190508181036000830152611adb81611a9f565b9050919050565b7f546f6b656e207472616e73666572206661696c65640000000000000000000000600082015250565b6000611b186015836117ed565b9150611b2382611ae2565b602082019050919050565b60006020820190508181036000830152611b4781611b0b565b9050919050565b6000819050919050565b6000819050919050565b60008160001b9050919050565b6000611b8a611b85611b8084611b4e565b611b62565b611b58565b9050919050565b611b9a81611b6f565b82525050565b600067ffffffffffffffff82169050919050565b6000611bcf611bca611bc584611b4e565b6116d8565b611ba0565b9050919050565b611bdf81611bb4565b82525050565b6000819050919050565b600061ffff82169050919050565b6000611c18611c13611c0e84611be5565b6116d8565b611bef565b9050919050565b611c2881611bfd565b82525050565b6000819050919050565b600063ffffffff82169050919050565b6000611c63611c5e611c5984611c2e565b6116d8565b611c38565b9050919050565b611c7381611c48565b82525050565b6000611c94611c8f611c8a84611be5565b6116d8565b611c38565b9050919050565b611ca481611c79565b82525050565b600060a082019050611cbf6000830188611b91565b611ccc6020830187611bd6565b611cd96040830186611c1f565b611ce66060830185611c6a565b611cf36080830184611c9b565b9695505050505050565b7f4f776e61626c653a206e6577206f776e657220697320746865207a65726f206160008201527f6464726573730000000000000000000000000000000000000000000000000000602082015250565b6000611d596026836117ed565b9150611d6482611cfd565b604082019050919050565b60006020820190508181036000830152611d8881611d4c565b9050919050565b7f4f776e61626c653a2063616c6c6572206973206e6f7420746865206f776e6572600082015250565b6000611dc56020836117ed565b9150611dd082611d8f565b602082019050919050565b60006020820190508181036000830152611df481611db8565b9050919050565b7f4e487b7100000000000000000000000000000000000000000000000000000000600052603260045260246000fd5b7f4e487b7100000000000000000000000000000000000000000000000000000000600052601260045260246000fd5b6000611e6482611343565b9150611e6f83611343565b925082611e7f57611e7e611e2a565b5b828206905092915050565b7f4e487b7100000000000000000000000000000000000000000000000000000000600052601160045260246000fd5b6000611ec482611343565b91507fffffffffffffffffffffffffffffffffffffffffffffffffffffffffffffffff8203611ef657611ef5611e8a565b5b600182019050919050565b6000611f0c82611343565b9150611f1783611343565b9250828202611f2581611343565b91508282048414831517611f3c57611f3b611e8a565b5b5092915050565b6000611f4e82611343565b9150611f5983611343565b925082611f6957611f68611e2a565b5b828204905092915050565b7f57696e6e696e6773207472616e73666572206661696c65640000000000000000600082015250565b6000611faa6018836117ed565b9150611fb582611f74565b602082019050919050565b60006020820190508181036000830152611fd981611f9d565b9050919050565b600060c082019050611ff5600083018961134d565b61200260208301886115e6565b61200f604083018761134d565b61201c606083018661134d565b61202960808301856115e6565b61203660a08301846115e6565b979650505050505050565b600060408201905061205660008301856115cb565b61206360208301846115cb565b939250505056fea2646970667358221220d952f47361b10d34aad100fd5e08502c022871699723198e5ad9114105b303d364736f6c63430008130033","opcodes":"PUSH1 0xA0 PUSH1 0x40 MSTORE PUSH1 0x11 PUSH1 0x3 SSTORE PUSH1 0x16 PUSH1 0x4 SSTORE PUSH1 0x4 PUSH1 0x5 SSTORE CALLVALUE DUP1 ISZERO PUSH3 0x20 JUMPI PUSH1 0x0 DUP1 REVERT JUMPDEST POP PUSH1 0x40 MLOAD PUSH3 0x243B CODESIZE SUB DUP1 PUSH3 0x243B DUP4 CODECOPY DUP2 DUP2 ADD PUSH1 0x40 MSTORE DUP2 ADD SWAP1 PUSH3 0x46 SWAP2 SWAP1 PUSH3 0x32A JUMP JUMPDEST PUSH3 0x66 PUSH3 0x5A PUSH3 0x177 PUSH1 0x20 SHL PUSH1 0x20 SHR JUMP JUMPDEST PUSH3 0x17F PUSH1 0x20 SHL PUSH1 0x20 SHR JUMP JUMPDEST DUP2 PUSH20 0xFFFFFFFFFFFFFFFFFFFFFFFFFFFFFFFFFFFFFFFF AND PUSH1 0x80 DUP2 PUSH20 0xFFFFFFFFFFFFFFFFFFFFFFFFFFFFFFFFFFFFFFFF AND DUP2 MSTORE POP POP DUP1 PUSH1 0x1 PUSH1 0x0 PUSH2 0x100 EXP DUP2 SLOAD DUP2 PUSH20 0xFFFFFFFFFFFFFFFFFFFFFFFFFFFFFFFFFFFFFFFF MUL NOT AND SWAP1 DUP4 PUSH20 0xFFFFFFFFFFFFFFFFFFFFFFFFFFFFFFFFFFFFFFFF AND MUL OR SWAP1 SSTORE POP PUSH1 0x40 MLOAD DUP1 PUSH1 0xA0 ADD PUSH1 0x40 MSTORE DUP1 PUSH8 0x16345785D8A0000 PUSH8 0xFFFFFFFFFFFFFFFF AND DUP2 MSTORE PUSH1 0x20 ADD PUSH8 0x2C68AF0BB140000 PUSH8 0xFFFFFFFFFFFFFFFF AND DUP2 MSTORE PUSH1 0x20 ADD PUSH8 0x429D069189E0000 PUSH8 0xFFFFFFFFFFFFFFFF AND DUP2 MSTORE PUSH1 0x20 ADD PUSH8 0x58D15E176280000 PUSH8 0xFFFFFFFFFFFFFFFF AND DUP2 MSTORE PUSH1 0x20 ADD PUSH8 0x6F05B59D3B20000 PUSH8 0xFFFFFFFFFFFFFFFF AND DUP2 MSTORE POP PUSH1 0x8 SWAP1 PUSH1 0x5 PUSH3 0x16E SWAP3 SWAP2 SWAP1 PUSH3 0x243 JUMP JUMPDEST POP POP POP PUSH3 0x371 JUMP JUMPDEST PUSH1 0x0 CALLER SWAP1 POP SWAP1 JUMP JUMPDEST PUSH1 0x0 DUP1 PUSH1 0x0 SWAP1 SLOAD SWAP1 PUSH2 0x100 EXP SWAP1 DIV PUSH20 0xFFFFFFFFFFFFFFFFFFFFFFFFFFFFFFFFFFFFFFFF AND SWAP1 POP DUP2 PUSH1 0x0 DUP1 PUSH2 0x100 EXP DUP2 SLOAD DUP2 PUSH20 0xFFFFFFFFFFFFFFFFFFFFFFFFFFFFFFFFFFFFFFFF MUL NOT AND SWAP1 DUP4 PUSH20 0xFFFFFFFFFFFFFFFFFFFFFFFFFFFFFFFFFFFFFFFF AND MUL OR SWAP1 SSTORE POP DUP2 PUSH20 0xFFFFFFFFFFFFFFFFFFFFFFFFFFFFFFFFFFFFFFFF AND DUP2 PUSH20 0xFFFFFFFFFFFFFFFFFFFFFFFFFFFFFFFFFFFFFFFF AND PUSH32 0x8BE0079C531659141344CD1FD0A4F28419497F9722A3DAAFE3B4186F6B6457E0 PUSH1 0x40 MLOAD PUSH1 0x40 MLOAD DUP1 SWAP2 SUB SWAP1 LOG3 POP POP JUMP JUMPDEST DUP3 DUP1 SLOAD DUP3 DUP3 SSTORE SWAP1 PUSH1 0x0 MSTORE PUSH1 0x20 PUSH1 0x0 KECCAK256 SWAP1 DUP2 ADD SWAP3 DUP3 ISZERO PUSH3 0x28E JUMPI SWAP2 PUSH1 0x20 MUL DUP3 ADD JUMPDEST DUP3 DUP2 GT ISZERO PUSH3 0x28D JUMPI DUP3 MLOAD DUP3 SWAP1 PUSH8 0xFFFFFFFFFFFFFFFF AND SWAP1 SSTORE SWAP2 PUSH1 0x20 ADD SWAP2 SWAP1 PUSH1 0x1 ADD SWAP1 PUSH3 0x264 JUMP JUMPDEST JUMPDEST POP SWAP1 POP PUSH3 0x29D SWAP2 SWAP1 PUSH3 0x2A1 JUMP JUMPDEST POP SWAP1 JUMP JUMPDEST JUMPDEST DUP1 DUP3 GT ISZERO PUSH3 0x2BC JUMPI PUSH1 0x0 DUP2 PUSH1 0x0 SWAP1 SSTORE POP PUSH1 0x1 ADD PUSH3 0x2A2 JUMP JUMPDEST POP SWAP1 JUMP JUMPDEST PUSH1 0x0 DUP1 REVERT JUMPDEST PUSH1 0x0 PUSH20 0xFFFFFFFFFFFFFFFFFFFFFFFFFFFFFFFFFFFFFFFF DUP3 AND SWAP1 POP SWAP2 SWAP1 POP JUMP JUMPDEST PUSH1 0x0 PUSH3 0x2F2 DUP3 PUSH3 0x2C5 JUMP JUMPDEST SWAP1 POP SWAP2 SWAP1 POP JUMP JUMPDEST PUSH3 0x304 DUP2 PUSH3 0x2E5 JUMP JUMPDEST DUP2 EQ PUSH3 0x310 JUMPI PUSH1 0x0 DUP1 REVERT JUMPDEST POP JUMP JUMPDEST PUSH1 0x0 DUP2 MLOAD SWAP1 POP PUSH3 0x324 DUP2 PUSH3 0x2F9 JUMP JUMPDEST SWAP3 SWAP2 POP POP JUMP JUMPDEST PUSH1 0x0 DUP1 PUSH1 0x40 DUP4 DUP6 SUB SLT ISZERO PUSH3 0x344 JUMPI PUSH3 0x343 PUSH3 0x2C0 JUMP JUMPDEST JUMPDEST PUSH1 0x0 PUSH3 0x354 DUP6 DUP3 DUP7 ADD PUSH3 0x313 JUMP JUMPDEST SWAP3 POP POP PUSH1 0x20 PUSH3 0x367 DUP6 DUP3 DUP7 ADD PUSH3 0x313 JUMP JUMPDEST SWAP2 POP POP SWAP3 POP SWAP3 SWAP1 POP JUMP JUMPDEST PUSH1 0x80 MLOAD PUSH2 0x20A0 PUSH3 0x39B PUSH1 0x0 CODECOPY PUSH1 0x0 DUP2 DUP2 PUSH2 0x402 ADD MSTORE DUP2 DUP2 PUSH2 0x744 ADD MSTORE PUSH2 0x992 ADD MSTORE PUSH2 0x20A0 PUSH1 0x0 RETURN INVALID PUSH1 0x80 PUSH1 0x40 MSTORE CALLVALUE DUP1 ISZERO PUSH2 0x10 JUMPI PUSH1 0x0 DUP1 REVERT JUMPDEST POP PUSH1 0x4 CALLDATASIZE LT PUSH2 0x116 JUMPI PUSH1 0x0 CALLDATALOAD PUSH1 0xE0 SHR DUP1 PUSH4 0xA378F371 GT PUSH2 0xA2 JUMPI DUP1 PUSH4 0xC3DFDAE6 GT PUSH2 0x71 JUMPI DUP1 PUSH4 0xC3DFDAE6 EQ PUSH2 0x29D JUMPI DUP1 PUSH4 0xC5F22083 EQ PUSH2 0x2BB JUMPI DUP1 PUSH4 0xC9E2774C EQ PUSH2 0x2D9 JUMPI DUP1 PUSH4 0xF2FDE38B EQ PUSH2 0x309 JUMPI DUP1 PUSH4 0xF303773E EQ PUSH2 0x325 JUMPI PUSH2 0x116 JUMP JUMPDEST DUP1 PUSH4 0xA378F371 EQ PUSH2 0x215 JUMPI DUP1 PUSH4 0xA635392D EQ PUSH2 0x233 JUMPI DUP1 PUSH4 0xB62AAA21 EQ PUSH2 0x24F JUMPI DUP1 PUSH4 0xC23C87D5 EQ PUSH2 0x26D JUMPI PUSH2 0x116 JUMP JUMPDEST DUP1 PUSH4 0x24600FC3 GT PUSH2 0xE9 JUMPI DUP1 PUSH4 0x24600FC3 EQ PUSH2 0x18F JUMPI DUP1 PUSH4 0x34239C9C EQ PUSH2 0x199 JUMPI DUP1 PUSH4 0x715018A6 EQ PUSH2 0x1CF JUMPI DUP1 PUSH4 0x8BDFF161 EQ PUSH2 0x1D9 JUMPI DUP1 PUSH4 0x8DA5CB5B EQ PUSH2 0x1F7 JUMPI PUSH2 0x116 JUMP JUMPDEST DUP1 PUSH4 0xB023A23 EQ PUSH2 0x11B JUMPI DUP1 PUSH4 0xB98F975 EQ PUSH2 0x139 JUMPI DUP1 PUSH4 0x12065FE0 EQ PUSH2 0x155 JUMPI DUP1 PUSH4 0x1FE543E3 EQ PUSH2 0x173 JUMPI JUMPDEST PUSH1 0x0 DUP1 REVERT JUMPDEST PUSH2 0x123 PUSH2 0x341 JUMP JUMPDEST PUSH1 0x40 MLOAD PUSH2 0x130 SWAP2 SWAP1 PUSH2 0x135C JUMP JUMPDEST PUSH1 0x40 MLOAD DUP1 SWAP2 SUB SWAP1 RETURN JUMPDEST PUSH2 0x153 PUSH1 0x4 DUP1 CALLDATASIZE SUB DUP2 ADD SWAP1 PUSH2 0x14E SWAP2 SWAP1 PUSH2 0x13B7 JUMP JUMPDEST PUSH2 0x34B JUMP JUMPDEST STOP JUMPDEST PUSH2 0x15D PUSH2 0x35D JUMP JUMPDEST PUSH1 0x40 MLOAD PUSH2 0x16A SWAP2 SWAP1 PUSH2 0x135C JUMP JUMPDEST PUSH1 0x40 MLOAD DUP1 SWAP2 SUB SWAP1 RETURN JUMPDEST PUSH2 0x18D PUSH1 0x4 DUP1 CALLDATASIZE SUB DUP2 ADD SWAP1 PUSH2 0x188 SWAP2 SWAP1 PUSH2 0x153D JUMP JUMPDEST PUSH2 0x400 JUMP JUMPDEST STOP JUMPDEST PUSH2 0x197 PUSH2 0x49C JUMP JUMPDEST STOP JUMPDEST PUSH2 0x1B3 PUSH1 0x4 DUP1 CALLDATASIZE SUB DUP2 ADD SWAP1 PUSH2 0x1AE SWAP2 SWAP1 PUSH2 0x13B7 JUMP JUMPDEST PUSH2 0x670 JUMP JUMPDEST PUSH1 0x40 MLOAD PUSH2 0x1C6 SWAP8 SWAP7 SWAP6 SWAP5 SWAP4 SWAP3 SWAP2 SWAP1 PUSH2 0x15F5 JUMP JUMPDEST PUSH1 0x40 MLOAD DUP1 SWAP2 SUB SWAP1 RETURN JUMPDEST PUSH2 0x1D7 PUSH2 0x6F9 JUMP JUMPDEST STOP JUMPDEST PUSH2 0x1E1 PUSH2 0x70D JUMP JUMPDEST PUSH1 0x40 MLOAD PUSH2 0x1EE SWAP2 SWAP1 PUSH2 0x135C JUMP JUMPDEST PUSH1 0x40 MLOAD DUP1 SWAP2 SUB SWAP1 RETURN JUMPDEST PUSH2 0x1FF PUSH2 0x717 JUMP JUMPDEST PUSH1 0x40 MLOAD PUSH2 0x20C SWAP2 SWAP1 PUSH2 0x1664 JUMP JUMPDEST PUSH1 0x40 MLOAD DUP1 SWAP2 SUB SWAP1 RETURN JUMPDEST PUSH2 0x21D PUSH2 0x740 JUMP JUMPDEST PUSH1 0x40 MLOAD PUSH2 0x22A SWAP2 SWAP1 PUSH2 0x1664 JUMP JUMPDEST PUSH1 0x40 MLOAD DUP1 SWAP2 SUB SWAP1 RETURN JUMPDEST PUSH2 0x24D PUSH1 0x4 DUP1 CALLDATASIZE SUB DUP2 ADD SWAP1 PUSH2 0x248 SWAP2 SWAP1 PUSH2 0x13B7 JUMP JUMPDEST PUSH2 0x768 JUMP JUMPDEST STOP JUMPDEST PUSH2 0x257 PUSH2 0x84C JUMP JUMPDEST PUSH1 0x40 MLOAD PUSH2 0x264 SWAP2 SWAP1 PUSH2 0x135C JUMP JUMPDEST PUSH1 0x40 MLOAD DUP1 SWAP2 SUB SWAP1 RETURN JUMPDEST PUSH2 0x287 PUSH1 0x4 DUP1 CALLDATASIZE SUB DUP2 ADD SWAP1 PUSH2 0x282 SWAP2 SWAP1 PUSH2 0x16AB JUMP JUMPDEST PUSH2 0x856 JUMP JUMPDEST PUSH1 0x40 MLOAD PUSH2 0x294 SWAP2 SWAP1 PUSH2 0x135C JUMP JUMPDEST PUSH1 0x40 MLOAD DUP1 SWAP2 SUB SWAP1 RETURN JUMPDEST PUSH2 0x2A5 PUSH2 0xBA1 JUMP JUMPDEST PUSH1 0x40 MLOAD PUSH2 0x2B2 SWAP2 SWAP1 PUSH2 0x1737 JUMP JUMPDEST PUSH1 0x40 MLOAD DUP1 SWAP2 SUB SWAP1 RETURN JUMPDEST PUSH2 0x2C3 PUSH2 0xBC7 JUMP JUMPDEST PUSH1 0x40 MLOAD PUSH2 0x2D0 SWAP2 SWAP1 PUSH2 0x135C JUMP JUMPDEST PUSH1 0x40 MLOAD DUP1 SWAP2 SUB SWAP1 RETURN JUMPDEST PUSH2 0x2F3 PUSH1 0x4 DUP1 CALLDATASIZE SUB DUP2 ADD SWAP1 PUSH2 0x2EE SWAP2 SWAP1 PUSH2 0x13B7 JUMP JUMPDEST PUSH2 0xBD1 JUMP JUMPDEST PUSH1 0x40 MLOAD PUSH2 0x300 SWAP2 SWAP1 PUSH2 0x135C JUMP JUMPDEST PUSH1 0x40 MLOAD DUP1 SWAP2 SUB SWAP1 RETURN JUMPDEST PUSH2 0x323 PUSH1 0x4 DUP1 CALLDATASIZE SUB DUP2 ADD SWAP1 PUSH2 0x31E SWAP2 SWAP1 PUSH2 0x177E JUMP JUMPDEST PUSH2 0xBF5 JUMP JUMPDEST STOP JUMPDEST PUSH2 0x33F PUSH1 0x4 DUP1 CALLDATASIZE SUB DUP2 ADD SWAP1 PUSH2 0x33A SWAP2 SWAP1 PUSH2 0x13B7 JUMP JUMPDEST PUSH2 0xC78 JUMP JUMPDEST STOP JUMPDEST PUSH1 0x0 PUSH1 0x7 SLOAD SWAP1 POP SWAP1 JUMP JUMPDEST PUSH2 0x353 PUSH2 0xC8A JUMP JUMPDEST DUP1 PUSH1 0x4 DUP2 SWAP1 SSTORE POP POP JUMP JUMPDEST PUSH1 0x0 PUSH1 0x1 PUSH1 0x0 SWAP1 SLOAD SWAP1 PUSH2 0x100 EXP SWAP1 DIV PUSH20 0xFFFFFFFFFFFFFFFFFFFFFFFFFFFFFFFFFFFFFFFF AND PUSH20 0xFFFFFFFFFFFFFFFFFFFFFFFFFFFFFFFFFFFFFFFF AND PUSH4 0x70A08231 ADDRESS PUSH1 0x40 MLOAD DUP3 PUSH4 0xFFFFFFFF AND PUSH1 0xE0 SHL DUP2 MSTORE PUSH1 0x4 ADD PUSH2 0x3BA SWAP2 SWAP1 PUSH2 0x1664 JUMP JUMPDEST PUSH1 0x20 PUSH1 0x40 MLOAD DUP1 DUP4 SUB DUP2 DUP7 GAS STATICCALL ISZERO DUP1 ISZERO PUSH2 0x3D7 JUMPI RETURNDATASIZE PUSH1 0x0 DUP1 RETURNDATACOPY RETURNDATASIZE PUSH1 0x0 REVERT JUMPDEST POP POP POP POP PUSH1 0x40 MLOAD RETURNDATASIZE PUSH1 0x1F NOT PUSH1 0x1F DUP3 ADD AND DUP3 ADD DUP1 PUSH1 0x40 MSTORE POP DUP2 ADD SWAP1 PUSH2 0x3FB SWAP2 SWAP1 PUSH2 0x17C0 JUMP JUMPDEST SWAP1 POP SWAP1 JUMP JUMPDEST PUSH32 0x0 PUSH20 0xFFFFFFFFFFFFFFFFFFFFFFFFFFFFFFFFFFFFFFFF AND CALLER PUSH20 0xFFFFFFFFFFFFFFFFFFFFFFFFFFFFFFFFFFFFFFFF AND EQ PUSH2 0x48E JUMPI PUSH1 0x40 MLOAD PUSH32 0x8C379A000000000000000000000000000000000000000000000000000000000 DUP2 MSTORE PUSH1 0x4 ADD PUSH2 0x485 SWAP1 PUSH2 0x184A JUMP JUMPDEST PUSH1 0x40 MLOAD DUP1 SWAP2 SUB SWAP1 REVERT JUMPDEST PUSH2 0x498 DUP3 DUP3 PUSH2 0xD08 JUMP JUMPDEST POP POP JUMP JUMPDEST PUSH2 0x4A4 PUSH2 0xC8A JUMP JUMPDEST PUSH1 0x0 PUSH1 0x1 PUSH1 0x0 SWAP1 SLOAD SWAP1 PUSH2 0x100 EXP SWAP1 DIV PUSH20 0xFFFFFFFFFFFFFFFFFFFFFFFFFFFFFFFFFFFFFFFF AND PUSH20 0xFFFFFFFFFFFFFFFFFFFFFFFFFFFFFFFFFFFFFFFF AND PUSH4 0x70A08231 ADDRESS PUSH1 0x40 MLOAD DUP3 PUSH4 0xFFFFFFFF AND PUSH1 0xE0 SHL DUP2 MSTORE PUSH1 0x4 ADD PUSH2 0x501 SWAP2 SWAP1 PUSH2 0x1664 JUMP JUMPDEST PUSH1 0x20 PUSH1 0x40 MLOAD DUP1 DUP4 SUB DUP2 DUP7 GAS STATICCALL ISZERO DUP1 ISZERO PUSH2 0x51E JUMPI RETURNDATASIZE PUSH1 0x0 DUP1 RETURNDATACOPY RETURNDATASIZE PUSH1 0x0 REVERT JUMPDEST POP POP POP POP PUSH1 0x40 MLOAD RETURNDATASIZE PUSH1 0x1F NOT PUSH1 0x1F DUP3 ADD AND DUP3 ADD DUP1 PUSH1 0x40 MSTORE POP DUP2 ADD SWAP1 PUSH2 0x542 SWAP2 SWAP1 PUSH2 0x17C0 JUMP JUMPDEST SWAP1 POP PUSH1 0x0 DUP2 GT PUSH2 0x587 JUMPI PUSH1 0x40 MLOAD PUSH32 0x8C379A000000000000000000000000000000000000000000000000000000000 DUP2 MSTORE PUSH1 0x4 ADD PUSH2 0x57E SWAP1 PUSH2 0x18B6 JUMP JUMPDEST PUSH1 0x40 MLOAD DUP1 SWAP2 SUB SWAP1 REVERT JUMPDEST PUSH1 0x1 PUSH1 0x0 SWAP1 SLOAD SWAP1 PUSH2 0x100 EXP SWAP1 DIV PUSH20 0xFFFFFFFFFFFFFFFFFFFFFFFFFFFFFFFFFFFFFFFF AND PUSH20 0xFFFFFFFFFFFFFFFFFFFFFFFFFFFFFFFFFFFFFFFF AND PUSH4 0xA9059CBB PUSH2 0x5CD PUSH2 0x717 JUMP JUMPDEST DUP4 PUSH1 0x40 MLOAD DUP4 PUSH4 0xFFFFFFFF AND PUSH1 0xE0 SHL DUP2 MSTORE PUSH1 0x4 ADD PUSH2 0x5EB SWAP3 SWAP2 SWAP1 PUSH2 0x18D6 JUMP JUMPDEST PUSH1 0x20 PUSH1 0x40 MLOAD DUP1 DUP4 SUB DUP2 PUSH1 0x0 DUP8 GAS CALL ISZERO DUP1 ISZERO PUSH2 0x60A JUMPI RETURNDATASIZE PUSH1 0x0 DUP1 RETURNDATACOPY RETURNDATASIZE PUSH1 0x0 REVERT JUMPDEST POP POP POP POP PUSH1 0x40 MLOAD RETURNDATASIZE PUSH1 0x1F NOT PUSH1 0x1F DUP3 ADD AND DUP3 ADD DUP1 PUSH1 0x40 MSTORE POP DUP2 ADD SWAP1 PUSH2 0x62E SWAP2 SWAP1 PUSH2 0x1914 JUMP JUMPDEST PUSH2 0x66D JUMPI PUSH1 0x40 MLOAD PUSH32 0x8C379A000000000000000000000000000000000000000000000000000000000 DUP2 MSTORE PUSH1 0x4 ADD PUSH2 0x664 SWAP1 PUSH2 0x198D JUMP JUMPDEST PUSH1 0x40 MLOAD DUP1 SWAP2 SUB SWAP1 REVERT JUMPDEST POP JUMP JUMPDEST PUSH1 0x9 PUSH1 0x20 MSTORE DUP1 PUSH1 0x0 MSTORE PUSH1 0x40 PUSH1 0x0 KECCAK256 PUSH1 0x0 SWAP2 POP SWAP1 POP DUP1 PUSH1 0x0 ADD SLOAD SWAP1 DUP1 PUSH1 0x1 ADD SLOAD SWAP1 DUP1 PUSH1 0x2 ADD PUSH1 0x0 SWAP1 SLOAD SWAP1 PUSH2 0x100 EXP SWAP1 DIV PUSH20 0xFFFFFFFFFFFFFFFFFFFFFFFFFFFFFFFFFFFFFFFF AND SWAP1 DUP1 PUSH1 0x2 ADD PUSH1 0x14 SWAP1 SLOAD SWAP1 PUSH2 0x100 EXP SWAP1 DIV PUSH1 0xFF AND SWAP1 DUP1 PUSH1 0x2 ADD PUSH1 0x15 SWAP1 SLOAD SWAP1 PUSH2 0x100 EXP SWAP1 DIV PUSH1 0xFF AND SWAP1 DUP1 PUSH1 0x2 ADD PUSH1 0x16 SWAP1 SLOAD SWAP1 PUSH2 0x100 EXP SWAP1 DIV PUSH1 0xFF AND SWAP1 DUP1 PUSH1 0x3 ADD SLOAD SWAP1 POP DUP8 JUMP JUMPDEST PUSH2 0x701 PUSH2 0xC8A JUMP JUMPDEST PUSH2 0x70B PUSH1 0x0 PUSH2 0x1130 JUMP JUMPDEST JUMP JUMPDEST PUSH1 0x0 PUSH1 0x4 SLOAD SWAP1 POP SWAP1 JUMP JUMPDEST PUSH1 0x0 DUP1 PUSH1 0x0 SWAP1 SLOAD SWAP1 PUSH2 0x100 EXP SWAP1 DIV PUSH20 0xFFFFFFFFFFFFFFFFFFFFFFFFFFFFFFFFFFFFFFFF AND SWAP1 POP SWAP1 JUMP JUMPDEST PUSH1 0x0 PUSH32 0x0 SWAP1 POP SWAP1 JUMP JUMPDEST PUSH1 0x1 PUSH1 0x0 SWAP1 SLOAD SWAP1 PUSH2 0x100 EXP SWAP1 DIV PUSH20 0xFFFFFFFFFFFFFFFFFFFFFFFFFFFFFFFFFFFFFFFF AND PUSH20 0xFFFFFFFFFFFFFFFFFFFFFFFFFFFFFFFFFFFFFFFF AND PUSH4 0x23B872DD CALLER ADDRESS DUP5 PUSH1 0x40 MLOAD DUP5 PUSH4 0xFFFFFFFF AND PUSH1 0xE0 SHL DUP2 MSTORE PUSH1 0x4 ADD PUSH2 0x7C7 SWAP4 SWAP3 SWAP2 SWAP1 PUSH2 0x19AD JUMP JUMPDEST PUSH1 0x20 PUSH1 0x40 MLOAD DUP1 DUP4 SUB DUP2 PUSH1 0x0 DUP8 GAS CALL ISZERO DUP1 ISZERO PUSH2 0x7E6 JUMPI RETURNDATASIZE PUSH1 0x0 DUP1 RETURNDATACOPY RETURNDATASIZE PUSH1 0x0 REVERT JUMPDEST POP POP POP POP PUSH1 0x40 MLOAD RETURNDATASIZE PUSH1 0x1F NOT PUSH1 0x1F DUP3 ADD AND DUP3 ADD DUP1 PUSH1 0x40 MSTORE POP DUP2 ADD SWAP1 PUSH2 0x80A SWAP2 SWAP1 PUSH2 0x1914 JUMP JUMPDEST PUSH2 0x849 JUMPI PUSH1 0x40 MLOAD PUSH32 0x8C379A000000000000000000000000000000000000000000000000000000000 DUP2 MSTORE PUSH1 0x4 ADD PUSH2 0x840 SWAP1 PUSH2 0x1A30 JUMP JUMPDEST PUSH1 0x40 MLOAD DUP1 SWAP2 SUB SWAP1 REVERT JUMPDEST POP JUMP JUMPDEST PUSH1 0x0 PUSH1 0x3 SLOAD SWAP1 POP SWAP1 JUMP JUMPDEST PUSH1 0x0 PUSH2 0x861 CALLER PUSH2 0x11F4 JUMP JUMPDEST PUSH2 0x8A0 JUMPI PUSH1 0x40 MLOAD PUSH32 0x8C379A000000000000000000000000000000000000000000000000000000000 DUP2 MSTORE PUSH1 0x4 ADD PUSH2 0x897 SWAP1 PUSH2 0x1AC2 JUMP JUMPDEST PUSH1 0x40 MLOAD DUP1 SWAP2 SUB SWAP1 REVERT JUMPDEST PUSH1 0x0 PUSH2 0x8AB CALLER PUSH2 0x1208 JUMP JUMPDEST SWAP1 POP PUSH1 0x1 PUSH1 0x0 SWAP1 SLOAD SWAP1 PUSH2 0x100 EXP SWAP1 DIV PUSH20 0xFFFFFFFFFFFFFFFFFFFFFFFFFFFFFFFFFFFFFFFF AND PUSH20 0xFFFFFFFFFFFFFFFFFFFFFFFFFFFFFFFFFFFFFFFF AND PUSH4 0x23B872DD CALLER ADDRESS DUP5 PUSH1 0x40 MLOAD DUP5 PUSH4 0xFFFFFFFF AND PUSH1 0xE0 SHL DUP2 MSTORE PUSH1 0x4 ADD PUSH2 0x90C SWAP4 SWAP3 SWAP2 SWAP1 PUSH2 0x19AD JUMP JUMPDEST PUSH1 0x20 PUSH1 0x40 MLOAD DUP1 DUP4 SUB DUP2 PUSH1 0x0 DUP8 GAS CALL ISZERO DUP1 ISZERO PUSH2 0x92B JUMPI RETURNDATASIZE PUSH1 0x0 DUP1 RETURNDATACOPY RETURNDATASIZE PUSH1 0x0 REVERT JUMPDEST POP POP POP POP PUSH1 0x40 MLOAD RETURNDATASIZE PUSH1 0x1F NOT PUSH1 0x1F DUP3 ADD AND DUP3 ADD DUP1 PUSH1 0x40 MSTORE POP DUP2 ADD SWAP1 PUSH2 0x94F SWAP2 SWAP1 PUSH2 0x1914 JUMP JUMPDEST PUSH2 0x98E JUMPI PUSH1 0x40 MLOAD PUSH32 0x8C379A000000000000000000000000000000000000000000000000000000000 DUP2 MSTORE PUSH1 0x4 ADD PUSH2 0x985 SWAP1 PUSH2 0x1B2E JUMP JUMPDEST PUSH1 0x40 MLOAD DUP1 SWAP2 SUB SWAP1 REVERT JUMPDEST PUSH1 0x0 PUSH32 0x0 PUSH20 0xFFFFFFFFFFFFFFFFFFFFFFFFFFFFFFFFFFFFFFFF AND PUSH4 0x5D3B1D30 PUSH1 0x0 DUP1 PUSH1 0x1 PUSH3 0x186A0 PUSH1 0x1 PUSH1 0x40 MLOAD DUP7 PUSH4 0xFFFFFFFF AND PUSH1 0xE0 SHL DUP2 MSTORE PUSH1 0x4 ADD PUSH2 0x9F7 SWAP6 SWAP5 SWAP4 SWAP3 SWAP2 SWAP1 PUSH2 0x1CAA JUMP JUMPDEST PUSH1 0x20 PUSH1 0x40 MLOAD DUP1 DUP4 SUB DUP2 PUSH1 0x0 DUP8 GAS CALL ISZERO DUP1 ISZERO PUSH2 0xA16 JUMPI RETURNDATASIZE PUSH1 0x0 DUP1 RETURNDATACOPY RETURNDATASIZE PUSH1 0x0 REVERT JUMPDEST POP POP POP POP PUSH1 0x40 MLOAD RETURNDATASIZE PUSH1 0x1F NOT PUSH1 0x1F DUP3 ADD AND DUP3 ADD DUP1 PUSH1 0x40 MSTORE POP DUP2 ADD SWAP1 PUSH2 0xA3A SWAP2 SWAP1 PUSH2 0x17C0 JUMP JUMPDEST SWAP1 POP PUSH1 0x40 MLOAD DUP1 PUSH1 0xE0 ADD PUSH1 0x40 MSTORE DUP1 PUSH1 0x0 DUP2 MSTORE PUSH1 0x20 ADD PUSH1 0x0 DUP2 MSTORE PUSH1 0x20 ADD CALLER PUSH20 0xFFFFFFFFFFFFFFFFFFFFFFFFFFFFFFFFFFFFFFFF AND DUP2 MSTORE PUSH1 0x20 ADD PUSH1 0x0 ISZERO ISZERO DUP2 MSTORE PUSH1 0x20 ADD PUSH1 0x0 ISZERO ISZERO DUP2 MSTORE PUSH1 0x20 ADD DUP6 ISZERO ISZERO DUP2 MSTORE PUSH1 0x20 ADD DUP4 DUP2 MSTORE POP PUSH1 0x9 PUSH1 0x0 DUP4 DUP2 MSTORE PUSH1 0x20 ADD SWAP1 DUP2 MSTORE PUSH1 0x20 ADD PUSH1 0x0 KECCAK256 PUSH1 0x0 DUP3 ADD MLOAD DUP2 PUSH1 0x0 ADD SSTORE PUSH1 0x20 DUP3 ADD MLOAD DUP2 PUSH1 0x1 ADD SSTORE PUSH1 0x40 DUP3 ADD MLOAD DUP2 PUSH1 0x2 ADD PUSH1 0x0 PUSH2 0x100 EXP DUP2 SLOAD DUP2 PUSH20 0xFFFFFFFFFFFFFFFFFFFFFFFFFFFFFFFFFFFFFFFF MUL NOT AND SWAP1 DUP4 PUSH20 0xFFFFFFFFFFFFFFFFFFFFFFFFFFFFFFFFFFFFFFFF AND MUL OR SWAP1 SSTORE POP PUSH1 0x60 DUP3 ADD MLOAD DUP2 PUSH1 0x2 ADD PUSH1 0x14 PUSH2 0x100 EXP DUP2 SLOAD DUP2 PUSH1 0xFF MUL NOT AND SWAP1 DUP4 ISZERO ISZERO MUL OR SWAP1 SSTORE POP PUSH1 0x80 DUP3 ADD MLOAD DUP2 PUSH1 0x2 ADD PUSH1 0x15 PUSH2 0x100 EXP DUP2 SLOAD DUP2 PUSH1 0xFF MUL NOT AND SWAP1 DUP4 ISZERO ISZERO MUL OR SWAP1 SSTORE POP PUSH1 0xA0 DUP3 ADD MLOAD DUP2 PUSH1 0x2 ADD PUSH1 0x16 PUSH2 0x100 EXP DUP2 SLOAD DUP2 PUSH1 0xFF MUL NOT AND SWAP1 DUP4 ISZERO ISZERO MUL OR SWAP1 SSTORE POP PUSH1 0xC0 DUP3 ADD MLOAD DUP2 PUSH1 0x3 ADD SSTORE SWAP1 POP POP DUP1 PUSH32 0x28A75F9A78CD502748CECC04795531FD051165F83E4BE1270400AC7130873E2E PUSH1 0x40 MLOAD PUSH1 0x40 MLOAD DUP1 SWAP2 SUB SWAP1 LOG2 DUP1 SWAP3 POP POP POP SWAP2 SWAP1 POP JUMP JUMPDEST PUSH1 0x1 PUSH1 0x0 SWAP1 SLOAD SWAP1 PUSH2 0x100 EXP SWAP1 DIV PUSH20 0xFFFFFFFFFFFFFFFFFFFFFFFFFFFFFFFFFFFFFFFF AND DUP2 JUMP JUMPDEST PUSH1 0x0 PUSH1 0x6 SLOAD SWAP1 POP SWAP1 JUMP JUMPDEST PUSH1 0x8 DUP2 DUP2 SLOAD DUP2 LT PUSH2 0xBE1 JUMPI PUSH1 0x0 DUP1 REVERT JUMPDEST SWAP1 PUSH1 0x0 MSTORE PUSH1 0x20 PUSH1 0x0 KECCAK256 ADD PUSH1 0x0 SWAP2 POP SWAP1 POP SLOAD DUP2 JUMP JUMPDEST PUSH2 0xBFD PUSH2 0xC8A JUMP JUMPDEST PUSH1 0x0 PUSH20 0xFFFFFFFFFFFFFFFFFFFFFFFFFFFFFFFFFFFFFFFF AND DUP2 PUSH20 0xFFFFFFFFFFFFFFFFFFFFFFFFFFFFFFFFFFFFFFFF AND SUB PUSH2 0xC6C JUMPI PUSH1 0x40 MLOAD PUSH32 0x8C379A000000000000000000000000000000000000000000000000000000000 DUP2 MSTORE PUSH1 0x4 ADD PUSH2 0xC63 SWAP1 PUSH2 0x1D6F JUMP JUMPDEST PUSH1 0x40 MLOAD DUP1 SWAP2 SUB SWAP1 REVERT JUMPDEST PUSH2 0xC75 DUP2 PUSH2 0x1130 JUMP JUMPDEST POP JUMP JUMPDEST PUSH2 0xC80 PUSH2 0xC8A JUMP JUMPDEST DUP1 PUSH1 0x3 DUP2 SWAP1 SSTORE POP POP JUMP JUMPDEST PUSH2 0xC92 PUSH2 0x130D JUMP JUMPDEST PUSH20 0xFFFFFFFFFFFFFFFFFFFFFFFFFFFFFFFFFFFFFFFF AND PUSH2 0xCB0 PUSH2 0x717 JUMP JUMPDEST PUSH20 0xFFFFFFFFFFFFFFFFFFFFFFFFFFFFFFFFFFFFFFFF AND EQ PUSH2 0xD06 JUMPI PUSH1 0x40 MLOAD PUSH32 0x8C379A000000000000000000000000000000000000000000000000000000000 DUP2 MSTORE PUSH1 0x4 ADD PUSH2 0xCFD SWAP1 PUSH2 0x1DDB JUMP JUMPDEST PUSH1 0x40 MLOAD DUP1 SWAP2 SUB SWAP1 REVERT JUMPDEST JUMP JUMPDEST PUSH1 0x1 PUSH1 0x9 PUSH1 0x0 DUP5 DUP2 MSTORE PUSH1 0x20 ADD SWAP1 DUP2 MSTORE PUSH1 0x20 ADD PUSH1 0x0 KECCAK256 PUSH1 0x2 ADD PUSH1 0x15 PUSH2 0x100 EXP DUP2 SLOAD DUP2 PUSH1 0xFF MUL NOT AND SWAP1 DUP4 ISZERO ISZERO MUL OR SWAP1 SSTORE POP DUP1 PUSH1 0x0 DUP2 MLOAD DUP2 LT PUSH2 0xD4B JUMPI PUSH2 0xD4A PUSH2 0x1DFB JUMP JUMPDEST JUMPDEST PUSH1 0x20 MUL PUSH1 0x20 ADD ADD MLOAD PUSH1 0x9 PUSH1 0x0 DUP5 DUP2 MSTORE PUSH1 0x20 ADD SWAP1 DUP2 MSTORE PUSH1 0x20 ADD PUSH1 0x0 KECCAK256 PUSH1 0x1 ADD DUP2 SWAP1 SSTORE POP PUSH1 0x0 PUSH1 0x64 DUP3 PUSH1 0x0 DUP2 MLOAD DUP2 LT PUSH2 0xD85 JUMPI PUSH2 0xD84 PUSH2 0x1DFB JUMP JUMPDEST JUMPDEST PUSH1 0x20 MUL PUSH1 0x20 ADD ADD MLOAD PUSH2 0xD97 SWAP2 SWAP1 PUSH2 0x1E59 JUMP JUMPDEST SWAP1 POP PUSH1 0x0 DUP1 PUSH1 0x2 DUP4 PUSH2 0xDA9 SWAP2 SWAP1 PUSH2 0x1E59 JUMP JUMPDEST EQ SWAP1 POP PUSH1 0x0 PUSH1 0x9 PUSH1 0x0 DUP7 DUP2 MSTORE PUSH1 0x20 ADD SWAP1 DUP2 MSTORE PUSH1 0x20 ADD PUSH1 0x0 KECCAK256 PUSH1 0x2 ADD PUSH1 0x16 SWAP1 SLOAD SWAP1 PUSH2 0x100 EXP SWAP1 DIV PUSH1 0xFF AND ISZERO ISZERO DUP3 ISZERO ISZERO EQ SWAP1 POP PUSH1 0x0 PUSH1 0x5 SLOAD DUP5 LT SWAP1 POP DUP3 PUSH2 0xE04 JUMPI PUSH1 0x7 PUSH1 0x0 DUP2 SLOAD DUP1 SWAP3 SWAP2 SWAP1 PUSH2 0xDFB SWAP1 PUSH2 0x1EB9 JUMP JUMPDEST SWAP2 SWAP1 POP SSTORE PUSH2 0xE1C JUMP JUMPDEST PUSH1 0x6 PUSH1 0x0 DUP2 SLOAD DUP1 SWAP3 SWAP2 SWAP1 PUSH2 0xE17 SWAP1 PUSH2 0x1EB9 JUMP JUMPDEST SWAP2 SWAP1 POP SSTORE JUMPDEST POP PUSH1 0x0 DUP3 ISZERO PUSH2 0x1068 JUMPI PUSH2 0xE74 PUSH1 0x9 PUSH1 0x0 DUP10 DUP2 MSTORE PUSH1 0x20 ADD SWAP1 DUP2 MSTORE PUSH1 0x20 ADD PUSH1 0x0 KECCAK256 PUSH1 0x3 ADD SLOAD PUSH1 0xA DUP5 PUSH2 0xE4E JUMPI PUSH1 0x3 SLOAD PUSH2 0xE52 JUMP JUMPDEST PUSH1 0x4 SLOAD JUMPDEST PUSH8 0xDE0B6B3A7640000 PUSH2 0xE65 SWAP2 SWAP1 PUSH2 0x1F01 JUMP JUMPDEST PUSH2 0xE6F SWAP2 SWAP1 PUSH2 0x1F43 JUMP JUMPDEST PUSH2 0x1315 JUMP JUMPDEST SWAP1 POP PUSH1 0x0 PUSH1 0x1 PUSH1 0x0 SWAP1 SLOAD SWAP1 PUSH2 0x100 EXP SWAP1 DIV PUSH20 0xFFFFFFFFFFFFFFFFFFFFFFFFFFFFFFFFFFFFFFFF AND PUSH20 0xFFFFFFFFFFFFFFFFFFFFFFFFFFFFFFFFFFFFFFFF AND PUSH4 0x70A08231 ADDRESS PUSH1 0x40 MLOAD DUP3 PUSH4 0xFFFFFFFF AND PUSH1 0xE0 SHL DUP2 MSTORE PUSH1 0x4 ADD PUSH2 0xED3 SWAP2 SWAP1 PUSH2 0x1664 JUMP JUMPDEST PUSH1 0x20 PUSH1 0x40 MLOAD DUP1 DUP4 SUB DUP2 DUP7 GAS STATICCALL ISZERO DUP1 ISZERO PUSH2 0xEF0 JUMPI RETURNDATASIZE PUSH1 0x0 DUP1 RETURNDATACOPY RETURNDATASIZE PUSH1 0x0 REVERT JUMPDEST POP POP POP POP PUSH1 0x40 MLOAD RETURNDATASIZE PUSH1 0x1F NOT PUSH1 0x1F DUP3 ADD AND DUP3 ADD DUP1 PUSH1 0x40 MSTORE POP DUP2 ADD SWAP1 PUSH2 0xF14 SWAP2 SWAP1 PUSH2 0x17C0 JUMP JUMPDEST SWAP1 POP DUP1 DUP3 GT ISZERO PUSH2 0xF22 JUMPI DUP1 SWAP2 POP JUMPDEST PUSH1 0x1 PUSH1 0x9 PUSH1 0x0 DUP11 DUP2 MSTORE PUSH1 0x20 ADD SWAP1 DUP2 MSTORE PUSH1 0x20 ADD PUSH1 0x0 KECCAK256 PUSH1 0x2 ADD PUSH1 0x14 PUSH2 0x100 EXP DUP2 SLOAD DUP2 PUSH1 0xFF MUL NOT AND SWAP1 DUP4 ISZERO ISZERO MUL OR SWAP1 SSTORE POP PUSH1 0x1 PUSH1 0x0 SWAP1 SLOAD SWAP1 PUSH2 0x100 EXP SWAP1 DIV PUSH20 0xFFFFFFFFFFFFFFFFFFFFFFFFFFFFFFFFFFFFFFFF AND PUSH20 0xFFFFFFFFFFFFFFFFFFFFFFFFFFFFFFFFFFFFFFFF AND PUSH4 0xA9059CBB PUSH1 0x9 PUSH1 0x0 DUP12 DUP2 MSTORE PUSH1 0x20 ADD SWAP1 DUP2 MSTORE PUSH1 0x20 ADD PUSH1 0x0 KECCAK256 PUSH1 0x2 ADD PUSH1 0x0 SWAP1 SLOAD SWAP1 PUSH2 0x100 EXP SWAP1 DIV PUSH20 0xFFFFFFFFFFFFFFFFFFFFFFFFFFFFFFFFFFFFFFFF AND DUP5 PUSH1 0x40 MLOAD DUP4 PUSH4 0xFFFFFFFF AND PUSH1 0xE0 SHL DUP2 MSTORE PUSH1 0x4 ADD PUSH2 0xFE4 SWAP3 SWAP2 SWAP1 PUSH2 0x18D6 JUMP JUMPDEST PUSH1 0x20 PUSH1 0x40 MLOAD DUP1 DUP4 SUB DUP2 PUSH1 0x0 DUP8 GAS CALL ISZERO DUP1 ISZERO PUSH2 0x1003 JUMPI RETURNDATASIZE PUSH1 0x0 DUP1 RETURNDATACOPY RETURNDATASIZE PUSH1 0x0 REVERT JUMPDEST POP POP POP POP PUSH1 0x40 MLOAD RETURNDATASIZE PUSH1 0x1F NOT PUSH1 0x1F DUP3 ADD AND DUP3 ADD DUP1 PUSH1 0x40 MSTORE POP DUP2 ADD SWAP1 PUSH2 0x1027 SWAP2 SWAP1 PUSH2 0x1914 JUMP JUMPDEST PUSH2 0x1066 JUMPI PUSH1 0x40 MLOAD PUSH32 0x8C379A000000000000000000000000000000000000000000000000000000000 DUP2 MSTORE PUSH1 0x4 ADD PUSH2 0x105D SWAP1 PUSH2 0x1FC0 JUMP JUMPDEST PUSH1 0x40 MLOAD DUP1 SWAP2 SUB SWAP1 REVERT JUMPDEST POP JUMPDEST PUSH1 0x2 PUSH1 0x0 DUP2 SLOAD DUP1 SWAP3 SWAP2 SWAP1 PUSH2 0x107B SWAP1 PUSH2 0x1EB9 JUMP JUMPDEST SWAP2 SWAP1 POP SSTORE POP DUP7 PUSH1 0x9 PUSH1 0x0 DUP10 DUP2 MSTORE PUSH1 0x20 ADD SWAP1 DUP2 MSTORE PUSH1 0x20 ADD PUSH1 0x0 KECCAK256 PUSH1 0x2 ADD PUSH1 0x0 SWAP1 SLOAD SWAP1 PUSH2 0x100 EXP SWAP1 DIV PUSH20 0xFFFFFFFFFFFFFFFFFFFFFFFFFFFFFFFFFFFFFFFF AND PUSH20 0xFFFFFFFFFFFFFFFFFFFFFFFFFFFFFFFFFFFFFFFF AND PUSH32 0x3FCEB718577531F659BE1037B1DD265E5E32134C2BE981E0BC1579F2250B0850 PUSH1 0x2 SLOAD DUP7 PUSH1 0x9 PUSH1 0x0 DUP14 DUP2 MSTORE PUSH1 0x20 ADD SWAP1 DUP2 MSTORE PUSH1 0x20 ADD PUSH1 0x0 KECCAK256 PUSH1 0x3 ADD SLOAD DUP7 DUP9 DUP12 PUSH1 0x40 MLOAD PUSH2 0x111F SWAP7 SWAP6 SWAP5 SWAP4 SWAP3 SWAP2 SWAP1 PUSH2 0x1FE0 JUMP JUMPDEST PUSH1 0x40 MLOAD DUP1 SWAP2 SUB SWAP1 LOG3 POP POP POP POP POP POP POP JUMP JUMPDEST PUSH1 0x0 DUP1 PUSH1 0x0 SWAP1 SLOAD SWAP1 PUSH2 0x100 EXP SWAP1 DIV PUSH20 0xFFFFFFFFFFFFFFFFFFFFFFFFFFFFFFFFFFFFFFFF AND SWAP1 POP DUP2 PUSH1 0x0 DUP1 PUSH2 0x100 EXP DUP2 SLOAD DUP2 PUSH20 0xFFFFFFFFFFFFFFFFFFFFFFFFFFFFFFFFFFFFFFFF MUL NOT AND SWAP1 DUP4 PUSH20 0xFFFFFFFFFFFFFFFFFFFFFFFFFFFFFFFFFFFFFFFF AND MUL OR SWAP1 SSTORE POP DUP2 PUSH20 0xFFFFFFFFFFFFFFFFFFFFFFFFFFFFFFFFFFFFFFFF AND DUP2 PUSH20 0xFFFFFFFFFFFFFFFFFFFFFFFFFFFFFFFFFFFFFFFF AND PUSH32 0x8BE0079C531659141344CD1FD0A4F28419497F9722A3DAAFE3B4186F6B6457E0 PUSH1 0x40 MLOAD PUSH1 0x40 MLOAD DUP1 SWAP2 SUB SWAP1 LOG3 POP POP JUMP JUMPDEST PUSH1 0x0 DUP1 PUSH2 0x1200 DUP4 PUSH2 0x1208 JUMP JUMPDEST GT SWAP1 POP SWAP2 SWAP1 POP JUMP JUMPDEST PUSH1 0x0 DUP1 PUSH1 0x0 SWAP1 POP JUMPDEST PUSH1 0x8 DUP1 SLOAD SWAP1 POP DUP2 LT ISZERO PUSH2 0x1302 JUMPI PUSH1 0x0 PUSH1 0x8 DUP3 DUP2 SLOAD DUP2 LT PUSH2 0x1233 JUMPI PUSH2 0x1232 PUSH2 0x1DFB JUMP JUMPDEST JUMPDEST SWAP1 PUSH1 0x0 MSTORE PUSH1 0x20 PUSH1 0x0 KECCAK256 ADD SLOAD SWAP1 POP DUP1 PUSH1 0x1 PUSH1 0x0 SWAP1 SLOAD SWAP1 PUSH2 0x100 EXP SWAP1 DIV PUSH20 0xFFFFFFFFFFFFFFFFFFFFFFFFFFFFFFFFFFFFFFFF AND PUSH20 0xFFFFFFFFFFFFFFFFFFFFFFFFFFFFFFFFFFFFFFFF AND PUSH4 0xDD62ED3E DUP7 ADDRESS PUSH1 0x40 MLOAD DUP4 PUSH4 0xFFFFFFFF AND PUSH1 0xE0 SHL DUP2 MSTORE PUSH1 0x4 ADD PUSH2 0x129E SWAP3 SWAP2 SWAP1 PUSH2 0x2041 JUMP JUMPDEST PUSH1 0x20 PUSH1 0x40 MLOAD DUP1 DUP4 SUB DUP2 DUP7 GAS STATICCALL ISZERO DUP1 ISZERO PUSH2 0x12BB JUMPI RETURNDATASIZE PUSH1 0x0 DUP1 RETURNDATACOPY RETURNDATASIZE PUSH1 0x0 REVERT JUMPDEST POP POP POP POP PUSH1 0x40 MLOAD RETURNDATASIZE PUSH1 0x1F NOT PUSH1 0x1F DUP3 ADD AND DUP3 ADD DUP1 PUSH1 0x40 MSTORE POP DUP2 ADD SWAP1 PUSH2 0x12DF SWAP2 SWAP1 PUSH2 0x17C0 JUMP JUMPDEST LT PUSH2 0x12EE JUMPI DUP1 SWAP3 POP POP POP PUSH2 0x1308 JUMP JUMPDEST POP DUP1 DUP1 PUSH2 0x12FA SWAP1 PUSH2 0x1EB9 JUMP JUMPDEST SWAP2 POP POP PUSH2 0x1210 JUMP JUMPDEST POP PUSH1 0x0 SWAP1 POP JUMPDEST SWAP2 SWAP1 POP JUMP JUMPDEST PUSH1 0x0 CALLER SWAP1 POP SWAP1 JUMP JUMPDEST PUSH1 0x0 DUP1 PUSH8 0xDE0B6B3A7640000 DUP4 DUP6 PUSH2 0x132D SWAP2 SWAP1 PUSH2 0x1F01 JUMP JUMPDEST PUSH2 0x1337 SWAP2 SWAP1 PUSH2 0x1F43 JUMP JUMPDEST SWAP1 POP DUP1 SWAP2 POP POP SWAP3 SWAP2 POP POP JUMP JUMPDEST PUSH1 0x0 DUP2 SWAP1 POP SWAP2 SWAP1 POP JUMP JUMPDEST PUSH2 0x1356 DUP2 PUSH2 0x1343 JUMP JUMPDEST DUP3 MSTORE POP POP JUMP JUMPDEST PUSH1 0x0 PUSH1 0x20 DUP3 ADD SWAP1 POP PUSH2 0x1371 PUSH1 0x0 DUP4 ADD DUP5 PUSH2 0x134D JUMP JUMPDEST SWAP3 SWAP2 POP POP JUMP JUMPDEST PUSH1 0x0 PUSH1 0x40 MLOAD SWAP1 POP SWAP1 JUMP JUMPDEST PUSH1 0x0 DUP1 REVERT JUMPDEST PUSH1 0x0 DUP1 REVERT JUMPDEST PUSH2 0x1394 DUP2 PUSH2 0x1343 JUMP JUMPDEST DUP2 EQ PUSH2 0x139F JUMPI PUSH1 0x0 DUP1 REVERT JUMPDEST POP JUMP JUMPDEST PUSH1 0x0 DUP2 CALLDATALOAD SWAP1 POP PUSH2 0x13B1 DUP2 PUSH2 0x138B JUMP JUMPDEST SWAP3 SWAP2 POP POP JUMP JUMPDEST PUSH1 0x0 PUSH1 0x20 DUP3 DUP5 SUB SLT ISZERO PUSH2 0x13CD JUMPI PUSH2 0x13CC PUSH2 0x1381 JUMP JUMPDEST JUMPDEST PUSH1 0x0 PUSH2 0x13DB DUP5 DUP3 DUP6 ADD PUSH2 0x13A2 JUMP JUMPDEST SWAP2 POP POP SWAP3 SWAP2 POP POP JUMP JUMPDEST PUSH1 0x0 DUP1 REVERT JUMPDEST PUSH1 0x0 PUSH1 0x1F NOT PUSH1 0x1F DUP4 ADD AND SWAP1 POP SWAP2 SWAP1 POP JUMP JUMPDEST PUSH32 0x4E487B7100000000000000000000000000000000000000000000000000000000 PUSH1 0x0 MSTORE PUSH1 0x41 PUSH1 0x4 MSTORE PUSH1 0x24 PUSH1 0x0 REVERT JUMPDEST PUSH2 0x1432 DUP3 PUSH2 0x13E9 JUMP JUMPDEST DUP2 ADD DUP2 DUP2 LT PUSH8 0xFFFFFFFFFFFFFFFF DUP3 GT OR ISZERO PUSH2 0x1451 JUMPI PUSH2 0x1450 PUSH2 0x13FA JUMP JUMPDEST JUMPDEST DUP1 PUSH1 0x40 MSTORE POP POP POP JUMP JUMPDEST PUSH1 0x0 PUSH2 0x1464 PUSH2 0x1377 JUMP JUMPDEST SWAP1 POP PUSH2 0x1470 DUP3 DUP3 PUSH2 0x1429 JUMP JUMPDEST SWAP2 SWAP1 POP JUMP JUMPDEST PUSH1 0x0 PUSH8 0xFFFFFFFFFFFFFFFF DUP3 GT ISZERO PUSH2 0x1490 JUMPI PUSH2 0x148F PUSH2 0x13FA JUMP JUMPDEST JUMPDEST PUSH1 0x20 DUP3 MUL SWAP1 POP PUSH1 0x20 DUP2 ADD SWAP1 POP SWAP2 SWAP1 POP JUMP JUMPDEST PUSH1 0x0 DUP1 REVERT JUMPDEST PUSH1 0x0 PUSH2 0x14B9 PUSH2 0x14B4 DUP5 PUSH2 0x1475 JUMP JUMPDEST PUSH2 0x145A JUMP JUMPDEST SWAP1 POP DUP1 DUP4 DUP3 MSTORE PUSH1 0x20 DUP3 ADD SWAP1 POP PUSH1 0x20 DUP5 MUL DUP4 ADD DUP6 DUP2 GT ISZERO PUSH2 0x14DC JUMPI PUSH2 0x14DB PUSH2 0x14A1 JUMP JUMPDEST JUMPDEST DUP4 JUMPDEST DUP2 DUP2 LT ISZERO PUSH2 0x1505 JUMPI DUP1 PUSH2 0x14F1 DUP9 DUP3 PUSH2 0x13A2 JUMP JUMPDEST DUP5 MSTORE PUSH1 0x20 DUP5 ADD SWAP4 POP POP PUSH1 0x20 DUP2 ADD SWAP1 POP PUSH2 0x14DE JUMP JUMPDEST POP POP POP SWAP4 SWAP3 POP POP POP JUMP JUMPDEST PUSH1 0x0 DUP3 PUSH1 0x1F DUP4 ADD SLT PUSH2 0x1524 JUMPI PUSH2 0x1523 PUSH2 0x13E4 JUMP JUMPDEST JUMPDEST DUP2 CALLDATALOAD PUSH2 0x1534 DUP5 DUP3 PUSH1 0x20 DUP7 ADD PUSH2 0x14A6 JUMP JUMPDEST SWAP2 POP POP SWAP3 SWAP2 POP POP JUMP JUMPDEST PUSH1 0x0 DUP1 PUSH1 0x40 DUP4 DUP6 SUB SLT ISZERO PUSH2 0x1554 JUMPI PUSH2 0x1553 PUSH2 0x1381 JUMP JUMPDEST JUMPDEST PUSH1 0x0 PUSH2 0x1562 DUP6 DUP3 DUP7 ADD PUSH2 0x13A2 JUMP JUMPDEST SWAP3 POP POP PUSH1 0x20 DUP4 ADD CALLDATALOAD PUSH8 0xFFFFFFFFFFFFFFFF DUP2 GT ISZERO PUSH2 0x1583 JUMPI PUSH2 0x1582 PUSH2 0x1386 JUMP JUMPDEST JUMPDEST PUSH2 0x158F DUP6 DUP3 DUP7 ADD PUSH2 0x150F JUMP JUMPDEST SWAP2 POP POP SWAP3 POP SWAP3 SWAP1 POP JUMP JUMPDEST PUSH1 0x0 PUSH20 0xFFFFFFFFFFFFFFFFFFFFFFFFFFFFFFFFFFFFFFFF DUP3 AND SWAP1 POP SWAP2 SWAP1 POP JUMP JUMPDEST PUSH1 0x0 PUSH2 0x15C4 DUP3 PUSH2 0x1599 JUMP JUMPDEST SWAP1 POP SWAP2 SWAP1 POP JUMP JUMPDEST PUSH2 0x15D4 DUP2 PUSH2 0x15B9 JUMP JUMPDEST DUP3 MSTORE POP POP JUMP JUMPDEST PUSH1 0x0 DUP2 ISZERO ISZERO SWAP1 POP SWAP2 SWAP1 POP JUMP JUMPDEST PUSH2 0x15EF DUP2 PUSH2 0x15DA JUMP JUMPDEST DUP3 MSTORE POP POP JUMP JUMPDEST PUSH1 0x0 PUSH1 0xE0 DUP3 ADD SWAP1 POP PUSH2 0x160A PUSH1 0x0 DUP4 ADD DUP11 PUSH2 0x134D JUMP JUMPDEST PUSH2 0x1617 PUSH1 0x20 DUP4 ADD DUP10 PUSH2 0x134D JUMP JUMPDEST PUSH2 0x1624 PUSH1 0x40 DUP4 ADD DUP9 PUSH2 0x15CB JUMP JUMPDEST PUSH2 0x1631 PUSH1 0x60 DUP4 ADD DUP8 PUSH2 0x15E6 JUMP JUMPDEST PUSH2 0x163E PUSH1 0x80 DUP4 ADD DUP7 PUSH2 0x15E6 JUMP JUMPDEST PUSH2 0x164B PUSH1 0xA0 DUP4 ADD DUP6 PUSH2 0x15E6 JUMP JUMPDEST PUSH2 0x1658 PUSH1 0xC0 DUP4 ADD DUP5 PUSH2 0x134D JUMP JUMPDEST SWAP9 SWAP8 POP POP POP POP POP POP POP POP JUMP JUMPDEST PUSH1 0x0 PUSH1 0x20 DUP3 ADD SWAP1 POP PUSH2 0x1679 PUSH1 0x0 DUP4 ADD DUP5 PUSH2 0x15CB JUMP JUMPDEST SWAP3 SWAP2 POP POP JUMP JUMPDEST PUSH2 0x1688 DUP2 PUSH2 0x15DA JUMP JUMPDEST DUP2 EQ PUSH2 0x1693 JUMPI PUSH1 0x0 DUP1 REVERT JUMPDEST POP JUMP JUMPDEST PUSH1 0x0 DUP2 CALLDATALOAD SWAP1 POP PUSH2 0x16A5 DUP2 PUSH2 0x167F JUMP JUMPDEST SWAP3 SWAP2 POP POP JUMP JUMPDEST PUSH1 0x0 PUSH1 0x20 DUP3 DUP5 SUB SLT ISZERO PUSH2 0x16C1 JUMPI PUSH2 0x16C0 PUSH2 0x1381 JUMP JUMPDEST JUMPDEST PUSH1 0x0 PUSH2 0x16CF DUP5 DUP3 DUP6 ADD PUSH2 0x1696 JUMP JUMPDEST SWAP2 POP POP SWAP3 SWAP2 POP POP JUMP JUMPDEST PUSH1 0x0 DUP2 SWAP1 POP SWAP2 SWAP1 POP JUMP JUMPDEST PUSH1 0x0 PUSH2 0x16FD PUSH2 0x16F8 PUSH2 0x16F3 DUP5 PUSH2 0x1599 JUMP JUMPDEST PUSH2 0x16D8 JUMP JUMPDEST PUSH2 0x1599 JUMP JUMPDEST SWAP1 POP SWAP2 SWAP1 POP JUMP JUMPDEST PUSH1 0x0 PUSH2 0x170F DUP3 PUSH2 0x16E2 JUMP JUMPDEST SWAP1 POP SWAP2 SWAP1 POP JUMP JUMPDEST PUSH1 0x0 PUSH2 0x1721 DUP3 PUSH2 0x1704 JUMP JUMPDEST SWAP1 POP SWAP2 SWAP1 POP JUMP JUMPDEST PUSH2 0x1731 DUP2 PUSH2 0x1716 JUMP JUMPDEST DUP3 MSTORE POP POP JUMP JUMPDEST PUSH1 0x0 PUSH1 0x20 DUP3 ADD SWAP1 POP PUSH2 0x174C PUSH1 0x0 DUP4 ADD DUP5 PUSH2 0x1728 JUMP JUMPDEST SWAP3 SWAP2 POP POP JUMP JUMPDEST PUSH2 0x175B DUP2 PUSH2 0x15B9 JUMP JUMPDEST DUP2 EQ PUSH2 0x1766 JUMPI PUSH1 0x0 DUP1 REVERT JUMPDEST POP JUMP JUMPDEST PUSH1 0x0 DUP2 CALLDATALOAD SWAP1 POP PUSH2 0x1778 DUP2 PUSH2 0x1752 JUMP JUMPDEST SWAP3 SWAP2 POP POP JUMP JUMPDEST PUSH1 0x0 PUSH1 0x20 DUP3 DUP5 SUB SLT ISZERO PUSH2 0x1794 JUMPI PUSH2 0x1793 PUSH2 0x1381 JUMP JUMPDEST JUMPDEST PUSH1 0x0 PUSH2 0x17A2 DUP5 DUP3 DUP6 ADD PUSH2 0x1769 JUMP JUMPDEST SWAP2 POP POP SWAP3 SWAP2 POP POP JUMP JUMPDEST PUSH1 0x0 DUP2 MLOAD SWAP1 POP PUSH2 0x17BA DUP2 PUSH2 0x138B JUMP JUMPDEST SWAP3 SWAP2 POP POP JUMP JUMPDEST PUSH1 0x0 PUSH1 0x20 DUP3 DUP5 SUB SLT ISZERO PUSH2 0x17D6 JUMPI PUSH2 0x17D5 PUSH2 0x1381 JUMP JUMPDEST JUMPDEST PUSH1 0x0 PUSH2 0x17E4 DUP5 DUP3 DUP6 ADD PUSH2 0x17AB JUMP JUMPDEST SWAP2 POP POP SWAP3 SWAP2 POP POP JUMP JUMPDEST PUSH1 0x0 DUP3 DUP3 MSTORE PUSH1 0x20 DUP3 ADD SWAP1 POP SWAP3 SWAP2 POP POP JUMP JUMPDEST PUSH32 0x4F6E6C79205652462063616E2066756C66696C6C000000000000000000000000 PUSH1 0x0 DUP3 ADD MSTORE POP JUMP JUMPDEST PUSH1 0x0 PUSH2 0x1834 PUSH1 0x14 DUP4 PUSH2 0x17ED JUMP JUMPDEST SWAP2 POP PUSH2 0x183F DUP3 PUSH2 0x17FE JUMP JUMPDEST PUSH1 0x20 DUP3 ADD SWAP1 POP SWAP2 SWAP1 POP JUMP JUMPDEST PUSH1 0x0 PUSH1 0x20 DUP3 ADD SWAP1 POP DUP2 DUP2 SUB PUSH1 0x0 DUP4 ADD MSTORE PUSH2 0x1863 DUP2 PUSH2 0x1827 JUMP JUMPDEST SWAP1 POP SWAP2 SWAP1 POP JUMP JUMPDEST PUSH32 0x436F6E74726163742062616C616E636520697320656D7074792E000000000000 PUSH1 0x0 DUP3 ADD MSTORE POP JUMP JUMPDEST PUSH1 0x0 PUSH2 0x18A0 PUSH1 0x1A DUP4 PUSH2 0x17ED JUMP JUMPDEST SWAP2 POP PUSH2 0x18AB DUP3 PUSH2 0x186A JUMP JUMPDEST PUSH1 0x20 DUP3 ADD SWAP1 POP SWAP2 SWAP1 POP JUMP JUMPDEST PUSH1 0x0 PUSH1 0x20 DUP3 ADD SWAP1 POP DUP2 DUP2 SUB PUSH1 0x0 DUP4 ADD MSTORE PUSH2 0x18CF DUP2 PUSH2 0x1893 JUMP JUMPDEST SWAP1 POP SWAP2 SWAP1 POP JUMP JUMPDEST PUSH1 0x0 PUSH1 0x40 DUP3 ADD SWAP1 POP PUSH2 0x18EB PUSH1 0x0 DUP4 ADD DUP6 PUSH2 0x15CB JUMP JUMPDEST PUSH2 0x18F8 PUSH1 0x20 DUP4 ADD DUP5 PUSH2 0x134D JUMP JUMPDEST SWAP4 SWAP3 POP POP POP JUMP JUMPDEST PUSH1 0x0 DUP2 MLOAD SWAP1 POP PUSH2 0x190E DUP2 PUSH2 0x167F JUMP JUMPDEST SWAP3 SWAP2 POP POP JUMP JUMPDEST PUSH1 0x0 PUSH1 0x20 DUP3 DUP5 SUB SLT ISZERO PUSH2 0x192A JUMPI PUSH2 0x1929 PUSH2 0x1381 JUMP JUMPDEST JUMPDEST PUSH1 0x0 PUSH2 0x1938 DUP5 DUP3 DUP6 ADD PUSH2 0x18FF JUMP JUMPDEST SWAP2 POP POP SWAP3 SWAP2 POP POP JUMP JUMPDEST PUSH32 0x5769746864726177616C206661696C6564000000000000000000000000000000 PUSH1 0x0 DUP3 ADD MSTORE POP JUMP JUMPDEST PUSH1 0x0 PUSH2 0x1977 PUSH1 0x11 DUP4 PUSH2 0x17ED JUMP JUMPDEST SWAP2 POP PUSH2 0x1982 DUP3 PUSH2 0x1941 JUMP JUMPDEST PUSH1 0x20 DUP3 ADD SWAP1 POP SWAP2 SWAP1 POP JUMP JUMPDEST PUSH1 0x0 PUSH1 0x20 DUP3 ADD SWAP1 POP DUP2 DUP2 SUB PUSH1 0x0 DUP4 ADD MSTORE PUSH2 0x19A6 DUP2 PUSH2 0x196A JUMP JUMPDEST SWAP1 POP SWAP2 SWAP1 POP JUMP JUMPDEST PUSH1 0x0 PUSH1 0x60 DUP3 ADD SWAP1 POP PUSH2 0x19C2 PUSH1 0x0 DUP4 ADD DUP7 PUSH2 0x15CB JUMP JUMPDEST PUSH2 0x19CF PUSH1 0x20 DUP4 ADD DUP6 PUSH2 0x15CB JUMP JUMPDEST PUSH2 0x19DC PUSH1 0x40 DUP4 ADD DUP5 PUSH2 0x134D JUMP JUMPDEST SWAP5 SWAP4 POP POP POP POP JUMP JUMPDEST PUSH32 0x546F702D7570206661696C656400000000000000000000000000000000000000 PUSH1 0x0 DUP3 ADD MSTORE POP JUMP JUMPDEST PUSH1 0x0 PUSH2 0x1A1A PUSH1 0xD DUP4 PUSH2 0x17ED JUMP JUMPDEST SWAP2 POP PUSH2 0x1A25 DUP3 PUSH2 0x19E4 JUMP JUMPDEST PUSH1 0x20 DUP3 ADD SWAP1 POP SWAP2 SWAP1 POP JUMP JUMPDEST PUSH1 0x0 PUSH1 0x20 DUP3 ADD SWAP1 POP DUP2 DUP2 SUB PUSH1 0x0 DUP4 ADD MSTORE PUSH2 0x1A49 DUP2 PUSH2 0x1A0D JUMP JUMPDEST SWAP1 POP SWAP2 SWAP1 POP JUMP JUMPDEST PUSH32 0x506C656173652073656E6420636F727265637420616D6F756E7420746F20706C PUSH1 0x0 DUP3 ADD MSTORE PUSH32 0x6179207468652067616D652E0000000000000000000000000000000000000000 PUSH1 0x20 DUP3 ADD MSTORE POP JUMP JUMPDEST PUSH1 0x0 PUSH2 0x1AAC PUSH1 0x2C DUP4 PUSH2 0x17ED JUMP JUMPDEST SWAP2 POP PUSH2 0x1AB7 DUP3 PUSH2 0x1A50 JUMP JUMPDEST PUSH1 0x40 DUP3 ADD SWAP1 POP SWAP2 SWAP1 POP JUMP JUMPDEST PUSH1 0x0 PUSH1 0x20 DUP3 ADD SWAP1 POP DUP2 DUP2 SUB PUSH1 0x0 DUP4 ADD MSTORE PUSH2 0x1ADB DUP2 PUSH2 0x1A9F JUMP JUMPDEST SWAP1 POP SWAP2 SWAP1 POP JUMP JUMPDEST PUSH32 0x546F6B656E207472616E73666572206661696C65640000000000000000000000 PUSH1 0x0 DUP3 ADD MSTORE POP JUMP JUMPDEST PUSH1 0x0 PUSH2 0x1B18 PUSH1 0x15 DUP4 PUSH2 0x17ED JUMP JUMPDEST SWAP2 POP PUSH2 0x1B23 DUP3 PUSH2 0x1AE2 JUMP JUMPDEST PUSH1 0x20 DUP3 ADD SWAP1 POP SWAP2 SWAP1 POP JUMP JUMPDEST PUSH1 0x0 PUSH1 0x20 DUP3 ADD SWAP1 POP DUP2 DUP2 SUB PUSH1 0x0 DUP4 ADD MSTORE PUSH2 0x1B47 DUP2 PUSH2 0x1B0B JUMP JUMPDEST SWAP1 POP SWAP2 SWAP1 POP JUMP JUMPDEST PUSH1 0x0 DUP2 SWAP1 POP SWAP2 SWAP1 POP JUMP JUMPDEST PUSH1 0x0 DUP2 SWAP1 POP SWAP2 SWAP1 POP JUMP JUMPDEST PUSH1 0x0 DUP2 PUSH1 0x0 SHL SWAP1 POP SWAP2 SWAP1 POP JUMP JUMPDEST PUSH1 0x0 PUSH2 0x1B8A PUSH2 0x1B85 PUSH2 0x1B80 DUP5 PUSH2 0x1B4E JUMP JUMPDEST PUSH2 0x1B62 JUMP JUMPDEST PUSH2 0x1B58 JUMP JUMPDEST SWAP1 POP SWAP2 SWAP1 POP JUMP JUMPDEST PUSH2 0x1B9A DUP2 PUSH2 0x1B6F JUMP JUMPDEST DUP3 MSTORE POP POP JUMP JUMPDEST PUSH1 0x0 PUSH8 0xFFFFFFFFFFFFFFFF DUP3 AND SWAP1 POP SWAP2 SWAP1 POP JUMP JUMPDEST PUSH1 0x0 PUSH2 0x1BCF PUSH2 0x1BCA PUSH2 0x1BC5 DUP5 PUSH2 0x1B4E JUMP JUMPDEST PUSH2 0x16D8 JUMP JUMPDEST PUSH2 0x1BA0 JUMP JUMPDEST SWAP1 POP SWAP2 SWAP1 POP JUMP JUMPDEST PUSH2 0x1BDF DUP2 PUSH2 0x1BB4 JUMP JUMPDEST DUP3 MSTORE POP POP JUMP JUMPDEST PUSH1 0x0 DUP2 SWAP1 POP SWAP2 SWAP1 POP JUMP JUMPDEST PUSH1 0x0 PUSH2 0xFFFF DUP3 AND SWAP1 POP SWAP2 SWAP1 POP JUMP JUMPDEST PUSH1 0x0 PUSH2 0x1C18 PUSH2 0x1C13 PUSH2 0x1C0E DUP5 PUSH2 0x1BE5 JUMP JUMPDEST PUSH2 0x16D8 JUMP JUMPDEST PUSH2 0x1BEF JUMP JUMPDEST SWAP1 POP SWAP2 SWAP1 POP JUMP JUMPDEST PUSH2 0x1C28 DUP2 PUSH2 0x1BFD JUMP JUMPDEST DUP3 MSTORE POP POP JUMP JUMPDEST PUSH1 0x0 DUP2 SWAP1 POP SWAP2 SWAP1 POP JUMP JUMPDEST PUSH1 0x0 PUSH4 0xFFFFFFFF DUP3 AND SWAP1 POP SWAP2 SWAP1 POP JUMP JUMPDEST PUSH1 0x0 PUSH2 0x1C63 PUSH2 0x1C5E PUSH2 0x1C59 DUP5 PUSH2 0x1C2E JUMP JUMPDEST PUSH2 0x16D8 JUMP JUMPDEST PUSH2 0x1C38 JUMP JUMPDEST SWAP1 POP SWAP2 SWAP1 POP JUMP JUMPDEST PUSH2 0x1C73 DUP2 PUSH2 0x1C48 JUMP JUMPDEST DUP3 MSTORE POP POP JUMP JUMPDEST PUSH1 0x0 PUSH2 0x1C94 PUSH2 0x1C8F PUSH2 0x1C8A DUP5 PUSH2 0x1BE5 JUMP JUMPDEST PUSH2 0x16D8 JUMP JUMPDEST PUSH2 0x1C38 JUMP JUMPDEST SWAP1 POP SWAP2 SWAP1 POP JUMP JUMPDEST PUSH2 0x1CA4 DUP2 PUSH2 0x1C79 JUMP JUMPDEST DUP3 MSTORE POP POP JUMP JUMPDEST PUSH1 0x0 PUSH1 0xA0 DUP3 ADD SWAP1 POP PUSH2 0x1CBF PUSH1 0x0 DUP4 ADD DUP9 PUSH2 0x1B91 JUMP JUMPDEST PUSH2 0x1CCC PUSH1 0x20 DUP4 ADD DUP8 PUSH2 0x1BD6 JUMP JUMPDEST PUSH2 0x1CD9 PUSH1 0x40 DUP4 ADD DUP7 PUSH2 0x1C1F JUMP JUMPDEST PUSH2 0x1CE6 PUSH1 0x60 DUP4 ADD DUP6 PUSH2 0x1C6A JUMP JUMPDEST PUSH2 0x1CF3 PUSH1 0x80 DUP4 ADD DUP5 PUSH2 0x1C9B JUMP JUMPDEST SWAP7 SWAP6 POP POP POP POP POP POP JUMP JUMPDEST PUSH32 0x4F776E61626C653A206E6577206F776E657220697320746865207A65726F2061 PUSH1 0x0 DUP3 ADD MSTORE PUSH32 0x6464726573730000000000000000000000000000000000000000000000000000 PUSH1 0x20 DUP3 ADD MSTORE POP JUMP JUMPDEST PUSH1 0x0 PUSH2 0x1D59 PUSH1 0x26 DUP4 PUSH2 0x17ED JUMP JUMPDEST SWAP2 POP PUSH2 0x1D64 DUP3 PUSH2 0x1CFD JUMP JUMPDEST PUSH1 0x40 DUP3 ADD SWAP1 POP SWAP2 SWAP1 POP JUMP JUMPDEST PUSH1 0x0 PUSH1 0x20 DUP3 ADD SWAP1 POP DUP2 DUP2 SUB PUSH1 0x0 DUP4 ADD MSTORE PUSH2 0x1D88 DUP2 PUSH2 0x1D4C JUMP JUMPDEST SWAP1 POP SWAP2 SWAP1 POP JUMP JUMPDEST PUSH32 0x4F776E61626C653A2063616C6C6572206973206E6F7420746865206F776E6572 PUSH1 0x0 DUP3 ADD MSTORE POP JUMP JUMPDEST PUSH1 0x0 PUSH2 0x1DC5 PUSH1 0x20 DUP4 PUSH2 0x17ED JUMP JUMPDEST SWAP2 POP PUSH2 0x1DD0 DUP3 PUSH2 0x1D8F JUMP JUMPDEST PUSH1 0x20 DUP3 ADD SWAP1 POP SWAP2 SWAP1 POP JUMP JUMPDEST PUSH1 0x0 PUSH1 0x20 DUP3 ADD SWAP1 POP DUP2 DUP2 SUB PUSH1 0x0 DUP4 ADD MSTORE PUSH2 0x1DF4 DUP2 PUSH2 0x1DB8 JUMP JUMPDEST SWAP1 POP SWAP2 SWAP1 POP JUMP JUMPDEST PUSH32 0x4E487B7100000000000000000000000000000000000000000000000000000000 PUSH1 0x0 MSTORE PUSH1 0x32 PUSH1 0x4 MSTORE PUSH1 0x24 PUSH1 0x0 REVERT JUMPDEST PUSH32 0x4E487B7100000000000000000000000000000000000000000000000000000000 PUSH1 0x0 MSTORE PUSH1 0x12 PUSH1 0x4 MSTORE PUSH1 0x24 PUSH1 0x0 REVERT JUMPDEST PUSH1 0x0 PUSH2 0x1E64 DUP3 PUSH2 0x1343 JUMP JUMPDEST SWAP2 POP PUSH2 0x1E6F DUP4 PUSH2 0x1343 JUMP JUMPDEST SWAP3 POP DUP3 PUSH2 0x1E7F JUMPI PUSH2 0x1E7E PUSH2 0x1E2A JUMP JUMPDEST JUMPDEST DUP3 DUP3 MOD SWAP1 POP SWAP3 SWAP2 POP POP JUMP JUMPDEST PUSH32 0x4E487B7100000000000000000000000000000000000000000000000000000000 PUSH1 0x0 MSTORE PUSH1 0x11 PUSH1 0x4 MSTORE PUSH1 0x24 PUSH1 0x0 REVERT JUMPDEST PUSH1 0x0 PUSH2 0x1EC4 DUP3 PUSH2 0x1343 JUMP JUMPDEST SWAP2 POP PUSH32 0xFFFFFFFFFFFFFFFFFFFFFFFFFFFFFFFFFFFFFFFFFFFFFFFFFFFFFFFFFFFFFFFF DUP3 SUB PUSH2 0x1EF6 JUMPI PUSH2 0x1EF5 PUSH2 0x1E8A JUMP JUMPDEST JUMPDEST PUSH1 0x1 DUP3 ADD SWAP1 POP SWAP2 SWAP1 POP JUMP JUMPDEST PUSH1 0x0 PUSH2 0x1F0C DUP3 PUSH2 0x1343 JUMP JUMPDEST SWAP2 POP PUSH2 0x1F17 DUP4 PUSH2 0x1343 JUMP JUMPDEST SWAP3 POP DUP3 DUP3 MUL PUSH2 0x1F25 DUP2 PUSH2 0x1343 JUMP JUMPDEST SWAP2 POP DUP3 DUP3 DIV DUP5 EQ DUP4 ISZERO OR PUSH2 0x1F3C JUMPI PUSH2 0x1F3B PUSH2 0x1E8A JUMP JUMPDEST JUMPDEST POP SWAP3 SWAP2 POP POP JUMP JUMPDEST PUSH1 0x0 PUSH2 0x1F4E DUP3 PUSH2 0x1343 JUMP JUMPDEST SWAP2 POP PUSH2 0x1F59 DUP4 PUSH2 0x1343 JUMP JUMPDEST SWAP3 POP DUP3 PUSH2 0x1F69 JUMPI PUSH2 0x1F68 PUSH2 0x1E2A JUMP JUMPDEST JUMPDEST DUP3 DUP3 DIV SWAP1 POP SWAP3 SWAP2 POP POP JUMP JUMPDEST PUSH32 0x57696E6E696E6773207472616E73666572206661696C65640000000000000000 PUSH1 0x0 DUP3 ADD MSTORE POP JUMP JUMPDEST PUSH1 0x0 PUSH2 0x1FAA PUSH1 0x18 DUP4 PUSH2 0x17ED JUMP JUMPDEST SWAP2 POP PUSH2 0x1FB5 DUP3 PUSH2 0x1F74 JUMP JUMPDEST PUSH1 0x20 DUP3 ADD SWAP1 POP SWAP2 SWAP1 POP JUMP JUMPDEST PUSH1 0x0 PUSH1 0x20 DUP3 ADD SWAP1 POP DUP2 DUP2 SUB PUSH1 0x0 DUP4 ADD MSTORE PUSH2 0x1FD9 DUP2 PUSH2 0x1F9D JUMP JUMPDEST SWAP1 POP SWAP2 SWAP1 POP JUMP JUMPDEST PUSH1 0x0 PUSH1 0xC0 DUP3 ADD SWAP1 POP PUSH2 0x1FF5 PUSH1 0x0 DUP4 ADD DUP10 PUSH2 0x134D JUMP JUMPDEST PUSH2 0x2002 PUSH1 0x20 DUP4 ADD DUP9 PUSH2 0x15E6 JUMP JUMPDEST PUSH2 0x200F PUSH1 0x40 DUP4 ADD DUP8 PUSH2 0x134D JUMP JUMPDEST PUSH2 0x201C PUSH1 0x60 DUP4 ADD DUP7 PUSH2 0x134D JUMP JUMPDEST PUSH2 0x2029 PUSH1 0x80 DUP4 ADD DUP6 PUSH2 0x15E6 JUMP JUMPDEST PUSH2 0x2036 PUSH1 0xA0 DUP4 ADD DUP5 PUSH2 0x15E6 JUMP JUMPDEST SWAP8 SWAP7 POP POP POP POP POP POP POP JUMP JUMPDEST PUSH1 0x0 PUSH1 0x40 DUP3 ADD SWAP1 POP PUSH2 0x2056 PUSH1 0x0 DUP4 ADD DUP6 PUSH2 0x15CB JUMP JUMPDEST PUSH2 0x2063 PUSH1 0x20 DUP4 ADD DUP5 PUSH2 0x15CB JUMP JUMPDEST SWAP4 SWAP3 POP POP POP JUMP INVALID LOG2 PUSH5 0x6970667358 0x22 SLT KECCAK256 0xD9 MSTORE DELEGATECALL PUSH20 0x61B10D34AAD100FD5E08502C022871699723198E GAS 0xD9 GT COINBASE SDIV 0xB3 SUB 0xD3 PUSH5 0x736F6C6343 STOP ADDMOD SGT STOP CALLER "},"methodIdentifiers":{"allowedBetAmounts(uint256)":"c9e2774c","gameStatus(uint256)":"34239c9c","gameToken()":"c3dfdae6","getBalance()":"12065fe0","getBonus()":"8bdff161","getRtp()":"b62aaa21","getTotalHead()":"c5f22083","getTotalTail()":"0b023a23","getVRFCoordinator()":"a378f371","owner()":"8da5cb5b","play(bool)":"c23c87d5","rawFulfillRandomWords(uint256,uint256[])":"1fe543e3","renounceOwnership()":"715018a6","setBonus(uint256)":"0b98f975","setRtp(uint256)":"f303773e","topUpBalance(uint256)":"a635392d","transferOwnership(address)":"f2fde38b","withdrawFunds()":"24600fc3"}}}}}