{"contracts/HeadOrTailTokenGame.sol":{"HeadOrTailTokenGame":{"abi":[{"inputs":[{"internalType":"address","name":"_vrfCoordinator","type":"address"},{"internalType":"address","name":"_gameTokenAddress","type":"address"}],"stateMutability":"nonpayable","type":"constructor"},{"anonymous":false,"inputs":[{"indexed":true,"internalType":"address","name":"player","type":"address"},{"indexed":true,"internalType":"uint256","name":"requestId","type":"uint256"},{"indexed":false,"internalType":"uint256","name":"gameId","type":"uint256"},{"indexed":false,"internalType":"bool","name":"isWinner","type":"bool"},{"indexed":false,"internalType":"uint256","name":"betAmount","type":"uint256"},{"indexed":false,"internalType":"uint256","name":"amountWon","type":"uint256"},{"indexed":false,"internalType":"bool","name":"bonus","type":"bool"},{"indexed":false,"internalType":"bool","name":"isHead","type":"bool"}],"name":"GameResult","type":"event"},{"anonymous":false,"inputs":[{"indexed":true,"internalType":"address","name":"previousOwner","type":"address"},{"indexed":true,"internalType":"address","name":"newOwner","type":"address"}],"name":"OwnershipTransferred","type":"event"},{"anonymous":false,"inputs":[{"indexed":true,"internalType":"uint256","name":"requestId","type":"uint256"}],"name":"RequestedRandomNumber","type":"event"},{"inputs":[{"internalType":"uint256","name":"","type":"uint256"}],"name":"allowedBetAmounts","outputs":[{"internalType":"uint256","name":"","type":"uint256"}],"stateMutability":"view","type":"function"},{"inputs":[{"internalType":"uint256","name":"","type":"uint256"}],"name":"gameStatus","outputs":[{"internalType":"uint256","name":"fees","type":"uint256"},{"internalType":"uint256","name":"randomWord","type":"uint256"},{"internalType":"address","name":"player","type":"address"},{"internalType":"bool","name":"isWinner","type":"bool"},{"internalType":"bool","name":"fulfilled","type":"bool"},{"internalType":"bool","name":"isHead","type":"bool"},{"internalType":"uint256","name":"betAmount","type":"uint256"}],"stateMutability":"view","type":"function"},{"inputs":[],"name":"gameToken","outputs":[{"internalType":"contract IERC20","name":"","type":"address"}],"stateMutability":"view","type":"function"},{"inputs":[],"name":"getBalance","outputs":[{"internalType":"uint256","name":"","type":"uint256"}],"stateMutability":"view","type":"function"},{"inputs":[],"name":"getBonus","outputs":[{"internalType":"uint256","name":"","type":"uint256"}],"stateMutability":"view","type":"function"},{"inputs":[],"name":"getRtp","outputs":[{"internalType":"uint256","name":"","type":"uint256"}],"stateMutability":"view","type":"function"},{"inputs":[],"name":"getTotalHead","outputs":[{"internalType":"uint256","name":"","type":"uint256"}],"stateMutability":"view","type":"function"},{"inputs":[],"name":"getTotalTail","outputs":[{"internalType":"uint256","name":"","type":"uint256"}],"stateMutability":"view","type":"function"},{"inputs":[],"name":"owner","outputs":[{"internalType":"address","name":"","type":"address"}],"stateMutability":"view","type":"function"},{"inputs":[{"internalType":"bool","name":"choice","type":"bool"}],"name":"play","outputs":[{"internalType":"uint256","name":"","type":"uint256"}],"stateMutability":"nonpayable","type":"function"},{"inputs":[{"internalType":"uint256","name":"requestId","type":"uint256"},{"internalType":"uint256[]","name":"randomWords","type":"uint256[]"}],"name":"rawFulfillRandomWords","outputs":[],"stateMutability":"nonpayable","type":"function"},{"inputs":[],"name":"renounceOwnership","outputs":[],"stateMutability":"nonpayable","type":"function"},{"inputs":[{"internalType":"uint256","name":"_bonus","type":"uint256"}],"name":"setBonus","outputs":[],"stateMutability":"nonpayable","type":"function"},{"inputs":[{"internalType":"uint256","name":"_rtp","type":"uint256"}],"name":"setRtp","outputs":[],"stateMutability":"nonpayable","type":"function"},{"inputs":[{"internalType":"uint256","name":"amount","type":"uint256"}],"name":"topUpBalance","outputs":[],"stateMutability":"nonpayable","type":"function"},{"inputs":[{"internalType":"address","name":"newOwner","type":"address"}],"name":"transferOwnership","outputs":[],"stateMutability":"nonpayable","type":"function"},{"inputs":[],"name":"withdrawFunds","outputs":[],"stateMutability":"nonpayable","type":"function"}],"evm":{"bytecode":{"linkReferences":{},"object":"60a06040526011600355601660045560046005553480156200002057600080fd5b50604051620023e3380380620023e383398181016040528101906200004691906200032a565b620000666200005a6200017760201b60201c565b6200017f60201b60201c565b8173ffffffffffffffffffffffffffffffffffffffff1660808173ffffffffffffffffffffffffffffffffffffffff168152505080600160006101000a81548173ffffffffffffffffffffffffffffffffffffffff021916908373ffffffffffffffffffffffffffffffffffffffff1602179055506040518060a0016040528067016345785d8a000067ffffffffffffffff1681526020016702c68af0bb14000067ffffffffffffffff168152602001670429d069189e000067ffffffffffffffff16815260200167058d15e17628000067ffffffffffffffff1681526020016706f05b59d3b2000067ffffffffffffffff1681525060089060056200016e92919062000243565b50505062000371565b600033905090565b60008060009054906101000a900473ffffffffffffffffffffffffffffffffffffffff169050816000806101000a81548173ffffffffffffffffffffffffffffffffffffffff021916908373ffffffffffffffffffffffffffffffffffffffff1602179055508173ffffffffffffffffffffffffffffffffffffffff168173ffffffffffffffffffffffffffffffffffffffff167f8be0079c531659141344cd1fd0a4f28419497f9722a3daafe3b4186f6b6457e060405160405180910390a35050565b8280548282559060005260206000209081019282156200028e579160200282015b828111156200028d578251829067ffffffffffffffff1690559160200191906001019062000264565b5b5090506200029d9190620002a1565b5090565b5b80821115620002bc576000816000905550600101620002a2565b5090565b600080fd5b600073ffffffffffffffffffffffffffffffffffffffff82169050919050565b6000620002f282620002c5565b9050919050565b6200030481620002e5565b81146200031057600080fd5b50565b6000815190506200032481620002f9565b92915050565b60008060408385031215620003445762000343620002c0565b5b6000620003548582860162000313565b9250506020620003678582860162000313565b9150509250929050565b60805161204f62000394600039600081816103d90152610941015261204f6000f3fe608060405234801561001057600080fd5b506004361061010b5760003560e01c80638da5cb5b116100a2578063c3dfdae611610071578063c3dfdae614610274578063c5f2208314610292578063c9e2774c146102b0578063f2fde38b146102e0578063f303773e146102fc5761010b565b80638da5cb5b146101ec578063a635392d1461020a578063b62aaa2114610226578063c23c87d5146102445761010b565b806324600fc3116100de57806324600fc31461018457806334239c9c1461018e578063715018a6146101c45780638bdff161146101ce5761010b565b80630b023a23146101105780630b98f9751461012e57806312065fe01461014a5780631fe543e314610168575b600080fd5b610118610318565b604051610125919061130b565b60405180910390f35b61014860048036038101906101439190611366565b610322565b005b610152610334565b60405161015f919061130b565b60405180910390f35b610182600480360381019061017d91906114ec565b6103d7565b005b61018c610473565b005b6101a860048036038101906101a39190611366565b610647565b6040516101bb97969594939291906115a4565b60405180910390f35b6101cc6106d0565b005b6101d66106e4565b6040516101e3919061130b565b60405180910390f35b6101f46106ee565b6040516102019190611613565b60405180910390f35b610224600480360381019061021f9190611366565b610717565b005b61022e6107fb565b60405161023b919061130b565b60405180910390f35b61025e6004803603810190610259919061165a565b610805565b60405161026b919061130b565b60405180910390f35b61027c610b50565b60405161028991906116e6565b60405180910390f35b61029a610b76565b6040516102a7919061130b565b60405180910390f35b6102ca60048036038101906102c59190611366565b610b80565b6040516102d7919061130b565b60405180910390f35b6102fa60048036038101906102f5919061172d565b610ba4565b005b61031660048036038101906103119190611366565b610c27565b005b6000600754905090565b61032a610c39565b8060048190555050565b6000600160009054906101000a900473ffffffffffffffffffffffffffffffffffffffff1673ffffffffffffffffffffffffffffffffffffffff166370a08231306040518263ffffffff1660e01b81526004016103919190611613565b602060405180830381865afa1580156103ae573d6000803e3d6000fd5b505050506040513d601f19601f820116820180604052508101906103d2919061176f565b905090565b7f000000000000000000000000000000000000000000000000000000000000000073ffffffffffffffffffffffffffffffffffffffff163373ffffffffffffffffffffffffffffffffffffffff1614610465576040517f08c379a000000000000000000000000000000000000000000000000000000000815260040161045c906117f9565b60405180910390fd5b61046f8282610cb7565b5050565b61047b610c39565b6000600160009054906101000a900473ffffffffffffffffffffffffffffffffffffffff1673ffffffffffffffffffffffffffffffffffffffff166370a08231306040518263ffffffff1660e01b81526004016104d89190611613565b602060405180830381865afa1580156104f5573d6000803e3d6000fd5b505050506040513d601f19601f82011682018060405250810190610519919061176f565b90506000811161055e576040517f08c379a000000000000000000000000000000000000000000000000000000000815260040161055590611865565b60405180910390fd5b600160009054906101000a900473ffffffffffffffffffffffffffffffffffffffff1673ffffffffffffffffffffffffffffffffffffffff1663a9059cbb6105a46106ee565b836040518363ffffffff1660e01b81526004016105c2929190611885565b6020604051808303816000875af11580156105e1573d6000803e3d6000fd5b505050506040513d601f19601f8201168201806040525081019061060591906118c3565b610644576040517f08c379a000000000000000000000000000000000000000000000000000000000815260040161063b9061193c565b60405180910390fd5b50565b60096020528060005260406000206000915090508060000154908060010154908060020160009054906101000a900473ffffffffffffffffffffffffffffffffffffffff16908060020160149054906101000a900460ff16908060020160159054906101000a900460ff16908060020160169054906101000a900460ff16908060030154905087565b6106d8610c39565b6106e260006110df565b565b6000600454905090565b60008060009054906101000a900473ffffffffffffffffffffffffffffffffffffffff16905090565b600160009054906101000a900473ffffffffffffffffffffffffffffffffffffffff1673ffffffffffffffffffffffffffffffffffffffff166323b872dd3330846040518463ffffffff1660e01b81526004016107769392919061195c565b6020604051808303816000875af1158015610795573d6000803e3d6000fd5b505050506040513d601f19601f820116820180604052508101906107b991906118c3565b6107f8576040517f08c379a00000000000000000000000000000000000000000000000000000000081526004016107ef906119df565b60405180910390fd5b50565b6000600354905090565b6000610810336111a3565b61084f576040517f08c379a000000000000000000000000000000000000000000000000000000000815260040161084690611a71565b60405180910390fd5b600061085a336111b7565b9050600160009054906101000a900473ffffffffffffffffffffffffffffffffffffffff1673ffffffffffffffffffffffffffffffffffffffff166323b872dd3330846040518463ffffffff1660e01b81526004016108bb9392919061195c565b6020604051808303816000875af11580156108da573d6000803e3d6000fd5b505050506040513d601f19601f820116820180604052508101906108fe91906118c3565b61093d576040517f08c379a000000000000000000000000000000000000000000000000000000000815260040161093490611add565b60405180910390fd5b60007f000000000000000000000000000000000000000000000000000000000000000073ffffffffffffffffffffffffffffffffffffffff16635d3b1d306000806001620186a060016040518663ffffffff1660e01b81526004016109a6959493929190611c59565b6020604051808303816000875af11580156109c5573d6000803e3d6000fd5b505050506040513d601f19601f820116820180604052508101906109e9919061176f565b90506040518060e0016040528060008152602001600081526020013373ffffffffffffffffffffffffffffffffffffffff16815260200160001515815260200160001515815260200185151581526020018381525060096000838152602001908152602001600020600082015181600001556020820151816001015560408201518160020160006101000a81548173ffffffffffffffffffffffffffffffffffffffff021916908373ffffffffffffffffffffffffffffffffffffffff16021790555060608201518160020160146101000a81548160ff02191690831515021790555060808201518160020160156101000a81548160ff02191690831515021790555060a08201518160020160166101000a81548160ff02191690831515021790555060c08201518160030155905050807f28a75f9a78cd502748cecc04795531fd051165f83e4be1270400ac7130873e2e60405160405180910390a28092505050919050565b600160009054906101000a900473ffffffffffffffffffffffffffffffffffffffff1681565b6000600654905090565b60088181548110610b9057600080fd5b906000526020600020016000915090505481565b610bac610c39565b600073ffffffffffffffffffffffffffffffffffffffff168173ffffffffffffffffffffffffffffffffffffffff1603610c1b576040517f08c379a0000000000000000000000000000000000000000000000000000000008152600401610c1290611d1e565b60405180910390fd5b610c24816110df565b50565b610c2f610c39565b8060038190555050565b610c416112bc565b73ffffffffffffffffffffffffffffffffffffffff16610c5f6106ee565b73ffffffffffffffffffffffffffffffffffffffff1614610cb5576040517f08c379a0000000000000000000000000000000000000000000000000000000008152600401610cac90611d8a565b60405180910390fd5b565b60016009600084815260200190815260200160002060020160156101000a81548160ff02191690831515021790555080600081518110610cfa57610cf9611daa565b5b602002602001015160096000848152602001908152602001600020600101819055506000606482600081518110610d3457610d33611daa565b5b6020026020010151610d469190611e08565b9050600080600283610d589190611e08565b14905060006009600086815260200190815260200160002060020160169054906101000a900460ff16151582151514905060006005548410905082610db35760076000815480929190610daa90611e68565b91905055610dcb565b60066000815480929190610dc690611e68565b919050555b506000821561101757610e236009600089815260200190815260200160002060030154600a84610dfd57600354610e01565b6004545b670de0b6b3a7640000610e149190611eb0565b610e1e9190611ef2565b6112c4565b90506000600160009054906101000a900473ffffffffffffffffffffffffffffffffffffffff1673ffffffffffffffffffffffffffffffffffffffff166370a08231306040518263ffffffff1660e01b8152600401610e829190611613565b602060405180830381865afa158015610e9f573d6000803e3d6000fd5b505050506040513d601f19601f82011682018060405250810190610ec3919061176f565b905080821115610ed1578091505b6001600960008a815260200190815260200160002060020160146101000a81548160ff021916908315150217905550600160009054906101000a900473ffffffffffffffffffffffffffffffffffffffff1673ffffffffffffffffffffffffffffffffffffffff1663a9059cbb600960008b815260200190815260200160002060020160009054906101000a900473ffffffffffffffffffffffffffffffffffffffff16846040518363ffffffff1660e01b8152600401610f93929190611885565b6020604051808303816000875af1158015610fb2573d6000803e3d6000fd5b505050506040513d601f19601f82011682018060405250810190610fd691906118c3565b611015576040517f08c379a000000000000000000000000000000000000000000000000000000000815260040161100c90611f6f565b60405180910390fd5b505b6002600081548092919061102a90611e68565b9190505550866009600089815260200190815260200160002060020160009054906101000a900473ffffffffffffffffffffffffffffffffffffffff1673ffffffffffffffffffffffffffffffffffffffff167f3fceb718577531f659be1037b1dd265e5e32134c2be981e0bc1579f2250b085060025486600960008d81526020019081526020016000206003015486888b6040516110ce96959493929190611f8f565b60405180910390a350505050505050565b60008060009054906101000a900473ffffffffffffffffffffffffffffffffffffffff169050816000806101000a81548173ffffffffffffffffffffffffffffffffffffffff021916908373ffffffffffffffffffffffffffffffffffffffff1602179055508173ffffffffffffffffffffffffffffffffffffffff168173ffffffffffffffffffffffffffffffffffffffff167f8be0079c531659141344cd1fd0a4f28419497f9722a3daafe3b4186f6b6457e060405160405180910390a35050565b6000806111af836111b7565b119050919050565b600080600090505b6008805490508110156112b1576000600882815481106111e2576111e1611daa565b5b9060005260206000200154905080600160009054906101000a900473ffffffffffffffffffffffffffffffffffffffff1673ffffffffffffffffffffffffffffffffffffffff1663dd62ed3e86306040518363ffffffff1660e01b815260040161124d929190611ff0565b602060405180830381865afa15801561126a573d6000803e3d6000fd5b505050506040513d601f19601f8201168201806040525081019061128e919061176f565b1061129d5780925050506112b7565b5080806112a990611e68565b9150506111bf565b50600090505b919050565b600033905090565b600080670de0b6b3a764000083856112dc9190611eb0565b6112e69190611ef2565b90508091505092915050565b6000819050919050565b611305816112f2565b82525050565b600060208201905061132060008301846112fc565b92915050565b6000604051905090565b600080fd5b600080fd5b611343816112f2565b811461134e57600080fd5b50565b6000813590506113608161133a565b92915050565b60006020828403121561137c5761137b611330565b5b600061138a84828501611351565b91505092915050565b600080fd5b6000601f19601f8301169050919050565b7f4e487b7100000000000000000000000000000000000000000000000000000000600052604160045260246000fd5b6113e182611398565b810181811067ffffffffffffffff82111715611400576113ff6113a9565b5b80604052505050565b6000611413611326565b905061141f82826113d8565b919050565b600067ffffffffffffffff82111561143f5761143e6113a9565b5b602082029050602081019050919050565b600080fd5b600061146861146384611424565b611409565b9050808382526020820190506020840283018581111561148b5761148a611450565b5b835b818110156114b457806114a08882611351565b84526020840193505060208101905061148d565b5050509392505050565b600082601f8301126114d3576114d2611393565b5b81356114e3848260208601611455565b91505092915050565b6000806040838503121561150357611502611330565b5b600061151185828601611351565b925050602083013567ffffffffffffffff81111561153257611531611335565b5b61153e858286016114be565b9150509250929050565b600073ffffffffffffffffffffffffffffffffffffffff82169050919050565b600061157382611548565b9050919050565b61158381611568565b82525050565b60008115159050919050565b61159e81611589565b82525050565b600060e0820190506115b9600083018a6112fc565b6115c660208301896112fc565b6115d3604083018861157a565b6115e06060830187611595565b6115ed6080830186611595565b6115fa60a0830185611595565b61160760c08301846112fc565b98975050505050505050565b6000602082019050611628600083018461157a565b92915050565b61163781611589565b811461164257600080fd5b50565b6000813590506116548161162e565b92915050565b6000602082840312156116705761166f611330565b5b600061167e84828501611645565b91505092915050565b6000819050919050565b60006116ac6116a76116a284611548565b611687565b611548565b9050919050565b60006116be82611691565b9050919050565b60006116d0826116b3565b9050919050565b6116e0816116c5565b82525050565b60006020820190506116fb60008301846116d7565b92915050565b61170a81611568565b811461171557600080fd5b50565b60008135905061172781611701565b92915050565b60006020828403121561174357611742611330565b5b600061175184828501611718565b91505092915050565b6000815190506117698161133a565b92915050565b60006020828403121561178557611784611330565b5b60006117938482850161175a565b91505092915050565b600082825260208201905092915050565b7f4f6e6c79205652462063616e2066756c66696c6c000000000000000000000000600082015250565b60006117e360148361179c565b91506117ee826117ad565b602082019050919050565b60006020820190508181036000830152611812816117d6565b9050919050565b7f436f6e74726163742062616c616e636520697320656d7074792e000000000000600082015250565b600061184f601a8361179c565b915061185a82611819565b602082019050919050565b6000602082019050818103600083015261187e81611842565b9050919050565b600060408201905061189a600083018561157a565b6118a760208301846112fc565b9392505050565b6000815190506118bd8161162e565b92915050565b6000602082840312156118d9576118d8611330565b5b60006118e7848285016118ae565b91505092915050565b7f5769746864726177616c206661696c6564000000000000000000000000000000600082015250565b600061192660118361179c565b9150611931826118f0565b602082019050919050565b6000602082019050818103600083015261195581611919565b9050919050565b6000606082019050611971600083018661157a565b61197e602083018561157a565b61198b60408301846112fc565b949350505050565b7f546f702d7570206661696c656400000000000000000000000000000000000000600082015250565b60006119c9600d8361179c565b91506119d482611993565b602082019050919050565b600060208201905081810360008301526119f8816119bc565b9050919050565b7f506c656173652073656e6420636f727265637420616d6f756e7420746f20706c60008201527f6179207468652067616d652e0000000000000000000000000000000000000000602082015250565b6000611a5b602c8361179c565b9150611a66826119ff565b604082019050919050565b60006020820190508181036000830152611a8a81611a4e565b9050919050565b7f546f6b656e207472616e73666572206661696c65640000000000000000000000600082015250565b6000611ac760158361179c565b9150611ad282611a91565b602082019050919050565b60006020820190508181036000830152611af681611aba565b9050919050565b6000819050919050565b6000819050919050565b60008160001b9050919050565b6000611b39611b34611b2f84611afd565b611b11565b611b07565b9050919050565b611b4981611b1e565b82525050565b600067ffffffffffffffff82169050919050565b6000611b7e611b79611b7484611afd565b611687565b611b4f565b9050919050565b611b8e81611b63565b82525050565b6000819050919050565b600061ffff82169050919050565b6000611bc7611bc2611bbd84611b94565b611687565b611b9e565b9050919050565b611bd781611bac565b82525050565b6000819050919050565b600063ffffffff82169050919050565b6000611c12611c0d611c0884611bdd565b611687565b611be7565b9050919050565b611c2281611bf7565b82525050565b6000611c43611c3e611c3984611b94565b611687565b611be7565b9050919050565b611c5381611c28565b82525050565b600060a082019050611c6e6000830188611b40565b611c7b6020830187611b85565b611c886040830186611bce565b611c956060830185611c19565b611ca26080830184611c4a565b9695505050505050565b7f4f776e61626c653a206e6577206f776e657220697320746865207a65726f206160008201527f6464726573730000000000000000000000000000000000000000000000000000602082015250565b6000611d0860268361179c565b9150611d1382611cac565b604082019050919050565b60006020820190508181036000830152611d3781611cfb565b9050919050565b7f4f776e61626c653a2063616c6c6572206973206e6f7420746865206f776e6572600082015250565b6000611d7460208361179c565b9150611d7f82611d3e565b602082019050919050565b60006020820190508181036000830152611da381611d67565b9050919050565b7f4e487b7100000000000000000000000000000000000000000000000000000000600052603260045260246000fd5b7f4e487b7100000000000000000000000000000000000000000000000000000000600052601260045260246000fd5b6000611e13826112f2565b9150611e1e836112f2565b925082611e2e57611e2d611dd9565b5b828206905092915050565b7f4e487b7100000000000000000000000000000000000000000000000000000000600052601160045260246000fd5b6000611e73826112f2565b91507fffffffffffffffffffffffffffffffffffffffffffffffffffffffffffffffff8203611ea557611ea4611e39565b5b600182019050919050565b6000611ebb826112f2565b9150611ec6836112f2565b9250828202611ed4816112f2565b91508282048414831517611eeb57611eea611e39565b5b5092915050565b6000611efd826112f2565b9150611f08836112f2565b925082611f1857611f17611dd9565b5b828204905092915050565b7f57696e6e696e6773207472616e73666572206661696c65640000000000000000600082015250565b6000611f5960188361179c565b9150611f6482611f23565b602082019050919050565b60006020820190508181036000830152611f8881611f4c565b9050919050565b600060c082019050611fa460008301896112fc565b611fb16020830188611595565b611fbe60408301876112fc565b611fcb60608301866112fc565b611fd86080830185611595565b611fe560a0830184611595565b979650505050505050565b6000604082019050612005600083018561157a565b612012602083018461157a565b939250505056fea26469706673582212200bbbbb12b65b9c5be943692e1c23574f5787e59346ee8dae8c696d7296a7d50464736f6c63430008130033","opcodes":"PUSH1 0xA0 PUSH1 0x40 MSTORE PUSH1 0x11 PUSH1 0x3 SSTORE PUSH1 0x16 PUSH1 0x4 SSTORE PUSH1 0x4 PUSH1 0x5 SSTORE CALLVALUE DUP1 ISZERO PUSH3 0x20 JUMPI PUSH1 0x0 DUP1 REVERT JUMPDEST POP PUSH1 0x40 MLOAD PUSH3 0x23E3 CODESIZE SUB DUP1 PUSH3 0x23E3 DUP4 CODECOPY DUP2 DUP2 ADD PUSH1 0x40 MSTORE DUP2 ADD SWAP1 PUSH3 0x46 SWAP2 SWAP1 PUSH3 0x32A JUMP JUMPDEST PUSH3 0x66 PUSH3 0x5A PUSH3 0x177 PUSH1 0x20 SHL PUSH1 0x20 SHR JUMP JUMPDEST PUSH3 0x17F PUSH1 0x20 SHL PUSH1 0x20 SHR JUMP JUMPDEST DUP2 PUSH20 0xFFFFFFFFFFFFFFFFFFFFFFFFFFFFFFFFFFFFFFFF AND PUSH1 0x80 DUP2 PUSH20 0xFFFFFFFFFFFFFFFFFFFFFFFFFFFFFFFFFFFFFFFF AND DUP2 MSTORE POP POP DUP1 PUSH1 0x1 PUSH1 0x0 PUSH2 0x100 EXP DUP2 SLOAD DUP2 PUSH20 0xFFFFFFFFFFFFFFFFFFFFFFFFFFFFFFFFFFFFFFFF MUL NOT AND SWAP1 DUP4 PUSH20 0xFFFFFFFFFFFFFFFFFFFFFFFFFFFFFFFFFFFFFFFF AND MUL OR SWAP1 SSTORE POP PUSH1 0x40 MLOAD DUP1 PUSH1 0xA0 ADD PUSH1 0x40 MSTORE DUP1 PUSH8 0x16345785D8A0000 PUSH8 0xFFFFFFFFFFFFFFFF AND DUP2 MSTORE PUSH1 0x20 ADD PUSH8 0x2C68AF0BB140000 PUSH8 0xFFFFFFFFFFFFFFFF AND DUP2 MSTORE PUSH1 0x20 ADD PUSH8 0x429D069189E0000 PUSH8 0xFFFFFFFFFFFFFFFF AND DUP2 MSTORE PUSH1 0x20 ADD PUSH8 0x58D15E176280000 PUSH8 0xFFFFFFFFFFFFFFFF AND DUP2 MSTORE PUSH1 0x20 ADD PUSH8 0x6F05B59D3B20000 PUSH8 0xFFFFFFFFFFFFFFFF AND DUP2 MSTORE POP PUSH1 0x8 SWAP1 PUSH1 0x5 PUSH3 0x16E SWAP3 SWAP2 SWAP1 PUSH3 0x243 JUMP JUMPDEST POP POP POP PUSH3 0x371 JUMP JUMPDEST PUSH1 0x0 CALLER SWAP1 POP SWAP1 JUMP JUMPDEST PUSH1 0x0 DUP1 PUSH1 0x0 SWAP1 SLOAD SWAP1 PUSH2 0x100 EXP SWAP1 DIV PUSH20 0xFFFFFFFFFFFFFFFFFFFFFFFFFFFFFFFFFFFFFFFF AND SWAP1 POP DUP2 PUSH1 0x0 DUP1 PUSH2 0x100 EXP DUP2 SLOAD DUP2 PUSH20 0xFFFFFFFFFFFFFFFFFFFFFFFFFFFFFFFFFFFFFFFF MUL NOT AND SWAP1 DUP4 PUSH20 0xFFFFFFFFFFFFFFFFFFFFFFFFFFFFFFFFFFFFFFFF AND MUL OR SWAP1 SSTORE POP DUP2 PUSH20 0xFFFFFFFFFFFFFFFFFFFFFFFFFFFFFFFFFFFFFFFF AND DUP2 PUSH20 0xFFFFFFFFFFFFFFFFFFFFFFFFFFFFFFFFFFFFFFFF AND PUSH32 0x8BE0079C531659141344CD1FD0A4F28419497F9722A3DAAFE3B4186F6B6457E0 PUSH1 0x40 MLOAD PUSH1 0x40 MLOAD DUP1 SWAP2 SUB SWAP1 LOG3 POP POP JUMP JUMPDEST DUP3 DUP1 SLOAD DUP3 DUP3 SSTORE SWAP1 PUSH1 0x0 MSTORE PUSH1 0x20 PUSH1 0x0 KECCAK256 SWAP1 DUP2 ADD SWAP3 DUP3 ISZERO PUSH3 0x28E JUMPI SWAP2 PUSH1 0x20 MUL DUP3 ADD JUMPDEST DUP3 DUP2 GT ISZERO PUSH3 0x28D JUMPI DUP3 MLOAD DUP3 SWAP1 PUSH8 0xFFFFFFFFFFFFFFFF AND SWAP1 SSTORE SWAP2 PUSH1 0x20 ADD SWAP2 SWAP1 PUSH1 0x1 ADD SWAP1 PUSH3 0x264 JUMP JUMPDEST JUMPDEST POP SWAP1 POP PUSH3 0x29D SWAP2 SWAP1 PUSH3 0x2A1 JUMP JUMPDEST POP SWAP1 JUMP JUMPDEST JUMPDEST DUP1 DUP3 GT ISZERO PUSH3 0x2BC JUMPI PUSH1 0x0 DUP2 PUSH1 0x0 SWAP1 SSTORE POP PUSH1 0x1 ADD PUSH3 0x2A2 JUMP JUMPDEST POP SWAP1 JUMP JUMPDEST PUSH1 0x0 DUP1 REVERT JUMPDEST PUSH1 0x0 PUSH20 0xFFFFFFFFFFFFFFFFFFFFFFFFFFFFFFFFFFFFFFFF DUP3 AND SWAP1 POP SWAP2 SWAP1 POP JUMP JUMPDEST PUSH1 0x0 PUSH3 0x2F2 DUP3 PUSH3 0x2C5 JUMP JUMPDEST SWAP1 POP SWAP2 SWAP1 POP JUMP JUMPDEST PUSH3 0x304 DUP2 PUSH3 0x2E5 JUMP JUMPDEST DUP2 EQ PUSH3 0x310 JUMPI PUSH1 0x0 DUP1 REVERT JUMPDEST POP JUMP JUMPDEST PUSH1 0x0 DUP2 MLOAD SWAP1 POP PUSH3 0x324 DUP2 PUSH3 0x2F9 JUMP JUMPDEST SWAP3 SWAP2 POP POP JUMP JUMPDEST PUSH1 0x0 DUP1 PUSH1 0x40 DUP4 DUP6 SUB SLT ISZERO PUSH3 0x344 JUMPI PUSH3 0x343 PUSH3 0x2C0 JUMP JUMPDEST JUMPDEST PUSH1 0x0 PUSH3 0x354 DUP6 DUP3 DUP7 ADD PUSH3 0x313 JUMP JUMPDEST SWAP3 POP POP PUSH1 0x20 PUSH3 0x367 DUP6 DUP3 DUP7 ADD PUSH3 0x313 JUMP JUMPDEST SWAP2 POP POP SWAP3 POP SWAP3 SWAP1 POP JUMP JUMPDEST PUSH1 0x80 MLOAD PUSH2 0x204F PUSH3 0x394 PUSH1 0x0 CODECOPY PUSH1 0x0 DUP2 DUP2 PUSH2 0x3D9 ADD MSTORE PUSH2 0x941 ADD MSTORE PUSH2 0x204F PUSH1 0x0 RETURN INVALID PUSH1 0x80 PUSH1 0x40 MSTORE CALLVALUE DUP1 ISZERO PUSH2 0x10 JUMPI PUSH1 0x0 DUP1 REVERT JUMPDEST POP PUSH1 0x4 CALLDATASIZE LT PUSH2 0x10B JUMPI PUSH1 0x0 CALLDATALOAD PUSH1 0xE0 SHR DUP1 PUSH4 0x8DA5CB5B GT PUSH2 0xA2 JUMPI DUP1 PUSH4 0xC3DFDAE6 GT PUSH2 0x71 JUMPI DUP1 PUSH4 0xC3DFDAE6 EQ PUSH2 0x274 JUMPI DUP1 PUSH4 0xC5F22083 EQ PUSH2 0x292 JUMPI DUP1 PUSH4 0xC9E2774C EQ PUSH2 0x2B0 JUMPI DUP1 PUSH4 0xF2FDE38B EQ PUSH2 0x2E0 JUMPI DUP1 PUSH4 0xF303773E EQ PUSH2 0x2FC JUMPI PUSH2 0x10B JUMP JUMPDEST DUP1 PUSH4 0x8DA5CB5B EQ PUSH2 0x1EC JUMPI DUP1 PUSH4 0xA635392D EQ PUSH2 0x20A JUMPI DUP1 PUSH4 0xB62AAA21 EQ PUSH2 0x226 JUMPI DUP1 PUSH4 0xC23C87D5 EQ PUSH2 0x244 JUMPI PUSH2 0x10B JUMP JUMPDEST DUP1 PUSH4 0x24600FC3 GT PUSH2 0xDE JUMPI DUP1 PUSH4 0x24600FC3 EQ PUSH2 0x184 JUMPI DUP1 PUSH4 0x34239C9C EQ PUSH2 0x18E JUMPI DUP1 PUSH4 0x715018A6 EQ PUSH2 0x1C4 JUMPI DUP1 PUSH4 0x8BDFF161 EQ PUSH2 0x1CE JUMPI PUSH2 0x10B JUMP JUMPDEST DUP1 PUSH4 0xB023A23 EQ PUSH2 0x110 JUMPI DUP1 PUSH4 0xB98F975 EQ PUSH2 0x12E JUMPI DUP1 PUSH4 0x12065FE0 EQ PUSH2 0x14A JUMPI DUP1 PUSH4 0x1FE543E3 EQ PUSH2 0x168 JUMPI JUMPDEST PUSH1 0x0 DUP1 REVERT JUMPDEST PUSH2 0x118 PUSH2 0x318 JUMP JUMPDEST PUSH1 0x40 MLOAD PUSH2 0x125 SWAP2 SWAP1 PUSH2 0x130B JUMP JUMPDEST PUSH1 0x40 MLOAD DUP1 SWAP2 SUB SWAP1 RETURN JUMPDEST PUSH2 0x148 PUSH1 0x4 DUP1 CALLDATASIZE SUB DUP2 ADD SWAP1 PUSH2 0x143 SWAP2 SWAP1 PUSH2 0x1366 JUMP JUMPDEST PUSH2 0x322 JUMP JUMPDEST STOP JUMPDEST PUSH2 0x152 PUSH2 0x334 JUMP JUMPDEST PUSH1 0x40 MLOAD PUSH2 0x15F SWAP2 SWAP1 PUSH2 0x130B JUMP JUMPDEST PUSH1 0x40 MLOAD DUP1 SWAP2 SUB SWAP1 RETURN JUMPDEST PUSH2 0x182 PUSH1 0x4 DUP1 CALLDATASIZE SUB DUP2 ADD SWAP1 PUSH2 0x17D SWAP2 SWAP1 PUSH2 0x14EC JUMP JUMPDEST PUSH2 0x3D7 JUMP JUMPDEST STOP JUMPDEST PUSH2 0x18C PUSH2 0x473 JUMP JUMPDEST STOP JUMPDEST PUSH2 0x1A8 PUSH1 0x4 DUP1 CALLDATASIZE SUB DUP2 ADD SWAP1 PUSH2 0x1A3 SWAP2 SWAP1 PUSH2 0x1366 JUMP JUMPDEST PUSH2 0x647 JUMP JUMPDEST PUSH1 0x40 MLOAD PUSH2 0x1BB SWAP8 SWAP7 SWAP6 SWAP5 SWAP4 SWAP3 SWAP2 SWAP1 PUSH2 0x15A4 JUMP JUMPDEST PUSH1 0x40 MLOAD DUP1 SWAP2 SUB SWAP1 RETURN JUMPDEST PUSH2 0x1CC PUSH2 0x6D0 JUMP JUMPDEST STOP JUMPDEST PUSH2 0x1D6 PUSH2 0x6E4 JUMP JUMPDEST PUSH1 0x40 MLOAD PUSH2 0x1E3 SWAP2 SWAP1 PUSH2 0x130B JUMP JUMPDEST PUSH1 0x40 MLOAD DUP1 SWAP2 SUB SWAP1 RETURN JUMPDEST PUSH2 0x1F4 PUSH2 0x6EE JUMP JUMPDEST PUSH1 0x40 MLOAD PUSH2 0x201 SWAP2 SWAP1 PUSH2 0x1613 JUMP JUMPDEST PUSH1 0x40 MLOAD DUP1 SWAP2 SUB SWAP1 RETURN JUMPDEST PUSH2 0x224 PUSH1 0x4 DUP1 CALLDATASIZE SUB DUP2 ADD SWAP1 PUSH2 0x21F SWAP2 SWAP1 PUSH2 0x1366 JUMP JUMPDEST PUSH2 0x717 JUMP JUMPDEST STOP JUMPDEST PUSH2 0x22E PUSH2 0x7FB JUMP JUMPDEST PUSH1 0x40 MLOAD PUSH2 0x23B SWAP2 SWAP1 PUSH2 0x130B JUMP JUMPDEST PUSH1 0x40 MLOAD DUP1 SWAP2 SUB SWAP1 RETURN JUMPDEST PUSH2 0x25E PUSH1 0x4 DUP1 CALLDATASIZE SUB DUP2 ADD SWAP1 PUSH2 0x259 SWAP2 SWAP1 PUSH2 0x165A JUMP JUMPDEST PUSH2 0x805 JUMP JUMPDEST PUSH1 0x40 MLOAD PUSH2 0x26B SWAP2 SWAP1 PUSH2 0x130B JUMP JUMPDEST PUSH1 0x40 MLOAD DUP1 SWAP2 SUB SWAP1 RETURN JUMPDEST PUSH2 0x27C PUSH2 0xB50 JUMP JUMPDEST PUSH1 0x40 MLOAD PUSH2 0x289 SWAP2 SWAP1 PUSH2 0x16E6 JUMP JUMPDEST PUSH1 0x40 MLOAD DUP1 SWAP2 SUB SWAP1 RETURN JUMPDEST PUSH2 0x29A PUSH2 0xB76 JUMP JUMPDEST PUSH1 0x40 MLOAD PUSH2 0x2A7 SWAP2 SWAP1 PUSH2 0x130B JUMP JUMPDEST PUSH1 0x40 MLOAD DUP1 SWAP2 SUB SWAP1 RETURN JUMPDEST PUSH2 0x2CA PUSH1 0x4 DUP1 CALLDATASIZE SUB DUP2 ADD SWAP1 PUSH2 0x2C5 SWAP2 SWAP1 PUSH2 0x1366 JUMP JUMPDEST PUSH2 0xB80 JUMP JUMPDEST PUSH1 0x40 MLOAD PUSH2 0x2D7 SWAP2 SWAP1 PUSH2 0x130B JUMP JUMPDEST PUSH1 0x40 MLOAD DUP1 SWAP2 SUB SWAP1 RETURN JUMPDEST PUSH2 0x2FA PUSH1 0x4 DUP1 CALLDATASIZE SUB DUP2 ADD SWAP1 PUSH2 0x2F5 SWAP2 SWAP1 PUSH2 0x172D JUMP JUMPDEST PUSH2 0xBA4 JUMP JUMPDEST STOP JUMPDEST PUSH2 0x316 PUSH1 0x4 DUP1 CALLDATASIZE SUB DUP2 ADD SWAP1 PUSH2 0x311 SWAP2 SWAP1 PUSH2 0x1366 JUMP JUMPDEST PUSH2 0xC27 JUMP JUMPDEST STOP JUMPDEST PUSH1 0x0 PUSH1 0x7 SLOAD SWAP1 POP SWAP1 JUMP JUMPDEST PUSH2 0x32A PUSH2 0xC39 JUMP JUMPDEST DUP1 PUSH1 0x4 DUP2 SWAP1 SSTORE POP POP JUMP JUMPDEST PUSH1 0x0 PUSH1 0x1 PUSH1 0x0 SWAP1 SLOAD SWAP1 PUSH2 0x100 EXP SWAP1 DIV PUSH20 0xFFFFFFFFFFFFFFFFFFFFFFFFFFFFFFFFFFFFFFFF AND PUSH20 0xFFFFFFFFFFFFFFFFFFFFFFFFFFFFFFFFFFFFFFFF AND PUSH4 0x70A08231 ADDRESS PUSH1 0x40 MLOAD DUP3 PUSH4 0xFFFFFFFF AND PUSH1 0xE0 SHL DUP2 MSTORE PUSH1 0x4 ADD PUSH2 0x391 SWAP2 SWAP1 PUSH2 0x1613 JUMP JUMPDEST PUSH1 0x20 PUSH1 0x40 MLOAD DUP1 DUP4 SUB DUP2 DUP7 GAS STATICCALL ISZERO DUP1 ISZERO PUSH2 0x3AE JUMPI RETURNDATASIZE PUSH1 0x0 DUP1 RETURNDATACOPY RETURNDATASIZE PUSH1 0x0 REVERT JUMPDEST POP POP POP POP PUSH1 0x40 MLOAD RETURNDATASIZE PUSH1 0x1F NOT PUSH1 0x1F DUP3 ADD AND DUP3 ADD DUP1 PUSH1 0x40 MSTORE POP DUP2 ADD SWAP1 PUSH2 0x3D2 SWAP2 SWAP1 PUSH2 0x176F JUMP JUMPDEST SWAP1 POP SWAP1 JUMP JUMPDEST PUSH32 0x0 PUSH20 0xFFFFFFFFFFFFFFFFFFFFFFFFFFFFFFFFFFFFFFFF AND CALLER PUSH20 0xFFFFFFFFFFFFFFFFFFFFFFFFFFFFFFFFFFFFFFFF AND EQ PUSH2 0x465 JUMPI PUSH1 0x40 MLOAD PUSH32 0x8C379A000000000000000000000000000000000000000000000000000000000 DUP2 MSTORE PUSH1 0x4 ADD PUSH2 0x45C SWAP1 PUSH2 0x17F9 JUMP JUMPDEST PUSH1 0x40 MLOAD DUP1 SWAP2 SUB SWAP1 REVERT JUMPDEST PUSH2 0x46F DUP3 DUP3 PUSH2 0xCB7 JUMP JUMPDEST POP POP JUMP JUMPDEST PUSH2 0x47B PUSH2 0xC39 JUMP JUMPDEST PUSH1 0x0 PUSH1 0x1 PUSH1 0x0 SWAP1 SLOAD SWAP1 PUSH2 0x100 EXP SWAP1 DIV PUSH20 0xFFFFFFFFFFFFFFFFFFFFFFFFFFFFFFFFFFFFFFFF AND PUSH20 0xFFFFFFFFFFFFFFFFFFFFFFFFFFFFFFFFFFFFFFFF AND PUSH4 0x70A08231 ADDRESS PUSH1 0x40 MLOAD DUP3 PUSH4 0xFFFFFFFF AND PUSH1 0xE0 SHL DUP2 MSTORE PUSH1 0x4 ADD PUSH2 0x4D8 SWAP2 SWAP1 PUSH2 0x1613 JUMP JUMPDEST PUSH1 0x20 PUSH1 0x40 MLOAD DUP1 DUP4 SUB DUP2 DUP7 GAS STATICCALL ISZERO DUP1 ISZERO PUSH2 0x4F5 JUMPI RETURNDATASIZE PUSH1 0x0 DUP1 RETURNDATACOPY RETURNDATASIZE PUSH1 0x0 REVERT JUMPDEST POP POP POP POP PUSH1 0x40 MLOAD RETURNDATASIZE PUSH1 0x1F NOT PUSH1 0x1F DUP3 ADD AND DUP3 ADD DUP1 PUSH1 0x40 MSTORE POP DUP2 ADD SWAP1 PUSH2 0x519 SWAP2 SWAP1 PUSH2 0x176F JUMP JUMPDEST SWAP1 POP PUSH1 0x0 DUP2 GT PUSH2 0x55E JUMPI PUSH1 0x40 MLOAD PUSH32 0x8C379A000000000000000000000000000000000000000000000000000000000 DUP2 MSTORE PUSH1 0x4 ADD PUSH2 0x555 SWAP1 PUSH2 0x1865 JUMP JUMPDEST PUSH1 0x40 MLOAD DUP1 SWAP2 SUB SWAP1 REVERT JUMPDEST PUSH1 0x1 PUSH1 0x0 SWAP1 SLOAD SWAP1 PUSH2 0x100 EXP SWAP1 DIV PUSH20 0xFFFFFFFFFFFFFFFFFFFFFFFFFFFFFFFFFFFFFFFF AND PUSH20 0xFFFFFFFFFFFFFFFFFFFFFFFFFFFFFFFFFFFFFFFF AND PUSH4 0xA9059CBB PUSH2 0x5A4 PUSH2 0x6EE JUMP JUMPDEST DUP4 PUSH1 0x40 MLOAD DUP4 PUSH4 0xFFFFFFFF AND PUSH1 0xE0 SHL DUP2 MSTORE PUSH1 0x4 ADD PUSH2 0x5C2 SWAP3 SWAP2 SWAP1 PUSH2 0x1885 JUMP JUMPDEST PUSH1 0x20 PUSH1 0x40 MLOAD DUP1 DUP4 SUB DUP2 PUSH1 0x0 DUP8 GAS CALL ISZERO DUP1 ISZERO PUSH2 0x5E1 JUMPI RETURNDATASIZE PUSH1 0x0 DUP1 RETURNDATACOPY RETURNDATASIZE PUSH1 0x0 REVERT JUMPDEST POP POP POP POP PUSH1 0x40 MLOAD RETURNDATASIZE PUSH1 0x1F NOT PUSH1 0x1F DUP3 ADD AND DUP3 ADD DUP1 PUSH1 0x40 MSTORE POP DUP2 ADD SWAP1 PUSH2 0x605 SWAP2 SWAP1 PUSH2 0x18C3 JUMP JUMPDEST PUSH2 0x644 JUMPI PUSH1 0x40 MLOAD PUSH32 0x8C379A000000000000000000000000000000000000000000000000000000000 DUP2 MSTORE PUSH1 0x4 ADD PUSH2 0x63B SWAP1 PUSH2 0x193C JUMP JUMPDEST PUSH1 0x40 MLOAD DUP1 SWAP2 SUB SWAP1 REVERT JUMPDEST POP JUMP JUMPDEST PUSH1 0x9 PUSH1 0x20 MSTORE DUP1 PUSH1 0x0 MSTORE PUSH1 0x40 PUSH1 0x0 KECCAK256 PUSH1 0x0 SWAP2 POP SWAP1 POP DUP1 PUSH1 0x0 ADD SLOAD SWAP1 DUP1 PUSH1 0x1 ADD SLOAD SWAP1 DUP1 PUSH1 0x2 ADD PUSH1 0x0 SWAP1 SLOAD SWAP1 PUSH2 0x100 EXP SWAP1 DIV PUSH20 0xFFFFFFFFFFFFFFFFFFFFFFFFFFFFFFFFFFFFFFFF AND SWAP1 DUP1 PUSH1 0x2 ADD PUSH1 0x14 SWAP1 SLOAD SWAP1 PUSH2 0x100 EXP SWAP1 DIV PUSH1 0xFF AND SWAP1 DUP1 PUSH1 0x2 ADD PUSH1 0x15 SWAP1 SLOAD SWAP1 PUSH2 0x100 EXP SWAP1 DIV PUSH1 0xFF AND SWAP1 DUP1 PUSH1 0x2 ADD PUSH1 0x16 SWAP1 SLOAD SWAP1 PUSH2 0x100 EXP SWAP1 DIV PUSH1 0xFF AND SWAP1 DUP1 PUSH1 0x3 ADD SLOAD SWAP1 POP DUP8 JUMP JUMPDEST PUSH2 0x6D8 PUSH2 0xC39 JUMP JUMPDEST PUSH2 0x6E2 PUSH1 0x0 PUSH2 0x10DF JUMP JUMPDEST JUMP JUMPDEST PUSH1 0x0 PUSH1 0x4 SLOAD SWAP1 POP SWAP1 JUMP JUMPDEST PUSH1 0x0 DUP1 PUSH1 0x0 SWAP1 SLOAD SWAP1 PUSH2 0x100 EXP SWAP1 DIV PUSH20 0xFFFFFFFFFFFFFFFFFFFFFFFFFFFFFFFFFFFFFFFF AND SWAP1 POP SWAP1 JUMP JUMPDEST PUSH1 0x1 PUSH1 0x0 SWAP1 SLOAD SWAP1 PUSH2 0x100 EXP SWAP1 DIV PUSH20 0xFFFFFFFFFFFFFFFFFFFFFFFFFFFFFFFFFFFFFFFF AND PUSH20 0xFFFFFFFFFFFFFFFFFFFFFFFFFFFFFFFFFFFFFFFF AND PUSH4 0x23B872DD CALLER ADDRESS DUP5 PUSH1 0x40 MLOAD DUP5 PUSH4 0xFFFFFFFF AND PUSH1 0xE0 SHL DUP2 MSTORE PUSH1 0x4 ADD PUSH2 0x776 SWAP4 SWAP3 SWAP2 SWAP1 PUSH2 0x195C JUMP JUMPDEST PUSH1 0x20 PUSH1 0x40 MLOAD DUP1 DUP4 SUB DUP2 PUSH1 0x0 DUP8 GAS CALL ISZERO DUP1 ISZERO PUSH2 0x795 JUMPI RETURNDATASIZE PUSH1 0x0 DUP1 RETURNDATACOPY RETURNDATASIZE PUSH1 0x0 REVERT JUMPDEST POP POP POP POP PUSH1 0x40 MLOAD RETURNDATASIZE PUSH1 0x1F NOT PUSH1 0x1F DUP3 ADD AND DUP3 ADD DUP1 PUSH1 0x40 MSTORE POP DUP2 ADD SWAP1 PUSH2 0x7B9 SWAP2 SWAP1 PUSH2 0x18C3 JUMP JUMPDEST PUSH2 0x7F8 JUMPI PUSH1 0x40 MLOAD PUSH32 0x8C379A000000000000000000000000000000000000000000000000000000000 DUP2 MSTORE PUSH1 0x4 ADD PUSH2 0x7EF SWAP1 PUSH2 0x19DF JUMP JUMPDEST PUSH1 0x40 MLOAD DUP1 SWAP2 SUB SWAP1 REVERT JUMPDEST POP JUMP JUMPDEST PUSH1 0x0 PUSH1 0x3 SLOAD SWAP1 POP SWAP1 JUMP JUMPDEST PUSH1 0x0 PUSH2 0x810 CALLER PUSH2 0x11A3 JUMP JUMPDEST PUSH2 0x84F JUMPI PUSH1 0x40 MLOAD PUSH32 0x8C379A000000000000000000000000000000000000000000000000000000000 DUP2 MSTORE PUSH1 0x4 ADD PUSH2 0x846 SWAP1 PUSH2 0x1A71 JUMP JUMPDEST PUSH1 0x40 MLOAD DUP1 SWAP2 SUB SWAP1 REVERT JUMPDEST PUSH1 0x0 PUSH2 0x85A CALLER PUSH2 0x11B7 JUMP JUMPDEST SWAP1 POP PUSH1 0x1 PUSH1 0x0 SWAP1 SLOAD SWAP1 PUSH2 0x100 EXP SWAP1 DIV PUSH20 0xFFFFFFFFFFFFFFFFFFFFFFFFFFFFFFFFFFFFFFFF AND PUSH20 0xFFFFFFFFFFFFFFFFFFFFFFFFFFFFFFFFFFFFFFFF AND PUSH4 0x23B872DD CALLER ADDRESS DUP5 PUSH1 0x40 MLOAD DUP5 PUSH4 0xFFFFFFFF AND PUSH1 0xE0 SHL DUP2 MSTORE PUSH1 0x4 ADD PUSH2 0x8BB SWAP4 SWAP3 SWAP2 SWAP1 PUSH2 0x195C JUMP JUMPDEST PUSH1 0x20 PUSH1 0x40 MLOAD DUP1 DUP4 SUB DUP2 PUSH1 0x0 DUP8 GAS CALL ISZERO DUP1 ISZERO PUSH2 0x8DA JUMPI RETURNDATASIZE PUSH1 0x0 DUP1 RETURNDATACOPY RETURNDATASIZE PUSH1 0x0 REVERT JUMPDEST POP POP POP POP PUSH1 0x40 MLOAD RETURNDATASIZE PUSH1 0x1F NOT PUSH1 0x1F DUP3 ADD AND DUP3 ADD DUP1 PUSH1 0x40 MSTORE POP DUP2 ADD SWAP1 PUSH2 0x8FE SWAP2 SWAP1 PUSH2 0x18C3 JUMP JUMPDEST PUSH2 0x93D JUMPI PUSH1 0x40 MLOAD PUSH32 0x8C379A000000000000000000000000000000000000000000000000000000000 DUP2 MSTORE PUSH1 0x4 ADD PUSH2 0x934 SWAP1 PUSH2 0x1ADD JUMP JUMPDEST PUSH1 0x40 MLOAD DUP1 SWAP2 SUB SWAP1 REVERT JUMPDEST PUSH1 0x0 PUSH32 0x0 PUSH20 0xFFFFFFFFFFFFFFFFFFFFFFFFFFFFFFFFFFFFFFFF AND PUSH4 0x5D3B1D30 PUSH1 0x0 DUP1 PUSH1 0x1 PUSH3 0x186A0 PUSH1 0x1 PUSH1 0x40 MLOAD DUP7 PUSH4 0xFFFFFFFF AND PUSH1 0xE0 SHL DUP2 MSTORE PUSH1 0x4 ADD PUSH2 0x9A6 SWAP6 SWAP5 SWAP4 SWAP3 SWAP2 SWAP1 PUSH2 0x1C59 JUMP JUMPDEST PUSH1 0x20 PUSH1 0x40 MLOAD DUP1 DUP4 SUB DUP2 PUSH1 0x0 DUP8 GAS CALL ISZERO DUP1 ISZERO PUSH2 0x9C5 JUMPI RETURNDATASIZE PUSH1 0x0 DUP1 RETURNDATACOPY RETURNDATASIZE PUSH1 0x0 REVERT JUMPDEST POP POP POP POP PUSH1 0x40 MLOAD RETURNDATASIZE PUSH1 0x1F NOT PUSH1 0x1F DUP3 ADD AND DUP3 ADD DUP1 PUSH1 0x40 MSTORE POP DUP2 ADD SWAP1 PUSH2 0x9E9 SWAP2 SWAP1 PUSH2 0x176F JUMP JUMPDEST SWAP1 POP PUSH1 0x40 MLOAD DUP1 PUSH1 0xE0 ADD PUSH1 0x40 MSTORE DUP1 PUSH1 0x0 DUP2 MSTORE PUSH1 0x20 ADD PUSH1 0x0 DUP2 MSTORE PUSH1 0x20 ADD CALLER PUSH20 0xFFFFFFFFFFFFFFFFFFFFFFFFFFFFFFFFFFFFFFFF AND DUP2 MSTORE PUSH1 0x20 ADD PUSH1 0x0 ISZERO ISZERO DUP2 MSTORE PUSH1 0x20 ADD PUSH1 0x0 ISZERO ISZERO DUP2 MSTORE PUSH1 0x20 ADD DUP6 ISZERO ISZERO DUP2 MSTORE PUSH1 0x20 ADD DUP4 DUP2 MSTORE POP PUSH1 0x9 PUSH1 0x0 DUP4 DUP2 MSTORE PUSH1 0x20 ADD SWAP1 DUP2 MSTORE PUSH1 0x20 ADD PUSH1 0x0 KECCAK256 PUSH1 0x0 DUP3 ADD MLOAD DUP2 PUSH1 0x0 ADD SSTORE PUSH1 0x20 DUP3 ADD MLOAD DUP2 PUSH1 0x1 ADD SSTORE PUSH1 0x40 DUP3 ADD MLOAD DUP2 PUSH1 0x2 ADD PUSH1 0x0 PUSH2 0x100 EXP DUP2 SLOAD DUP2 PUSH20 0xFFFFFFFFFFFFFFFFFFFFFFFFFFFFFFFFFFFFFFFF MUL NOT AND SWAP1 DUP4 PUSH20 0xFFFFFFFFFFFFFFFFFFFFFFFFFFFFFFFFFFFFFFFF AND MUL OR SWAP1 SSTORE POP PUSH1 0x60 DUP3 ADD MLOAD DUP2 PUSH1 0x2 ADD PUSH1 0x14 PUSH2 0x100 EXP DUP2 SLOAD DUP2 PUSH1 0xFF MUL NOT AND SWAP1 DUP4 ISZERO ISZERO MUL OR SWAP1 SSTORE POP PUSH1 0x80 DUP3 ADD MLOAD DUP2 PUSH1 0x2 ADD PUSH1 0x15 PUSH2 0x100 EXP DUP2 SLOAD DUP2 PUSH1 0xFF MUL NOT AND SWAP1 DUP4 ISZERO ISZERO MUL OR SWAP1 SSTORE POP PUSH1 0xA0 DUP3 ADD MLOAD DUP2 PUSH1 0x2 ADD PUSH1 0x16 PUSH2 0x100 EXP DUP2 SLOAD DUP2 PUSH1 0xFF MUL NOT AND SWAP1 DUP4 ISZERO ISZERO MUL OR SWAP1 SSTORE POP PUSH1 0xC0 DUP3 ADD MLOAD DUP2 PUSH1 0x3 ADD SSTORE SWAP1 POP POP DUP1 PUSH32 0x28A75F9A78CD502748CECC04795531FD051165F83E4BE1270400AC7130873E2E PUSH1 0x40 MLOAD PUSH1 0x40 MLOAD DUP1 SWAP2 SUB SWAP1 LOG2 DUP1 SWAP3 POP POP POP SWAP2 SWAP1 POP JUMP JUMPDEST PUSH1 0x1 PUSH1 0x0 SWAP1 SLOAD SWAP1 PUSH2 0x100 EXP SWAP1 DIV PUSH20 0xFFFFFFFFFFFFFFFFFFFFFFFFFFFFFFFFFFFFFFFF AND DUP2 JUMP JUMPDEST PUSH1 0x0 PUSH1 0x6 SLOAD SWAP1 POP SWAP1 JUMP JUMPDEST PUSH1 0x8 DUP2 DUP2 SLOAD DUP2 LT PUSH2 0xB90 JUMPI PUSH1 0x0 DUP1 REVERT JUMPDEST SWAP1 PUSH1 0x0 MSTORE PUSH1 0x20 PUSH1 0x0 KECCAK256 ADD PUSH1 0x0 SWAP2 POP SWAP1 POP SLOAD DUP2 JUMP JUMPDEST PUSH2 0xBAC PUSH2 0xC39 JUMP JUMPDEST PUSH1 0x0 PUSH20 0xFFFFFFFFFFFFFFFFFFFFFFFFFFFFFFFFFFFFFFFF AND DUP2 PUSH20 0xFFFFFFFFFFFFFFFFFFFFFFFFFFFFFFFFFFFFFFFF AND SUB PUSH2 0xC1B JUMPI PUSH1 0x40 MLOAD PUSH32 0x8C379A000000000000000000000000000000000000000000000000000000000 DUP2 MSTORE PUSH1 0x4 ADD PUSH2 0xC12 SWAP1 PUSH2 0x1D1E JUMP JUMPDEST PUSH1 0x40 MLOAD DUP1 SWAP2 SUB SWAP1 REVERT JUMPDEST PUSH2 0xC24 DUP2 PUSH2 0x10DF JUMP JUMPDEST POP JUMP JUMPDEST PUSH2 0xC2F PUSH2 0xC39 JUMP JUMPDEST DUP1 PUSH1 0x3 DUP2 SWAP1 SSTORE POP POP JUMP JUMPDEST PUSH2 0xC41 PUSH2 0x12BC JUMP JUMPDEST PUSH20 0xFFFFFFFFFFFFFFFFFFFFFFFFFFFFFFFFFFFFFFFF AND PUSH2 0xC5F PUSH2 0x6EE JUMP JUMPDEST PUSH20 0xFFFFFFFFFFFFFFFFFFFFFFFFFFFFFFFFFFFFFFFF AND EQ PUSH2 0xCB5 JUMPI PUSH1 0x40 MLOAD PUSH32 0x8C379A000000000000000000000000000000000000000000000000000000000 DUP2 MSTORE PUSH1 0x4 ADD PUSH2 0xCAC SWAP1 PUSH2 0x1D8A JUMP JUMPDEST PUSH1 0x40 MLOAD DUP1 SWAP2 SUB SWAP1 REVERT JUMPDEST JUMP JUMPDEST PUSH1 0x1 PUSH1 0x9 PUSH1 0x0 DUP5 DUP2 MSTORE PUSH1 0x20 ADD SWAP1 DUP2 MSTORE PUSH1 0x20 ADD PUSH1 0x0 KECCAK256 PUSH1 0x2 ADD PUSH1 0x15 PUSH2 0x100 EXP DUP2 SLOAD DUP2 PUSH1 0xFF MUL NOT AND SWAP1 DUP4 ISZERO ISZERO MUL OR SWAP1 SSTORE POP DUP1 PUSH1 0x0 DUP2 MLOAD DUP2 LT PUSH2 0xCFA JUMPI PUSH2 0xCF9 PUSH2 0x1DAA JUMP JUMPDEST JUMPDEST PUSH1 0x20 MUL PUSH1 0x20 ADD ADD MLOAD PUSH1 0x9 PUSH1 0x0 DUP5 DUP2 MSTORE PUSH1 0x20 ADD SWAP1 DUP2 MSTORE PUSH1 0x20 ADD PUSH1 0x0 KECCAK256 PUSH1 0x1 ADD DUP2 SWAP1 SSTORE POP PUSH1 0x0 PUSH1 0x64 DUP3 PUSH1 0x0 DUP2 MLOAD DUP2 LT PUSH2 0xD34 JUMPI PUSH2 0xD33 PUSH2 0x1DAA JUMP JUMPDEST JUMPDEST PUSH1 0x20 MUL PUSH1 0x20 ADD ADD MLOAD PUSH2 0xD46 SWAP2 SWAP1 PUSH2 0x1E08 JUMP JUMPDEST SWAP1 POP PUSH1 0x0 DUP1 PUSH1 0x2 DUP4 PUSH2 0xD58 SWAP2 SWAP1 PUSH2 0x1E08 JUMP JUMPDEST EQ SWAP1 POP PUSH1 0x0 PUSH1 0x9 PUSH1 0x0 DUP7 DUP2 MSTORE PUSH1 0x20 ADD SWAP1 DUP2 MSTORE PUSH1 0x20 ADD PUSH1 0x0 KECCAK256 PUSH1 0x2 ADD PUSH1 0x16 SWAP1 SLOAD SWAP1 PUSH2 0x100 EXP SWAP1 DIV PUSH1 0xFF AND ISZERO ISZERO DUP3 ISZERO ISZERO EQ SWAP1 POP PUSH1 0x0 PUSH1 0x5 SLOAD DUP5 LT SWAP1 POP DUP3 PUSH2 0xDB3 JUMPI PUSH1 0x7 PUSH1 0x0 DUP2 SLOAD DUP1 SWAP3 SWAP2 SWAP1 PUSH2 0xDAA SWAP1 PUSH2 0x1E68 JUMP JUMPDEST SWAP2 SWAP1 POP SSTORE PUSH2 0xDCB JUMP JUMPDEST PUSH1 0x6 PUSH1 0x0 DUP2 SLOAD DUP1 SWAP3 SWAP2 SWAP1 PUSH2 0xDC6 SWAP1 PUSH2 0x1E68 JUMP JUMPDEST SWAP2 SWAP1 POP SSTORE JUMPDEST POP PUSH1 0x0 DUP3 ISZERO PUSH2 0x1017 JUMPI PUSH2 0xE23 PUSH1 0x9 PUSH1 0x0 DUP10 DUP2 MSTORE PUSH1 0x20 ADD SWAP1 DUP2 MSTORE PUSH1 0x20 ADD PUSH1 0x0 KECCAK256 PUSH1 0x3 ADD SLOAD PUSH1 0xA DUP5 PUSH2 0xDFD JUMPI PUSH1 0x3 SLOAD PUSH2 0xE01 JUMP JUMPDEST PUSH1 0x4 SLOAD JUMPDEST PUSH8 0xDE0B6B3A7640000 PUSH2 0xE14 SWAP2 SWAP1 PUSH2 0x1EB0 JUMP JUMPDEST PUSH2 0xE1E SWAP2 SWAP1 PUSH2 0x1EF2 JUMP JUMPDEST PUSH2 0x12C4 JUMP JUMPDEST SWAP1 POP PUSH1 0x0 PUSH1 0x1 PUSH1 0x0 SWAP1 SLOAD SWAP1 PUSH2 0x100 EXP SWAP1 DIV PUSH20 0xFFFFFFFFFFFFFFFFFFFFFFFFFFFFFFFFFFFFFFFF AND PUSH20 0xFFFFFFFFFFFFFFFFFFFFFFFFFFFFFFFFFFFFFFFF AND PUSH4 0x70A08231 ADDRESS PUSH1 0x40 MLOAD DUP3 PUSH4 0xFFFFFFFF AND PUSH1 0xE0 SHL DUP2 MSTORE PUSH1 0x4 ADD PUSH2 0xE82 SWAP2 SWAP1 PUSH2 0x1613 JUMP JUMPDEST PUSH1 0x20 PUSH1 0x40 MLOAD DUP1 DUP4 SUB DUP2 DUP7 GAS STATICCALL ISZERO DUP1 ISZERO PUSH2 0xE9F JUMPI RETURNDATASIZE PUSH1 0x0 DUP1 RETURNDATACOPY RETURNDATASIZE PUSH1 0x0 REVERT JUMPDEST POP POP POP POP PUSH1 0x40 MLOAD RETURNDATASIZE PUSH1 0x1F NOT PUSH1 0x1F DUP3 ADD AND DUP3 ADD DUP1 PUSH1 0x40 MSTORE POP DUP2 ADD SWAP1 PUSH2 0xEC3 SWAP2 SWAP1 PUSH2 0x176F JUMP JUMPDEST SWAP1 POP DUP1 DUP3 GT ISZERO PUSH2 0xED1 JUMPI DUP1 SWAP2 POP JUMPDEST PUSH1 0x1 PUSH1 0x9 PUSH1 0x0 DUP11 DUP2 MSTORE PUSH1 0x20 ADD SWAP1 DUP2 MSTORE PUSH1 0x20 ADD PUSH1 0x0 KECCAK256 PUSH1 0x2 ADD PUSH1 0x14 PUSH2 0x100 EXP DUP2 SLOAD DUP2 PUSH1 0xFF MUL NOT AND SWAP1 DUP4 ISZERO ISZERO MUL OR SWAP1 SSTORE POP PUSH1 0x1 PUSH1 0x0 SWAP1 SLOAD SWAP1 PUSH2 0x100 EXP SWAP1 DIV PUSH20 0xFFFFFFFFFFFFFFFFFFFFFFFFFFFFFFFFFFFFFFFF AND PUSH20 0xFFFFFFFFFFFFFFFFFFFFFFFFFFFFFFFFFFFFFFFF AND PUSH4 0xA9059CBB PUSH1 0x9 PUSH1 0x0 DUP12 DUP2 MSTORE PUSH1 0x20 ADD SWAP1 DUP2 MSTORE PUSH1 0x20 ADD PUSH1 0x0 KECCAK256 PUSH1 0x2 ADD PUSH1 0x0 SWAP1 SLOAD SWAP1 PUSH2 0x100 EXP SWAP1 DIV PUSH20 0xFFFFFFFFFFFFFFFFFFFFFFFFFFFFFFFFFFFFFFFF AND DUP5 PUSH1 0x40 MLOAD DUP4 PUSH4 0xFFFFFFFF AND PUSH1 0xE0 SHL DUP2 MSTORE PUSH1 0x4 ADD PUSH2 0xF93 SWAP3 SWAP2 SWAP1 PUSH2 0x1885 JUMP JUMPDEST PUSH1 0x20 PUSH1 0x40 MLOAD DUP1 DUP4 SUB DUP2 PUSH1 0x0 DUP8 GAS CALL ISZERO DUP1 ISZERO PUSH2 0xFB2 JUMPI RETURNDATASIZE PUSH1 0x0 DUP1 RETURNDATACOPY RETURNDATASIZE PUSH1 0x0 REVERT JUMPDEST POP POP POP POP PUSH1 0x40 MLOAD RETURNDATASIZE PUSH1 0x1F NOT PUSH1 0x1F DUP3 ADD AND DUP3 ADD DUP1 PUSH1 0x40 MSTORE POP DUP2 ADD SWAP1 PUSH2 0xFD6 SWAP2 SWAP1 PUSH2 0x18C3 JUMP JUMPDEST PUSH2 0x1015 JUMPI PUSH1 0x40 MLOAD PUSH32 0x8C379A000000000000000000000000000000000000000000000000000000000 DUP2 MSTORE PUSH1 0x4 ADD PUSH2 0x100C SWAP1 PUSH2 0x1F6F JUMP JUMPDEST PUSH1 0x40 MLOAD DUP1 SWAP2 SUB SWAP1 REVERT JUMPDEST POP JUMPDEST PUSH1 0x2 PUSH1 0x0 DUP2 SLOAD DUP1 SWAP3 SWAP2 SWAP1 PUSH2 0x102A SWAP1 PUSH2 0x1E68 JUMP JUMPDEST SWAP2 SWAP1 POP SSTORE POP DUP7 PUSH1 0x9 PUSH1 0x0 DUP10 DUP2 MSTORE PUSH1 0x20 ADD SWAP1 DUP2 MSTORE PUSH1 0x20 ADD PUSH1 0x0 KECCAK256 PUSH1 0x2 ADD PUSH1 0x0 SWAP1 SLOAD SWAP1 PUSH2 0x100 EXP SWAP1 DIV PUSH20 0xFFFFFFFFFFFFFFFFFFFFFFFFFFFFFFFFFFFFFFFF AND PUSH20 0xFFFFFFFFFFFFFFFFFFFFFFFFFFFFFFFFFFFFFFFF AND PUSH32 0x3FCEB718577531F659BE1037B1DD265E5E32134C2BE981E0BC1579F2250B0850 PUSH1 0x2 SLOAD DUP7 PUSH1 0x9 PUSH1 0x0 DUP14 DUP2 MSTORE PUSH1 0x20 ADD SWAP1 DUP2 MSTORE PUSH1 0x20 ADD PUSH1 0x0 KECCAK256 PUSH1 0x3 ADD SLOAD DUP7 DUP9 DUP12 PUSH1 0x40 MLOAD PUSH2 0x10CE SWAP7 SWAP6 SWAP5 SWAP4 SWAP3 SWAP2 SWAP1 PUSH2 0x1F8F JUMP JUMPDEST PUSH1 0x40 MLOAD DUP1 SWAP2 SUB SWAP1 LOG3 POP POP POP POP POP POP POP JUMP JUMPDEST PUSH1 0x0 DUP1 PUSH1 0x0 SWAP1 SLOAD SWAP1 PUSH2 0x100 EXP SWAP1 DIV PUSH20 0xFFFFFFFFFFFFFFFFFFFFFFFFFFFFFFFFFFFFFFFF AND SWAP1 POP DUP2 PUSH1 0x0 DUP1 PUSH2 0x100 EXP DUP2 SLOAD DUP2 PUSH20 0xFFFFFFFFFFFFFFFFFFFFFFFFFFFFFFFFFFFFFFFF MUL NOT AND SWAP1 DUP4 PUSH20 0xFFFFFFFFFFFFFFFFFFFFFFFFFFFFFFFFFFFFFFFF AND MUL OR SWAP1 SSTORE POP DUP2 PUSH20 0xFFFFFFFFFFFFFFFFFFFFFFFFFFFFFFFFFFFFFFFF AND DUP2 PUSH20 0xFFFFFFFFFFFFFFFFFFFFFFFFFFFFFFFFFFFFFFFF AND PUSH32 0x8BE0079C531659141344CD1FD0A4F28419497F9722A3DAAFE3B4186F6B6457E0 PUSH1 0x40 MLOAD PUSH1 0x40 MLOAD DUP1 SWAP2 SUB SWAP1 LOG3 POP POP JUMP JUMPDEST PUSH1 0x0 DUP1 PUSH2 0x11AF DUP4 PUSH2 0x11B7 JUMP JUMPDEST GT SWAP1 POP SWAP2 SWAP1 POP JUMP JUMPDEST PUSH1 0x0 DUP1 PUSH1 0x0 SWAP1 POP JUMPDEST PUSH1 0x8 DUP1 SLOAD SWAP1 POP DUP2 LT ISZERO PUSH2 0x12B1 JUMPI PUSH1 0x0 PUSH1 0x8 DUP3 DUP2 SLOAD DUP2 LT PUSH2 0x11E2 JUMPI PUSH2 0x11E1 PUSH2 0x1DAA JUMP JUMPDEST JUMPDEST SWAP1 PUSH1 0x0 MSTORE PUSH1 0x20 PUSH1 0x0 KECCAK256 ADD SLOAD SWAP1 POP DUP1 PUSH1 0x1 PUSH1 0x0 SWAP1 SLOAD SWAP1 PUSH2 0x100 EXP SWAP1 DIV PUSH20 0xFFFFFFFFFFFFFFFFFFFFFFFFFFFFFFFFFFFFFFFF AND PUSH20 0xFFFFFFFFFFFFFFFFFFFFFFFFFFFFFFFFFFFFFFFF AND PUSH4 0xDD62ED3E DUP7 ADDRESS PUSH1 0x40 MLOAD DUP4 PUSH4 0xFFFFFFFF AND PUSH1 0xE0 SHL DUP2 MSTORE PUSH1 0x4 ADD PUSH2 0x124D SWAP3 SWAP2 SWAP1 PUSH2 0x1FF0 JUMP JUMPDEST PUSH1 0x20 PUSH1 0x40 MLOAD DUP1 DUP4 SUB DUP2 DUP7 GAS STATICCALL ISZERO DUP1 ISZERO PUSH2 0x126A JUMPI RETURNDATASIZE PUSH1 0x0 DUP1 RETURNDATACOPY RETURNDATASIZE PUSH1 0x0 REVERT JUMPDEST POP POP POP POP PUSH1 0x40 MLOAD RETURNDATASIZE PUSH1 0x1F NOT PUSH1 0x1F DUP3 ADD AND DUP3 ADD DUP1 PUSH1 0x40 MSTORE POP DUP2 ADD SWAP1 PUSH2 0x128E SWAP2 SWAP1 PUSH2 0x176F JUMP JUMPDEST LT PUSH2 0x129D JUMPI DUP1 SWAP3 POP POP POP PUSH2 0x12B7 JUMP JUMPDEST POP DUP1 DUP1 PUSH2 0x12A9 SWAP1 PUSH2 0x1E68 JUMP JUMPDEST SWAP2 POP POP PUSH2 0x11BF JUMP JUMPDEST POP PUSH1 0x0 SWAP1 POP JUMPDEST SWAP2 SWAP1 POP JUMP JUMPDEST PUSH1 0x0 CALLER SWAP1 POP SWAP1 JUMP JUMPDEST PUSH1 0x0 DUP1 PUSH8 0xDE0B6B3A7640000 DUP4 DUP6 PUSH2 0x12DC SWAP2 SWAP1 PUSH2 0x1EB0 JUMP JUMPDEST PUSH2 0x12E6 SWAP2 SWAP1 PUSH2 0x1EF2 JUMP JUMPDEST SWAP1 POP DUP1 SWAP2 POP POP SWAP3 SWAP2 POP POP JUMP JUMPDEST PUSH1 0x0 DUP2 SWAP1 POP SWAP2 SWAP1 POP JUMP JUMPDEST PUSH2 0x1305 DUP2 PUSH2 0x12F2 JUMP JUMPDEST DUP3 MSTORE POP POP JUMP JUMPDEST PUSH1 0x0 PUSH1 0x20 DUP3 ADD SWAP1 POP PUSH2 0x1320 PUSH1 0x0 DUP4 ADD DUP5 PUSH2 0x12FC JUMP JUMPDEST SWAP3 SWAP2 POP POP JUMP JUMPDEST PUSH1 0x0 PUSH1 0x40 MLOAD SWAP1 POP SWAP1 JUMP JUMPDEST PUSH1 0x0 DUP1 REVERT JUMPDEST PUSH1 0x0 DUP1 REVERT JUMPDEST PUSH2 0x1343 DUP2 PUSH2 0x12F2 JUMP JUMPDEST DUP2 EQ PUSH2 0x134E JUMPI PUSH1 0x0 DUP1 REVERT JUMPDEST POP JUMP JUMPDEST PUSH1 0x0 DUP2 CALLDATALOAD SWAP1 POP PUSH2 0x1360 DUP2 PUSH2 0x133A JUMP JUMPDEST SWAP3 SWAP2 POP POP JUMP JUMPDEST PUSH1 0x0 PUSH1 0x20 DUP3 DUP5 SUB SLT ISZERO PUSH2 0x137C JUMPI PUSH2 0x137B PUSH2 0x1330 JUMP JUMPDEST JUMPDEST PUSH1 0x0 PUSH2 0x138A DUP5 DUP3 DUP6 ADD PUSH2 0x1351 JUMP JUMPDEST SWAP2 POP POP SWAP3 SWAP2 POP POP JUMP JUMPDEST PUSH1 0x0 DUP1 REVERT JUMPDEST PUSH1 0x0 PUSH1 0x1F NOT PUSH1 0x1F DUP4 ADD AND SWAP1 POP SWAP2 SWAP1 POP JUMP JUMPDEST PUSH32 0x4E487B7100000000000000000000000000000000000000000000000000000000 PUSH1 0x0 MSTORE PUSH1 0x41 PUSH1 0x4 MSTORE PUSH1 0x24 PUSH1 0x0 REVERT JUMPDEST PUSH2 0x13E1 DUP3 PUSH2 0x1398 JUMP JUMPDEST DUP2 ADD DUP2 DUP2 LT PUSH8 0xFFFFFFFFFFFFFFFF DUP3 GT OR ISZERO PUSH2 0x1400 JUMPI PUSH2 0x13FF PUSH2 0x13A9 JUMP JUMPDEST JUMPDEST DUP1 PUSH1 0x40 MSTORE POP POP POP JUMP JUMPDEST PUSH1 0x0 PUSH2 0x1413 PUSH2 0x1326 JUMP JUMPDEST SWAP1 POP PUSH2 0x141F DUP3 DUP3 PUSH2 0x13D8 JUMP JUMPDEST SWAP2 SWAP1 POP JUMP JUMPDEST PUSH1 0x0 PUSH8 0xFFFFFFFFFFFFFFFF DUP3 GT ISZERO PUSH2 0x143F JUMPI PUSH2 0x143E PUSH2 0x13A9 JUMP JUMPDEST JUMPDEST PUSH1 0x20 DUP3 MUL SWAP1 POP PUSH1 0x20 DUP2 ADD SWAP1 POP SWAP2 SWAP1 POP JUMP JUMPDEST PUSH1 0x0 DUP1 REVERT JUMPDEST PUSH1 0x0 PUSH2 0x1468 PUSH2 0x1463 DUP5 PUSH2 0x1424 JUMP JUMPDEST PUSH2 0x1409 JUMP JUMPDEST SWAP1 POP DUP1 DUP4 DUP3 MSTORE PUSH1 0x20 DUP3 ADD SWAP1 POP PUSH1 0x20 DUP5 MUL DUP4 ADD DUP6 DUP2 GT ISZERO PUSH2 0x148B JUMPI PUSH2 0x148A PUSH2 0x1450 JUMP JUMPDEST JUMPDEST DUP4 JUMPDEST DUP2 DUP2 LT ISZERO PUSH2 0x14B4 JUMPI DUP1 PUSH2 0x14A0 DUP9 DUP3 PUSH2 0x1351 JUMP JUMPDEST DUP5 MSTORE PUSH1 0x20 DUP5 ADD SWAP4 POP POP PUSH1 0x20 DUP2 ADD SWAP1 POP PUSH2 0x148D JUMP JUMPDEST POP POP POP SWAP4 SWAP3 POP POP POP JUMP JUMPDEST PUSH1 0x0 DUP3 PUSH1 0x1F DUP4 ADD SLT PUSH2 0x14D3 JUMPI PUSH2 0x14D2 PUSH2 0x1393 JUMP JUMPDEST JUMPDEST DUP2 CALLDATALOAD PUSH2 0x14E3 DUP5 DUP3 PUSH1 0x20 DUP7 ADD PUSH2 0x1455 JUMP JUMPDEST SWAP2 POP POP SWAP3 SWAP2 POP POP JUMP JUMPDEST PUSH1 0x0 DUP1 PUSH1 0x40 DUP4 DUP6 SUB SLT ISZERO PUSH2 0x1503 JUMPI PUSH2 0x1502 PUSH2 0x1330 JUMP JUMPDEST JUMPDEST PUSH1 0x0 PUSH2 0x1511 DUP6 DUP3 DUP7 ADD PUSH2 0x1351 JUMP JUMPDEST SWAP3 POP POP PUSH1 0x20 DUP4 ADD CALLDATALOAD PUSH8 0xFFFFFFFFFFFFFFFF DUP2 GT ISZERO PUSH2 0x1532 JUMPI PUSH2 0x1531 PUSH2 0x1335 JUMP JUMPDEST JUMPDEST PUSH2 0x153E DUP6 DUP3 DUP7 ADD PUSH2 0x14BE JUMP JUMPDEST SWAP2 POP POP SWAP3 POP SWAP3 SWAP1 POP JUMP JUMPDEST PUSH1 0x0 PUSH20 0xFFFFFFFFFFFFFFFFFFFFFFFFFFFFFFFFFFFFFFFF DUP3 AND SWAP1 POP SWAP2 SWAP1 POP JUMP JUMPDEST PUSH1 0x0 PUSH2 0x1573 DUP3 PUSH2 0x1548 JUMP JUMPDEST SWAP1 POP SWAP2 SWAP1 POP JUMP JUMPDEST PUSH2 0x1583 DUP2 PUSH2 0x1568 JUMP JUMPDEST DUP3 MSTORE POP POP JUMP JUMPDEST PUSH1 0x0 DUP2 ISZERO ISZERO SWAP1 POP SWAP2 SWAP1 POP JUMP JUMPDEST PUSH2 0x159E DUP2 PUSH2 0x1589 JUMP JUMPDEST DUP3 MSTORE POP POP JUMP JUMPDEST PUSH1 0x0 PUSH1 0xE0 DUP3 ADD SWAP1 POP PUSH2 0x15B9 PUSH1 0x0 DUP4 ADD DUP11 PUSH2 0x12FC JUMP JUMPDEST PUSH2 0x15C6 PUSH1 0x20 DUP4 ADD DUP10 PUSH2 0x12FC JUMP JUMPDEST PUSH2 0x15D3 PUSH1 0x40 DUP4 ADD DUP9 PUSH2 0x157A JUMP JUMPDEST PUSH2 0x15E0 PUSH1 0x60 DUP4 ADD DUP8 PUSH2 0x1595 JUMP JUMPDEST PUSH2 0x15ED PUSH1 0x80 DUP4 ADD DUP7 PUSH2 0x1595 JUMP JUMPDEST PUSH2 0x15FA PUSH1 0xA0 DUP4 ADD DUP6 PUSH2 0x1595 JUMP JUMPDEST PUSH2 0x1607 PUSH1 0xC0 DUP4 ADD DUP5 PUSH2 0x12FC JUMP JUMPDEST SWAP9 SWAP8 POP POP POP POP POP POP POP POP JUMP JUMPDEST PUSH1 0x0 PUSH1 0x20 DUP3 ADD SWAP1 POP PUSH2 0x1628 PUSH1 0x0 DUP4 ADD DUP5 PUSH2 0x157A JUMP JUMPDEST SWAP3 SWAP2 POP POP JUMP JUMPDEST PUSH2 0x1637 DUP2 PUSH2 0x1589 JUMP JUMPDEST DUP2 EQ PUSH2 0x1642 JUMPI PUSH1 0x0 DUP1 REVERT JUMPDEST POP JUMP JUMPDEST PUSH1 0x0 DUP2 CALLDATALOAD SWAP1 POP PUSH2 0x1654 DUP2 PUSH2 0x162E JUMP JUMPDEST SWAP3 SWAP2 POP POP JUMP JUMPDEST PUSH1 0x0 PUSH1 0x20 DUP3 DUP5 SUB SLT ISZERO PUSH2 0x1670 JUMPI PUSH2 0x166F PUSH2 0x1330 JUMP JUMPDEST JUMPDEST PUSH1 0x0 PUSH2 0x167E DUP5 DUP3 DUP6 ADD PUSH2 0x1645 JUMP JUMPDEST SWAP2 POP POP SWAP3 SWAP2 POP POP JUMP JUMPDEST PUSH1 0x0 DUP2 SWAP1 POP SWAP2 SWAP1 POP JUMP JUMPDEST PUSH1 0x0 PUSH2 0x16AC PUSH2 0x16A7 PUSH2 0x16A2 DUP5 PUSH2 0x1548 JUMP JUMPDEST PUSH2 0x1687 JUMP JUMPDEST PUSH2 0x1548 JUMP JUMPDEST SWAP1 POP SWAP2 SWAP1 POP JUMP JUMPDEST PUSH1 0x0 PUSH2 0x16BE DUP3 PUSH2 0x1691 JUMP JUMPDEST SWAP1 POP SWAP2 SWAP1 POP JUMP JUMPDEST PUSH1 0x0 PUSH2 0x16D0 DUP3 PUSH2 0x16B3 JUMP JUMPDEST SWAP1 POP SWAP2 SWAP1 POP JUMP JUMPDEST PUSH2 0x16E0 DUP2 PUSH2 0x16C5 JUMP JUMPDEST DUP3 MSTORE POP POP JUMP JUMPDEST PUSH1 0x0 PUSH1 0x20 DUP3 ADD SWAP1 POP PUSH2 0x16FB PUSH1 0x0 DUP4 ADD DUP5 PUSH2 0x16D7 JUMP JUMPDEST SWAP3 SWAP2 POP POP JUMP JUMPDEST PUSH2 0x170A DUP2 PUSH2 0x1568 JUMP JUMPDEST DUP2 EQ PUSH2 0x1715 JUMPI PUSH1 0x0 DUP1 REVERT JUMPDEST POP JUMP JUMPDEST PUSH1 0x0 DUP2 CALLDATALOAD SWAP1 POP PUSH2 0x1727 DUP2 PUSH2 0x1701 JUMP JUMPDEST SWAP3 SWAP2 POP POP JUMP JUMPDEST PUSH1 0x0 PUSH1 0x20 DUP3 DUP5 SUB SLT ISZERO PUSH2 0x1743 JUMPI PUSH2 0x1742 PUSH2 0x1330 JUMP JUMPDEST JUMPDEST PUSH1 0x0 PUSH2 0x1751 DUP5 DUP3 DUP6 ADD PUSH2 0x1718 JUMP JUMPDEST SWAP2 POP POP SWAP3 SWAP2 POP POP JUMP JUMPDEST PUSH1 0x0 DUP2 MLOAD SWAP1 POP PUSH2 0x1769 DUP2 PUSH2 0x133A JUMP JUMPDEST SWAP3 SWAP2 POP POP JUMP JUMPDEST PUSH1 0x0 PUSH1 0x20 DUP3 DUP5 SUB SLT ISZERO PUSH2 0x1785 JUMPI PUSH2 0x1784 PUSH2 0x1330 JUMP JUMPDEST JUMPDEST PUSH1 0x0 PUSH2 0x1793 DUP5 DUP3 DUP6 ADD PUSH2 0x175A JUMP JUMPDEST SWAP2 POP POP SWAP3 SWAP2 POP POP JUMP JUMPDEST PUSH1 0x0 DUP3 DUP3 MSTORE PUSH1 0x20 DUP3 ADD SWAP1 POP SWAP3 SWAP2 POP POP JUMP JUMPDEST PUSH32 0x4F6E6C79205652462063616E2066756C66696C6C000000000000000000000000 PUSH1 0x0 DUP3 ADD MSTORE POP JUMP JUMPDEST PUSH1 0x0 PUSH2 0x17E3 PUSH1 0x14 DUP4 PUSH2 0x179C JUMP JUMPDEST SWAP2 POP PUSH2 0x17EE DUP3 PUSH2 0x17AD JUMP JUMPDEST PUSH1 0x20 DUP3 ADD SWAP1 POP SWAP2 SWAP1 POP JUMP JUMPDEST PUSH1 0x0 PUSH1 0x20 DUP3 ADD SWAP1 POP DUP2 DUP2 SUB PUSH1 0x0 DUP4 ADD MSTORE PUSH2 0x1812 DUP2 PUSH2 0x17D6 JUMP JUMPDEST SWAP1 POP SWAP2 SWAP1 POP JUMP JUMPDEST PUSH32 0x436F6E74726163742062616C616E636520697320656D7074792E000000000000 PUSH1 0x0 DUP3 ADD MSTORE POP JUMP JUMPDEST PUSH1 0x0 PUSH2 0x184F PUSH1 0x1A DUP4 PUSH2 0x179C JUMP JUMPDEST SWAP2 POP PUSH2 0x185A DUP3 PUSH2 0x1819 JUMP JUMPDEST PUSH1 0x20 DUP3 ADD SWAP1 POP SWAP2 SWAP1 POP JUMP JUMPDEST PUSH1 0x0 PUSH1 0x20 DUP3 ADD SWAP1 POP DUP2 DUP2 SUB PUSH1 0x0 DUP4 ADD MSTORE PUSH2 0x187E DUP2 PUSH2 0x1842 JUMP JUMPDEST SWAP1 POP SWAP2 SWAP1 POP JUMP JUMPDEST PUSH1 0x0 PUSH1 0x40 DUP3 ADD SWAP1 POP PUSH2 0x189A PUSH1 0x0 DUP4 ADD DUP6 PUSH2 0x157A JUMP JUMPDEST PUSH2 0x18A7 PUSH1 0x20 DUP4 ADD DUP5 PUSH2 0x12FC JUMP JUMPDEST SWAP4 SWAP3 POP POP POP JUMP JUMPDEST PUSH1 0x0 DUP2 MLOAD SWAP1 POP PUSH2 0x18BD DUP2 PUSH2 0x162E JUMP JUMPDEST SWAP3 SWAP2 POP POP JUMP JUMPDEST PUSH1 0x0 PUSH1 0x20 DUP3 DUP5 SUB SLT ISZERO PUSH2 0x18D9 JUMPI PUSH2 0x18D8 PUSH2 0x1330 JUMP JUMPDEST JUMPDEST PUSH1 0x0 PUSH2 0x18E7 DUP5 DUP3 DUP6 ADD PUSH2 0x18AE JUMP JUMPDEST SWAP2 POP POP SWAP3 SWAP2 POP POP JUMP JUMPDEST PUSH32 0x5769746864726177616C206661696C6564000000000000000000000000000000 PUSH1 0x0 DUP3 ADD MSTORE POP JUMP JUMPDEST PUSH1 0x0 PUSH2 0x1926 PUSH1 0x11 DUP4 PUSH2 0x179C JUMP JUMPDEST SWAP2 POP PUSH2 0x1931 DUP3 PUSH2 0x18F0 JUMP JUMPDEST PUSH1 0x20 DUP3 ADD SWAP1 POP SWAP2 SWAP1 POP JUMP JUMPDEST PUSH1 0x0 PUSH1 0x20 DUP3 ADD SWAP1 POP DUP2 DUP2 SUB PUSH1 0x0 DUP4 ADD MSTORE PUSH2 0x1955 DUP2 PUSH2 0x1919 JUMP JUMPDEST SWAP1 POP SWAP2 SWAP1 POP JUMP JUMPDEST PUSH1 0x0 PUSH1 0x60 DUP3 ADD SWAP1 POP PUSH2 0x1971 PUSH1 0x0 DUP4 ADD DUP7 PUSH2 0x157A JUMP JUMPDEST PUSH2 0x197E PUSH1 0x20 DUP4 ADD DUP6 PUSH2 0x157A JUMP JUMPDEST PUSH2 0x198B PUSH1 0x40 DUP4 ADD DUP5 PUSH2 0x12FC JUMP JUMPDEST SWAP5 SWAP4 POP POP POP POP JUMP JUMPDEST PUSH32 0x546F702D7570206661696C656400000000000000000000000000000000000000 PUSH1 0x0 DUP3 ADD MSTORE POP JUMP JUMPDEST PUSH1 0x0 PUSH2 0x19C9 PUSH1 0xD DUP4 PUSH2 0x179C JUMP JUMPDEST SWAP2 POP PUSH2 0x19D4 DUP3 PUSH2 0x1993 JUMP JUMPDEST PUSH1 0x20 DUP3 ADD SWAP1 POP SWAP2 SWAP1 POP JUMP JUMPDEST PUSH1 0x0 PUSH1 0x20 DUP3 ADD SWAP1 POP DUP2 DUP2 SUB PUSH1 0x0 DUP4 ADD MSTORE PUSH2 0x19F8 DUP2 PUSH2 0x19BC JUMP JUMPDEST SWAP1 POP SWAP2 SWAP1 POP JUMP JUMPDEST PUSH32 0x506C656173652073656E6420636F727265637420616D6F756E7420746F20706C PUSH1 0x0 DUP3 ADD MSTORE PUSH32 0x6179207468652067616D652E0000000000000000000000000000000000000000 PUSH1 0x20 DUP3 ADD MSTORE POP JUMP JUMPDEST PUSH1 0x0 PUSH2 0x1A5B PUSH1 0x2C DUP4 PUSH2 0x179C JUMP JUMPDEST SWAP2 POP PUSH2 0x1A66 DUP3 PUSH2 0x19FF JUMP JUMPDEST PUSH1 0x40 DUP3 ADD SWAP1 POP SWAP2 SWAP1 POP JUMP JUMPDEST PUSH1 0x0 PUSH1 0x20 DUP3 ADD SWAP1 POP DUP2 DUP2 SUB PUSH1 0x0 DUP4 ADD MSTORE PUSH2 0x1A8A DUP2 PUSH2 0x1A4E JUMP JUMPDEST SWAP1 POP SWAP2 SWAP1 POP JUMP JUMPDEST PUSH32 0x546F6B656E207472616E73666572206661696C65640000000000000000000000 PUSH1 0x0 DUP3 ADD MSTORE POP JUMP JUMPDEST PUSH1 0x0 PUSH2 0x1AC7 PUSH1 0x15 DUP4 PUSH2 0x179C JUMP JUMPDEST SWAP2 POP PUSH2 0x1AD2 DUP3 PUSH2 0x1A91 JUMP JUMPDEST PUSH1 0x20 DUP3 ADD SWAP1 POP SWAP2 SWAP1 POP JUMP JUMPDEST PUSH1 0x0 PUSH1 0x20 DUP3 ADD SWAP1 POP DUP2 DUP2 SUB PUSH1 0x0 DUP4 ADD MSTORE PUSH2 0x1AF6 DUP2 PUSH2 0x1ABA JUMP JUMPDEST SWAP1 POP SWAP2 SWAP1 POP JUMP JUMPDEST PUSH1 0x0 DUP2 SWAP1 POP SWAP2 SWAP1 POP JUMP JUMPDEST PUSH1 0x0 DUP2 SWAP1 POP SWAP2 SWAP1 POP JUMP JUMPDEST PUSH1 0x0 DUP2 PUSH1 0x0 SHL SWAP1 POP SWAP2 SWAP1 POP JUMP JUMPDEST PUSH1 0x0 PUSH2 0x1B39 PUSH2 0x1B34 PUSH2 0x1B2F DUP5 PUSH2 0x1AFD JUMP JUMPDEST PUSH2 0x1B11 JUMP JUMPDEST PUSH2 0x1B07 JUMP JUMPDEST SWAP1 POP SWAP2 SWAP1 POP JUMP JUMPDEST PUSH2 0x1B49 DUP2 PUSH2 0x1B1E JUMP JUMPDEST DUP3 MSTORE POP POP JUMP JUMPDEST PUSH1 0x0 PUSH8 0xFFFFFFFFFFFFFFFF DUP3 AND SWAP1 POP SWAP2 SWAP1 POP JUMP JUMPDEST PUSH1 0x0 PUSH2 0x1B7E PUSH2 0x1B79 PUSH2 0x1B74 DUP5 PUSH2 0x1AFD JUMP JUMPDEST PUSH2 0x1687 JUMP JUMPDEST PUSH2 0x1B4F JUMP JUMPDEST SWAP1 POP SWAP2 SWAP1 POP JUMP JUMPDEST PUSH2 0x1B8E DUP2 PUSH2 0x1B63 JUMP JUMPDEST DUP3 MSTORE POP POP JUMP JUMPDEST PUSH1 0x0 DUP2 SWAP1 POP SWAP2 SWAP1 POP JUMP JUMPDEST PUSH1 0x0 PUSH2 0xFFFF DUP3 AND SWAP1 POP SWAP2 SWAP1 POP JUMP JUMPDEST PUSH1 0x0 PUSH2 0x1BC7 PUSH2 0x1BC2 PUSH2 0x1BBD DUP5 PUSH2 0x1B94 JUMP JUMPDEST PUSH2 0x1687 JUMP JUMPDEST PUSH2 0x1B9E JUMP JUMPDEST SWAP1 POP SWAP2 SWAP1 POP JUMP JUMPDEST PUSH2 0x1BD7 DUP2 PUSH2 0x1BAC JUMP JUMPDEST DUP3 MSTORE POP POP JUMP JUMPDEST PUSH1 0x0 DUP2 SWAP1 POP SWAP2 SWAP1 POP JUMP JUMPDEST PUSH1 0x0 PUSH4 0xFFFFFFFF DUP3 AND SWAP1 POP SWAP2 SWAP1 POP JUMP JUMPDEST PUSH1 0x0 PUSH2 0x1C12 PUSH2 0x1C0D PUSH2 0x1C08 DUP5 PUSH2 0x1BDD JUMP JUMPDEST PUSH2 0x1687 JUMP JUMPDEST PUSH2 0x1BE7 JUMP JUMPDEST SWAP1 POP SWAP2 SWAP1 POP JUMP JUMPDEST PUSH2 0x1C22 DUP2 PUSH2 0x1BF7 JUMP JUMPDEST DUP3 MSTORE POP POP JUMP JUMPDEST PUSH1 0x0 PUSH2 0x1C43 PUSH2 0x1C3E PUSH2 0x1C39 DUP5 PUSH2 0x1B94 JUMP JUMPDEST PUSH2 0x1687 JUMP JUMPDEST PUSH2 0x1BE7 JUMP JUMPDEST SWAP1 POP SWAP2 SWAP1 POP JUMP JUMPDEST PUSH2 0x1C53 DUP2 PUSH2 0x1C28 JUMP JUMPDEST DUP3 MSTORE POP POP JUMP JUMPDEST PUSH1 0x0 PUSH1 0xA0 DUP3 ADD SWAP1 POP PUSH2 0x1C6E PUSH1 0x0 DUP4 ADD DUP9 PUSH2 0x1B40 JUMP JUMPDEST PUSH2 0x1C7B PUSH1 0x20 DUP4 ADD DUP8 PUSH2 0x1B85 JUMP JUMPDEST PUSH2 0x1C88 PUSH1 0x40 DUP4 ADD DUP7 PUSH2 0x1BCE JUMP JUMPDEST PUSH2 0x1C95 PUSH1 0x60 DUP4 ADD DUP6 PUSH2 0x1C19 JUMP JUMPDEST PUSH2 0x1CA2 PUSH1 0x80 DUP4 ADD DUP5 PUSH2 0x1C4A JUMP JUMPDEST SWAP7 SWAP6 POP POP POP POP POP POP JUMP JUMPDEST PUSH32 0x4F776E61626C653A206E6577206F776E657220697320746865207A65726F2061 PUSH1 0x0 DUP3 ADD MSTORE PUSH32 0x6464726573730000000000000000000000000000000000000000000000000000 PUSH1 0x20 DUP3 ADD MSTORE POP JUMP JUMPDEST PUSH1 0x0 PUSH2 0x1D08 PUSH1 0x26 DUP4 PUSH2 0x179C JUMP JUMPDEST SWAP2 POP PUSH2 0x1D13 DUP3 PUSH2 0x1CAC JUMP JUMPDEST PUSH1 0x40 DUP3 ADD SWAP1 POP SWAP2 SWAP1 POP JUMP JUMPDEST PUSH1 0x0 PUSH1 0x20 DUP3 ADD SWAP1 POP DUP2 DUP2 SUB PUSH1 0x0 DUP4 ADD MSTORE PUSH2 0x1D37 DUP2 PUSH2 0x1CFB JUMP JUMPDEST SWAP1 POP SWAP2 SWAP1 POP JUMP JUMPDEST PUSH32 0x4F776E61626C653A2063616C6C6572206973206E6F7420746865206F776E6572 PUSH1 0x0 DUP3 ADD MSTORE POP JUMP JUMPDEST PUSH1 0x0 PUSH2 0x1D74 PUSH1 0x20 DUP4 PUSH2 0x179C JUMP JUMPDEST SWAP2 POP PUSH2 0x1D7F DUP3 PUSH2 0x1D3E JUMP JUMPDEST PUSH1 0x20 DUP3 ADD SWAP1 POP SWAP2 SWAP1 POP JUMP JUMPDEST PUSH1 0x0 PUSH1 0x20 DUP3 ADD SWAP1 POP DUP2 DUP2 SUB PUSH1 0x0 DUP4 ADD MSTORE PUSH2 0x1DA3 DUP2 PUSH2 0x1D67 JUMP JUMPDEST SWAP1 POP SWAP2 SWAP1 POP JUMP JUMPDEST PUSH32 0x4E487B7100000000000000000000000000000000000000000000000000000000 PUSH1 0x0 MSTORE PUSH1 0x32 PUSH1 0x4 MSTORE PUSH1 0x24 PUSH1 0x0 REVERT JUMPDEST PUSH32 0x4E487B7100000000000000000000000000000000000000000000000000000000 PUSH1 0x0 MSTORE PUSH1 0x12 PUSH1 0x4 MSTORE PUSH1 0x24 PUSH1 0x0 REVERT JUMPDEST PUSH1 0x0 PUSH2 0x1E13 DUP3 PUSH2 0x12F2 JUMP JUMPDEST SWAP2 POP PUSH2 0x1E1E DUP4 PUSH2 0x12F2 JUMP JUMPDEST SWAP3 POP DUP3 PUSH2 0x1E2E JUMPI PUSH2 0x1E2D PUSH2 0x1DD9 JUMP JUMPDEST JUMPDEST DUP3 DUP3 MOD SWAP1 POP SWAP3 SWAP2 POP POP JUMP JUMPDEST PUSH32 0x4E487B7100000000000000000000000000000000000000000000000000000000 PUSH1 0x0 MSTORE PUSH1 0x11 PUSH1 0x4 MSTORE PUSH1 0x24 PUSH1 0x0 REVERT JUMPDEST PUSH1 0x0 PUSH2 0x1E73 DUP3 PUSH2 0x12F2 JUMP JUMPDEST SWAP2 POP PUSH32 0xFFFFFFFFFFFFFFFFFFFFFFFFFFFFFFFFFFFFFFFFFFFFFFFFFFFFFFFFFFFFFFFF DUP3 SUB PUSH2 0x1EA5 JUMPI PUSH2 0x1EA4 PUSH2 0x1E39 JUMP JUMPDEST JUMPDEST PUSH1 0x1 DUP3 ADD SWAP1 POP SWAP2 SWAP1 POP JUMP JUMPDEST PUSH1 0x0 PUSH2 0x1EBB DUP3 PUSH2 0x12F2 JUMP JUMPDEST SWAP2 POP PUSH2 0x1EC6 DUP4 PUSH2 0x12F2 JUMP JUMPDEST SWAP3 POP DUP3 DUP3 MUL PUSH2 0x1ED4 DUP2 PUSH2 0x12F2 JUMP JUMPDEST SWAP2 POP DUP3 DUP3 DIV DUP5 EQ DUP4 ISZERO OR PUSH2 0x1EEB JUMPI PUSH2 0x1EEA PUSH2 0x1E39 JUMP JUMPDEST JUMPDEST POP SWAP3 SWAP2 POP POP JUMP JUMPDEST PUSH1 0x0 PUSH2 0x1EFD DUP3 PUSH2 0x12F2 JUMP JUMPDEST SWAP2 POP PUSH2 0x1F08 DUP4 PUSH2 0x12F2 JUMP JUMPDEST SWAP3 POP DUP3 PUSH2 0x1F18 JUMPI PUSH2 0x1F17 PUSH2 0x1DD9 JUMP JUMPDEST JUMPDEST DUP3 DUP3 DIV SWAP1 POP SWAP3 SWAP2 POP POP JUMP JUMPDEST PUSH32 0x57696E6E696E6773207472616E73666572206661696C65640000000000000000 PUSH1 0x0 DUP3 ADD MSTORE POP JUMP JUMPDEST PUSH1 0x0 PUSH2 0x1F59 PUSH1 0x18 DUP4 PUSH2 0x179C JUMP JUMPDEST SWAP2 POP PUSH2 0x1F64 DUP3 PUSH2 0x1F23 JUMP JUMPDEST PUSH1 0x20 DUP3 ADD SWAP1 POP SWAP2 SWAP1 POP JUMP JUMPDEST PUSH1 0x0 PUSH1 0x20 DUP3 ADD SWAP1 POP DUP2 DUP2 SUB PUSH1 0x0 DUP4 ADD MSTORE PUSH2 0x1F88 DUP2 PUSH2 0x1F4C JUMP JUMPDEST SWAP1 POP SWAP2 SWAP1 POP JUMP JUMPDEST PUSH1 0x0 PUSH1 0xC0 DUP3 ADD SWAP1 POP PUSH2 0x1FA4 PUSH1 0x0 DUP4 ADD DUP10 PUSH2 0x12FC JUMP JUMPDEST PUSH2 0x1FB1 PUSH1 0x20 DUP4 ADD DUP9 PUSH2 0x1595 JUMP JUMPDEST PUSH2 0x1FBE PUSH1 0x40 DUP4 ADD DUP8 PUSH2 0x12FC JUMP JUMPDEST PUSH2 0x1FCB PUSH1 0x60 DUP4 ADD DUP7 PUSH2 0x12FC JUMP JUMPDEST PUSH2 0x1FD8 PUSH1 0x80 DUP4 ADD DUP6 PUSH2 0x1595 JUMP JUMPDEST PUSH2 0x1FE5 PUSH1 0xA0 DUP4 ADD DUP5 PUSH2 0x1595 JUMP JUMPDEST SWAP8 SWAP7 POP POP POP POP POP POP POP JUMP JUMPDEST PUSH1 0x0 PUSH1 0x40 DUP3 ADD SWAP1 POP PUSH2 0x2005 PUSH1 0x0 DUP4 ADD DUP6 PUSH2 0x157A JUMP JUMPDEST PUSH2 0x2012 PUSH1 0x20 DUP4 ADD DUP5 PUSH2 0x157A JUMP JUMPDEST SWAP4 SWAP3 POP POP POP JUMP INVALID LOG2 PUSH5 0x6970667358 0x22 SLT KECCAK256 SIGNEXTEND 0xBB 0xBB SLT 0xB6 JUMPDEST SWAP13 JUMPDEST 0xE9 NUMBER PUSH10 0x2E1C23574F5787E59346 0xEE DUP14 0xAE DUP13 PUSH10 0x6D7296A7D50464736F6C PUSH4 0x43000813 STOP CALLER "},"methodIdentifiers":{"allowedBetAmounts(uint256)":"c9e2774c","gameStatus(uint256)":"34239c9c","gameToken()":"c3dfdae6","getBalance()":"12065fe0","getBonus()":"8bdff161","getRtp()":"b62aaa21","getTotalHead()":"c5f22083","getTotalTail()":"0b023a23","owner()":"8da5cb5b","play(bool)":"c23c87d5","rawFulfillRandomWords(uint256,uint256[])":"1fe543e3","renounceOwnership()":"715018a6","setBonus(uint256)":"0b98f975","setRtp(uint256)":"f303773e","topUpBalance(uint256)":"a635392d","transferOwnership(address)":"f2fde38b","withdrawFunds()":"24600fc3"}}}}}