{
  "_format": "hh-sol-artifact-1",
  "contractName": "MockVRFCoordinatorV2Simple",
  "sourceName": "contracts/MockVRFCoordinatorV2Simple.sol",
  "abi": [
    {
      "inputs": [
        {
          "internalType": "bytes32",
          "name": "",
          "type": "bytes32"
        },
        {
          "internalType": "uint64",
          "name": "",
          "type": "uint64"
        },
        {
          "internalType": "uint16",
          "name": "",
          "type": "uint16"
        },
        {
          "internalType": "uint32",
          "name": "",
          "type": "uint32"
        },
        {
          "internalType": "uint32",
          "name": "",
          "type": "uint32"
        }
      ],
      "name": "requestRandomWords",
      "outputs": [
        {
          "internalType": "uint256",
          "name": "requestId",
          "type": "uint256"
        }
      ],
      "stateMutability": "nonpayable",
      "type": "function"
    }
  ],
  "bytecode": "0x60806040526000805534801561001457600080fd5b506107d3806100246000396000f3fe608060405234801561001057600080fd5b506004361061002b5760003560e01c80635d3b1d3014610030575b600080fd5b61004a6004803603810190610045919061034e565b610060565b60405161005791906103e2565b60405180910390f35b60008060008154809291906100749061042c565b9190505590506000600167ffffffffffffffff81111561009757610096610474565b5b6040519080825280602002602001820160405280156100c55781602001602082028036833780820191505090505b5090504233836040516020016100dd9392919061053e565b6040516020818303038152906040528051906020012060001c8160008151811061010a5761010961057b565b5b60200260200101818152505060003373ffffffffffffffffffffffffffffffffffffffff168383604051602401610142929190610668565b6040516020818303038152906040527f1fe543e3000000000000000000000000000000000000000000000000000000007bffffffffffffffffffffffffffffffffffffffffffffffffffffffff19166020820180517bffffffffffffffffffffffffffffffffffffffffffffffffffffffff83818316178352505050506040516101cc9190610709565b6000604051808303816000865af19150503d8060008114610209576040519150601f19603f3d011682016040523d82523d6000602084013e61020e565b606091505b5050905080610252576040517f08c379a00000000000000000000000000000000000000000000000000000000081526004016102499061077d565b60405180910390fd5b505095945050505050565b600080fd5b6000819050919050565b61027581610262565b811461028057600080fd5b50565b6000813590506102928161026c565b92915050565b600067ffffffffffffffff82169050919050565b6102b581610298565b81146102c057600080fd5b50565b6000813590506102d2816102ac565b92915050565b600061ffff82169050919050565b6102ef816102d8565b81146102fa57600080fd5b50565b60008135905061030c816102e6565b92915050565b600063ffffffff82169050919050565b61032b81610312565b811461033657600080fd5b50565b60008135905061034881610322565b92915050565b600080600080600060a0868803121561036a5761036961025d565b5b600061037888828901610283565b9550506020610389888289016102c3565b945050604061039a888289016102fd565b93505060606103ab88828901610339565b92505060806103bc88828901610339565b9150509295509295909350565b6000819050919050565b6103dc816103c9565b82525050565b60006020820190506103f760008301846103d3565b92915050565b7f4e487b7100000000000000000000000000000000000000000000000000000000600052601160045260246000fd5b6000610437826103c9565b91507fffffffffffffffffffffffffffffffffffffffffffffffffffffffffffffffff8203610469576104686103fd565b5b600182019050919050565b7f4e487b7100000000000000000000000000000000000000000000000000000000600052604160045260246000fd5b6000819050919050565b6104be6104b9826103c9565b6104a3565b82525050565b600073ffffffffffffffffffffffffffffffffffffffff82169050919050565b60006104ef826104c4565b9050919050565b60008160601b9050919050565b600061050e826104f6565b9050919050565b600061052082610503565b9050919050565b610538610533826104e4565b610515565b82525050565b600061054a82866104ad565b60208201915061055a8285610527565b60148201915061056a82846104ad565b602082019150819050949350505050565b7f4e487b7100000000000000000000000000000000000000000000000000000000600052603260045260246000fd5b600081519050919050565b600082825260208201905092915050565b6000819050602082019050919050565b6105df816103c9565b82525050565b60006105f183836105d6565b60208301905092915050565b6000602082019050919050565b6000610615826105aa565b61061f81856105b5565b935061062a836105c6565b8060005b8381101561065b57815161064288826105e5565b975061064d836105fd565b92505060018101905061062e565b5085935050505092915050565b600060408201905061067d60008301856103d3565b818103602083015261068f818461060a565b90509392505050565b600081519050919050565b600081905092915050565b60005b838110156106cc5780820151818401526020810190506106b1565b60008484015250505050565b60006106e382610698565b6106ed81856106a3565b93506106fd8185602086016106ae565b80840191505092915050565b600061071582846106d8565b915081905092915050565b600082825260208201905092915050565b7f4d6f636b205652462063616c6c6261636b206661696c65640000000000000000600082015250565b6000610767601883610720565b915061077282610731565b602082019050919050565b600060208201905081810360008301526107968161075a565b905091905056fea2646970667358221220478c4fd1b4e124a1ffd5818dd9dab4fcf9667b1d4ea862454cc74f6d1a95e4a264736f6c63430008130033",
  "linkReferences": {},
  "deployedLinkReferences": {}
}