{
  "contracts/DoubleDiceGame.sol": {
    "DoubleDiceGame": {
      "abi": [
        {
          "inputs": [
            {
              "internalType": "address",
              "name": "_usdeToken",
              "type": "address"
            },
            {
              "internalType": "uint256",
              "name": "_minBet",
              "type": "uint256"
            },
            {
              "internalType": "uint256",
              "name": "_maxBet",
              "type": "uint256"
            },
            {
              "internalType": "uint256",
              "name": "_houseEdge",
              "type": "uint256"
            }
          ],
          "stateMutability": "nonpayable",
          "type": "constructor"
        },
        {
          "inputs": [
            {
              "internalType": "address",
              "name": "owner",
              "type": "address"
            }
          ],
          "name": "OwnableInvalidOwner",
          "type": "error"
        },
        {
          "inputs": [
            {
              "internalType": "address",
              "name": "account",
              "type": "address"
            }
          ],
          "name": "OwnableUnauthorizedAccount",
          "type": "error"
        },
        {
          "inputs": [],
          "name": "ReentrancyGuardReentrantCall",
          "type": "error"
        },
        {
          "anonymous": false,
          "inputs": [
            {
              "indexed": true,
              "internalType": "address",
              "name": "player",
              "type": "address"
            },
            {
              "indexed": false,
              "internalType": "uint256",
              "name": "selectedSum",
              "type": "uint256"
            },
            {
              "indexed": false,
              "internalType": "uint256",
              "name": "rolledSum",
              "type": "uint256"
            },
            {
              "indexed": false,
              "internalType": "uint256[2]",
              "name": "rolledNumbers",
              "type": "uint256[2]"
            },
            {
              "indexed": false,
              "internalType": "uint256",
              "name": "betAmount",
              "type": "uint256"
            },
            {
              "indexed": false,
              "internalType": "uint256",
              "name": "payout",
              "type": "uint256"
            }
          ],
          "name": "GamePlayed",
          "type": "event"
        },
        {
          "anonymous": false,
          "inputs": [
            {
              "indexed": true,
              "internalType": "address",
              "name": "previousOwner",
              "type": "address"
            },
            {
              "indexed": true,
              "internalType": "address",
              "name": "newOwner",
              "type": "address"
            }
          ],
          "name": "OwnershipTransferred",
          "type": "event"
        },
        {
          "inputs": [],
          "name": "getContractBalance",
          "outputs": [
            {
              "internalType": "uint256",
              "name": "",
              "type": "uint256"
            }
          ],
          "stateMutability": "view",
          "type": "function"
        },
        {
          "inputs": [
            {
              "internalType": "uint256",
              "name": "sum",
              "type": "uint256"
            }
          ],
          "name": "getMultiplier",
          "outputs": [
            {
              "internalType": "uint256",
              "name": "",
              "type": "uint256"
            }
          ],
          "stateMutability": "view",
          "type": "function"
        },
        {
          "inputs": [],
          "name": "houseEdge",
          "outputs": [
            {
              "internalType": "uint256",
              "name": "",
              "type": "uint256"
            }
          ],
          "stateMutability": "view",
          "type": "function"
        },
        {
          "inputs": [],
          "name": "maxBet",
          "outputs": [
            {
              "internalType": "uint256",
              "name": "",
              "type": "uint256"
            }
          ],
          "stateMutability": "view",
          "type": "function"
        },
        {
          "inputs": [],
          "name": "minBet",
          "outputs": [
            {
              "internalType": "uint256",
              "name": "",
              "type": "uint256"
            }
          ],
          "stateMutability": "view",
          "type": "function"
        },
        {
          "inputs": [],
          "name": "owner",
          "outputs": [
            {
              "internalType": "address",
              "name": "",
              "type": "address"
            }
          ],
          "stateMutability": "view",
          "type": "function"
        },
        {
          "inputs": [
            {
              "internalType": "uint256",
              "name": "selectedSum",
              "type": "uint256"
            },
            {
              "internalType": "uint256",
              "name": "betAmount",
              "type": "uint256"
            }
          ],
          "name": "playDice",
          "outputs": [],
          "stateMutability": "nonpayable",
          "type": "function"
        },
        {
          "inputs": [],
          "name": "renounceOwnership",
          "outputs": [],
          "stateMutability": "nonpayable",
          "type": "function"
        },
        {
          "inputs": [
            {
              "internalType": "uint256",
              "name": "_houseEdge",
              "type": "uint256"
            }
          ],
          "name": "setHouseEdge",
          "outputs": [],
          "stateMutability": "nonpayable",
          "type": "function"
        },
        {
          "inputs": [
            {
              "internalType": "uint256",
              "name": "_maxBet",
              "type": "uint256"
            }
          ],
          "name": "setMaxBet",
          "outputs": [],
          "stateMutability": "nonpayable",
          "type": "function"
        },
        {
          "inputs": [
            {
              "internalType": "uint256",
              "name": "_minBet",
              "type": "uint256"
            }
          ],
          "name": "setMinBet",
          "outputs": [],
          "stateMutability": "nonpayable",
          "type": "function"
        },
        {
          "inputs": [
            {
              "internalType": "uint256",
              "name": "sum",
              "type": "uint256"
            },
            {
              "internalType": "uint256",
              "name": "multiplier",
              "type": "uint256"
            }
          ],
          "name": "setMultiplier",
          "outputs": [],
          "stateMutability": "nonpayable",
          "type": "function"
        },
        {
          "inputs": [
            {
              "internalType": "uint256",
              "name": "",
              "type": "uint256"
            }
          ],
          "name": "sumMultipliers",
          "outputs": [
            {
              "internalType": "uint256",
              "name": "",
              "type": "uint256"
            }
          ],
          "stateMutability": "view",
          "type": "function"
        },
        {
          "inputs": [
            {
              "internalType": "address",
              "name": "newOwner",
              "type": "address"
            }
          ],
          "name": "transferOwnership",
          "outputs": [],
          "stateMutability": "nonpayable",
          "type": "function"
        },
        {
          "inputs": [],
          "name": "usdeToken",
          "outputs": [
            {
              "internalType": "contract IERC20",
              "name": "",
              "type": "address"
            }
          ],
          "stateMutability": "view",
          "type": "function"
        },
        {
          "inputs": [
            {
              "internalType": "uint256",
              "name": "amount",
              "type": "uint256"
            }
          ],
          "name": "withdrawFunds",
          "outputs": [],
          "stateMutability": "nonpayable",
          "type": "function"
        }
      ],
      "evm": {
        "bytecode": {
          "linkReferences": {},
          "object": "608060405234801561001057600080fd5b50604051611e07380380611e0783398181016040528101906100329190610394565b33600073ffffffffffffffffffffffffffffffffffffffff168173ffffffffffffffffffffffffffffffffffffffff16036100a55760006040517f1e4fbdf700000000000000000000000000000000000000000000000000000000815260040161009c919061040a565b60405180910390fd5b6100b48161023760201b60201c565b506001808190555083600260006101000a81548173ffffffffffffffffffffffffffffffffffffffff021916908373ffffffffffffffffffffffffffffffffffffffff16021790555082600381905550816004819055508060058190555060236006600060028152602001908152602001600020819055506011600660006003815260200190815260200160002081905550600b6006600060048152602001908152602001600020819055506008600660006005815260200190815260200160002081905550600680600060068152602001908152602001600020819055506005600660006007815260200190815260200160002081905550600680600060088152602001908152602001600020819055506008600660006009815260200190815260200160002081905550600b60066000600a815260200190815260200160002081905550601160066000600b815260200190815260200160002081905550602360066000600c81526020019081526020016000208190555050505050610425565b60008060009054906101000a900473ffffffffffffffffffffffffffffffffffffffff169050816000806101000a81548173ffffffffffffffffffffffffffffffffffffffff021916908373ffffffffffffffffffffffffffffffffffffffff1602179055508173ffffffffffffffffffffffffffffffffffffffff168173ffffffffffffffffffffffffffffffffffffffff167f8be0079c531659141344cd1fd0a4f28419497f9722a3daafe3b4186f6b6457e060405160405180910390a35050565b600080fd5b600073ffffffffffffffffffffffffffffffffffffffff82169050919050565b600061032b82610300565b9050919050565b61033b81610320565b811461034657600080fd5b50565b60008151905061035881610332565b92915050565b6000819050919050565b6103718161035e565b811461037c57600080fd5b50565b60008151905061038e81610368565b92915050565b600080600080608085870312156103ae576103ad6102fb565b5b60006103bc87828801610349565b94505060206103cd8782880161037f565b93505060406103de8782880161037f565b92505060606103ef8782880161037f565b91505092959194509250565b61040481610320565b82525050565b600060208201905061041f60008301846103fb565b92915050565b6119d3806104346000396000f3fe608060405234801561001057600080fd5b50600436106101005760003560e01c8063881eff1e11610097578063adf8252d11610066578063adf8252d1461025f578063bc14ebe71461028f578063d667dcd7146102ad578063f2fde38b146102cb57610100565b8063881eff1e146101eb57806388ea41b9146102075780638da5cb5b146102235780639619367d1461024157610100565b8063333271d0116100d3578063333271d01461018b5780636cd0f102146101a75780636f9fb98a146101c3578063715018a6146101e157610100565b80630176cf5e14610105578063155dd5ee14610121578063248dfee31461013d5780632e5b21681461016d575b600080fd5b61011f600480360381019061011a9190610f24565b6102e7565b005b61013b60048036038101906101369190610f64565b610874565b005b61015760048036038101906101529190610f64565b610965565b6040516101649190610fa0565b60405180910390f35b61017561097d565b6040516101829190610fa0565b60405180910390f35b6101a560048036038101906101a09190610f24565b610983565b005b6101c160048036038101906101bc9190610f64565b610a3b565b005b6101cb610a92565b6040516101d89190610fa0565b60405180910390f35b6101e9610b35565b005b61020560048036038101906102009190610f64565b610b49565b005b610221600480360381019061021c9190610f64565b610b5b565b005b61022b610b6d565b6040516102389190610ffc565b60405180910390f35b610249610b96565b6040516102569190610fa0565b60405180910390f35b61027960048036038101906102749190610f64565b610b9c565b6040516102869190610fa0565b60405180910390f35b610297610bb9565b6040516102a49190611076565b60405180910390f35b6102b5610bdf565b6040516102c29190610fa0565b60405180910390f35b6102e560048036038101906102e091906110bd565b610be5565b005b6102ef610c6b565b600282101580156103015750600c8211155b610340576040517f08c379a000000000000000000000000000000000000000000000000000000000815260040161033790611147565b60405180910390fd5b6000600660008481526020019081526020016000205411610396576040517f08c379a000000000000000000000000000000000000000000000000000000000815260040161038d90611147565b60405180910390fd5b60035481101580156103aa57506004548111155b6103e9576040517f08c379a00000000000000000000000000000000000000000000000000000000081526004016103e0906111b3565b60405180910390fd5b80600260009054906101000a900473ffffffffffffffffffffffffffffffffffffffff1673ffffffffffffffffffffffffffffffffffffffff166370a08231336040518263ffffffff1660e01b81526004016104459190610ffc565b602060405180830381865afa158015610462573d6000803e3d6000fd5b505050506040513d601f19601f8201168201806040525081019061048691906111e8565b10156104c7576040517f08c379a00000000000000000000000000000000000000000000000000000000081526004016104be90611261565b60405180910390fd5b60006006600084815260200190815260200160002054905060006127106005546127106104f491906112b0565b838561050091906112e4565b61050a91906112e4565b6105149190611355565b905080600260009054906101000a900473ffffffffffffffffffffffffffffffffffffffff1673ffffffffffffffffffffffffffffffffffffffff166370a08231306040518263ffffffff1660e01b81526004016105729190610ffc565b602060405180830381865afa15801561058f573d6000803e3d6000fd5b505050506040513d601f19601f820116820180604052508101906105b391906111e8565b10156105f4576040517f08c379a00000000000000000000000000000000000000000000000000000000081526004016105eb906113d2565b60405180910390fd5b600260009054906101000a900473ffffffffffffffffffffffffffffffffffffffff1673ffffffffffffffffffffffffffffffffffffffff166323b872dd3330866040518463ffffffff1660e01b8152600401610653939291906113f2565b6020604051808303816000875af1158015610672573d6000803e3d6000fd5b505050506040513d601f19601f820116820180604052508101906106969190611461565b6106d5576040517f08c379a00000000000000000000000000000000000000000000000000000000081526004016106cc906114da565b60405180910390fd5b60006106df610cb1565b90506000816001600281106106f7576106f66114fa565b5b6020020151826000600281106107105761070f6114fa565b5b602002015161071f9190611529565b9050600086820361080d57839050600260009054906101000a900473ffffffffffffffffffffffffffffffffffffffff1673ffffffffffffffffffffffffffffffffffffffff1663a9059cbb33836040518363ffffffff1660e01b815260040161078a92919061155d565b6020604051808303816000875af11580156107a9573d6000803e3d6000fd5b505050506040513d601f19601f820116820180604052508101906107cd9190611461565b61080c576040517f08c379a0000000000000000000000000000000000000000000000000000000008152600401610803906115d2565b60405180910390fd5b5b3373ffffffffffffffffffffffffffffffffffffffff167ff72874526aa738d4a5896d99d59c6cbba3d3698b8b7396eb4a488743bd4d01308884868a8660405161085b95949392919061169d565b60405180910390a25050505050610870610d6b565b5050565b61087c610d74565b600260009054906101000a900473ffffffffffffffffffffffffffffffffffffffff1673ffffffffffffffffffffffffffffffffffffffff1663a9059cbb6108c2610b6d565b836040518363ffffffff1660e01b81526004016108e092919061155d565b6020604051808303816000875af11580156108ff573d6000803e3d6000fd5b505050506040513d601f19601f820116820180604052508101906109239190611461565b610962576040517f08c379a00000000000000000000000000000000000000000000000000000000081526004016109599061173c565b60405180910390fd5b50565b60066020528060005260406000206000915090505481565b60045481565b61098b610d74565b6002821015801561099d5750600c8211155b6109dc576040517f08c379a00000000000000000000000000000000000000000000000000000000081526004016109d3906117a8565b60405180910390fd5b60008111610a1f576040517f08c379a0000000000000000000000000000000000000000000000000000000008152600401610a169061183a565b60405180910390fd5b8060066000848152602001908152602001600020819055505050565b610a43610d74565b6103e8811115610a88576040517f08c379a0000000000000000000000000000000000000000000000000000000008152600401610a7f906118a6565b60405180910390fd5b8060058190555050565b6000600260009054906101000a900473ffffffffffffffffffffffffffffffffffffffff1673ffffffffffffffffffffffffffffffffffffffff166370a08231306040518263ffffffff1660e01b8152600401610aef9190610ffc565b602060405180830381865afa158015610b0c573d6000803e3d6000fd5b505050506040513d601f19601f82011682018060405250810190610b3091906111e8565b905090565b610b3d610d74565b610b476000610dfb565b565b610b51610d74565b8060048190555050565b610b63610d74565b8060038190555050565b60008060009054906101000a900473ffffffffffffffffffffffffffffffffffffffff16905090565b60035481565b600060066000838152602001908152602001600020549050919050565b600260009054906101000a900473ffffffffffffffffffffffffffffffffffffffff1681565b60055481565b610bed610d74565b600073ffffffffffffffffffffffffffffffffffffffff168173ffffffffffffffffffffffffffffffffffffffff1603610c5f5760006040517f1e4fbdf7000000000000000000000000000000000000000000000000000000008152600401610c569190610ffc565b60405180910390fd5b610c6881610dfb565b50565b600260015403610ca7576040517f3ee5aeb500000000000000000000000000000000000000000000000000000000815260040160405180910390fd5b6002600181905550565b610cb9610ec7565b6000424433604051602001610cd09392919061192f565b6040516020818303038152906040528051906020012060001c9050610cf3610ec7565b6001600683610d02919061196c565b610d0c9190611529565b81600060028110610d2057610d1f6114fa565b5b60200201818152505060016006608084901c610d3c919061196c565b610d469190611529565b81600160028110610d5a57610d596114fa565b5b602002018181525050809250505090565b60018081905550565b610d7c610ebf565b73ffffffffffffffffffffffffffffffffffffffff16610d9a610b6d565b73ffffffffffffffffffffffffffffffffffffffff1614610df957610dbd610ebf565b6040517f118cdaa7000000000000000000000000000000000000000000000000000000008152600401610df09190610ffc565b60405180910390fd5b565b60008060009054906101000a900473ffffffffffffffffffffffffffffffffffffffff169050816000806101000a81548173ffffffffffffffffffffffffffffffffffffffff021916908373ffffffffffffffffffffffffffffffffffffffff1602179055508173ffffffffffffffffffffffffffffffffffffffff168173ffffffffffffffffffffffffffffffffffffffff167f8be0079c531659141344cd1fd0a4f28419497f9722a3daafe3b4186f6b6457e060405160405180910390a35050565b600033905090565b6040518060400160405280600290602082028036833780820191505090505090565b600080fd5b6000819050919050565b610f0181610eee565b8114610f0c57600080fd5b50565b600081359050610f1e81610ef8565b92915050565b60008060408385031215610f3b57610f3a610ee9565b5b6000610f4985828601610f0f565b9250506020610f5a85828601610f0f565b9150509250929050565b600060208284031215610f7a57610f79610ee9565b5b6000610f8884828501610f0f565b91505092915050565b610f9a81610eee565b82525050565b6000602082019050610fb56000830184610f91565b92915050565b600073ffffffffffffffffffffffffffffffffffffffff82169050919050565b6000610fe682610fbb565b9050919050565b610ff681610fdb565b82525050565b60006020820190506110116000830184610fed565b92915050565b6000819050919050565b600061103c61103761103284610fbb565b611017565b610fbb565b9050919050565b600061104e82611021565b9050919050565b600061106082611043565b9050919050565b61107081611055565b82525050565b600060208201905061108b6000830184611067565b92915050565b61109a81610fdb565b81146110a557600080fd5b50565b6000813590506110b781611091565b92915050565b6000602082840312156110d3576110d2610ee9565b5b60006110e1848285016110a8565b91505092915050565b600082825260208201905092915050565b7f496e76616c69642073756d2073656c656374696f6e0000000000000000000000600082015250565b60006111316015836110ea565b915061113c826110fb565b602082019050919050565b6000602082019050818103600083015261116081611124565b9050919050565b7f42657420616d6f756e74206f7574206f662072616e6765000000000000000000600082015250565b600061119d6017836110ea565b91506111a882611167565b602082019050919050565b600060208201905081810360008301526111cc81611190565b9050919050565b6000815190506111e281610ef8565b92915050565b6000602082840312156111fe576111fd610ee9565b5b600061120c848285016111d3565b91505092915050565b7f496e73756666696369656e742062616c616e6365000000000000000000000000600082015250565b600061124b6014836110ea565b915061125682611215565b602082019050919050565b6000602082019050818103600083015261127a8161123e565b9050919050565b7f4e487b7100000000000000000000000000000000000000000000000000000000600052601160045260246000fd5b60006112bb82610eee565b91506112c683610eee565b92508282039050818111156112de576112dd611281565b5b92915050565b60006112ef82610eee565b91506112fa83610eee565b925082820261130881610eee565b9150828204841483151761131f5761131e611281565b5b5092915050565b7f4e487b7100000000000000000000000000000000000000000000000000000000600052601260045260246000fd5b600061136082610eee565b915061136b83610eee565b92508261137b5761137a611326565b5b828204905092915050565b7f496e73756666696369656e7420636f6e74726163742062616c616e6365000000600082015250565b60006113bc601d836110ea565b91506113c782611386565b602082019050919050565b600060208201905081810360008301526113eb816113af565b9050919050565b60006060820190506114076000830186610fed565b6114146020830185610fed565b6114216040830184610f91565b949350505050565b60008115159050919050565b61143e81611429565b811461144957600080fd5b50565b60008151905061145b81611435565b92915050565b60006020828403121561147757611476610ee9565b5b60006114858482850161144c565b91505092915050565b7f5472616e73666572206661696c65640000000000000000000000000000000000600082015250565b60006114c4600f836110ea565b91506114cf8261148e565b602082019050919050565b600060208201905081810360008301526114f3816114b7565b9050919050565b7f4e487b7100000000000000000000000000000000000000000000000000000000600052603260045260246000fd5b600061153482610eee565b915061153f83610eee565b925082820190508082111561155757611556611281565b5b92915050565b60006040820190506115726000830185610fed565b61157f6020830184610f91565b9392505050565b7f5061796f7574207472616e73666572206661696c656400000000000000000000600082015250565b60006115bc6016836110ea565b91506115c782611586565b602082019050919050565b600060208201905081810360008301526115eb816115af565b9050919050565b600060029050919050565b600081905092915050565b6000819050919050565b61161b81610eee565b82525050565b600061162d8383611612565b60208301905092915050565b6000602082019050919050565b61164f816115f2565b61165981846115fd565b925061166482611608565b8060005b8381101561169557815161167c8782611621565b965061168783611639565b925050600181019050611668565b505050505050565b600060c0820190506116b26000830188610f91565b6116bf6020830187610f91565b6116cc6040830186611646565b6116d96080830185610f91565b6116e660a0830184610f91565b9695505050505050565b7f5769746864726177616c206661696c6564000000000000000000000000000000600082015250565b60006117266011836110ea565b9150611731826116f0565b602082019050919050565b6000602082019050818103600083015261175581611719565b9050919050565b7f496e76616c69642073756d000000000000000000000000000000000000000000600082015250565b6000611792600b836110ea565b915061179d8261175c565b602082019050919050565b600060208201905081810360008301526117c181611785565b9050919050565b7f4d756c7469706c696572206d7573742062652067726561746572207468616e2060008201527f3000000000000000000000000000000000000000000000000000000000000000602082015250565b60006118246021836110ea565b915061182f826117c8565b604082019050919050565b6000602082019050818103600083015261185381611817565b9050919050565b7f486f757365206564676520746f6f206869676800000000000000000000000000600082015250565b60006118906013836110ea565b915061189b8261185a565b602082019050919050565b600060208201905081810360008301526118bf81611883565b9050919050565b6000819050919050565b6118e16118dc82610eee565b6118c6565b82525050565b60008160601b9050919050565b60006118ff826118e7565b9050919050565b6000611911826118f4565b9050919050565b61192961192482610fdb565b611906565b82525050565b600061193b82866118d0565b60208201915061194b82856118d0565b60208201915061195b8284611918565b601482019150819050949350505050565b600061197782610eee565b915061198283610eee565b92508261199257611991611326565b5b82820690509291505056fea264697066735822122020adef88c2c69b5f37ebcf2947d1c449ba1f6a846b50d30f4643c6bac09e83ca64736f6c634300081c0033",
          "opcodes": "PUSH1 0x80 PUSH1 0x40 MSTORE CALLVALUE DUP1 ISZERO PUSH2 0x10 JUMPI PUSH1 0x0 DUP1 REVERT JUMPDEST POP PUSH1 0x40 MLOAD PUSH2 0x1E07 CODESIZE SUB DUP1 PUSH2 0x1E07 DUP4 CODECOPY DUP2 DUP2 ADD PUSH1 0x40 MSTORE DUP2 ADD SWAP1 PUSH2 0x32 SWAP2 SWAP1 PUSH2 0x394 JUMP JUMPDEST CALLER PUSH1 0x0 PUSH20 0xFFFFFFFFFFFFFFFFFFFFFFFFFFFFFFFFFFFFFFFF AND DUP2 PUSH20 0xFFFFFFFFFFFFFFFFFFFFFFFFFFFFFFFFFFFFFFFF AND SUB PUSH2 0xA5 JUMPI PUSH1 0x0 PUSH1 0x40 MLOAD PUSH32 0x1E4FBDF700000000000000000000000000000000000000000000000000000000 DUP2 MSTORE PUSH1 0x4 ADD PUSH2 0x9C SWAP2 SWAP1 PUSH2 0x40A JUMP JUMPDEST PUSH1 0x40 MLOAD DUP1 SWAP2 SUB SWAP1 REVERT JUMPDEST PUSH2 0xB4 DUP2 PUSH2 0x237 PUSH1 0x20 SHL PUSH1 0x20 SHR JUMP JUMPDEST POP PUSH1 0x1 DUP1 DUP2 SWAP1 SSTORE POP DUP4 PUSH1 0x2 PUSH1 0x0 PUSH2 0x100 EXP DUP2 SLOAD DUP2 PUSH20 0xFFFFFFFFFFFFFFFFFFFFFFFFFFFFFFFFFFFFFFFF MUL NOT AND SWAP1 DUP4 PUSH20 0xFFFFFFFFFFFFFFFFFFFFFFFFFFFFFFFFFFFFFFFF AND MUL OR SWAP1 SSTORE POP DUP3 PUSH1 0x3 DUP2 SWAP1 SSTORE POP DUP2 PUSH1 0x4 DUP2 SWAP1 SSTORE POP DUP1 PUSH1 0x5 DUP2 SWAP1 SSTORE POP PUSH1 0x23 PUSH1 0x6 PUSH1 0x0 PUSH1 0x2 DUP2 MSTORE PUSH1 0x20 ADD SWAP1 DUP2 MSTORE PUSH1 0x20 ADD PUSH1 0x0 KECCAK256 DUP2 SWAP1 SSTORE POP PUSH1 0x11 PUSH1 0x6 PUSH1 0x0 PUSH1 0x3 DUP2 MSTORE PUSH1 0x20 ADD SWAP1 DUP2 MSTORE PUSH1 0x20 ADD PUSH1 0x0 KECCAK256 DUP2 SWAP1 SSTORE POP PUSH1 0xB PUSH1 0x6 PUSH1 0x0 PUSH1 0x4 DUP2 MSTORE PUSH1 0x20 ADD SWAP1 DUP2 MSTORE PUSH1 0x20 ADD PUSH1 0x0 KECCAK256 DUP2 SWAP1 SSTORE POP PUSH1 0x8 PUSH1 0x6 PUSH1 0x0 PUSH1 0x5 DUP2 MSTORE PUSH1 0x20 ADD SWAP1 DUP2 MSTORE PUSH1 0x20 ADD PUSH1 0x0 KECCAK256 DUP2 SWAP1 SSTORE POP PUSH1 0x6 DUP1 PUSH1 0x0 PUSH1 0x6 DUP2 MSTORE PUSH1 0x20 ADD SWAP1 DUP2 MSTORE PUSH1 0x20 ADD PUSH1 0x0 KECCAK256 DUP2 SWAP1 SSTORE POP PUSH1 0x5 PUSH1 0x6 PUSH1 0x0 PUSH1 0x7 DUP2 MSTORE PUSH1 0x20 ADD SWAP1 DUP2 MSTORE PUSH1 0x20 ADD PUSH1 0x0 KECCAK256 DUP2 SWAP1 SSTORE POP PUSH1 0x6 DUP1 PUSH1 0x0 PUSH1 0x8 DUP2 MSTORE PUSH1 0x20 ADD SWAP1 DUP2 MSTORE PUSH1 0x20 ADD PUSH1 0x0 KECCAK256 DUP2 SWAP1 SSTORE POP PUSH1 0x8 PUSH1 0x6 PUSH1 0x0 PUSH1 0x9 DUP2 MSTORE PUSH1 0x20 ADD SWAP1 DUP2 MSTORE PUSH1 0x20 ADD PUSH1 0x0 KECCAK256 DUP2 SWAP1 SSTORE POP PUSH1 0xB PUSH1 0x6 PUSH1 0x0 PUSH1 0xA DUP2 MSTORE PUSH1 0x20 ADD SWAP1 DUP2 MSTORE PUSH1 0x20 ADD PUSH1 0x0 KECCAK256 DUP2 SWAP1 SSTORE POP PUSH1 0x11 PUSH1 0x6 PUSH1 0x0 PUSH1 0xB DUP2 MSTORE PUSH1 0x20 ADD SWAP1 DUP2 MSTORE PUSH1 0x20 ADD PUSH1 0x0 KECCAK256 DUP2 SWAP1 SSTORE POP PUSH1 0x23 PUSH1 0x6 PUSH1 0x0 PUSH1 0xC DUP2 MSTORE PUSH1 0x20 ADD SWAP1 DUP2 MSTORE PUSH1 0x20 ADD PUSH1 0x0 KECCAK256 DUP2 SWAP1 SSTORE POP POP POP POP POP PUSH2 0x425 JUMP JUMPDEST PUSH1 0x0 DUP1 PUSH1 0x0 SWAP1 SLOAD SWAP1 PUSH2 0x100 EXP SWAP1 DIV PUSH20 0xFFFFFFFFFFFFFFFFFFFFFFFFFFFFFFFFFFFFFFFF AND SWAP1 POP DUP2 PUSH1 0x0 DUP1 PUSH2 0x100 EXP DUP2 SLOAD DUP2 PUSH20 0xFFFFFFFFFFFFFFFFFFFFFFFFFFFFFFFFFFFFFFFF MUL NOT AND SWAP1 DUP4 PUSH20 0xFFFFFFFFFFFFFFFFFFFFFFFFFFFFFFFFFFFFFFFF AND MUL OR SWAP1 SSTORE POP DUP2 PUSH20 0xFFFFFFFFFFFFFFFFFFFFFFFFFFFFFFFFFFFFFFFF AND DUP2 PUSH20 0xFFFFFFFFFFFFFFFFFFFFFFFFFFFFFFFFFFFFFFFF AND PUSH32 0x8BE0079C531659141344CD1FD0A4F28419497F9722A3DAAFE3B4186F6B6457E0 PUSH1 0x40 MLOAD PUSH1 0x40 MLOAD DUP1 SWAP2 SUB SWAP1 LOG3 POP POP JUMP JUMPDEST PUSH1 0x0 DUP1 REVERT JUMPDEST PUSH1 0x0 PUSH20 0xFFFFFFFFFFFFFFFFFFFFFFFFFFFFFFFFFFFFFFFF DUP3 AND SWAP1 POP SWAP2 SWAP1 POP JUMP JUMPDEST PUSH1 0x0 PUSH2 0x32B DUP3 PUSH2 0x300 JUMP JUMPDEST SWAP1 POP SWAP2 SWAP1 POP JUMP JUMPDEST PUSH2 0x33B DUP2 PUSH2 0x320 JUMP JUMPDEST DUP2 EQ PUSH2 0x346 JUMPI PUSH1 0x0 DUP1 REVERT JUMPDEST POP JUMP JUMPDEST PUSH1 0x0 DUP2 MLOAD SWAP1 POP PUSH2 0x358 DUP2 PUSH2 0x332 JUMP JUMPDEST SWAP3 SWAP2 POP POP JUMP JUMPDEST PUSH1 0x0 DUP2 SWAP1 POP SWAP2 SWAP1 POP JUMP JUMPDEST PUSH2 0x371 DUP2 PUSH2 0x35E JUMP JUMPDEST DUP2 EQ PUSH2 0x37C JUMPI PUSH1 0x0 DUP1 REVERT JUMPDEST POP JUMP JUMPDEST PUSH1 0x0 DUP2 MLOAD SWAP1 POP PUSH2 0x38E DUP2 PUSH2 0x368 JUMP JUMPDEST SWAP3 SWAP2 POP POP JUMP JUMPDEST PUSH1 0x0 DUP1 PUSH1 0x0 DUP1 PUSH1 0x80 DUP6 DUP8 SUB SLT ISZERO PUSH2 0x3AE JUMPI PUSH2 0x3AD PUSH2 0x2FB JUMP JUMPDEST JUMPDEST PUSH1 0x0 PUSH2 0x3BC DUP8 DUP3 DUP9 ADD PUSH2 0x349 JUMP JUMPDEST SWAP5 POP POP PUSH1 0x20 PUSH2 0x3CD DUP8 DUP3 DUP9 ADD PUSH2 0x37F JUMP JUMPDEST SWAP4 POP POP PUSH1 0x40 PUSH2 0x3DE DUP8 DUP3 DUP9 ADD PUSH2 0x37F JUMP JUMPDEST SWAP3 POP POP PUSH1 0x60 PUSH2 0x3EF DUP8 DUP3 DUP9 ADD PUSH2 0x37F JUMP JUMPDEST SWAP2 POP POP SWAP3 SWAP6 SWAP2 SWAP5 POP SWAP3 POP JUMP JUMPDEST PUSH2 0x404 DUP2 PUSH2 0x320 JUMP JUMPDEST DUP3 MSTORE POP POP JUMP JUMPDEST PUSH1 0x0 PUSH1 0x20 DUP3 ADD SWAP1 POP PUSH2 0x41F PUSH1 0x0 DUP4 ADD DUP5 PUSH2 0x3FB JUMP JUMPDEST SWAP3 SWAP2 POP POP JUMP JUMPDEST PUSH2 0x19D3 DUP1 PUSH2 0x434 PUSH1 0x0 CODECOPY PUSH1 0x0 RETURN INVALID PUSH1 0x80 PUSH1 0x40 MSTORE CALLVALUE DUP1 ISZERO PUSH2 0x10 JUMPI PUSH1 0x0 DUP1 REVERT JUMPDEST POP PUSH1 0x4 CALLDATASIZE LT PUSH2 0x100 JUMPI PUSH1 0x0 CALLDATALOAD PUSH1 0xE0 SHR DUP1 PUSH4 0x881EFF1E GT PUSH2 0x97 JUMPI DUP1 PUSH4 0xADF8252D GT PUSH2 0x66 JUMPI DUP1 PUSH4 0xADF8252D EQ PUSH2 0x25F JUMPI DUP1 PUSH4 0xBC14EBE7 EQ PUSH2 0x28F JUMPI DUP1 PUSH4 0xD667DCD7 EQ PUSH2 0x2AD JUMPI DUP1 PUSH4 0xF2FDE38B EQ PUSH2 0x2CB JUMPI PUSH2 0x100 JUMP JUMPDEST DUP1 PUSH4 0x881EFF1E EQ PUSH2 0x1EB JUMPI DUP1 PUSH4 0x88EA41B9 EQ PUSH2 0x207 JUMPI DUP1 PUSH4 0x8DA5CB5B EQ PUSH2 0x223 JUMPI DUP1 PUSH4 0x9619367D EQ PUSH2 0x241 JUMPI PUSH2 0x100 JUMP JUMPDEST DUP1 PUSH4 0x333271D0 GT PUSH2 0xD3 JUMPI DUP1 PUSH4 0x333271D0 EQ PUSH2 0x18B JUMPI DUP1 PUSH4 0x6CD0F102 EQ PUSH2 0x1A7 JUMPI DUP1 PUSH4 0x6F9FB98A EQ PUSH2 0x1C3 JUMPI DUP1 PUSH4 0x715018A6 EQ PUSH2 0x1E1 JUMPI PUSH2 0x100 JUMP JUMPDEST DUP1 PUSH4 0x176CF5E EQ PUSH2 0x105 JUMPI DUP1 PUSH4 0x155DD5EE EQ PUSH2 0x121 JUMPI DUP1 PUSH4 0x248DFEE3 EQ PUSH2 0x13D JUMPI DUP1 PUSH4 0x2E5B2168 EQ PUSH2 0x16D JUMPI JUMPDEST PUSH1 0x0 DUP1 REVERT JUMPDEST PUSH2 0x11F PUSH1 0x4 DUP1 CALLDATASIZE SUB DUP2 ADD SWAP1 PUSH2 0x11A SWAP2 SWAP1 PUSH2 0xF24 JUMP JUMPDEST PUSH2 0x2E7 JUMP JUMPDEST STOP JUMPDEST PUSH2 0x13B PUSH1 0x4 DUP1 CALLDATASIZE SUB DUP2 ADD SWAP1 PUSH2 0x136 SWAP2 SWAP1 PUSH2 0xF64 JUMP JUMPDEST PUSH2 0x874 JUMP JUMPDEST STOP JUMPDEST PUSH2 0x157 PUSH1 0x4 DUP1 CALLDATASIZE SUB DUP2 ADD SWAP1 PUSH2 0x152 SWAP2 SWAP1 PUSH2 0xF64 JUMP JUMPDEST PUSH2 0x965 JUMP JUMPDEST PUSH1 0x40 MLOAD PUSH2 0x164 SWAP2 SWAP1 PUSH2 0xFA0 JUMP JUMPDEST PUSH1 0x40 MLOAD DUP1 SWAP2 SUB SWAP1 RETURN JUMPDEST PUSH2 0x175 PUSH2 0x97D JUMP JUMPDEST PUSH1 0x40 MLOAD PUSH2 0x182 SWAP2 SWAP1 PUSH2 0xFA0 JUMP JUMPDEST PUSH1 0x40 MLOAD DUP1 SWAP2 SUB SWAP1 RETURN JUMPDEST PUSH2 0x1A5 PUSH1 0x4 DUP1 CALLDATASIZE SUB DUP2 ADD SWAP1 PUSH2 0x1A0 SWAP2 SWAP1 PUSH2 0xF24 JUMP JUMPDEST PUSH2 0x983 JUMP JUMPDEST STOP JUMPDEST PUSH2 0x1C1 PUSH1 0x4 DUP1 CALLDATASIZE SUB DUP2 ADD SWAP1 PUSH2 0x1BC SWAP2 SWAP1 PUSH2 0xF64 JUMP JUMPDEST PUSH2 0xA3B JUMP JUMPDEST STOP JUMPDEST PUSH2 0x1CB PUSH2 0xA92 JUMP JUMPDEST PUSH1 0x40 MLOAD PUSH2 0x1D8 SWAP2 SWAP1 PUSH2 0xFA0 JUMP JUMPDEST PUSH1 0x40 MLOAD DUP1 SWAP2 SUB SWAP1 RETURN JUMPDEST PUSH2 0x1E9 PUSH2 0xB35 JUMP JUMPDEST STOP JUMPDEST PUSH2 0x205 PUSH1 0x4 DUP1 CALLDATASIZE SUB DUP2 ADD SWAP1 PUSH2 0x200 SWAP2 SWAP1 PUSH2 0xF64 JUMP JUMPDEST PUSH2 0xB49 JUMP JUMPDEST STOP JUMPDEST PUSH2 0x221 PUSH1 0x4 DUP1 CALLDATASIZE SUB DUP2 ADD SWAP1 PUSH2 0x21C SWAP2 SWAP1 PUSH2 0xF64 JUMP JUMPDEST PUSH2 0xB5B JUMP JUMPDEST STOP JUMPDEST PUSH2 0x22B PUSH2 0xB6D JUMP JUMPDEST PUSH1 0x40 MLOAD PUSH2 0x238 SWAP2 SWAP1 PUSH2 0xFFC JUMP JUMPDEST PUSH1 0x40 MLOAD DUP1 SWAP2 SUB SWAP1 RETURN JUMPDEST PUSH2 0x249 PUSH2 0xB96 JUMP JUMPDEST PUSH1 0x40 MLOAD PUSH2 0x256 SWAP2 SWAP1 PUSH2 0xFA0 JUMP JUMPDEST PUSH1 0x40 MLOAD DUP1 SWAP2 SUB SWAP1 RETURN JUMPDEST PUSH2 0x279 PUSH1 0x4 DUP1 CALLDATASIZE SUB DUP2 ADD SWAP1 PUSH2 0x274 SWAP2 SWAP1 PUSH2 0xF64 JUMP JUMPDEST PUSH2 0xB9C JUMP JUMPDEST PUSH1 0x40 MLOAD PUSH2 0x286 SWAP2 SWAP1 PUSH2 0xFA0 JUMP JUMPDEST PUSH1 0x40 MLOAD DUP1 SWAP2 SUB SWAP1 RETURN JUMPDEST PUSH2 0x297 PUSH2 0xBB9 JUMP JUMPDEST PUSH1 0x40 MLOAD PUSH2 0x2A4 SWAP2 SWAP1 PUSH2 0x1076 JUMP JUMPDEST PUSH1 0x40 MLOAD DUP1 SWAP2 SUB SWAP1 RETURN JUMPDEST PUSH2 0x2B5 PUSH2 0xBDF JUMP JUMPDEST PUSH1 0x40 MLOAD PUSH2 0x2C2 SWAP2 SWAP1 PUSH2 0xFA0 JUMP JUMPDEST PUSH1 0x40 MLOAD DUP1 SWAP2 SUB SWAP1 RETURN JUMPDEST PUSH2 0x2E5 PUSH1 0x4 DUP1 CALLDATASIZE SUB DUP2 ADD SWAP1 PUSH2 0x2E0 SWAP2 SWAP1 PUSH2 0x10BD JUMP JUMPDEST PUSH2 0xBE5 JUMP JUMPDEST STOP JUMPDEST PUSH2 0x2EF PUSH2 0xC6B JUMP JUMPDEST PUSH1 0x2 DUP3 LT ISZERO DUP1 ISZERO PUSH2 0x301 JUMPI POP PUSH1 0xC DUP3 GT ISZERO JUMPDEST PUSH2 0x340 JUMPI PUSH1 0x40 MLOAD PUSH32 0x8C379A000000000000000000000000000000000000000000000000000000000 DUP2 MSTORE PUSH1 0x4 ADD PUSH2 0x337 SWAP1 PUSH2 0x1147 JUMP JUMPDEST PUSH1 0x40 MLOAD DUP1 SWAP2 SUB SWAP1 REVERT JUMPDEST PUSH1 0x0 PUSH1 0x6 PUSH1 0x0 DUP5 DUP2 MSTORE PUSH1 0x20 ADD SWAP1 DUP2 MSTORE PUSH1 0x20 ADD PUSH1 0x0 KECCAK256 SLOAD GT PUSH2 0x396 JUMPI PUSH1 0x40 MLOAD PUSH32 0x8C379A000000000000000000000000000000000000000000000000000000000 DUP2 MSTORE PUSH1 0x4 ADD PUSH2 0x38D SWAP1 PUSH2 0x1147 JUMP JUMPDEST PUSH1 0x40 MLOAD DUP1 SWAP2 SUB SWAP1 REVERT JUMPDEST PUSH1 0x3 SLOAD DUP2 LT ISZERO DUP1 ISZERO PUSH2 0x3AA JUMPI POP PUSH1 0x4 SLOAD DUP2 GT ISZERO JUMPDEST PUSH2 0x3E9 JUMPI PUSH1 0x40 MLOAD PUSH32 0x8C379A000000000000000000000000000000000000000000000000000000000 DUP2 MSTORE PUSH1 0x4 ADD PUSH2 0x3E0 SWAP1 PUSH2 0x11B3 JUMP JUMPDEST PUSH1 0x40 MLOAD DUP1 SWAP2 SUB SWAP1 REVERT JUMPDEST DUP1 PUSH1 0x2 PUSH1 0x0 SWAP1 SLOAD SWAP1 PUSH2 0x100 EXP SWAP1 DIV PUSH20 0xFFFFFFFFFFFFFFFFFFFFFFFFFFFFFFFFFFFFFFFF AND PUSH20 0xFFFFFFFFFFFFFFFFFFFFFFFFFFFFFFFFFFFFFFFF AND PUSH4 0x70A08231 CALLER PUSH1 0x40 MLOAD DUP3 PUSH4 0xFFFFFFFF AND PUSH1 0xE0 SHL DUP2 MSTORE PUSH1 0x4 ADD PUSH2 0x445 SWAP2 SWAP1 PUSH2 0xFFC JUMP JUMPDEST PUSH1 0x20 PUSH1 0x40 MLOAD DUP1 DUP4 SUB DUP2 DUP7 GAS STATICCALL ISZERO DUP1 ISZERO PUSH2 0x462 JUMPI RETURNDATASIZE PUSH1 0x0 DUP1 RETURNDATACOPY RETURNDATASIZE PUSH1 0x0 REVERT JUMPDEST POP POP POP POP PUSH1 0x40 MLOAD RETURNDATASIZE PUSH1 0x1F NOT PUSH1 0x1F DUP3 ADD AND DUP3 ADD DUP1 PUSH1 0x40 MSTORE POP DUP2 ADD SWAP1 PUSH2 0x486 SWAP2 SWAP1 PUSH2 0x11E8 JUMP JUMPDEST LT ISZERO PUSH2 0x4C7 JUMPI PUSH1 0x40 MLOAD PUSH32 0x8C379A000000000000000000000000000000000000000000000000000000000 DUP2 MSTORE PUSH1 0x4 ADD PUSH2 0x4BE SWAP1 PUSH2 0x1261 JUMP JUMPDEST PUSH1 0x40 MLOAD DUP1 SWAP2 SUB SWAP1 REVERT JUMPDEST PUSH1 0x0 PUSH1 0x6 PUSH1 0x0 DUP5 DUP2 MSTORE PUSH1 0x20 ADD SWAP1 DUP2 MSTORE PUSH1 0x20 ADD PUSH1 0x0 KECCAK256 SLOAD SWAP1 POP PUSH1 0x0 PUSH2 0x2710 PUSH1 0x5 SLOAD PUSH2 0x2710 PUSH2 0x4F4 SWAP2 SWAP1 PUSH2 0x12B0 JUMP JUMPDEST DUP4 DUP6 PUSH2 0x500 SWAP2 SWAP1 PUSH2 0x12E4 JUMP JUMPDEST PUSH2 0x50A SWAP2 SWAP1 PUSH2 0x12E4 JUMP JUMPDEST PUSH2 0x514 SWAP2 SWAP1 PUSH2 0x1355 JUMP JUMPDEST SWAP1 POP DUP1 PUSH1 0x2 PUSH1 0x0 SWAP1 SLOAD SWAP1 PUSH2 0x100 EXP SWAP1 DIV PUSH20 0xFFFFFFFFFFFFFFFFFFFFFFFFFFFFFFFFFFFFFFFF AND PUSH20 0xFFFFFFFFFFFFFFFFFFFFFFFFFFFFFFFFFFFFFFFF AND PUSH4 0x70A08231 ADDRESS PUSH1 0x40 MLOAD DUP3 PUSH4 0xFFFFFFFF AND PUSH1 0xE0 SHL DUP2 MSTORE PUSH1 0x4 ADD PUSH2 0x572 SWAP2 SWAP1 PUSH2 0xFFC JUMP JUMPDEST PUSH1 0x20 PUSH1 0x40 MLOAD DUP1 DUP4 SUB DUP2 DUP7 GAS STATICCALL ISZERO DUP1 ISZERO PUSH2 0x58F JUMPI RETURNDATASIZE PUSH1 0x0 DUP1 RETURNDATACOPY RETURNDATASIZE PUSH1 0x0 REVERT JUMPDEST POP POP POP POP PUSH1 0x40 MLOAD RETURNDATASIZE PUSH1 0x1F NOT PUSH1 0x1F DUP3 ADD AND DUP3 ADD DUP1 PUSH1 0x40 MSTORE POP DUP2 ADD SWAP1 PUSH2 0x5B3 SWAP2 SWAP1 PUSH2 0x11E8 JUMP JUMPDEST LT ISZERO PUSH2 0x5F4 JUMPI PUSH1 0x40 MLOAD PUSH32 0x8C379A000000000000000000000000000000000000000000000000000000000 DUP2 MSTORE PUSH1 0x4 ADD PUSH2 0x5EB SWAP1 PUSH2 0x13D2 JUMP JUMPDEST PUSH1 0x40 MLOAD DUP1 SWAP2 SUB SWAP1 REVERT JUMPDEST PUSH1 0x2 PUSH1 0x0 SWAP1 SLOAD SWAP1 PUSH2 0x100 EXP SWAP1 DIV PUSH20 0xFFFFFFFFFFFFFFFFFFFFFFFFFFFFFFFFFFFFFFFF AND PUSH20 0xFFFFFFFFFFFFFFFFFFFFFFFFFFFFFFFFFFFFFFFF AND PUSH4 0x23B872DD CALLER ADDRESS DUP7 PUSH1 0x40 MLOAD DUP5 PUSH4 0xFFFFFFFF AND PUSH1 0xE0 SHL DUP2 MSTORE PUSH1 0x4 ADD PUSH2 0x653 SWAP4 SWAP3 SWAP2 SWAP1 PUSH2 0x13F2 JUMP JUMPDEST PUSH1 0x20 PUSH1 0x40 MLOAD DUP1 DUP4 SUB DUP2 PUSH1 0x0 DUP8 GAS CALL ISZERO DUP1 ISZERO PUSH2 0x672 JUMPI RETURNDATASIZE PUSH1 0x0 DUP1 RETURNDATACOPY RETURNDATASIZE PUSH1 0x0 REVERT JUMPDEST POP POP POP POP PUSH1 0x40 MLOAD RETURNDATASIZE PUSH1 0x1F NOT PUSH1 0x1F DUP3 ADD AND DUP3 ADD DUP1 PUSH1 0x40 MSTORE POP DUP2 ADD SWAP1 PUSH2 0x696 SWAP2 SWAP1 PUSH2 0x1461 JUMP JUMPDEST PUSH2 0x6D5 JUMPI PUSH1 0x40 MLOAD PUSH32 0x8C379A000000000000000000000000000000000000000000000000000000000 DUP2 MSTORE PUSH1 0x4 ADD PUSH2 0x6CC SWAP1 PUSH2 0x14DA JUMP JUMPDEST PUSH1 0x40 MLOAD DUP1 SWAP2 SUB SWAP1 REVERT JUMPDEST PUSH1 0x0 PUSH2 0x6DF PUSH2 0xCB1 JUMP JUMPDEST SWAP1 POP PUSH1 0x0 DUP2 PUSH1 0x1 PUSH1 0x2 DUP2 LT PUSH2 0x6F7 JUMPI PUSH2 0x6F6 PUSH2 0x14FA JUMP JUMPDEST JUMPDEST PUSH1 0x20 MUL ADD MLOAD DUP3 PUSH1 0x0 PUSH1 0x2 DUP2 LT PUSH2 0x710 JUMPI PUSH2 0x70F PUSH2 0x14FA JUMP JUMPDEST JUMPDEST PUSH1 0x20 MUL ADD MLOAD PUSH2 0x71F SWAP2 SWAP1 PUSH2 0x1529 JUMP JUMPDEST SWAP1 POP PUSH1 0x0 DUP7 DUP3 SUB PUSH2 0x80D JUMPI DUP4 SWAP1 POP PUSH1 0x2 PUSH1 0x0 SWAP1 SLOAD SWAP1 PUSH2 0x100 EXP SWAP1 DIV PUSH20 0xFFFFFFFFFFFFFFFFFFFFFFFFFFFFFFFFFFFFFFFF AND PUSH20 0xFFFFFFFFFFFFFFFFFFFFFFFFFFFFFFFFFFFFFFFF AND PUSH4 0xA9059CBB CALLER DUP4 PUSH1 0x40 MLOAD DUP4 PUSH4 0xFFFFFFFF AND PUSH1 0xE0 SHL DUP2 MSTORE PUSH1 0x4 ADD PUSH2 0x78A SWAP3 SWAP2 SWAP1 PUSH2 0x155D JUMP JUMPDEST PUSH1 0x20 PUSH1 0x40 MLOAD DUP1 DUP4 SUB DUP2 PUSH1 0x0 DUP8 GAS CALL ISZERO DUP1 ISZERO PUSH2 0x7A9 JUMPI RETURNDATASIZE PUSH1 0x0 DUP1 RETURNDATACOPY RETURNDATASIZE PUSH1 0x0 REVERT JUMPDEST POP POP POP POP PUSH1 0x40 MLOAD RETURNDATASIZE PUSH1 0x1F NOT PUSH1 0x1F DUP3 ADD AND DUP3 ADD DUP1 PUSH1 0x40 MSTORE POP DUP2 ADD SWAP1 PUSH2 0x7CD SWAP2 SWAP1 PUSH2 0x1461 JUMP JUMPDEST PUSH2 0x80C JUMPI PUSH1 0x40 MLOAD PUSH32 0x8C379A000000000000000000000000000000000000000000000000000000000 DUP2 MSTORE PUSH1 0x4 ADD PUSH2 0x803 SWAP1 PUSH2 0x15D2 JUMP JUMPDEST PUSH1 0x40 MLOAD DUP1 SWAP2 SUB SWAP1 REVERT JUMPDEST JUMPDEST CALLER PUSH20 0xFFFFFFFFFFFFFFFFFFFFFFFFFFFFFFFFFFFFFFFF AND PUSH32 0xF72874526AA738D4A5896D99D59C6CBBA3D3698B8B7396EB4A488743BD4D0130 DUP9 DUP5 DUP7 DUP11 DUP7 PUSH1 0x40 MLOAD PUSH2 0x85B SWAP6 SWAP5 SWAP4 SWAP3 SWAP2 SWAP1 PUSH2 0x169D JUMP JUMPDEST PUSH1 0x40 MLOAD DUP1 SWAP2 SUB SWAP1 LOG2 POP POP POP POP POP PUSH2 0x870 PUSH2 0xD6B JUMP JUMPDEST POP POP JUMP JUMPDEST PUSH2 0x87C PUSH2 0xD74 JUMP JUMPDEST PUSH1 0x2 PUSH1 0x0 SWAP1 SLOAD SWAP1 PUSH2 0x100 EXP SWAP1 DIV PUSH20 0xFFFFFFFFFFFFFFFFFFFFFFFFFFFFFFFFFFFFFFFF AND PUSH20 0xFFFFFFFFFFFFFFFFFFFFFFFFFFFFFFFFFFFFFFFF AND PUSH4 0xA9059CBB PUSH2 0x8C2 PUSH2 0xB6D JUMP JUMPDEST DUP4 PUSH1 0x40 MLOAD DUP4 PUSH4 0xFFFFFFFF AND PUSH1 0xE0 SHL DUP2 MSTORE PUSH1 0x4 ADD PUSH2 0x8E0 SWAP3 SWAP2 SWAP1 PUSH2 0x155D JUMP JUMPDEST PUSH1 0x20 PUSH1 0x40 MLOAD DUP1 DUP4 SUB DUP2 PUSH1 0x0 DUP8 GAS CALL ISZERO DUP1 ISZERO PUSH2 0x8FF JUMPI RETURNDATASIZE PUSH1 0x0 DUP1 RETURNDATACOPY RETURNDATASIZE PUSH1 0x0 REVERT JUMPDEST POP POP POP POP PUSH1 0x40 MLOAD RETURNDATASIZE PUSH1 0x1F NOT PUSH1 0x1F DUP3 ADD AND DUP3 ADD DUP1 PUSH1 0x40 MSTORE POP DUP2 ADD SWAP1 PUSH2 0x923 SWAP2 SWAP1 PUSH2 0x1461 JUMP JUMPDEST PUSH2 0x962 JUMPI PUSH1 0x40 MLOAD PUSH32 0x8C379A000000000000000000000000000000000000000000000000000000000 DUP2 MSTORE PUSH1 0x4 ADD PUSH2 0x959 SWAP1 PUSH2 0x173C JUMP JUMPDEST PUSH1 0x40 MLOAD DUP1 SWAP2 SUB SWAP1 REVERT JUMPDEST POP JUMP JUMPDEST PUSH1 0x6 PUSH1 0x20 MSTORE DUP1 PUSH1 0x0 MSTORE PUSH1 0x40 PUSH1 0x0 KECCAK256 PUSH1 0x0 SWAP2 POP SWAP1 POP SLOAD DUP2 JUMP JUMPDEST PUSH1 0x4 SLOAD DUP2 JUMP JUMPDEST PUSH2 0x98B PUSH2 0xD74 JUMP JUMPDEST PUSH1 0x2 DUP3 LT ISZERO DUP1 ISZERO PUSH2 0x99D JUMPI POP PUSH1 0xC DUP3 GT ISZERO JUMPDEST PUSH2 0x9DC JUMPI PUSH1 0x40 MLOAD PUSH32 0x8C379A000000000000000000000000000000000000000000000000000000000 DUP2 MSTORE PUSH1 0x4 ADD PUSH2 0x9D3 SWAP1 PUSH2 0x17A8 JUMP JUMPDEST PUSH1 0x40 MLOAD DUP1 SWAP2 SUB SWAP1 REVERT JUMPDEST PUSH1 0x0 DUP2 GT PUSH2 0xA1F JUMPI PUSH1 0x40 MLOAD PUSH32 0x8C379A000000000000000000000000000000000000000000000000000000000 DUP2 MSTORE PUSH1 0x4 ADD PUSH2 0xA16 SWAP1 PUSH2 0x183A JUMP JUMPDEST PUSH1 0x40 MLOAD DUP1 SWAP2 SUB SWAP1 REVERT JUMPDEST DUP1 PUSH1 0x6 PUSH1 0x0 DUP5 DUP2 MSTORE PUSH1 0x20 ADD SWAP1 DUP2 MSTORE PUSH1 0x20 ADD PUSH1 0x0 KECCAK256 DUP2 SWAP1 SSTORE POP POP POP JUMP JUMPDEST PUSH2 0xA43 PUSH2 0xD74 JUMP JUMPDEST PUSH2 0x3E8 DUP2 GT ISZERO PUSH2 0xA88 JUMPI PUSH1 0x40 MLOAD PUSH32 0x8C379A000000000000000000000000000000000000000000000000000000000 DUP2 MSTORE PUSH1 0x4 ADD PUSH2 0xA7F SWAP1 PUSH2 0x18A6 JUMP JUMPDEST PUSH1 0x40 MLOAD DUP1 SWAP2 SUB SWAP1 REVERT JUMPDEST DUP1 PUSH1 0x5 DUP2 SWAP1 SSTORE POP POP JUMP JUMPDEST PUSH1 0x0 PUSH1 0x2 PUSH1 0x0 SWAP1 SLOAD SWAP1 PUSH2 0x100 EXP SWAP1 DIV PUSH20 0xFFFFFFFFFFFFFFFFFFFFFFFFFFFFFFFFFFFFFFFF AND PUSH20 0xFFFFFFFFFFFFFFFFFFFFFFFFFFFFFFFFFFFFFFFF AND PUSH4 0x70A08231 ADDRESS PUSH1 0x40 MLOAD DUP3 PUSH4 0xFFFFFFFF AND PUSH1 0xE0 SHL DUP2 MSTORE PUSH1 0x4 ADD PUSH2 0xAEF SWAP2 SWAP1 PUSH2 0xFFC JUMP JUMPDEST PUSH1 0x20 PUSH1 0x40 MLOAD DUP1 DUP4 SUB DUP2 DUP7 GAS STATICCALL ISZERO DUP1 ISZERO PUSH2 0xB0C JUMPI RETURNDATASIZE PUSH1 0x0 DUP1 RETURNDATACOPY RETURNDATASIZE PUSH1 0x0 REVERT JUMPDEST POP POP POP POP PUSH1 0x40 MLOAD RETURNDATASIZE PUSH1 0x1F NOT PUSH1 0x1F DUP3 ADD AND DUP3 ADD DUP1 PUSH1 0x40 MSTORE POP DUP2 ADD SWAP1 PUSH2 0xB30 SWAP2 SWAP1 PUSH2 0x11E8 JUMP JUMPDEST SWAP1 POP SWAP1 JUMP JUMPDEST PUSH2 0xB3D PUSH2 0xD74 JUMP JUMPDEST PUSH2 0xB47 PUSH1 0x0 PUSH2 0xDFB JUMP JUMPDEST JUMP JUMPDEST PUSH2 0xB51 PUSH2 0xD74 JUMP JUMPDEST DUP1 PUSH1 0x4 DUP2 SWAP1 SSTORE POP POP JUMP JUMPDEST PUSH2 0xB63 PUSH2 0xD74 JUMP JUMPDEST DUP1 PUSH1 0x3 DUP2 SWAP1 SSTORE POP POP JUMP JUMPDEST PUSH1 0x0 DUP1 PUSH1 0x0 SWAP1 SLOAD SWAP1 PUSH2 0x100 EXP SWAP1 DIV PUSH20 0xFFFFFFFFFFFFFFFFFFFFFFFFFFFFFFFFFFFFFFFF AND SWAP1 POP SWAP1 JUMP JUMPDEST PUSH1 0x3 SLOAD DUP2 JUMP JUMPDEST PUSH1 0x0 PUSH1 0x6 PUSH1 0x0 DUP4 DUP2 MSTORE PUSH1 0x20 ADD SWAP1 DUP2 MSTORE PUSH1 0x20 ADD PUSH1 0x0 KECCAK256 SLOAD SWAP1 POP SWAP2 SWAP1 POP JUMP JUMPDEST PUSH1 0x2 PUSH1 0x0 SWAP1 SLOAD SWAP1 PUSH2 0x100 EXP SWAP1 DIV PUSH20 0xFFFFFFFFFFFFFFFFFFFFFFFFFFFFFFFFFFFFFFFF AND DUP2 JUMP JUMPDEST PUSH1 0x5 SLOAD DUP2 JUMP JUMPDEST PUSH2 0xBED PUSH2 0xD74 JUMP JUMPDEST PUSH1 0x0 PUSH20 0xFFFFFFFFFFFFFFFFFFFFFFFFFFFFFFFFFFFFFFFF AND DUP2 PUSH20 0xFFFFFFFFFFFFFFFFFFFFFFFFFFFFFFFFFFFFFFFF AND SUB PUSH2 0xC5F JUMPI PUSH1 0x0 PUSH1 0x40 MLOAD PUSH32 0x1E4FBDF700000000000000000000000000000000000000000000000000000000 DUP2 MSTORE PUSH1 0x4 ADD PUSH2 0xC56 SWAP2 SWAP1 PUSH2 0xFFC JUMP JUMPDEST PUSH1 0x40 MLOAD DUP1 SWAP2 SUB SWAP1 REVERT JUMPDEST PUSH2 0xC68 DUP2 PUSH2 0xDFB JUMP JUMPDEST POP JUMP JUMPDEST PUSH1 0x2 PUSH1 0x1 SLOAD SUB PUSH2 0xCA7 JUMPI PUSH1 0x40 MLOAD PUSH32 0x3EE5AEB500000000000000000000000000000000000000000000000000000000 DUP2 MSTORE PUSH1 0x4 ADD PUSH1 0x40 MLOAD DUP1 SWAP2 SUB SWAP1 REVERT JUMPDEST PUSH1 0x2 PUSH1 0x1 DUP2 SWAP1 SSTORE POP JUMP JUMPDEST PUSH2 0xCB9 PUSH2 0xEC7 JUMP JUMPDEST PUSH1 0x0 TIMESTAMP PREVRANDAO CALLER PUSH1 0x40 MLOAD PUSH1 0x20 ADD PUSH2 0xCD0 SWAP4 SWAP3 SWAP2 SWAP1 PUSH2 0x192F JUMP JUMPDEST PUSH1 0x40 MLOAD PUSH1 0x20 DUP2 DUP4 SUB SUB DUP2 MSTORE SWAP1 PUSH1 0x40 MSTORE DUP1 MLOAD SWAP1 PUSH1 0x20 ADD KECCAK256 PUSH1 0x0 SHR SWAP1 POP PUSH2 0xCF3 PUSH2 0xEC7 JUMP JUMPDEST PUSH1 0x1 PUSH1 0x6 DUP4 PUSH2 0xD02 SWAP2 SWAP1 PUSH2 0x196C JUMP JUMPDEST PUSH2 0xD0C SWAP2 SWAP1 PUSH2 0x1529 JUMP JUMPDEST DUP2 PUSH1 0x0 PUSH1 0x2 DUP2 LT PUSH2 0xD20 JUMPI PUSH2 0xD1F PUSH2 0x14FA JUMP JUMPDEST JUMPDEST PUSH1 0x20 MUL ADD DUP2 DUP2 MSTORE POP POP PUSH1 0x1 PUSH1 0x6 PUSH1 0x80 DUP5 SWAP1 SHR PUSH2 0xD3C SWAP2 SWAP1 PUSH2 0x196C JUMP JUMPDEST PUSH2 0xD46 SWAP2 SWAP1 PUSH2 0x1529 JUMP JUMPDEST DUP2 PUSH1 0x1 PUSH1 0x2 DUP2 LT PUSH2 0xD5A JUMPI PUSH2 0xD59 PUSH2 0x14FA JUMP JUMPDEST JUMPDEST PUSH1 0x20 MUL ADD DUP2 DUP2 MSTORE POP POP DUP1 SWAP3 POP POP POP SWAP1 JUMP JUMPDEST PUSH1 0x1 DUP1 DUP2 SWAP1 SSTORE POP JUMP JUMPDEST PUSH2 0xD7C PUSH2 0xEBF JUMP JUMPDEST PUSH20 0xFFFFFFFFFFFFFFFFFFFFFFFFFFFFFFFFFFFFFFFF AND PUSH2 0xD9A PUSH2 0xB6D JUMP JUMPDEST PUSH20 0xFFFFFFFFFFFFFFFFFFFFFFFFFFFFFFFFFFFFFFFF AND EQ PUSH2 0xDF9 JUMPI PUSH2 0xDBD PUSH2 0xEBF JUMP JUMPDEST PUSH1 0x40 MLOAD PUSH32 0x118CDAA700000000000000000000000000000000000000000000000000000000 DUP2 MSTORE PUSH1 0x4 ADD PUSH2 0xDF0 SWAP2 SWAP1 PUSH2 0xFFC JUMP JUMPDEST PUSH1 0x40 MLOAD DUP1 SWAP2 SUB SWAP1 REVERT JUMPDEST JUMP JUMPDEST PUSH1 0x0 DUP1 PUSH1 0x0 SWAP1 SLOAD SWAP1 PUSH2 0x100 EXP SWAP1 DIV PUSH20 0xFFFFFFFFFFFFFFFFFFFFFFFFFFFFFFFFFFFFFFFF AND SWAP1 POP DUP2 PUSH1 0x0 DUP1 PUSH2 0x100 EXP DUP2 SLOAD DUP2 PUSH20 0xFFFFFFFFFFFFFFFFFFFFFFFFFFFFFFFFFFFFFFFF MUL NOT AND SWAP1 DUP4 PUSH20 0xFFFFFFFFFFFFFFFFFFFFFFFFFFFFFFFFFFFFFFFF AND MUL OR SWAP1 SSTORE POP DUP2 PUSH20 0xFFFFFFFFFFFFFFFFFFFFFFFFFFFFFFFFFFFFFFFF AND DUP2 PUSH20 0xFFFFFFFFFFFFFFFFFFFFFFFFFFFFFFFFFFFFFFFF AND PUSH32 0x8BE0079C531659141344CD1FD0A4F28419497F9722A3DAAFE3B4186F6B6457E0 PUSH1 0x40 MLOAD PUSH1 0x40 MLOAD DUP1 SWAP2 SUB SWAP1 LOG3 POP POP JUMP JUMPDEST PUSH1 0x0 CALLER SWAP1 POP SWAP1 JUMP JUMPDEST PUSH1 0x40 MLOAD DUP1 PUSH1 0x40 ADD PUSH1 0x40 MSTORE DUP1 PUSH1 0x2 SWAP1 PUSH1 0x20 DUP3 MUL DUP1 CALLDATASIZE DUP4 CALLDATACOPY DUP1 DUP3 ADD SWAP2 POP POP SWAP1 POP POP SWAP1 JUMP JUMPDEST PUSH1 0x0 DUP1 REVERT JUMPDEST PUSH1 0x0 DUP2 SWAP1 POP SWAP2 SWAP1 POP JUMP JUMPDEST PUSH2 0xF01 DUP2 PUSH2 0xEEE JUMP JUMPDEST DUP2 EQ PUSH2 0xF0C JUMPI PUSH1 0x0 DUP1 REVERT JUMPDEST POP JUMP JUMPDEST PUSH1 0x0 DUP2 CALLDATALOAD SWAP1 POP PUSH2 0xF1E DUP2 PUSH2 0xEF8 JUMP JUMPDEST SWAP3 SWAP2 POP POP JUMP JUMPDEST PUSH1 0x0 DUP1 PUSH1 0x40 DUP4 DUP6 SUB SLT ISZERO PUSH2 0xF3B JUMPI PUSH2 0xF3A PUSH2 0xEE9 JUMP JUMPDEST JUMPDEST PUSH1 0x0 PUSH2 0xF49 DUP6 DUP3 DUP7 ADD PUSH2 0xF0F JUMP JUMPDEST SWAP3 POP POP PUSH1 0x20 PUSH2 0xF5A DUP6 DUP3 DUP7 ADD PUSH2 0xF0F JUMP JUMPDEST SWAP2 POP POP SWAP3 POP SWAP3 SWAP1 POP JUMP JUMPDEST PUSH1 0x0 PUSH1 0x20 DUP3 DUP5 SUB SLT ISZERO PUSH2 0xF7A JUMPI PUSH2 0xF79 PUSH2 0xEE9 JUMP JUMPDEST JUMPDEST PUSH1 0x0 PUSH2 0xF88 DUP5 DUP3 DUP6 ADD PUSH2 0xF0F JUMP JUMPDEST SWAP2 POP POP SWAP3 SWAP2 POP POP JUMP JUMPDEST PUSH2 0xF9A DUP2 PUSH2 0xEEE JUMP JUMPDEST DUP3 MSTORE POP POP JUMP JUMPDEST PUSH1 0x0 PUSH1 0x20 DUP3 ADD SWAP1 POP PUSH2 0xFB5 PUSH1 0x0 DUP4 ADD DUP5 PUSH2 0xF91 JUMP JUMPDEST SWAP3 SWAP2 POP POP JUMP JUMPDEST PUSH1 0x0 PUSH20 0xFFFFFFFFFFFFFFFFFFFFFFFFFFFFFFFFFFFFFFFF DUP3 AND SWAP1 POP SWAP2 SWAP1 POP JUMP JUMPDEST PUSH1 0x0 PUSH2 0xFE6 DUP3 PUSH2 0xFBB JUMP JUMPDEST SWAP1 POP SWAP2 SWAP1 POP JUMP JUMPDEST PUSH2 0xFF6 DUP2 PUSH2 0xFDB JUMP JUMPDEST DUP3 MSTORE POP POP JUMP JUMPDEST PUSH1 0x0 PUSH1 0x20 DUP3 ADD SWAP1 POP PUSH2 0x1011 PUSH1 0x0 DUP4 ADD DUP5 PUSH2 0xFED JUMP JUMPDEST SWAP3 SWAP2 POP POP JUMP JUMPDEST PUSH1 0x0 DUP2 SWAP1 POP SWAP2 SWAP1 POP JUMP JUMPDEST PUSH1 0x0 PUSH2 0x103C PUSH2 0x1037 PUSH2 0x1032 DUP5 PUSH2 0xFBB JUMP JUMPDEST PUSH2 0x1017 JUMP JUMPDEST PUSH2 0xFBB JUMP JUMPDEST SWAP1 POP SWAP2 SWAP1 POP JUMP JUMPDEST PUSH1 0x0 PUSH2 0x104E DUP3 PUSH2 0x1021 JUMP JUMPDEST SWAP1 POP SWAP2 SWAP1 POP JUMP JUMPDEST PUSH1 0x0 PUSH2 0x1060 DUP3 PUSH2 0x1043 JUMP JUMPDEST SWAP1 POP SWAP2 SWAP1 POP JUMP JUMPDEST PUSH2 0x1070 DUP2 PUSH2 0x1055 JUMP JUMPDEST DUP3 MSTORE POP POP JUMP JUMPDEST PUSH1 0x0 PUSH1 0x20 DUP3 ADD SWAP1 POP PUSH2 0x108B PUSH1 0x0 DUP4 ADD DUP5 PUSH2 0x1067 JUMP JUMPDEST SWAP3 SWAP2 POP POP JUMP JUMPDEST PUSH2 0x109A DUP2 PUSH2 0xFDB JUMP JUMPDEST DUP2 EQ PUSH2 0x10A5 JUMPI PUSH1 0x0 DUP1 REVERT JUMPDEST POP JUMP JUMPDEST PUSH1 0x0 DUP2 CALLDATALOAD SWAP1 POP PUSH2 0x10B7 DUP2 PUSH2 0x1091 JUMP JUMPDEST SWAP3 SWAP2 POP POP JUMP JUMPDEST PUSH1 0x0 PUSH1 0x20 DUP3 DUP5 SUB SLT ISZERO PUSH2 0x10D3 JUMPI PUSH2 0x10D2 PUSH2 0xEE9 JUMP JUMPDEST JUMPDEST PUSH1 0x0 PUSH2 0x10E1 DUP5 DUP3 DUP6 ADD PUSH2 0x10A8 JUMP JUMPDEST SWAP2 POP POP SWAP3 SWAP2 POP POP JUMP JUMPDEST PUSH1 0x0 DUP3 DUP3 MSTORE PUSH1 0x20 DUP3 ADD SWAP1 POP SWAP3 SWAP2 POP POP JUMP JUMPDEST PUSH32 0x496E76616C69642073756D2073656C656374696F6E0000000000000000000000 PUSH1 0x0 DUP3 ADD MSTORE POP JUMP JUMPDEST PUSH1 0x0 PUSH2 0x1131 PUSH1 0x15 DUP4 PUSH2 0x10EA JUMP JUMPDEST SWAP2 POP PUSH2 0x113C DUP3 PUSH2 0x10FB JUMP JUMPDEST PUSH1 0x20 DUP3 ADD SWAP1 POP SWAP2 SWAP1 POP JUMP JUMPDEST PUSH1 0x0 PUSH1 0x20 DUP3 ADD SWAP1 POP DUP2 DUP2 SUB PUSH1 0x0 DUP4 ADD MSTORE PUSH2 0x1160 DUP2 PUSH2 0x1124 JUMP JUMPDEST SWAP1 POP SWAP2 SWAP1 POP JUMP JUMPDEST PUSH32 0x42657420616D6F756E74206F7574206F662072616E6765000000000000000000 PUSH1 0x0 DUP3 ADD MSTORE POP JUMP JUMPDEST PUSH1 0x0 PUSH2 0x119D PUSH1 0x17 DUP4 PUSH2 0x10EA JUMP JUMPDEST SWAP2 POP PUSH2 0x11A8 DUP3 PUSH2 0x1167 JUMP JUMPDEST PUSH1 0x20 DUP3 ADD SWAP1 POP SWAP2 SWAP1 POP JUMP JUMPDEST PUSH1 0x0 PUSH1 0x20 DUP3 ADD SWAP1 POP DUP2 DUP2 SUB PUSH1 0x0 DUP4 ADD MSTORE PUSH2 0x11CC DUP2 PUSH2 0x1190 JUMP JUMPDEST SWAP1 POP SWAP2 SWAP1 POP JUMP JUMPDEST PUSH1 0x0 DUP2 MLOAD SWAP1 POP PUSH2 0x11E2 DUP2 PUSH2 0xEF8 JUMP JUMPDEST SWAP3 SWAP2 POP POP JUMP JUMPDEST PUSH1 0x0 PUSH1 0x20 DUP3 DUP5 SUB SLT ISZERO PUSH2 0x11FE JUMPI PUSH2 0x11FD PUSH2 0xEE9 JUMP JUMPDEST JUMPDEST PUSH1 0x0 PUSH2 0x120C DUP5 DUP3 DUP6 ADD PUSH2 0x11D3 JUMP JUMPDEST SWAP2 POP POP SWAP3 SWAP2 POP POP JUMP JUMPDEST PUSH32 0x496E73756666696369656E742062616C616E6365000000000000000000000000 PUSH1 0x0 DUP3 ADD MSTORE POP JUMP JUMPDEST PUSH1 0x0 PUSH2 0x124B PUSH1 0x14 DUP4 PUSH2 0x10EA JUMP JUMPDEST SWAP2 POP PUSH2 0x1256 DUP3 PUSH2 0x1215 JUMP JUMPDEST PUSH1 0x20 DUP3 ADD SWAP1 POP SWAP2 SWAP1 POP JUMP JUMPDEST PUSH1 0x0 PUSH1 0x20 DUP3 ADD SWAP1 POP DUP2 DUP2 SUB PUSH1 0x0 DUP4 ADD MSTORE PUSH2 0x127A DUP2 PUSH2 0x123E JUMP JUMPDEST SWAP1 POP SWAP2 SWAP1 POP JUMP JUMPDEST PUSH32 0x4E487B7100000000000000000000000000000000000000000000000000000000 PUSH1 0x0 MSTORE PUSH1 0x11 PUSH1 0x4 MSTORE PUSH1 0x24 PUSH1 0x0 REVERT JUMPDEST PUSH1 0x0 PUSH2 0x12BB DUP3 PUSH2 0xEEE JUMP JUMPDEST SWAP2 POP PUSH2 0x12C6 DUP4 PUSH2 0xEEE JUMP JUMPDEST SWAP3 POP DUP3 DUP3 SUB SWAP1 POP DUP2 DUP2 GT ISZERO PUSH2 0x12DE JUMPI PUSH2 0x12DD PUSH2 0x1281 JUMP JUMPDEST JUMPDEST SWAP3 SWAP2 POP POP JUMP JUMPDEST PUSH1 0x0 PUSH2 0x12EF DUP3 PUSH2 0xEEE JUMP JUMPDEST SWAP2 POP PUSH2 0x12FA DUP4 PUSH2 0xEEE JUMP JUMPDEST SWAP3 POP DUP3 DUP3 MUL PUSH2 0x1308 DUP2 PUSH2 0xEEE JUMP JUMPDEST SWAP2 POP DUP3 DUP3 DIV DUP5 EQ DUP4 ISZERO OR PUSH2 0x131F JUMPI PUSH2 0x131E PUSH2 0x1281 JUMP JUMPDEST JUMPDEST POP SWAP3 SWAP2 POP POP JUMP JUMPDEST PUSH32 0x4E487B7100000000000000000000000000000000000000000000000000000000 PUSH1 0x0 MSTORE PUSH1 0x12 PUSH1 0x4 MSTORE PUSH1 0x24 PUSH1 0x0 REVERT JUMPDEST PUSH1 0x0 PUSH2 0x1360 DUP3 PUSH2 0xEEE JUMP JUMPDEST SWAP2 POP PUSH2 0x136B DUP4 PUSH2 0xEEE JUMP JUMPDEST SWAP3 POP DUP3 PUSH2 0x137B JUMPI PUSH2 0x137A PUSH2 0x1326 JUMP JUMPDEST JUMPDEST DUP3 DUP3 DIV SWAP1 POP SWAP3 SWAP2 POP POP JUMP JUMPDEST PUSH32 0x496E73756666696369656E7420636F6E74726163742062616C616E6365000000 PUSH1 0x0 DUP3 ADD MSTORE POP JUMP JUMPDEST PUSH1 0x0 PUSH2 0x13BC PUSH1 0x1D DUP4 PUSH2 0x10EA JUMP JUMPDEST SWAP2 POP PUSH2 0x13C7 DUP3 PUSH2 0x1386 JUMP JUMPDEST PUSH1 0x20 DUP3 ADD SWAP1 POP SWAP2 SWAP1 POP JUMP JUMPDEST PUSH1 0x0 PUSH1 0x20 DUP3 ADD SWAP1 POP DUP2 DUP2 SUB PUSH1 0x0 DUP4 ADD MSTORE PUSH2 0x13EB DUP2 PUSH2 0x13AF JUMP JUMPDEST SWAP1 POP SWAP2 SWAP1 POP JUMP JUMPDEST PUSH1 0x0 PUSH1 0x60 DUP3 ADD SWAP1 POP PUSH2 0x1407 PUSH1 0x0 DUP4 ADD DUP7 PUSH2 0xFED JUMP JUMPDEST PUSH2 0x1414 PUSH1 0x20 DUP4 ADD DUP6 PUSH2 0xFED JUMP JUMPDEST PUSH2 0x1421 PUSH1 0x40 DUP4 ADD DUP5 PUSH2 0xF91 JUMP JUMPDEST SWAP5 SWAP4 POP POP POP POP JUMP JUMPDEST PUSH1 0x0 DUP2 ISZERO ISZERO SWAP1 POP SWAP2 SWAP1 POP JUMP JUMPDEST PUSH2 0x143E DUP2 PUSH2 0x1429 JUMP JUMPDEST DUP2 EQ PUSH2 0x1449 JUMPI PUSH1 0x0 DUP1 REVERT JUMPDEST POP JUMP JUMPDEST PUSH1 0x0 DUP2 MLOAD SWAP1 POP PUSH2 0x145B DUP2 PUSH2 0x1435 JUMP JUMPDEST SWAP3 SWAP2 POP POP JUMP JUMPDEST PUSH1 0x0 PUSH1 0x20 DUP3 DUP5 SUB SLT ISZERO PUSH2 0x1477 JUMPI PUSH2 0x1476 PUSH2 0xEE9 JUMP JUMPDEST JUMPDEST PUSH1 0x0 PUSH2 0x1485 DUP5 DUP3 DUP6 ADD PUSH2 0x144C JUMP JUMPDEST SWAP2 POP POP SWAP3 SWAP2 POP POP JUMP JUMPDEST PUSH32 0x5472616E73666572206661696C65640000000000000000000000000000000000 PUSH1 0x0 DUP3 ADD MSTORE POP JUMP JUMPDEST PUSH1 0x0 PUSH2 0x14C4 PUSH1 0xF DUP4 PUSH2 0x10EA JUMP JUMPDEST SWAP2 POP PUSH2 0x14CF DUP3 PUSH2 0x148E JUMP JUMPDEST PUSH1 0x20 DUP3 ADD SWAP1 POP SWAP2 SWAP1 POP JUMP JUMPDEST PUSH1 0x0 PUSH1 0x20 DUP3 ADD SWAP1 POP DUP2 DUP2 SUB PUSH1 0x0 DUP4 ADD MSTORE PUSH2 0x14F3 DUP2 PUSH2 0x14B7 JUMP JUMPDEST SWAP1 POP SWAP2 SWAP1 POP JUMP JUMPDEST PUSH32 0x4E487B7100000000000000000000000000000000000000000000000000000000 PUSH1 0x0 MSTORE PUSH1 0x32 PUSH1 0x4 MSTORE PUSH1 0x24 PUSH1 0x0 REVERT JUMPDEST PUSH1 0x0 PUSH2 0x1534 DUP3 PUSH2 0xEEE JUMP JUMPDEST SWAP2 POP PUSH2 0x153F DUP4 PUSH2 0xEEE JUMP JUMPDEST SWAP3 POP DUP3 DUP3 ADD SWAP1 POP DUP1 DUP3 GT ISZERO PUSH2 0x1557 JUMPI PUSH2 0x1556 PUSH2 0x1281 JUMP JUMPDEST JUMPDEST SWAP3 SWAP2 POP POP JUMP JUMPDEST PUSH1 0x0 PUSH1 0x40 DUP3 ADD SWAP1 POP PUSH2 0x1572 PUSH1 0x0 DUP4 ADD DUP6 PUSH2 0xFED JUMP JUMPDEST PUSH2 0x157F PUSH1 0x20 DUP4 ADD DUP5 PUSH2 0xF91 JUMP JUMPDEST SWAP4 SWAP3 POP POP POP JUMP JUMPDEST PUSH32 0x5061796F7574207472616E73666572206661696C656400000000000000000000 PUSH1 0x0 DUP3 ADD MSTORE POP JUMP JUMPDEST PUSH1 0x0 PUSH2 0x15BC PUSH1 0x16 DUP4 PUSH2 0x10EA JUMP JUMPDEST SWAP2 POP PUSH2 0x15C7 DUP3 PUSH2 0x1586 JUMP JUMPDEST PUSH1 0x20 DUP3 ADD SWAP1 POP SWAP2 SWAP1 POP JUMP JUMPDEST PUSH1 0x0 PUSH1 0x20 DUP3 ADD SWAP1 POP DUP2 DUP2 SUB PUSH1 0x0 DUP4 ADD MSTORE PUSH2 0x15EB DUP2 PUSH2 0x15AF JUMP JUMPDEST SWAP1 POP SWAP2 SWAP1 POP JUMP JUMPDEST PUSH1 0x0 PUSH1 0x2 SWAP1 POP SWAP2 SWAP1 POP JUMP JUMPDEST PUSH1 0x0 DUP2 SWAP1 POP SWAP3 SWAP2 POP POP JUMP JUMPDEST PUSH1 0x0 DUP2 SWAP1 POP SWAP2 SWAP1 POP JUMP JUMPDEST PUSH2 0x161B DUP2 PUSH2 0xEEE JUMP JUMPDEST DUP3 MSTORE POP POP JUMP JUMPDEST PUSH1 0x0 PUSH2 0x162D DUP4 DUP4 PUSH2 0x1612 JUMP JUMPDEST PUSH1 0x20 DUP4 ADD SWAP1 POP SWAP3 SWAP2 POP POP JUMP JUMPDEST PUSH1 0x0 PUSH1 0x20 DUP3 ADD SWAP1 POP SWAP2 SWAP1 POP JUMP JUMPDEST PUSH2 0x164F DUP2 PUSH2 0x15F2 JUMP JUMPDEST PUSH2 0x1659 DUP2 DUP5 PUSH2 0x15FD JUMP JUMPDEST SWAP3 POP PUSH2 0x1664 DUP3 PUSH2 0x1608 JUMP JUMPDEST DUP1 PUSH1 0x0 JUMPDEST DUP4 DUP2 LT ISZERO PUSH2 0x1695 JUMPI DUP2 MLOAD PUSH2 0x167C DUP8 DUP3 PUSH2 0x1621 JUMP JUMPDEST SWAP7 POP PUSH2 0x1687 DUP4 PUSH2 0x1639 JUMP JUMPDEST SWAP3 POP POP PUSH1 0x1 DUP2 ADD SWAP1 POP PUSH2 0x1668 JUMP JUMPDEST POP POP POP POP POP POP JUMP JUMPDEST PUSH1 0x0 PUSH1 0xC0 DUP3 ADD SWAP1 POP PUSH2 0x16B2 PUSH1 0x0 DUP4 ADD DUP9 PUSH2 0xF91 JUMP JUMPDEST PUSH2 0x16BF PUSH1 0x20 DUP4 ADD DUP8 PUSH2 0xF91 JUMP JUMPDEST PUSH2 0x16CC PUSH1 0x40 DUP4 ADD DUP7 PUSH2 0x1646 JUMP JUMPDEST PUSH2 0x16D9 PUSH1 0x80 DUP4 ADD DUP6 PUSH2 0xF91 JUMP JUMPDEST PUSH2 0x16E6 PUSH1 0xA0 DUP4 ADD DUP5 PUSH2 0xF91 JUMP JUMPDEST SWAP7 SWAP6 POP POP POP POP POP POP JUMP JUMPDEST PUSH32 0x5769746864726177616C206661696C6564000000000000000000000000000000 PUSH1 0x0 DUP3 ADD MSTORE POP JUMP JUMPDEST PUSH1 0x0 PUSH2 0x1726 PUSH1 0x11 DUP4 PUSH2 0x10EA JUMP JUMPDEST SWAP2 POP PUSH2 0x1731 DUP3 PUSH2 0x16F0 JUMP JUMPDEST PUSH1 0x20 DUP3 ADD SWAP1 POP SWAP2 SWAP1 POP JUMP JUMPDEST PUSH1 0x0 PUSH1 0x20 DUP3 ADD SWAP1 POP DUP2 DUP2 SUB PUSH1 0x0 DUP4 ADD MSTORE PUSH2 0x1755 DUP2 PUSH2 0x1719 JUMP JUMPDEST SWAP1 POP SWAP2 SWAP1 POP JUMP JUMPDEST PUSH32 0x496E76616C69642073756D000000000000000000000000000000000000000000 PUSH1 0x0 DUP3 ADD MSTORE POP JUMP JUMPDEST PUSH1 0x0 PUSH2 0x1792 PUSH1 0xB DUP4 PUSH2 0x10EA JUMP JUMPDEST SWAP2 POP PUSH2 0x179D DUP3 PUSH2 0x175C JUMP JUMPDEST PUSH1 0x20 DUP3 ADD SWAP1 POP SWAP2 SWAP1 POP JUMP JUMPDEST PUSH1 0x0 PUSH1 0x20 DUP3 ADD SWAP1 POP DUP2 DUP2 SUB PUSH1 0x0 DUP4 ADD MSTORE PUSH2 0x17C1 DUP2 PUSH2 0x1785 JUMP JUMPDEST SWAP1 POP SWAP2 SWAP1 POP JUMP JUMPDEST PUSH32 0x4D756C7469706C696572206D7573742062652067726561746572207468616E20 PUSH1 0x0 DUP3 ADD MSTORE PUSH32 0x3000000000000000000000000000000000000000000000000000000000000000 PUSH1 0x20 DUP3 ADD MSTORE POP JUMP JUMPDEST PUSH1 0x0 PUSH2 0x1824 PUSH1 0x21 DUP4 PUSH2 0x10EA JUMP JUMPDEST SWAP2 POP PUSH2 0x182F DUP3 PUSH2 0x17C8 JUMP JUMPDEST PUSH1 0x40 DUP3 ADD SWAP1 POP SWAP2 SWAP1 POP JUMP JUMPDEST PUSH1 0x0 PUSH1 0x20 DUP3 ADD SWAP1 POP DUP2 DUP2 SUB PUSH1 0x0 DUP4 ADD MSTORE PUSH2 0x1853 DUP2 PUSH2 0x1817 JUMP JUMPDEST SWAP1 POP SWAP2 SWAP1 POP JUMP JUMPDEST PUSH32 0x486F757365206564676520746F6F206869676800000000000000000000000000 PUSH1 0x0 DUP3 ADD MSTORE POP JUMP JUMPDEST PUSH1 0x0 PUSH2 0x1890 PUSH1 0x13 DUP4 PUSH2 0x10EA JUMP JUMPDEST SWAP2 POP PUSH2 0x189B DUP3 PUSH2 0x185A JUMP JUMPDEST PUSH1 0x20 DUP3 ADD SWAP1 POP SWAP2 SWAP1 POP JUMP JUMPDEST PUSH1 0x0 PUSH1 0x20 DUP3 ADD SWAP1 POP DUP2 DUP2 SUB PUSH1 0x0 DUP4 ADD MSTORE PUSH2 0x18BF DUP2 PUSH2 0x1883 JUMP JUMPDEST SWAP1 POP SWAP2 SWAP1 POP JUMP JUMPDEST PUSH1 0x0 DUP2 SWAP1 POP SWAP2 SWAP1 POP JUMP JUMPDEST PUSH2 0x18E1 PUSH2 0x18DC DUP3 PUSH2 0xEEE JUMP JUMPDEST PUSH2 0x18C6 JUMP JUMPDEST DUP3 MSTORE POP POP JUMP JUMPDEST PUSH1 0x0 DUP2 PUSH1 0x60 SHL SWAP1 POP SWAP2 SWAP1 POP JUMP JUMPDEST PUSH1 0x0 PUSH2 0x18FF DUP3 PUSH2 0x18E7 JUMP JUMPDEST SWAP1 POP SWAP2 SWAP1 POP JUMP JUMPDEST PUSH1 0x0 PUSH2 0x1911 DUP3 PUSH2 0x18F4 JUMP JUMPDEST SWAP1 POP SWAP2 SWAP1 POP JUMP JUMPDEST PUSH2 0x1929 PUSH2 0x1924 DUP3 PUSH2 0xFDB JUMP JUMPDEST PUSH2 0x1906 JUMP JUMPDEST DUP3 MSTORE POP POP JUMP JUMPDEST PUSH1 0x0 PUSH2 0x193B DUP3 DUP7 PUSH2 0x18D0 JUMP JUMPDEST PUSH1 0x20 DUP3 ADD SWAP2 POP PUSH2 0x194B DUP3 DUP6 PUSH2 0x18D0 JUMP JUMPDEST PUSH1 0x20 DUP3 ADD SWAP2 POP PUSH2 0x195B DUP3 DUP5 PUSH2 0x1918 JUMP JUMPDEST PUSH1 0x14 DUP3 ADD SWAP2 POP DUP2 SWAP1 POP SWAP5 SWAP4 POP POP POP POP JUMP JUMPDEST PUSH1 0x0 PUSH2 0x1977 DUP3 PUSH2 0xEEE JUMP JUMPDEST SWAP2 POP PUSH2 0x1982 DUP4 PUSH2 0xEEE JUMP JUMPDEST SWAP3 POP DUP3 PUSH2 0x1992 JUMPI PUSH2 0x1991 PUSH2 0x1326 JUMP JUMPDEST JUMPDEST DUP3 DUP3 MOD SWAP1 POP SWAP3 SWAP2 POP POP JUMP INVALID LOG2 PUSH5 0x6970667358 0x22 SLT KECCAK256 KECCAK256 0xAD 0xEF DUP9 0xC2 0xC6 SWAP12 PUSH0 CALLDATACOPY 0xEB 0xCF 0x29 SELFBALANCE 0xD1 0xC4 BLOBHASH 0xBA 0x1F PUSH11 0x846B50D30F4643C6BAC09E DUP4 0xCA PUSH5 0x736F6C6343 STOP ADDMOD SHR STOP CALLER "
        },
        "methodIdentifiers": {
          "getContractBalance()": "6f9fb98a",
          "getMultiplier(uint256)": "adf8252d",
          "houseEdge()": "d667dcd7",
          "maxBet()": "2e5b2168",
          "minBet()": "9619367d",
          "owner()": "8da5cb5b",
          "playDice(uint256,uint256)": "0176cf5e",
          "renounceOwnership()": "715018a6",
          "setHouseEdge(uint256)": "6cd0f102",
          "setMaxBet(uint256)": "881eff1e",
          "setMinBet(uint256)": "88ea41b9",
          "setMultiplier(uint256,uint256)": "333271d0",
          "sumMultipliers(uint256)": "248dfee3",
          "transferOwnership(address)": "f2fde38b",
          "usdeToken()": "bc14ebe7",
          "withdrawFunds(uint256)": "155dd5ee"
        }
      }
    }
  }
}