{
  "_format": "hh-sol-artifact-1",
  "contractName": "DoubleDiceGame",
  "sourceName": "contracts/DoubleDiceGame.sol",
  "abi": [
    {
      "inputs": [
        {
          "internalType": "address",
          "name": "_usdeToken",
          "type": "address"
        },
        {
          "internalType": "uint256",
          "name": "_minBet",
          "type": "uint256"
        },
        {
          "internalType": "uint256",
          "name": "_maxBet",
          "type": "uint256"
        },
        {
          "internalType": "uint256",
          "name": "_houseEdge",
          "type": "uint256"
        }
      ],
      "stateMutability": "nonpayable",
      "type": "constructor"
    },
    {
      "inputs": [
        {
          "internalType": "address",
          "name": "owner",
          "type": "address"
        }
      ],
      "name": "OwnableInvalidOwner",
      "type": "error"
    },
    {
      "inputs": [
        {
          "internalType": "address",
          "name": "account",
          "type": "address"
        }
      ],
      "name": "OwnableUnauthorizedAccount",
      "type": "error"
    },
    {
      "inputs": [],
      "name": "ReentrancyGuardReentrantCall",
      "type": "error"
    },
    {
      "anonymous": false,
      "inputs": [
        {
          "indexed": true,
          "internalType": "address",
          "name": "player",
          "type": "address"
        },
        {
          "indexed": false,
          "internalType": "uint256",
          "name": "selectedSum",
          "type": "uint256"
        },
        {
          "indexed": false,
          "internalType": "uint256",
          "name": "rolledSum",
          "type": "uint256"
        },
        {
          "indexed": false,
          "internalType": "uint256[2]",
          "name": "rolledNumbers",
          "type": "uint256[2]"
        },
        {
          "indexed": false,
          "internalType": "uint256",
          "name": "betAmount",
          "type": "uint256"
        },
        {
          "indexed": false,
          "internalType": "uint256",
          "name": "payout",
          "type": "uint256"
        }
      ],
      "name": "GamePlayed",
      "type": "event"
    },
    {
      "anonymous": false,
      "inputs": [
        {
          "indexed": true,
          "internalType": "address",
          "name": "previousOwner",
          "type": "address"
        },
        {
          "indexed": true,
          "internalType": "address",
          "name": "newOwner",
          "type": "address"
        }
      ],
      "name": "OwnershipTransferred",
      "type": "event"
    },
    {
      "inputs": [],
      "name": "getContractBalance",
      "outputs": [
        {
          "internalType": "uint256",
          "name": "",
          "type": "uint256"
        }
      ],
      "stateMutability": "view",
      "type": "function"
    },
    {
      "inputs": [
        {
          "internalType": "uint256",
          "name": "sum",
          "type": "uint256"
        }
      ],
      "name": "getMultiplier",
      "outputs": [
        {
          "internalType": "uint256",
          "name": "",
          "type": "uint256"
        }
      ],
      "stateMutability": "view",
      "type": "function"
    },
    {
      "inputs": [],
      "name": "houseEdge",
      "outputs": [
        {
          "internalType": "uint256",
          "name": "",
          "type": "uint256"
        }
      ],
      "stateMutability": "view",
      "type": "function"
    },
    {
      "inputs": [],
      "name": "maxBet",
      "outputs": [
        {
          "internalType": "uint256",
          "name": "",
          "type": "uint256"
        }
      ],
      "stateMutability": "view",
      "type": "function"
    },
    {
      "inputs": [],
      "name": "minBet",
      "outputs": [
        {
          "internalType": "uint256",
          "name": "",
          "type": "uint256"
        }
      ],
      "stateMutability": "view",
      "type": "function"
    },
    {
      "inputs": [],
      "name": "owner",
      "outputs": [
        {
          "internalType": "address",
          "name": "",
          "type": "address"
        }
      ],
      "stateMutability": "view",
      "type": "function"
    },
    {
      "inputs": [
        {
          "internalType": "uint256",
          "name": "selectedSum",
          "type": "uint256"
        },
        {
          "internalType": "uint256",
          "name": "betAmount",
          "type": "uint256"
        }
      ],
      "name": "playDice",
      "outputs": [],
      "stateMutability": "nonpayable",
      "type": "function"
    },
    {
      "inputs": [],
      "name": "renounceOwnership",
      "outputs": [],
      "stateMutability": "nonpayable",
      "type": "function"
    },
    {
      "inputs": [
        {
          "internalType": "uint256",
          "name": "_houseEdge",
          "type": "uint256"
        }
      ],
      "name": "setHouseEdge",
      "outputs": [],
      "stateMutability": "nonpayable",
      "type": "function"
    },
    {
      "inputs": [
        {
          "internalType": "uint256",
          "name": "_maxBet",
          "type": "uint256"
        }
      ],
      "name": "setMaxBet",
      "outputs": [],
      "stateMutability": "nonpayable",
      "type": "function"
    },
    {
      "inputs": [
        {
          "internalType": "uint256",
          "name": "_minBet",
          "type": "uint256"
        }
      ],
      "name": "setMinBet",
      "outputs": [],
      "stateMutability": "nonpayable",
      "type": "function"
    },
    {
      "inputs": [
        {
          "internalType": "uint256",
          "name": "sum",
          "type": "uint256"
        },
        {
          "internalType": "uint256",
          "name": "multiplier",
          "type": "uint256"
        }
      ],
      "name": "setMultiplier",
      "outputs": [],
      "stateMutability": "nonpayable",
      "type": "function"
    },
    {
      "inputs": [
        {
          "internalType": "uint256",
          "name": "",
          "type": "uint256"
        }
      ],
      "name": "sumMultipliers",
      "outputs": [
        {
          "internalType": "uint256",
          "name": "",
          "type": "uint256"
        }
      ],
      "stateMutability": "view",
      "type": "function"
    },
    {
      "inputs": [
        {
          "internalType": "address",
          "name": "newOwner",
          "type": "address"
        }
      ],
      "name": "transferOwnership",
      "outputs": [],
      "stateMutability": "nonpayable",
      "type": "function"
    },
    {
      "inputs": [],
      "name": "usdeToken",
      "outputs": [
        {
          "internalType": "contract IERC20",
          "name": "",
          "type": "address"
        }
      ],
      "stateMutability": "view",
      "type": "function"
    },
    {
      "inputs": [
        {
          "internalType": "uint256",
          "name": "amount",
          "type": "uint256"
        }
      ],
      "name": "withdrawFunds",
      "outputs": [],
      "stateMutability": "nonpayable",
      "type": "function"
    }
  ],
  "bytecode": "0x608060405234801561001057600080fd5b50604051611e07380380611e0783398181016040528101906100329190610394565b33600073ffffffffffffffffffffffffffffffffffffffff168173ffffffffffffffffffffffffffffffffffffffff16036100a55760006040517f1e4fbdf700000000000000000000000000000000000000000000000000000000815260040161009c919061040a565b60405180910390fd5b6100b48161023760201b60201c565b506001808190555083600260006101000a81548173ffffffffffffffffffffffffffffffffffffffff021916908373ffffffffffffffffffffffffffffffffffffffff16021790555082600381905550816004819055508060058190555060236006600060028152602001908152602001600020819055506011600660006003815260200190815260200160002081905550600b6006600060048152602001908152602001600020819055506008600660006005815260200190815260200160002081905550600680600060068152602001908152602001600020819055506005600660006007815260200190815260200160002081905550600680600060088152602001908152602001600020819055506008600660006009815260200190815260200160002081905550600b60066000600a815260200190815260200160002081905550601160066000600b815260200190815260200160002081905550602360066000600c81526020019081526020016000208190555050505050610425565b60008060009054906101000a900473ffffffffffffffffffffffffffffffffffffffff169050816000806101000a81548173ffffffffffffffffffffffffffffffffffffffff021916908373ffffffffffffffffffffffffffffffffffffffff1602179055508173ffffffffffffffffffffffffffffffffffffffff168173ffffffffffffffffffffffffffffffffffffffff167f8be0079c531659141344cd1fd0a4f28419497f9722a3daafe3b4186f6b6457e060405160405180910390a35050565b600080fd5b600073ffffffffffffffffffffffffffffffffffffffff82169050919050565b600061032b82610300565b9050919050565b61033b81610320565b811461034657600080fd5b50565b60008151905061035881610332565b92915050565b6000819050919050565b6103718161035e565b811461037c57600080fd5b50565b60008151905061038e81610368565b92915050565b600080600080608085870312156103ae576103ad6102fb565b5b60006103bc87828801610349565b94505060206103cd8782880161037f565b93505060406103de8782880161037f565b92505060606103ef8782880161037f565b91505092959194509250565b61040481610320565b82525050565b600060208201905061041f60008301846103fb565b92915050565b6119d3806104346000396000f3fe608060405234801561001057600080fd5b50600436106101005760003560e01c8063881eff1e11610097578063adf8252d11610066578063adf8252d1461025f578063bc14ebe71461028f578063d667dcd7146102ad578063f2fde38b146102cb57610100565b8063881eff1e146101eb57806388ea41b9146102075780638da5cb5b146102235780639619367d1461024157610100565b8063333271d0116100d3578063333271d01461018b5780636cd0f102146101a75780636f9fb98a146101c3578063715018a6146101e157610100565b80630176cf5e14610105578063155dd5ee14610121578063248dfee31461013d5780632e5b21681461016d575b600080fd5b61011f600480360381019061011a9190610f24565b6102e7565b005b61013b60048036038101906101369190610f64565b610874565b005b61015760048036038101906101529190610f64565b610965565b6040516101649190610fa0565b60405180910390f35b61017561097d565b6040516101829190610fa0565b60405180910390f35b6101a560048036038101906101a09190610f24565b610983565b005b6101c160048036038101906101bc9190610f64565b610a3b565b005b6101cb610a92565b6040516101d89190610fa0565b60405180910390f35b6101e9610b35565b005b61020560048036038101906102009190610f64565b610b49565b005b610221600480360381019061021c9190610f64565b610b5b565b005b61022b610b6d565b6040516102389190610ffc565b60405180910390f35b610249610b96565b6040516102569190610fa0565b60405180910390f35b61027960048036038101906102749190610f64565b610b9c565b6040516102869190610fa0565b60405180910390f35b610297610bb9565b6040516102a49190611076565b60405180910390f35b6102b5610bdf565b6040516102c29190610fa0565b60405180910390f35b6102e560048036038101906102e091906110bd565b610be5565b005b6102ef610c6b565b600282101580156103015750600c8211155b610340576040517f08c379a000000000000000000000000000000000000000000000000000000000815260040161033790611147565b60405180910390fd5b6000600660008481526020019081526020016000205411610396576040517f08c379a000000000000000000000000000000000000000000000000000000000815260040161038d90611147565b60405180910390fd5b60035481101580156103aa57506004548111155b6103e9576040517f08c379a00000000000000000000000000000000000000000000000000000000081526004016103e0906111b3565b60405180910390fd5b80600260009054906101000a900473ffffffffffffffffffffffffffffffffffffffff1673ffffffffffffffffffffffffffffffffffffffff166370a08231336040518263ffffffff1660e01b81526004016104459190610ffc565b602060405180830381865afa158015610462573d6000803e3d6000fd5b505050506040513d601f19601f8201168201806040525081019061048691906111e8565b10156104c7576040517f08c379a00000000000000000000000000000000000000000000000000000000081526004016104be90611261565b60405180910390fd5b60006006600084815260200190815260200160002054905060006127106005546127106104f491906112b0565b838561050091906112e4565b61050a91906112e4565b6105149190611355565b905080600260009054906101000a900473ffffffffffffffffffffffffffffffffffffffff1673ffffffffffffffffffffffffffffffffffffffff166370a08231306040518263ffffffff1660e01b81526004016105729190610ffc565b602060405180830381865afa15801561058f573d6000803e3d6000fd5b505050506040513d601f19601f820116820180604052508101906105b391906111e8565b10156105f4576040517f08c379a00000000000000000000000000000000000000000000000000000000081526004016105eb906113d2565b60405180910390fd5b600260009054906101000a900473ffffffffffffffffffffffffffffffffffffffff1673ffffffffffffffffffffffffffffffffffffffff166323b872dd3330866040518463ffffffff1660e01b8152600401610653939291906113f2565b6020604051808303816000875af1158015610672573d6000803e3d6000fd5b505050506040513d601f19601f820116820180604052508101906106969190611461565b6106d5576040517f08c379a00000000000000000000000000000000000000000000000000000000081526004016106cc906114da565b60405180910390fd5b60006106df610cb1565b90506000816001600281106106f7576106f66114fa565b5b6020020151826000600281106107105761070f6114fa565b5b602002015161071f9190611529565b9050600086820361080d57839050600260009054906101000a900473ffffffffffffffffffffffffffffffffffffffff1673ffffffffffffffffffffffffffffffffffffffff1663a9059cbb33836040518363ffffffff1660e01b815260040161078a92919061155d565b6020604051808303816000875af11580156107a9573d6000803e3d6000fd5b505050506040513d601f19601f820116820180604052508101906107cd9190611461565b61080c576040517f08c379a0000000000000000000000000000000000000000000000000000000008152600401610803906115d2565b60405180910390fd5b5b3373ffffffffffffffffffffffffffffffffffffffff167ff72874526aa738d4a5896d99d59c6cbba3d3698b8b7396eb4a488743bd4d01308884868a8660405161085b95949392919061169d565b60405180910390a25050505050610870610d6b565b5050565b61087c610d74565b600260009054906101000a900473ffffffffffffffffffffffffffffffffffffffff1673ffffffffffffffffffffffffffffffffffffffff1663a9059cbb6108c2610b6d565b836040518363ffffffff1660e01b81526004016108e092919061155d565b6020604051808303816000875af11580156108ff573d6000803e3d6000fd5b505050506040513d601f19601f820116820180604052508101906109239190611461565b610962576040517f08c379a00000000000000000000000000000000000000000000000000000000081526004016109599061173c565b60405180910390fd5b50565b60066020528060005260406000206000915090505481565b60045481565b61098b610d74565b6002821015801561099d5750600c8211155b6109dc576040517f08c379a00000000000000000000000000000000000000000000000000000000081526004016109d3906117a8565b60405180910390fd5b60008111610a1f576040517f08c379a0000000000000000000000000000000000000000000000000000000008152600401610a169061183a565b60405180910390fd5b8060066000848152602001908152602001600020819055505050565b610a43610d74565b6103e8811115610a88576040517f08c379a0000000000000000000000000000000000000000000000000000000008152600401610a7f906118a6565b60405180910390fd5b8060058190555050565b6000600260009054906101000a900473ffffffffffffffffffffffffffffffffffffffff1673ffffffffffffffffffffffffffffffffffffffff166370a08231306040518263ffffffff1660e01b8152600401610aef9190610ffc565b602060405180830381865afa158015610b0c573d6000803e3d6000fd5b505050506040513d601f19601f82011682018060405250810190610b3091906111e8565b905090565b610b3d610d74565b610b476000610dfb565b565b610b51610d74565b8060048190555050565b610b63610d74565b8060038190555050565b60008060009054906101000a900473ffffffffffffffffffffffffffffffffffffffff16905090565b60035481565b600060066000838152602001908152602001600020549050919050565b600260009054906101000a900473ffffffffffffffffffffffffffffffffffffffff1681565b60055481565b610bed610d74565b600073ffffffffffffffffffffffffffffffffffffffff168173ffffffffffffffffffffffffffffffffffffffff1603610c5f5760006040517f1e4fbdf7000000000000000000000000000000000000000000000000000000008152600401610c569190610ffc565b60405180910390fd5b610c6881610dfb565b50565b600260015403610ca7576040517f3ee5aeb500000000000000000000000000000000000000000000000000000000815260040160405180910390fd5b6002600181905550565b610cb9610ec7565b6000424433604051602001610cd09392919061192f565b6040516020818303038152906040528051906020012060001c9050610cf3610ec7565b6001600683610d02919061196c565b610d0c9190611529565b81600060028110610d2057610d1f6114fa565b5b60200201818152505060016006608084901c610d3c919061196c565b610d469190611529565b81600160028110610d5a57610d596114fa565b5b602002018181525050809250505090565b60018081905550565b610d7c610ebf565b73ffffffffffffffffffffffffffffffffffffffff16610d9a610b6d565b73ffffffffffffffffffffffffffffffffffffffff1614610df957610dbd610ebf565b6040517f118cdaa7000000000000000000000000000000000000000000000000000000008152600401610df09190610ffc565b60405180910390fd5b565b60008060009054906101000a900473ffffffffffffffffffffffffffffffffffffffff169050816000806101000a81548173ffffffffffffffffffffffffffffffffffffffff021916908373ffffffffffffffffffffffffffffffffffffffff1602179055508173ffffffffffffffffffffffffffffffffffffffff168173ffffffffffffffffffffffffffffffffffffffff167f8be0079c531659141344cd1fd0a4f28419497f9722a3daafe3b4186f6b6457e060405160405180910390a35050565b600033905090565b6040518060400160405280600290602082028036833780820191505090505090565b600080fd5b6000819050919050565b610f0181610eee565b8114610f0c57600080fd5b50565b600081359050610f1e81610ef8565b92915050565b60008060408385031215610f3b57610f3a610ee9565b5b6000610f4985828601610f0f565b9250506020610f5a85828601610f0f565b9150509250929050565b600060208284031215610f7a57610f79610ee9565b5b6000610f8884828501610f0f565b91505092915050565b610f9a81610eee565b82525050565b6000602082019050610fb56000830184610f91565b92915050565b600073ffffffffffffffffffffffffffffffffffffffff82169050919050565b6000610fe682610fbb565b9050919050565b610ff681610fdb565b82525050565b60006020820190506110116000830184610fed565b92915050565b6000819050919050565b600061103c61103761103284610fbb565b611017565b610fbb565b9050919050565b600061104e82611021565b9050919050565b600061106082611043565b9050919050565b61107081611055565b82525050565b600060208201905061108b6000830184611067565b92915050565b61109a81610fdb565b81146110a557600080fd5b50565b6000813590506110b781611091565b92915050565b6000602082840312156110d3576110d2610ee9565b5b60006110e1848285016110a8565b91505092915050565b600082825260208201905092915050565b7f496e76616c69642073756d2073656c656374696f6e0000000000000000000000600082015250565b60006111316015836110ea565b915061113c826110fb565b602082019050919050565b6000602082019050818103600083015261116081611124565b9050919050565b7f42657420616d6f756e74206f7574206f662072616e6765000000000000000000600082015250565b600061119d6017836110ea565b91506111a882611167565b602082019050919050565b600060208201905081810360008301526111cc81611190565b9050919050565b6000815190506111e281610ef8565b92915050565b6000602082840312156111fe576111fd610ee9565b5b600061120c848285016111d3565b91505092915050565b7f496e73756666696369656e742062616c616e6365000000000000000000000000600082015250565b600061124b6014836110ea565b915061125682611215565b602082019050919050565b6000602082019050818103600083015261127a8161123e565b9050919050565b7f4e487b7100000000000000000000000000000000000000000000000000000000600052601160045260246000fd5b60006112bb82610eee565b91506112c683610eee565b92508282039050818111156112de576112dd611281565b5b92915050565b60006112ef82610eee565b91506112fa83610eee565b925082820261130881610eee565b9150828204841483151761131f5761131e611281565b5b5092915050565b7f4e487b7100000000000000000000000000000000000000000000000000000000600052601260045260246000fd5b600061136082610eee565b915061136b83610eee565b92508261137b5761137a611326565b5b828204905092915050565b7f496e73756666696369656e7420636f6e74726163742062616c616e6365000000600082015250565b60006113bc601d836110ea565b91506113c782611386565b602082019050919050565b600060208201905081810360008301526113eb816113af565b9050919050565b60006060820190506114076000830186610fed565b6114146020830185610fed565b6114216040830184610f91565b949350505050565b60008115159050919050565b61143e81611429565b811461144957600080fd5b50565b60008151905061145b81611435565b92915050565b60006020828403121561147757611476610ee9565b5b60006114858482850161144c565b91505092915050565b7f5472616e73666572206661696c65640000000000000000000000000000000000600082015250565b60006114c4600f836110ea565b91506114cf8261148e565b602082019050919050565b600060208201905081810360008301526114f3816114b7565b9050919050565b7f4e487b7100000000000000000000000000000000000000000000000000000000600052603260045260246000fd5b600061153482610eee565b915061153f83610eee565b925082820190508082111561155757611556611281565b5b92915050565b60006040820190506115726000830185610fed565b61157f6020830184610f91565b9392505050565b7f5061796f7574207472616e73666572206661696c656400000000000000000000600082015250565b60006115bc6016836110ea565b91506115c782611586565b602082019050919050565b600060208201905081810360008301526115eb816115af565b9050919050565b600060029050919050565b600081905092915050565b6000819050919050565b61161b81610eee565b82525050565b600061162d8383611612565b60208301905092915050565b6000602082019050919050565b61164f816115f2565b61165981846115fd565b925061166482611608565b8060005b8381101561169557815161167c8782611621565b965061168783611639565b925050600181019050611668565b505050505050565b600060c0820190506116b26000830188610f91565b6116bf6020830187610f91565b6116cc6040830186611646565b6116d96080830185610f91565b6116e660a0830184610f91565b9695505050505050565b7f5769746864726177616c206661696c6564000000000000000000000000000000600082015250565b60006117266011836110ea565b9150611731826116f0565b602082019050919050565b6000602082019050818103600083015261175581611719565b9050919050565b7f496e76616c69642073756d000000000000000000000000000000000000000000600082015250565b6000611792600b836110ea565b915061179d8261175c565b602082019050919050565b600060208201905081810360008301526117c181611785565b9050919050565b7f4d756c7469706c696572206d7573742062652067726561746572207468616e2060008201527f3000000000000000000000000000000000000000000000000000000000000000602082015250565b60006118246021836110ea565b915061182f826117c8565b604082019050919050565b6000602082019050818103600083015261185381611817565b9050919050565b7f486f757365206564676520746f6f206869676800000000000000000000000000600082015250565b60006118906013836110ea565b915061189b8261185a565b602082019050919050565b600060208201905081810360008301526118bf81611883565b9050919050565b6000819050919050565b6118e16118dc82610eee565b6118c6565b82525050565b60008160601b9050919050565b60006118ff826118e7565b9050919050565b6000611911826118f4565b9050919050565b61192961192482610fdb565b611906565b82525050565b600061193b82866118d0565b60208201915061194b82856118d0565b60208201915061195b8284611918565b601482019150819050949350505050565b600061197782610eee565b915061198283610eee565b92508261199257611991611326565b5b82820690509291505056fea264697066735822122020adef88c2c69b5f37ebcf2947d1c449ba1f6a846b50d30f4643c6bac09e83ca64736f6c634300081c0033",
  "linkReferences": {},
  "deployedLinkReferences": {}
}