{
  "_format": "hh-sol-artifact-1",
  "contractName": "SingleDiceGame",
  "sourceName": "contracts/SingleDiceGames.sol",
  "abi": [
    {
      "inputs": [
        {
          "internalType": "address",
          "name": "_usdeToken",
          "type": "address"
        },
        {
          "internalType": "uint256",
          "name": "_minBet",
          "type": "uint256"
        },
        {
          "internalType": "uint256",
          "name": "_maxBet",
          "type": "uint256"
        },
        {
          "internalType": "uint256",
          "name": "_houseEdge",
          "type": "uint256"
        }
      ],
      "stateMutability": "nonpayable",
      "type": "constructor"
    },
    {
      "inputs": [
        {
          "internalType": "address",
          "name": "owner",
          "type": "address"
        }
      ],
      "name": "OwnableInvalidOwner",
      "type": "error"
    },
    {
      "inputs": [
        {
          "internalType": "address",
          "name": "account",
          "type": "address"
        }
      ],
      "name": "OwnableUnauthorizedAccount",
      "type": "error"
    },
    {
      "inputs": [],
      "name": "ReentrancyGuardReentrantCall",
      "type": "error"
    },
    {
      "anonymous": false,
      "inputs": [
        {
          "indexed": true,
          "internalType": "address",
          "name": "player",
          "type": "address"
        },
        {
          "indexed": false,
          "internalType": "uint256",
          "name": "selectedNumber",
          "type": "uint256"
        },
        {
          "indexed": false,
          "internalType": "uint256",
          "name": "rolledNumber",
          "type": "uint256"
        },
        {
          "indexed": false,
          "internalType": "uint256",
          "name": "betAmount",
          "type": "uint256"
        },
        {
          "indexed": false,
          "internalType": "uint256",
          "name": "payout",
          "type": "uint256"
        }
      ],
      "name": "GamePlayed",
      "type": "event"
    },
    {
      "anonymous": false,
      "inputs": [
        {
          "indexed": true,
          "internalType": "address",
          "name": "previousOwner",
          "type": "address"
        },
        {
          "indexed": true,
          "internalType": "address",
          "name": "newOwner",
          "type": "address"
        }
      ],
      "name": "OwnershipTransferred",
      "type": "event"
    },
    {
      "inputs": [],
      "name": "getContractBalance",
      "outputs": [
        {
          "internalType": "uint256",
          "name": "",
          "type": "uint256"
        }
      ],
      "stateMutability": "view",
      "type": "function"
    },
    {
      "inputs": [],
      "name": "houseEdge",
      "outputs": [
        {
          "internalType": "uint256",
          "name": "",
          "type": "uint256"
        }
      ],
      "stateMutability": "view",
      "type": "function"
    },
    {
      "inputs": [],
      "name": "maxBet",
      "outputs": [
        {
          "internalType": "uint256",
          "name": "",
          "type": "uint256"
        }
      ],
      "stateMutability": "view",
      "type": "function"
    },
    {
      "inputs": [],
      "name": "minBet",
      "outputs": [
        {
          "internalType": "uint256",
          "name": "",
          "type": "uint256"
        }
      ],
      "stateMutability": "view",
      "type": "function"
    },
    {
      "inputs": [],
      "name": "owner",
      "outputs": [
        {
          "internalType": "address",
          "name": "",
          "type": "address"
        }
      ],
      "stateMutability": "view",
      "type": "function"
    },
    {
      "inputs": [
        {
          "internalType": "uint256",
          "name": "selectedNumber",
          "type": "uint256"
        },
        {
          "internalType": "uint256",
          "name": "betAmount",
          "type": "uint256"
        }
      ],
      "name": "playDice",
      "outputs": [],
      "stateMutability": "nonpayable",
      "type": "function"
    },
    {
      "inputs": [],
      "name": "renounceOwnership",
      "outputs": [],
      "stateMutability": "nonpayable",
      "type": "function"
    },
    {
      "inputs": [
        {
          "internalType": "uint256",
          "name": "_houseEdge",
          "type": "uint256"
        }
      ],
      "name": "setHouseEdge",
      "outputs": [],
      "stateMutability": "nonpayable",
      "type": "function"
    },
    {
      "inputs": [
        {
          "internalType": "uint256",
          "name": "_maxBet",
          "type": "uint256"
        }
      ],
      "name": "setMaxBet",
      "outputs": [],
      "stateMutability": "nonpayable",
      "type": "function"
    },
    {
      "inputs": [
        {
          "internalType": "uint256",
          "name": "_minBet",
          "type": "uint256"
        }
      ],
      "name": "setMinBet",
      "outputs": [],
      "stateMutability": "nonpayable",
      "type": "function"
    },
    {
      "inputs": [
        {
          "internalType": "address",
          "name": "newOwner",
          "type": "address"
        }
      ],
      "name": "transferOwnership",
      "outputs": [],
      "stateMutability": "nonpayable",
      "type": "function"
    },
    {
      "inputs": [],
      "name": "usdeToken",
      "outputs": [
        {
          "internalType": "contract IERC20",
          "name": "",
          "type": "address"
        }
      ],
      "stateMutability": "view",
      "type": "function"
    },
    {
      "inputs": [
        {
          "internalType": "uint256",
          "name": "amount",
          "type": "uint256"
        }
      ],
      "name": "withdrawFunds",
      "outputs": [],
      "stateMutability": "nonpayable",
      "type": "function"
    }
  ],
  "bytecode": "0x608060405234801561001057600080fd5b5060405161182b38038061182b83398181016040528101906100329190610278565b33600073ffffffffffffffffffffffffffffffffffffffff168173ffffffffffffffffffffffffffffffffffffffff16036100a55760006040517f1e4fbdf700000000000000000000000000000000000000000000000000000000815260040161009c91906102ee565b60405180910390fd5b6100b48161011b60201b60201c565b506001808190555083600260006101000a81548173ffffffffffffffffffffffffffffffffffffffff021916908373ffffffffffffffffffffffffffffffffffffffff16021790555082600381905550816004819055508060058190555050505050610309565b60008060009054906101000a900473ffffffffffffffffffffffffffffffffffffffff169050816000806101000a81548173ffffffffffffffffffffffffffffffffffffffff021916908373ffffffffffffffffffffffffffffffffffffffff1602179055508173ffffffffffffffffffffffffffffffffffffffff168173ffffffffffffffffffffffffffffffffffffffff167f8be0079c531659141344cd1fd0a4f28419497f9722a3daafe3b4186f6b6457e060405160405180910390a35050565b600080fd5b600073ffffffffffffffffffffffffffffffffffffffff82169050919050565b600061020f826101e4565b9050919050565b61021f81610204565b811461022a57600080fd5b50565b60008151905061023c81610216565b92915050565b6000819050919050565b61025581610242565b811461026057600080fd5b50565b6000815190506102728161024c565b92915050565b60008060008060808587031215610292576102916101df565b5b60006102a08782880161022d565b94505060206102b187828801610263565b93505060406102c287828801610263565b92505060606102d387828801610263565b91505092959194509250565b6102e881610204565b82525050565b600060208201905061030360008301846102df565b92915050565b611513806103186000396000f3fe608060405234801561001057600080fd5b50600436106100cf5760003560e01c8063881eff1e1161008c5780639619367d116100665780639619367d146101c4578063bc14ebe7146101e2578063d667dcd714610200578063f2fde38b1461021e576100cf565b8063881eff1e1461016e57806388ea41b91461018a5780638da5cb5b146101a6576100cf565b80630176cf5e146100d4578063155dd5ee146100f05780632e5b21681461010c5780636cd0f1021461012a5780636f9fb98a14610146578063715018a614610164575b600080fd5b6100ee60048036038101906100e99190610c4a565b61023a565b005b61010a60048036038101906101059190610c8a565b610716565b005b610114610807565b6040516101219190610cc6565b60405180910390f35b610144600480360381019061013f9190610c8a565b61080d565b005b61014e610864565b60405161015b9190610cc6565b60405180910390f35b61016c610907565b005b61018860048036038101906101839190610c8a565b61091b565b005b6101a4600480360381019061019f9190610c8a565b61092d565b005b6101ae61093f565b6040516101bb9190610d22565b60405180910390f35b6101cc610968565b6040516101d99190610cc6565b60405180910390f35b6101ea61096e565b6040516101f79190610d9c565b60405180910390f35b610208610994565b6040516102159190610cc6565b60405180910390f35b61023860048036038101906102339190610de3565b61099a565b005b610242610a20565b60018210158015610254575060068211155b610293576040517f08c379a000000000000000000000000000000000000000000000000000000000815260040161028a90610e6d565b60405180910390fd5b60035481101580156102a757506004548111155b6102e6576040517f08c379a00000000000000000000000000000000000000000000000000000000081526004016102dd90610ed9565b60405180910390fd5b80600260009054906101000a900473ffffffffffffffffffffffffffffffffffffffff1673ffffffffffffffffffffffffffffffffffffffff166370a08231336040518263ffffffff1660e01b81526004016103429190610d22565b602060405180830381865afa15801561035f573d6000803e3d6000fd5b505050506040513d601f19601f820116820180604052508101906103839190610f0e565b10156103c4576040517f08c379a00000000000000000000000000000000000000000000000000000000081526004016103bb90610f87565b60405180910390fd5b60006127106005546127106103d99190610fd6565b6005846103e6919061100a565b6103f0919061100a565b6103fa919061107b565b905080600260009054906101000a900473ffffffffffffffffffffffffffffffffffffffff1673ffffffffffffffffffffffffffffffffffffffff166370a08231306040518263ffffffff1660e01b81526004016104589190610d22565b602060405180830381865afa158015610475573d6000803e3d6000fd5b505050506040513d601f19601f820116820180604052508101906104999190610f0e565b10156104da576040517f08c379a00000000000000000000000000000000000000000000000000000000081526004016104d1906110f8565b60405180910390fd5b600260009054906101000a900473ffffffffffffffffffffffffffffffffffffffff1673ffffffffffffffffffffffffffffffffffffffff166323b872dd3330856040518463ffffffff1660e01b815260040161053993929190611118565b6020604051808303816000875af1158015610558573d6000803e3d6000fd5b505050506040513d601f19601f8201168201806040525081019061057c9190611187565b6105bb576040517f08c379a00000000000000000000000000000000000000000000000000000000081526004016105b290611200565b60405180910390fd5b60006105c5610a66565b905060008482036106b357829050600260009054906101000a900473ffffffffffffffffffffffffffffffffffffffff1673ffffffffffffffffffffffffffffffffffffffff1663a9059cbb33836040518363ffffffff1660e01b8152600401610630929190611220565b6020604051808303816000875af115801561064f573d6000803e3d6000fd5b505050506040513d601f19601f820116820180604052508101906106739190611187565b6106b2576040517f08c379a00000000000000000000000000000000000000000000000000000000081526004016106a990611295565b60405180910390fd5b5b3373ffffffffffffffffffffffffffffffffffffffff167fc06600d6399308f270bc6ae70d5377121b685c974bb7f7355824fddd8a2b3497868487856040516106ff94939291906112b5565b60405180910390a2505050610712610ab3565b5050565b61071e610abc565b600260009054906101000a900473ffffffffffffffffffffffffffffffffffffffff1673ffffffffffffffffffffffffffffffffffffffff1663a9059cbb61076461093f565b836040518363ffffffff1660e01b8152600401610782929190611220565b6020604051808303816000875af11580156107a1573d6000803e3d6000fd5b505050506040513d601f19601f820116820180604052508101906107c59190611187565b610804576040517f08c379a00000000000000000000000000000000000000000000000000000000081526004016107fb90611346565b60405180910390fd5b50565b60045481565b610815610abc565b6103e881111561085a576040517f08c379a0000000000000000000000000000000000000000000000000000000008152600401610851906113b2565b60405180910390fd5b8060058190555050565b6000600260009054906101000a900473ffffffffffffffffffffffffffffffffffffffff1673ffffffffffffffffffffffffffffffffffffffff166370a08231306040518263ffffffff1660e01b81526004016108c19190610d22565b602060405180830381865afa1580156108de573d6000803e3d6000fd5b505050506040513d601f19601f820116820180604052508101906109029190610f0e565b905090565b61090f610abc565b6109196000610b43565b565b610923610abc565b8060048190555050565b610935610abc565b8060038190555050565b60008060009054906101000a900473ffffffffffffffffffffffffffffffffffffffff16905090565b60035481565b600260009054906101000a900473ffffffffffffffffffffffffffffffffffffffff1681565b60055481565b6109a2610abc565b600073ffffffffffffffffffffffffffffffffffffffff168173ffffffffffffffffffffffffffffffffffffffff1603610a145760006040517f1e4fbdf7000000000000000000000000000000000000000000000000000000008152600401610a0b9190610d22565b60405180910390fd5b610a1d81610b43565b50565b600260015403610a5c576040517f3ee5aeb500000000000000000000000000000000000000000000000000000000815260040160405180910390fd5b6002600181905550565b600060016006424433604051602001610a819392919061143b565b6040516020818303038152906040528051906020012060001c610aa49190611478565b610aae91906114a9565b905090565b60018081905550565b610ac4610c07565b73ffffffffffffffffffffffffffffffffffffffff16610ae261093f565b73ffffffffffffffffffffffffffffffffffffffff1614610b4157610b05610c07565b6040517f118cdaa7000000000000000000000000000000000000000000000000000000008152600401610b389190610d22565b60405180910390fd5b565b60008060009054906101000a900473ffffffffffffffffffffffffffffffffffffffff169050816000806101000a81548173ffffffffffffffffffffffffffffffffffffffff021916908373ffffffffffffffffffffffffffffffffffffffff1602179055508173ffffffffffffffffffffffffffffffffffffffff168173ffffffffffffffffffffffffffffffffffffffff167f8be0079c531659141344cd1fd0a4f28419497f9722a3daafe3b4186f6b6457e060405160405180910390a35050565b600033905090565b600080fd5b6000819050919050565b610c2781610c14565b8114610c3257600080fd5b50565b600081359050610c4481610c1e565b92915050565b60008060408385031215610c6157610c60610c0f565b5b6000610c6f85828601610c35565b9250506020610c8085828601610c35565b9150509250929050565b600060208284031215610ca057610c9f610c0f565b5b6000610cae84828501610c35565b91505092915050565b610cc081610c14565b82525050565b6000602082019050610cdb6000830184610cb7565b92915050565b600073ffffffffffffffffffffffffffffffffffffffff82169050919050565b6000610d0c82610ce1565b9050919050565b610d1c81610d01565b82525050565b6000602082019050610d376000830184610d13565b92915050565b6000819050919050565b6000610d62610d5d610d5884610ce1565b610d3d565b610ce1565b9050919050565b6000610d7482610d47565b9050919050565b6000610d8682610d69565b9050919050565b610d9681610d7b565b82525050565b6000602082019050610db16000830184610d8d565b92915050565b610dc081610d01565b8114610dcb57600080fd5b50565b600081359050610ddd81610db7565b92915050565b600060208284031215610df957610df8610c0f565b5b6000610e0784828501610dce565b91505092915050565b600082825260208201905092915050565b7f496e76616c6964206e756d6265722073656c656374696f6e0000000000000000600082015250565b6000610e57601883610e10565b9150610e6282610e21565b602082019050919050565b60006020820190508181036000830152610e8681610e4a565b9050919050565b7f42657420616d6f756e74206f7574206f662072616e6765000000000000000000600082015250565b6000610ec3601783610e10565b9150610ece82610e8d565b602082019050919050565b60006020820190508181036000830152610ef281610eb6565b9050919050565b600081519050610f0881610c1e565b92915050565b600060208284031215610f2457610f23610c0f565b5b6000610f3284828501610ef9565b91505092915050565b7f496e73756666696369656e742062616c616e6365000000000000000000000000600082015250565b6000610f71601483610e10565b9150610f7c82610f3b565b602082019050919050565b60006020820190508181036000830152610fa081610f64565b9050919050565b7f4e487b7100000000000000000000000000000000000000000000000000000000600052601160045260246000fd5b6000610fe182610c14565b9150610fec83610c14565b925082820390508181111561100457611003610fa7565b5b92915050565b600061101582610c14565b915061102083610c14565b925082820261102e81610c14565b9150828204841483151761104557611044610fa7565b5b5092915050565b7f4e487b7100000000000000000000000000000000000000000000000000000000600052601260045260246000fd5b600061108682610c14565b915061109183610c14565b9250826110a1576110a061104c565b5b828204905092915050565b7f496e73756666696369656e7420636f6e74726163742062616c616e6365000000600082015250565b60006110e2601d83610e10565b91506110ed826110ac565b602082019050919050565b60006020820190508181036000830152611111816110d5565b9050919050565b600060608201905061112d6000830186610d13565b61113a6020830185610d13565b6111476040830184610cb7565b949350505050565b60008115159050919050565b6111648161114f565b811461116f57600080fd5b50565b6000815190506111818161115b565b92915050565b60006020828403121561119d5761119c610c0f565b5b60006111ab84828501611172565b91505092915050565b7f5472616e73666572206661696c65640000000000000000000000000000000000600082015250565b60006111ea600f83610e10565b91506111f5826111b4565b602082019050919050565b60006020820190508181036000830152611219816111dd565b9050919050565b60006040820190506112356000830185610d13565b6112426020830184610cb7565b9392505050565b7f5061796f7574207472616e73666572206661696c656400000000000000000000600082015250565b600061127f601683610e10565b915061128a82611249565b602082019050919050565b600060208201905081810360008301526112ae81611272565b9050919050565b60006080820190506112ca6000830187610cb7565b6112d76020830186610cb7565b6112e46040830185610cb7565b6112f16060830184610cb7565b95945050505050565b7f5769746864726177616c206661696c6564000000000000000000000000000000600082015250565b6000611330601183610e10565b915061133b826112fa565b602082019050919050565b6000602082019050818103600083015261135f81611323565b9050919050565b7f486f757365206564676520746f6f206869676800000000000000000000000000600082015250565b600061139c601383610e10565b91506113a782611366565b602082019050919050565b600060208201905081810360008301526113cb8161138f565b9050919050565b6000819050919050565b6113ed6113e882610c14565b6113d2565b82525050565b60008160601b9050919050565b600061140b826113f3565b9050919050565b600061141d82611400565b9050919050565b61143561143082610d01565b611412565b82525050565b600061144782866113dc565b60208201915061145782856113dc565b6020820191506114678284611424565b601482019150819050949350505050565b600061148382610c14565b915061148e83610c14565b92508261149e5761149d61104c565b5b828206905092915050565b60006114b482610c14565b91506114bf83610c14565b92508282019050808211156114d7576114d6610fa7565b5b9291505056fea26469706673582212201a92fddd0c34531fa6dd222a9cad526a5ced29bad2053b9eb18b22ce5caf29d964736f6c634300081c0033",
  "linkReferences": {},
  "deployedLinkReferences": {}
}