{
  "_format": "hh-sol-artifact-1",
  "contractName": "MockVRFCoordinatorV2",
  "sourceName": "contracts/mocks/MockVRFCoordinatorV2.sol",
  "abi": [
    {
      "inputs": [
        {
          "internalType": "uint64",
          "name": "subId",
          "type": "uint64"
        }
      ],
      "name": "acceptSubscriptionOwnerTransfer",
      "outputs": [],
      "stateMutability": "pure",
      "type": "function"
    },
    {
      "inputs": [
        {
          "internalType": "uint64",
          "name": "subId",
          "type": "uint64"
        },
        {
          "internalType": "address",
          "name": "consumer",
          "type": "address"
        }
      ],
      "name": "addConsumer",
      "outputs": [],
      "stateMutability": "pure",
      "type": "function"
    },
    {
      "inputs": [
        {
          "internalType": "uint64",
          "name": "subId",
          "type": "uint64"
        },
        {
          "internalType": "address",
          "name": "to",
          "type": "address"
        }
      ],
      "name": "cancelSubscription",
      "outputs": [],
      "stateMutability": "pure",
      "type": "function"
    },
    {
      "inputs": [],
      "name": "createSubscription",
      "outputs": [
        {
          "internalType": "uint64",
          "name": "",
          "type": "uint64"
        }
      ],
      "stateMutability": "pure",
      "type": "function"
    },
    {
      "inputs": [
        {
          "internalType": "uint32",
          "name": "",
          "type": "uint32"
        },
        {
          "internalType": "uint256",
          "name": "",
          "type": "uint256"
        }
      ],
      "name": "estimateRequestPrice",
      "outputs": [
        {
          "internalType": "uint96",
          "name": "",
          "type": "uint96"
        }
      ],
      "stateMutability": "pure",
      "type": "function"
    },
    {
      "inputs": [
        {
          "internalType": "uint256",
          "name": "_requestId",
          "type": "uint256"
        },
        {
          "internalType": "uint256[]",
          "name": "_randomWords",
          "type": "uint256[]"
        }
      ],
      "name": "fulfillRandomWords",
      "outputs": [],
      "stateMutability": "nonpayable",
      "type": "function"
    },
    {
      "inputs": [],
      "name": "getFallbackWeiPerUnitLink",
      "outputs": [
        {
          "internalType": "int256",
          "name": "",
          "type": "int256"
        }
      ],
      "stateMutability": "pure",
      "type": "function"
    },
    {
      "inputs": [],
      "name": "getFeeConfig",
      "outputs": [
        {
          "internalType": "uint32",
          "name": "",
          "type": "uint32"
        },
        {
          "internalType": "uint32",
          "name": "",
          "type": "uint32"
        },
        {
          "internalType": "uint32",
          "name": "",
          "type": "uint32"
        },
        {
          "internalType": "uint32",
          "name": "",
          "type": "uint32"
        },
        {
          "internalType": "uint32",
          "name": "",
          "type": "uint32"
        },
        {
          "internalType": "uint32",
          "name": "",
          "type": "uint32"
        }
      ],
      "stateMutability": "pure",
      "type": "function"
    },
    {
      "inputs": [],
      "name": "getRequestConfig",
      "outputs": [
        {
          "internalType": "uint16",
          "name": "minimumRequestConfirmations",
          "type": "uint16"
        },
        {
          "internalType": "uint32",
          "name": "maxGasLimit",
          "type": "uint32"
        },
        {
          "internalType": "bytes32[]",
          "name": "keyHashes",
          "type": "bytes32[]"
        }
      ],
      "stateMutability": "pure",
      "type": "function"
    },
    {
      "inputs": [
        {
          "internalType": "uint64",
          "name": "",
          "type": "uint64"
        }
      ],
      "name": "getSubscription",
      "outputs": [
        {
          "internalType": "uint96",
          "name": "balance",
          "type": "uint96"
        },
        {
          "internalType": "uint64",
          "name": "reqCount",
          "type": "uint64"
        },
        {
          "internalType": "address",
          "name": "owner",
          "type": "address"
        },
        {
          "internalType": "address[]",
          "name": "consumers",
          "type": "address[]"
        }
      ],
      "stateMutability": "pure",
      "type": "function"
    },
    {
      "inputs": [],
      "name": "getTypeAndVersion",
      "outputs": [
        {
          "internalType": "string",
          "name": "",
          "type": "string"
        }
      ],
      "stateMutability": "pure",
      "type": "function"
    },
    {
      "inputs": [
        {
          "internalType": "uint64",
          "name": "",
          "type": "uint64"
        }
      ],
      "name": "pendingRequestExists",
      "outputs": [
        {
          "internalType": "bool",
          "name": "",
          "type": "bool"
        }
      ],
      "stateMutability": "pure",
      "type": "function"
    },
    {
      "inputs": [
        {
          "internalType": "uint64",
          "name": "subId",
          "type": "uint64"
        },
        {
          "internalType": "address",
          "name": "consumer",
          "type": "address"
        }
      ],
      "name": "removeConsumer",
      "outputs": [],
      "stateMutability": "pure",
      "type": "function"
    },
    {
      "inputs": [
        {
          "internalType": "bytes32",
          "name": "keyHash",
          "type": "bytes32"
        },
        {
          "internalType": "uint64",
          "name": "subId",
          "type": "uint64"
        },
        {
          "internalType": "uint16",
          "name": "minimumRequestConfirmations",
          "type": "uint16"
        },
        {
          "internalType": "uint32",
          "name": "callbackGasLimit",
          "type": "uint32"
        },
        {
          "internalType": "uint32",
          "name": "numWords",
          "type": "uint32"
        }
      ],
      "name": "requestRandomWords",
      "outputs": [
        {
          "internalType": "uint256",
          "name": "",
          "type": "uint256"
        }
      ],
      "stateMutability": "nonpayable",
      "type": "function"
    },
    {
      "inputs": [
        {
          "internalType": "uint64",
          "name": "subId",
          "type": "uint64"
        },
        {
          "internalType": "address",
          "name": "newOwner",
          "type": "address"
        }
      ],
      "name": "requestSubscriptionOwnerTransfer",
      "outputs": [],
      "stateMutability": "pure",
      "type": "function"
    }
  ],
  "bytecode": "0x60806040526001805534801561001457600080fd5b50610ff5806100246000396000f3fe608060405234801561001057600080fd5b50600436106100f45760003560e01c80637fb5d19d11610097578063a47c769611610066578063a47c769614610264578063c93bdb7614610297578063d7ae1d30146102b5578063e82ad7d4146102d1576100f4565b80637fb5d19d146101de578063823597401461020e5780639f87fad71461022a578063a21a23e414610246576100f4565b806338ba4614116100d357806338ba4614146101535780635d3b1d301461016f5780635fbbc0d21461019f5780637341c10c146101c2576100f4565b8062012291146100f957806304c357cb14610119578063356dac7114610135575b600080fd5b610101610301565b604051610110939291906106b8565b60405180910390f35b610133600480360381019061012e91906107a8565b610367565b005b61013d61036b565b60405161014a9190610801565b60405180910390f35b61016d600480360381019061016891906109ab565b610370565b005b61018960048036038101906101849190610a8b565b610416565b6040516101969190610b15565b60405180910390f35b6101a76104c0565b6040516101b996959493929190610b30565b60405180910390f35b6101dc60048036038101906101d791906107a8565b6104e6565b005b6101f860048036038101906101f39190610b91565b6104ea565b6040516102059190610bf8565b60405180910390f35b61022860048036038101906102239190610c13565b6104f2565b005b610244600480360381019061023f91906107a8565b6104f5565b005b61024e6104f9565b60405161025b9190610c4f565b60405180910390f35b61027e60048036038101906102799190610c13565b610502565b60405161028e9493929190610d37565b60405180910390f35b61029f61056c565b6040516102ac9190610e02565b60405180910390f35b6102cf60048036038101906102ca91906107a8565b6105a9565b005b6102eb60048036038101906102e69190610c13565b6105ad565b6040516102f89190610e3f565b60405180910390f35b60008060606000600167ffffffffffffffff81111561032357610322610868565b5b6040519080825280602002602001820160405280156103515781602001602082028036833780820191505090505b5090506003621e84808293509350935050909192565b5050565b600090565b60008083815260200190815260200160002060000160009054906101000a900473ffffffffffffffffffffffffffffffffffffffff1673ffffffffffffffffffffffffffffffffffffffff16631fe543e383836040518363ffffffff1660e01b81526004016103e0929190610f18565b600060405180830381600087803b1580156103fa57600080fd5b505af115801561040e573d6000803e3d6000fd5b505050505050565b6000806001600081548092919061042c90610f77565b91905055905060405180602001604052803373ffffffffffffffffffffffffffffffffffffffff1681525060008083815260200190815260200160002060008201518160000160006101000a81548173ffffffffffffffffffffffffffffffffffffffff021916908373ffffffffffffffffffffffffffffffffffffffff1602179055509050508091505095945050505050565b600080600080600080600080600080600080955095509550955095509550909192939495565b5050565b600092915050565b50565b5050565b60006001905090565b6000806000606060008067ffffffffffffffff81111561052557610524610868565b5b6040519080825280602002602001820160405280156105535781602001602082028036833780820191505090505b5090506000806000839450945094509450509193509193565b60606040518060400160405280601a81526020017f4d6f636b565246436f6f7264696e61746f72563220312e302e30000000000000815250905090565b5050565b6000919050565b600061ffff82169050919050565b6105cb816105b4565b82525050565b600063ffffffff82169050919050565b6105ea816105d1565b82525050565b600081519050919050565b600082825260208201905092915050565b6000819050602082019050919050565b6000819050919050565b61062f8161061c565b82525050565b60006106418383610626565b60208301905092915050565b6000602082019050919050565b6000610665826105f0565b61066f81856105fb565b935061067a8361060c565b8060005b838110156106ab5781516106928882610635565b975061069d8361064d565b92505060018101905061067e565b5085935050505092915050565b60006060820190506106cd60008301866105c2565b6106da60208301856105e1565b81810360408301526106ec818461065a565b9050949350505050565b6000604051905090565b600080fd5b600080fd5b600067ffffffffffffffff82169050919050565b6107278161070a565b811461073257600080fd5b50565b6000813590506107448161071e565b92915050565b600073ffffffffffffffffffffffffffffffffffffffff82169050919050565b60006107758261074a565b9050919050565b6107858161076a565b811461079057600080fd5b50565b6000813590506107a28161077c565b92915050565b600080604083850312156107bf576107be610700565b5b60006107cd85828601610735565b92505060206107de85828601610793565b9150509250929050565b6000819050919050565b6107fb816107e8565b82525050565b600060208201905061081660008301846107f2565b92915050565b6000819050919050565b61082f8161081c565b811461083a57600080fd5b50565b60008135905061084c81610826565b92915050565b600080fd5b6000601f19601f8301169050919050565b7f4e487b7100000000000000000000000000000000000000000000000000000000600052604160045260246000fd5b6108a082610857565b810181811067ffffffffffffffff821117156108bf576108be610868565b5b80604052505050565b60006108d26106f6565b90506108de8282610897565b919050565b600067ffffffffffffffff8211156108fe576108fd610868565b5b602082029050602081019050919050565b600080fd5b6000610927610922846108e3565b6108c8565b9050808382526020820190506020840283018581111561094a5761094961090f565b5b835b81811015610973578061095f888261083d565b84526020840193505060208101905061094c565b5050509392505050565b600082601f83011261099257610991610852565b5b81356109a2848260208601610914565b91505092915050565b600080604083850312156109c2576109c1610700565b5b60006109d08582860161083d565b925050602083013567ffffffffffffffff8111156109f1576109f0610705565b5b6109fd8582860161097d565b9150509250929050565b610a108161061c565b8114610a1b57600080fd5b50565b600081359050610a2d81610a07565b92915050565b610a3c816105b4565b8114610a4757600080fd5b50565b600081359050610a5981610a33565b92915050565b610a68816105d1565b8114610a7357600080fd5b50565b600081359050610a8581610a5f565b92915050565b600080600080600060a08688031215610aa757610aa6610700565b5b6000610ab588828901610a1e565b9550506020610ac688828901610735565b9450506040610ad788828901610a4a565b9350506060610ae888828901610a76565b9250506080610af988828901610a76565b9150509295509295909350565b610b0f8161081c565b82525050565b6000602082019050610b2a6000830184610b06565b92915050565b600060c082019050610b4560008301896105e1565b610b5260208301886105e1565b610b5f60408301876105e1565b610b6c60608301866105e1565b610b7960808301856105e1565b610b8660a08301846105e1565b979650505050505050565b60008060408385031215610ba857610ba7610700565b5b6000610bb685828601610a76565b9250506020610bc78582860161083d565b9150509250929050565b60006bffffffffffffffffffffffff82169050919050565b610bf281610bd1565b82525050565b6000602082019050610c0d6000830184610be9565b92915050565b600060208284031215610c2957610c28610700565b5b6000610c3784828501610735565b91505092915050565b610c498161070a565b82525050565b6000602082019050610c646000830184610c40565b92915050565b610c738161076a565b82525050565b600081519050919050565b600082825260208201905092915050565b6000819050602082019050919050565b610cae8161076a565b82525050565b6000610cc08383610ca5565b60208301905092915050565b6000602082019050919050565b6000610ce482610c79565b610cee8185610c84565b9350610cf983610c95565b8060005b83811015610d2a578151610d118882610cb4565b9750610d1c83610ccc565b925050600181019050610cfd565b5085935050505092915050565b6000608082019050610d4c6000830187610be9565b610d596020830186610c40565b610d666040830185610c6a565b8181036060830152610d788184610cd9565b905095945050505050565b600081519050919050565b600082825260208201905092915050565b60005b83811015610dbd578082015181840152602081019050610da2565b60008484015250505050565b6000610dd482610d83565b610dde8185610d8e565b9350610dee818560208601610d9f565b610df781610857565b840191505092915050565b60006020820190508181036000830152610e1c8184610dc9565b905092915050565b60008115159050919050565b610e3981610e24565b82525050565b6000602082019050610e546000830184610e30565b92915050565b600081519050919050565b600082825260208201905092915050565b6000819050602082019050919050565b610e8f8161081c565b82525050565b6000610ea18383610e86565b60208301905092915050565b6000602082019050919050565b6000610ec582610e5a565b610ecf8185610e65565b9350610eda83610e76565b8060005b83811015610f0b578151610ef28882610e95565b9750610efd83610ead565b925050600181019050610ede565b5085935050505092915050565b6000604082019050610f2d6000830185610b06565b8181036020830152610f3f8184610eba565b90509392505050565b7f4e487b7100000000000000000000000000000000000000000000000000000000600052601160045260246000fd5b6000610f828261081c565b91507fffffffffffffffffffffffffffffffffffffffffffffffffffffffffffffffff8203610fb457610fb3610f48565b5b60018201905091905056fea2646970667358221220d22bdeffc42fee0c6679378e9dc19a5a0d25bb32e79099596ae1b3bf13b4a3d464736f6c63430008130033",
  "linkReferences": {},
  "deployedLinkReferences": {}
}