{
  "_format": "hh-sol-artifact-1",
  "contractName": "HeadOrTailTokenGame",
  "sourceName": "contracts/HeadOrTailTokenGame.sol",
  "abi": [
    {
      "inputs": [
        {
          "internalType": "address",
          "name": "_gameTokenAddress",
          "type": "address"
        }
      ],
      "stateMutability": "nonpayable",
      "type": "constructor"
    },
    {
      "anonymous": false,
      "inputs": [
        {
          "indexed": true,
          "internalType": "address",
          "name": "player",
          "type": "address"
        },
        {
          "indexed": false,
          "internalType": "uint256",
          "name": "gameId",
          "type": "uint256"
        },
        {
          "indexed": false,
          "internalType": "bool",
          "name": "isWinner",
          "type": "bool"
        },
        {
          "indexed": false,
          "internalType": "uint256",
          "name": "betAmount",
          "type": "uint256"
        },
        {
          "indexed": false,
          "internalType": "uint256",
          "name": "amountWon",
          "type": "uint256"
        },
        {
          "indexed": false,
          "internalType": "bool",
          "name": "bonus",
          "type": "bool"
        },
        {
          "indexed": false,
          "internalType": "bool",
          "name": "isHead",
          "type": "bool"
        }
      ],
      "name": "GameResult",
      "type": "event"
    },
    {
      "anonymous": false,
      "inputs": [
        {
          "indexed": true,
          "internalType": "address",
          "name": "previousOwner",
          "type": "address"
        },
        {
          "indexed": true,
          "internalType": "address",
          "name": "newOwner",
          "type": "address"
        }
      ],
      "name": "OwnershipTransferred",
      "type": "event"
    },
    {
      "inputs": [
        {
          "internalType": "uint256",
          "name": "",
          "type": "uint256"
        }
      ],
      "name": "allowedBetAmounts",
      "outputs": [
        {
          "internalType": "uint256",
          "name": "",
          "type": "uint256"
        }
      ],
      "stateMutability": "view",
      "type": "function"
    },
    {
      "inputs": [],
      "name": "gameToken",
      "outputs": [
        {
          "internalType": "contract IERC20",
          "name": "",
          "type": "address"
        }
      ],
      "stateMutability": "view",
      "type": "function"
    },
    {
      "inputs": [],
      "name": "getBalance",
      "outputs": [
        {
          "internalType": "uint256",
          "name": "",
          "type": "uint256"
        }
      ],
      "stateMutability": "view",
      "type": "function"
    },
    {
      "inputs": [],
      "name": "getBonus",
      "outputs": [
        {
          "internalType": "uint256",
          "name": "",
          "type": "uint256"
        }
      ],
      "stateMutability": "view",
      "type": "function"
    },
    {
      "inputs": [],
      "name": "getRtp",
      "outputs": [
        {
          "internalType": "uint256",
          "name": "",
          "type": "uint256"
        }
      ],
      "stateMutability": "view",
      "type": "function"
    },
    {
      "inputs": [],
      "name": "getTotalHead",
      "outputs": [
        {
          "internalType": "uint256",
          "name": "",
          "type": "uint256"
        }
      ],
      "stateMutability": "view",
      "type": "function"
    },
    {
      "inputs": [],
      "name": "getTotalTail",
      "outputs": [
        {
          "internalType": "uint256",
          "name": "",
          "type": "uint256"
        }
      ],
      "stateMutability": "view",
      "type": "function"
    },
    {
      "inputs": [],
      "name": "owner",
      "outputs": [
        {
          "internalType": "address",
          "name": "",
          "type": "address"
        }
      ],
      "stateMutability": "view",
      "type": "function"
    },
    {
      "inputs": [
        {
          "internalType": "bool",
          "name": "choice",
          "type": "bool"
        }
      ],
      "name": "play",
      "outputs": [
        {
          "internalType": "bool",
          "name": "",
          "type": "bool"
        }
      ],
      "stateMutability": "nonpayable",
      "type": "function"
    },
    {
      "inputs": [],
      "name": "renounceOwnership",
      "outputs": [],
      "stateMutability": "nonpayable",
      "type": "function"
    },
    {
      "inputs": [
        {
          "internalType": "uint256",
          "name": "_bonus",
          "type": "uint256"
        }
      ],
      "name": "setBonus",
      "outputs": [],
      "stateMutability": "nonpayable",
      "type": "function"
    },
    {
      "inputs": [
        {
          "internalType": "uint256",
          "name": "_rtp",
          "type": "uint256"
        }
      ],
      "name": "setRtp",
      "outputs": [],
      "stateMutability": "nonpayable",
      "type": "function"
    },
    {
      "inputs": [
        {
          "internalType": "uint256",
          "name": "amount",
          "type": "uint256"
        }
      ],
      "name": "topUpBalance",
      "outputs": [],
      "stateMutability": "nonpayable",
      "type": "function"
    },
    {
      "inputs": [
        {
          "internalType": "address",
          "name": "newOwner",
          "type": "address"
        }
      ],
      "name": "transferOwnership",
      "outputs": [],
      "stateMutability": "nonpayable",
      "type": "function"
    },
    {
      "inputs": [],
      "name": "withdrawFunds",
      "outputs": [],
      "stateMutability": "nonpayable",
      "type": "function"
    }
  ],
  "bytecode": "0x60806040526011600355601660045560046005553480156200002057600080fd5b5060405162001b3538038062001b358339818101604052810190620000469190620002f5565b620000666200005a6200014260201b60201c565b6200014a60201b60201c565b80600160006101000a81548173ffffffffffffffffffffffffffffffffffffffff021916908373ffffffffffffffffffffffffffffffffffffffff1602179055506040518060a0016040528067016345785d8a000067ffffffffffffffff1681526020016702c68af0bb14000067ffffffffffffffff168152602001670429d069189e000067ffffffffffffffff16815260200167058d15e17628000067ffffffffffffffff1681526020016706f05b59d3b2000067ffffffffffffffff1681525060089060056200013a9291906200020e565b505062000327565b600033905090565b60008060009054906101000a900473ffffffffffffffffffffffffffffffffffffffff169050816000806101000a81548173ffffffffffffffffffffffffffffffffffffffff021916908373ffffffffffffffffffffffffffffffffffffffff1602179055508173ffffffffffffffffffffffffffffffffffffffff168173ffffffffffffffffffffffffffffffffffffffff167f8be0079c531659141344cd1fd0a4f28419497f9722a3daafe3b4186f6b6457e060405160405180910390a35050565b82805482825590600052602060002090810192821562000259579160200282015b8281111562000258578251829067ffffffffffffffff169055916020019190600101906200022f565b5b5090506200026891906200026c565b5090565b5b80821115620002875760008160009055506001016200026d565b5090565b600080fd5b600073ffffffffffffffffffffffffffffffffffffffff82169050919050565b6000620002bd8262000290565b9050919050565b620002cf81620002b0565b8114620002db57600080fd5b50565b600081519050620002ef81620002c4565b92915050565b6000602082840312156200030e576200030d6200028b565b5b60006200031e84828501620002de565b91505092915050565b6117fe80620003376000396000f3fe608060405234801561001057600080fd5b50600436106100f55760003560e01c8063a635392d11610097578063c5f2208311610066578063c5f220831461022a578063c9e2774c14610248578063f2fde38b14610278578063f303773e14610294576100f5565b8063a635392d146101a2578063b62aaa21146101be578063c23c87d5146101dc578063c3dfdae61461020c576100f5565b806324600fc3116100d357806324600fc314610152578063715018a61461015c5780638bdff161146101665780638da5cb5b14610184576100f5565b80630b023a23146100fa5780630b98f9751461011857806312065fe014610134575b600080fd5b6101026102b0565b60405161010f9190610e36565b60405180910390f35b610132600480360381019061012d9190610e82565b6102ba565b005b61013c6102cc565b6040516101499190610e36565b60405180910390f35b61015a61036f565b005b610164610543565b005b61016e610557565b60405161017b9190610e36565b60405180910390f35b61018c610561565b6040516101999190610ef0565b60405180910390f35b6101bc60048036038101906101b79190610e82565b61058a565b005b6101c661066e565b6040516101d39190610e36565b60405180910390f35b6101f660048036038101906101f19190610f43565b610678565b6040516102039190610f7f565b60405180910390f35b610214610aa3565b6040516102219190610ff9565b60405180910390f35b610232610ac9565b60405161023f9190610e36565b60405180910390f35b610262600480360381019061025d9190610e82565b610ad3565b60405161026f9190610e36565b60405180910390f35b610292600480360381019061028d9190611040565b610af7565b005b6102ae60048036038101906102a99190610e82565b610b7a565b005b6000600754905090565b6102c2610b8c565b8060048190555050565b6000600160009054906101000a900473ffffffffffffffffffffffffffffffffffffffff1673ffffffffffffffffffffffffffffffffffffffff166370a08231306040518263ffffffff1660e01b81526004016103299190610ef0565b602060405180830381865afa158015610346573d6000803e3d6000fd5b505050506040513d601f19601f8201168201806040525081019061036a9190611082565b905090565b610377610b8c565b6000600160009054906101000a900473ffffffffffffffffffffffffffffffffffffffff1673ffffffffffffffffffffffffffffffffffffffff166370a08231306040518263ffffffff1660e01b81526004016103d49190610ef0565b602060405180830381865afa1580156103f1573d6000803e3d6000fd5b505050506040513d601f19601f820116820180604052508101906104159190611082565b90506000811161045a576040517f08c379a00000000000000000000000000000000000000000000000000000000081526004016104519061110c565b60405180910390fd5b600160009054906101000a900473ffffffffffffffffffffffffffffffffffffffff1673ffffffffffffffffffffffffffffffffffffffff1663a9059cbb6104a0610561565b836040518363ffffffff1660e01b81526004016104be92919061112c565b6020604051808303816000875af11580156104dd573d6000803e3d6000fd5b505050506040513d601f19601f82011682018060405250810190610501919061116a565b610540576040517f08c379a0000000000000000000000000000000000000000000000000000000008152600401610537906111e3565b60405180910390fd5b50565b61054b610b8c565b6105556000610c0a565b565b6000600454905090565b60008060009054906101000a900473ffffffffffffffffffffffffffffffffffffffff16905090565b600160009054906101000a900473ffffffffffffffffffffffffffffffffffffffff1673ffffffffffffffffffffffffffffffffffffffff166323b872dd3330846040518463ffffffff1660e01b81526004016105e993929190611203565b6020604051808303816000875af1158015610608573d6000803e3d6000fd5b505050506040513d601f19601f8201168201806040525081019061062c919061116a565b61066b576040517f08c379a000000000000000000000000000000000000000000000000000000000815260040161066290611286565b60405180910390fd5b50565b6000600354905090565b600061068333610cce565b6106c2576040517f08c379a00000000000000000000000000000000000000000000000000000000081526004016106b990611318565b60405180910390fd5b60006106cd33610ce2565b9050600160009054906101000a900473ffffffffffffffffffffffffffffffffffffffff1673ffffffffffffffffffffffffffffffffffffffff166323b872dd3330846040518463ffffffff1660e01b815260040161072e93929190611203565b6020604051808303816000875af115801561074d573d6000803e3d6000fd5b505050506040513d601f19601f82011682018060405250810190610771919061116a565b6107b0576040517f08c379a00000000000000000000000000000000000000000000000000000000081526004016107a790611384565b60405180910390fd5b600060644244336002546040516020016107cd949392919061140d565b6040516020818303038152906040528051906020012060001c6107f0919061148a565b9050600080600283610802919061148a565b14905060008515158215151490506000600554841090508261083a5760076000815480929190610831906114ea565b91905055610852565b6006600081548092919061084d906114ea565b919050555b5060008215610a235761089486600a8461086e57600354610872565b6004545b670de0b6b3a76400006108859190611532565b61088f9190611574565b610de7565b90506000600160009054906101000a900473ffffffffffffffffffffffffffffffffffffffff1673ffffffffffffffffffffffffffffffffffffffff166370a08231306040518263ffffffff1660e01b81526004016108f39190610ef0565b602060405180830381865afa158015610910573d6000803e3d6000fd5b505050506040513d601f19601f820116820180604052508101906109349190611082565b905080821115610942578091505b600160009054906101000a900473ffffffffffffffffffffffffffffffffffffffff1673ffffffffffffffffffffffffffffffffffffffff1663a9059cbb33846040518363ffffffff1660e01b815260040161099f92919061112c565b6020604051808303816000875af11580156109be573d6000803e3d6000fd5b505050506040513d601f19601f820116820180604052508101906109e2919061116a565b610a21576040517f08c379a0000000000000000000000000000000000000000000000000000000008152600401610a18906115f1565b60405180910390fd5b505b60026000815480929190610a36906114ea565b91905055503373ffffffffffffffffffffffffffffffffffffffff167f6c26b3162d7d565bf212f05fed6caf02b019f4b186feefdee65fefe4dd07b6ce600254858985878a604051610a8d96959493929190611611565b60405180910390a2829650505050505050919050565b600160009054906101000a900473ffffffffffffffffffffffffffffffffffffffff1681565b6000600654905090565b60088181548110610ae357600080fd5b906000526020600020016000915090505481565b610aff610b8c565b600073ffffffffffffffffffffffffffffffffffffffff168173ffffffffffffffffffffffffffffffffffffffff1603610b6e576040517f08c379a0000000000000000000000000000000000000000000000000000000008152600401610b65906116e4565b60405180910390fd5b610b7781610c0a565b50565b610b82610b8c565b8060038190555050565b610b94610e15565b73ffffffffffffffffffffffffffffffffffffffff16610bb2610561565b73ffffffffffffffffffffffffffffffffffffffff1614610c08576040517f08c379a0000000000000000000000000000000000000000000000000000000008152600401610bff90611750565b60405180910390fd5b565b60008060009054906101000a900473ffffffffffffffffffffffffffffffffffffffff169050816000806101000a81548173ffffffffffffffffffffffffffffffffffffffff021916908373ffffffffffffffffffffffffffffffffffffffff1602179055508173ffffffffffffffffffffffffffffffffffffffff168173ffffffffffffffffffffffffffffffffffffffff167f8be0079c531659141344cd1fd0a4f28419497f9722a3daafe3b4186f6b6457e060405160405180910390a35050565b600080610cda83610ce2565b119050919050565b600080600090505b600880549050811015610ddc57600060088281548110610d0d57610d0c611770565b5b9060005260206000200154905080600160009054906101000a900473ffffffffffffffffffffffffffffffffffffffff1673ffffffffffffffffffffffffffffffffffffffff1663dd62ed3e86306040518363ffffffff1660e01b8152600401610d7892919061179f565b602060405180830381865afa158015610d95573d6000803e3d6000fd5b505050506040513d601f19601f82011682018060405250810190610db99190611082565b10610dc8578092505050610de2565b508080610dd4906114ea565b915050610cea565b50600090505b919050565b600080670de0b6b3a76400008385610dff9190611532565b610e099190611574565b90508091505092915050565b600033905090565b6000819050919050565b610e3081610e1d565b82525050565b6000602082019050610e4b6000830184610e27565b92915050565b600080fd5b610e5f81610e1d565b8114610e6a57600080fd5b50565b600081359050610e7c81610e56565b92915050565b600060208284031215610e9857610e97610e51565b5b6000610ea684828501610e6d565b91505092915050565b600073ffffffffffffffffffffffffffffffffffffffff82169050919050565b6000610eda82610eaf565b9050919050565b610eea81610ecf565b82525050565b6000602082019050610f056000830184610ee1565b92915050565b60008115159050919050565b610f2081610f0b565b8114610f2b57600080fd5b50565b600081359050610f3d81610f17565b92915050565b600060208284031215610f5957610f58610e51565b5b6000610f6784828501610f2e565b91505092915050565b610f7981610f0b565b82525050565b6000602082019050610f946000830184610f70565b92915050565b6000819050919050565b6000610fbf610fba610fb584610eaf565b610f9a565b610eaf565b9050919050565b6000610fd182610fa4565b9050919050565b6000610fe382610fc6565b9050919050565b610ff381610fd8565b82525050565b600060208201905061100e6000830184610fea565b92915050565b61101d81610ecf565b811461102857600080fd5b50565b60008135905061103a81611014565b92915050565b60006020828403121561105657611055610e51565b5b60006110648482850161102b565b91505092915050565b60008151905061107c81610e56565b92915050565b60006020828403121561109857611097610e51565b5b60006110a68482850161106d565b91505092915050565b600082825260208201905092915050565b7f436f6e74726163742062616c616e636520697320656d7074792e000000000000600082015250565b60006110f6601a836110af565b9150611101826110c0565b602082019050919050565b60006020820190508181036000830152611125816110e9565b9050919050565b60006040820190506111416000830185610ee1565b61114e6020830184610e27565b9392505050565b60008151905061116481610f17565b92915050565b6000602082840312156111805761117f610e51565b5b600061118e84828501611155565b91505092915050565b7f5769746864726177616c206661696c6564000000000000000000000000000000600082015250565b60006111cd6011836110af565b91506111d882611197565b602082019050919050565b600060208201905081810360008301526111fc816111c0565b9050919050565b60006060820190506112186000830186610ee1565b6112256020830185610ee1565b6112326040830184610e27565b949350505050565b7f546f702d7570206661696c656400000000000000000000000000000000000000600082015250565b6000611270600d836110af565b915061127b8261123a565b602082019050919050565b6000602082019050818103600083015261129f81611263565b9050919050565b7f506c656173652073656e6420636f727265637420616d6f756e7420746f20706c60008201527f6179207468652067616d652e0000000000000000000000000000000000000000602082015250565b6000611302602c836110af565b915061130d826112a6565b604082019050919050565b60006020820190508181036000830152611331816112f5565b9050919050565b7f546f6b656e207472616e73666572206661696c65640000000000000000000000600082015250565b600061136e6015836110af565b915061137982611338565b602082019050919050565b6000602082019050818103600083015261139d81611361565b9050919050565b6000819050919050565b6113bf6113ba82610e1d565b6113a4565b82525050565b60008160601b9050919050565b60006113dd826113c5565b9050919050565b60006113ef826113d2565b9050919050565b61140761140282610ecf565b6113e4565b82525050565b600061141982876113ae565b60208201915061142982866113ae565b60208201915061143982856113f6565b60148201915061144982846113ae565b60208201915081905095945050505050565b7f4e487b7100000000000000000000000000000000000000000000000000000000600052601260045260246000fd5b600061149582610e1d565b91506114a083610e1d565b9250826114b0576114af61145b565b5b828206905092915050565b7f4e487b7100000000000000000000000000000000000000000000000000000000600052601160045260246000fd5b60006114f582610e1d565b91507fffffffffffffffffffffffffffffffffffffffffffffffffffffffffffffffff8203611527576115266114bb565b5b600182019050919050565b600061153d82610e1d565b915061154883610e1d565b925082820261155681610e1d565b9150828204841483151761156d5761156c6114bb565b5b5092915050565b600061157f82610e1d565b915061158a83610e1d565b92508261159a5761159961145b565b5b828204905092915050565b7f57696e6e696e6773207472616e73666572206661696c65640000000000000000600082015250565b60006115db6018836110af565b91506115e6826115a5565b602082019050919050565b6000602082019050818103600083015261160a816115ce565b9050919050565b600060c0820190506116266000830189610e27565b6116336020830188610f70565b6116406040830187610e27565b61164d6060830186610e27565b61165a6080830185610f70565b61166760a0830184610f70565b979650505050505050565b7f4f776e61626c653a206e6577206f776e657220697320746865207a65726f206160008201527f6464726573730000000000000000000000000000000000000000000000000000602082015250565b60006116ce6026836110af565b91506116d982611672565b604082019050919050565b600060208201905081810360008301526116fd816116c1565b9050919050565b7f4f776e61626c653a2063616c6c6572206973206e6f7420746865206f776e6572600082015250565b600061173a6020836110af565b915061174582611704565b602082019050919050565b600060208201905081810360008301526117698161172d565b9050919050565b7f4e487b7100000000000000000000000000000000000000000000000000000000600052603260045260246000fd5b60006040820190506117b46000830185610ee1565b6117c16020830184610ee1565b939250505056fea2646970667358221220a2c080ecaa29161dcc3b5476dbd9c8ff38b9b33aa3e5d607708dfaad4ece907164736f6c63430008130033",
  "linkReferences": {},
  "deployedLinkReferences": {}
}