{
  "_format": "hh-sol-artifact-1",
  "contractName": "HeadOrTailTokenGame",
  "sourceName": "contracts/HeadOrTailTokenGame.sol",
  "abi": [
    {
      "inputs": [
        {
          "internalType": "address",
          "name": "_vrfCoordinator",
          "type": "address"
        },
        {
          "internalType": "address",
          "name": "_gameTokenAddress",
          "type": "address"
        }
      ],
      "stateMutability": "nonpayable",
      "type": "constructor"
    },
    {
      "anonymous": false,
      "inputs": [
        {
          "indexed": true,
          "internalType": "address",
          "name": "player",
          "type": "address"
        },
        {
          "indexed": true,
          "internalType": "uint256",
          "name": "requestId",
          "type": "uint256"
        },
        {
          "indexed": false,
          "internalType": "uint256",
          "name": "gameId",
          "type": "uint256"
        },
        {
          "indexed": false,
          "internalType": "bool",
          "name": "isWinner",
          "type": "bool"
        },
        {
          "indexed": false,
          "internalType": "uint256",
          "name": "betAmount",
          "type": "uint256"
        },
        {
          "indexed": false,
          "internalType": "uint256",
          "name": "amountWon",
          "type": "uint256"
        },
        {
          "indexed": false,
          "internalType": "bool",
          "name": "bonus",
          "type": "bool"
        },
        {
          "indexed": false,
          "internalType": "bool",
          "name": "isHead",
          "type": "bool"
        }
      ],
      "name": "GameResult",
      "type": "event"
    },
    {
      "anonymous": false,
      "inputs": [
        {
          "indexed": true,
          "internalType": "address",
          "name": "previousOwner",
          "type": "address"
        },
        {
          "indexed": true,
          "internalType": "address",
          "name": "newOwner",
          "type": "address"
        }
      ],
      "name": "OwnershipTransferred",
      "type": "event"
    },
    {
      "anonymous": false,
      "inputs": [
        {
          "indexed": true,
          "internalType": "uint256",
          "name": "requestId",
          "type": "uint256"
        }
      ],
      "name": "RequestedRandomNumber",
      "type": "event"
    },
    {
      "inputs": [
        {
          "internalType": "uint256",
          "name": "",
          "type": "uint256"
        }
      ],
      "name": "allowedBetAmounts",
      "outputs": [
        {
          "internalType": "uint256",
          "name": "",
          "type": "uint256"
        }
      ],
      "stateMutability": "view",
      "type": "function"
    },
    {
      "inputs": [
        {
          "internalType": "uint256",
          "name": "",
          "type": "uint256"
        }
      ],
      "name": "gameStatus",
      "outputs": [
        {
          "internalType": "uint256",
          "name": "fees",
          "type": "uint256"
        },
        {
          "internalType": "uint256",
          "name": "randomWord",
          "type": "uint256"
        },
        {
          "internalType": "address",
          "name": "player",
          "type": "address"
        },
        {
          "internalType": "bool",
          "name": "isWinner",
          "type": "bool"
        },
        {
          "internalType": "bool",
          "name": "fulfilled",
          "type": "bool"
        },
        {
          "internalType": "bool",
          "name": "isHead",
          "type": "bool"
        },
        {
          "internalType": "uint256",
          "name": "betAmount",
          "type": "uint256"
        }
      ],
      "stateMutability": "view",
      "type": "function"
    },
    {
      "inputs": [],
      "name": "gameToken",
      "outputs": [
        {
          "internalType": "contract IERC20",
          "name": "",
          "type": "address"
        }
      ],
      "stateMutability": "view",
      "type": "function"
    },
    {
      "inputs": [],
      "name": "getBalance",
      "outputs": [
        {
          "internalType": "uint256",
          "name": "",
          "type": "uint256"
        }
      ],
      "stateMutability": "view",
      "type": "function"
    },
    {
      "inputs": [],
      "name": "getBonus",
      "outputs": [
        {
          "internalType": "uint256",
          "name": "",
          "type": "uint256"
        }
      ],
      "stateMutability": "view",
      "type": "function"
    },
    {
      "inputs": [],
      "name": "getRtp",
      "outputs": [
        {
          "internalType": "uint256",
          "name": "",
          "type": "uint256"
        }
      ],
      "stateMutability": "view",
      "type": "function"
    },
    {
      "inputs": [],
      "name": "getTotalHead",
      "outputs": [
        {
          "internalType": "uint256",
          "name": "",
          "type": "uint256"
        }
      ],
      "stateMutability": "view",
      "type": "function"
    },
    {
      "inputs": [],
      "name": "getTotalTail",
      "outputs": [
        {
          "internalType": "uint256",
          "name": "",
          "type": "uint256"
        }
      ],
      "stateMutability": "view",
      "type": "function"
    },
    {
      "inputs": [],
      "name": "owner",
      "outputs": [
        {
          "internalType": "address",
          "name": "",
          "type": "address"
        }
      ],
      "stateMutability": "view",
      "type": "function"
    },
    {
      "inputs": [
        {
          "internalType": "bool",
          "name": "choice",
          "type": "bool"
        }
      ],
      "name": "play",
      "outputs": [
        {
          "internalType": "uint256",
          "name": "",
          "type": "uint256"
        }
      ],
      "stateMutability": "nonpayable",
      "type": "function"
    },
    {
      "inputs": [
        {
          "internalType": "uint256",
          "name": "requestId",
          "type": "uint256"
        },
        {
          "internalType": "uint256[]",
          "name": "randomWords",
          "type": "uint256[]"
        }
      ],
      "name": "rawFulfillRandomWords",
      "outputs": [],
      "stateMutability": "nonpayable",
      "type": "function"
    },
    {
      "inputs": [],
      "name": "renounceOwnership",
      "outputs": [],
      "stateMutability": "nonpayable",
      "type": "function"
    },
    {
      "inputs": [
        {
          "internalType": "uint256",
          "name": "_bonus",
          "type": "uint256"
        }
      ],
      "name": "setBonus",
      "outputs": [],
      "stateMutability": "nonpayable",
      "type": "function"
    },
    {
      "inputs": [
        {
          "internalType": "uint256",
          "name": "_rtp",
          "type": "uint256"
        }
      ],
      "name": "setRtp",
      "outputs": [],
      "stateMutability": "nonpayable",
      "type": "function"
    },
    {
      "inputs": [
        {
          "internalType": "uint256",
          "name": "amount",
          "type": "uint256"
        }
      ],
      "name": "topUpBalance",
      "outputs": [],
      "stateMutability": "nonpayable",
      "type": "function"
    },
    {
      "inputs": [
        {
          "internalType": "address",
          "name": "newOwner",
          "type": "address"
        }
      ],
      "name": "transferOwnership",
      "outputs": [],
      "stateMutability": "nonpayable",
      "type": "function"
    },
    {
      "inputs": [],
      "name": "withdrawFunds",
      "outputs": [],
      "stateMutability": "nonpayable",
      "type": "function"
    }
  ],
  "bytecode": "0x60a06040526011600355601660045560046005553480156200002057600080fd5b50604051620023e3380380620023e383398181016040528101906200004691906200032a565b620000666200005a6200017760201b60201c565b6200017f60201b60201c565b8173ffffffffffffffffffffffffffffffffffffffff1660808173ffffffffffffffffffffffffffffffffffffffff168152505080600160006101000a81548173ffffffffffffffffffffffffffffffffffffffff021916908373ffffffffffffffffffffffffffffffffffffffff1602179055506040518060a0016040528067016345785d8a000067ffffffffffffffff1681526020016702c68af0bb14000067ffffffffffffffff168152602001670429d069189e000067ffffffffffffffff16815260200167058d15e17628000067ffffffffffffffff1681526020016706f05b59d3b2000067ffffffffffffffff1681525060089060056200016e92919062000243565b50505062000371565b600033905090565b60008060009054906101000a900473ffffffffffffffffffffffffffffffffffffffff169050816000806101000a81548173ffffffffffffffffffffffffffffffffffffffff021916908373ffffffffffffffffffffffffffffffffffffffff1602179055508173ffffffffffffffffffffffffffffffffffffffff168173ffffffffffffffffffffffffffffffffffffffff167f8be0079c531659141344cd1fd0a4f28419497f9722a3daafe3b4186f6b6457e060405160405180910390a35050565b8280548282559060005260206000209081019282156200028e579160200282015b828111156200028d578251829067ffffffffffffffff1690559160200191906001019062000264565b5b5090506200029d9190620002a1565b5090565b5b80821115620002bc576000816000905550600101620002a2565b5090565b600080fd5b600073ffffffffffffffffffffffffffffffffffffffff82169050919050565b6000620002f282620002c5565b9050919050565b6200030481620002e5565b81146200031057600080fd5b50565b6000815190506200032481620002f9565b92915050565b60008060408385031215620003445762000343620002c0565b5b6000620003548582860162000313565b9250506020620003678582860162000313565b9150509250929050565b60805161204f62000394600039600081816103d90152610941015261204f6000f3fe608060405234801561001057600080fd5b506004361061010b5760003560e01c80638da5cb5b116100a2578063c3dfdae611610071578063c3dfdae614610274578063c5f2208314610292578063c9e2774c146102b0578063f2fde38b146102e0578063f303773e146102fc5761010b565b80638da5cb5b146101ec578063a635392d1461020a578063b62aaa2114610226578063c23c87d5146102445761010b565b806324600fc3116100de57806324600fc31461018457806334239c9c1461018e578063715018a6146101c45780638bdff161146101ce5761010b565b80630b023a23146101105780630b98f9751461012e57806312065fe01461014a5780631fe543e314610168575b600080fd5b610118610318565b604051610125919061130b565b60405180910390f35b61014860048036038101906101439190611366565b610322565b005b610152610334565b60405161015f919061130b565b60405180910390f35b610182600480360381019061017d91906114ec565b6103d7565b005b61018c610473565b005b6101a860048036038101906101a39190611366565b610647565b6040516101bb97969594939291906115a4565b60405180910390f35b6101cc6106d0565b005b6101d66106e4565b6040516101e3919061130b565b60405180910390f35b6101f46106ee565b6040516102019190611613565b60405180910390f35b610224600480360381019061021f9190611366565b610717565b005b61022e6107fb565b60405161023b919061130b565b60405180910390f35b61025e6004803603810190610259919061165a565b610805565b60405161026b919061130b565b60405180910390f35b61027c610b50565b60405161028991906116e6565b60405180910390f35b61029a610b76565b6040516102a7919061130b565b60405180910390f35b6102ca60048036038101906102c59190611366565b610b80565b6040516102d7919061130b565b60405180910390f35b6102fa60048036038101906102f5919061172d565b610ba4565b005b61031660048036038101906103119190611366565b610c27565b005b6000600754905090565b61032a610c39565b8060048190555050565b6000600160009054906101000a900473ffffffffffffffffffffffffffffffffffffffff1673ffffffffffffffffffffffffffffffffffffffff166370a08231306040518263ffffffff1660e01b81526004016103919190611613565b602060405180830381865afa1580156103ae573d6000803e3d6000fd5b505050506040513d601f19601f820116820180604052508101906103d2919061176f565b905090565b7f000000000000000000000000000000000000000000000000000000000000000073ffffffffffffffffffffffffffffffffffffffff163373ffffffffffffffffffffffffffffffffffffffff1614610465576040517f08c379a000000000000000000000000000000000000000000000000000000000815260040161045c906117f9565b60405180910390fd5b61046f8282610cb7565b5050565b61047b610c39565b6000600160009054906101000a900473ffffffffffffffffffffffffffffffffffffffff1673ffffffffffffffffffffffffffffffffffffffff166370a08231306040518263ffffffff1660e01b81526004016104d89190611613565b602060405180830381865afa1580156104f5573d6000803e3d6000fd5b505050506040513d601f19601f82011682018060405250810190610519919061176f565b90506000811161055e576040517f08c379a000000000000000000000000000000000000000000000000000000000815260040161055590611865565b60405180910390fd5b600160009054906101000a900473ffffffffffffffffffffffffffffffffffffffff1673ffffffffffffffffffffffffffffffffffffffff1663a9059cbb6105a46106ee565b836040518363ffffffff1660e01b81526004016105c2929190611885565b6020604051808303816000875af11580156105e1573d6000803e3d6000fd5b505050506040513d601f19601f8201168201806040525081019061060591906118c3565b610644576040517f08c379a000000000000000000000000000000000000000000000000000000000815260040161063b9061193c565b60405180910390fd5b50565b60096020528060005260406000206000915090508060000154908060010154908060020160009054906101000a900473ffffffffffffffffffffffffffffffffffffffff16908060020160149054906101000a900460ff16908060020160159054906101000a900460ff16908060020160169054906101000a900460ff16908060030154905087565b6106d8610c39565b6106e260006110df565b565b6000600454905090565b60008060009054906101000a900473ffffffffffffffffffffffffffffffffffffffff16905090565b600160009054906101000a900473ffffffffffffffffffffffffffffffffffffffff1673ffffffffffffffffffffffffffffffffffffffff166323b872dd3330846040518463ffffffff1660e01b81526004016107769392919061195c565b6020604051808303816000875af1158015610795573d6000803e3d6000fd5b505050506040513d601f19601f820116820180604052508101906107b991906118c3565b6107f8576040517f08c379a00000000000000000000000000000000000000000000000000000000081526004016107ef906119df565b60405180910390fd5b50565b6000600354905090565b6000610810336111a3565b61084f576040517f08c379a000000000000000000000000000000000000000000000000000000000815260040161084690611a71565b60405180910390fd5b600061085a336111b7565b9050600160009054906101000a900473ffffffffffffffffffffffffffffffffffffffff1673ffffffffffffffffffffffffffffffffffffffff166323b872dd3330846040518463ffffffff1660e01b81526004016108bb9392919061195c565b6020604051808303816000875af11580156108da573d6000803e3d6000fd5b505050506040513d601f19601f820116820180604052508101906108fe91906118c3565b61093d576040517f08c379a000000000000000000000000000000000000000000000000000000000815260040161093490611add565b60405180910390fd5b60007f000000000000000000000000000000000000000000000000000000000000000073ffffffffffffffffffffffffffffffffffffffff16635d3b1d306000806001620186a060016040518663ffffffff1660e01b81526004016109a6959493929190611c59565b6020604051808303816000875af11580156109c5573d6000803e3d6000fd5b505050506040513d601f19601f820116820180604052508101906109e9919061176f565b90506040518060e0016040528060008152602001600081526020013373ffffffffffffffffffffffffffffffffffffffff16815260200160001515815260200160001515815260200185151581526020018381525060096000838152602001908152602001600020600082015181600001556020820151816001015560408201518160020160006101000a81548173ffffffffffffffffffffffffffffffffffffffff021916908373ffffffffffffffffffffffffffffffffffffffff16021790555060608201518160020160146101000a81548160ff02191690831515021790555060808201518160020160156101000a81548160ff02191690831515021790555060a08201518160020160166101000a81548160ff02191690831515021790555060c08201518160030155905050807f28a75f9a78cd502748cecc04795531fd051165f83e4be1270400ac7130873e2e60405160405180910390a28092505050919050565b600160009054906101000a900473ffffffffffffffffffffffffffffffffffffffff1681565b6000600654905090565b60088181548110610b9057600080fd5b906000526020600020016000915090505481565b610bac610c39565b600073ffffffffffffffffffffffffffffffffffffffff168173ffffffffffffffffffffffffffffffffffffffff1603610c1b576040517f08c379a0000000000000000000000000000000000000000000000000000000008152600401610c1290611d1e565b60405180910390fd5b610c24816110df565b50565b610c2f610c39565b8060038190555050565b610c416112bc565b73ffffffffffffffffffffffffffffffffffffffff16610c5f6106ee565b73ffffffffffffffffffffffffffffffffffffffff1614610cb5576040517f08c379a0000000000000000000000000000000000000000000000000000000008152600401610cac90611d8a565b60405180910390fd5b565b60016009600084815260200190815260200160002060020160156101000a81548160ff02191690831515021790555080600081518110610cfa57610cf9611daa565b5b602002602001015160096000848152602001908152602001600020600101819055506000606482600081518110610d3457610d33611daa565b5b6020026020010151610d469190611e08565b9050600080600283610d589190611e08565b14905060006009600086815260200190815260200160002060020160169054906101000a900460ff16151582151514905060006005548410905082610db35760076000815480929190610daa90611e68565b91905055610dcb565b60066000815480929190610dc690611e68565b919050555b506000821561101757610e236009600089815260200190815260200160002060030154600a84610dfd57600354610e01565b6004545b670de0b6b3a7640000610e149190611eb0565b610e1e9190611ef2565b6112c4565b90506000600160009054906101000a900473ffffffffffffffffffffffffffffffffffffffff1673ffffffffffffffffffffffffffffffffffffffff166370a08231306040518263ffffffff1660e01b8152600401610e829190611613565b602060405180830381865afa158015610e9f573d6000803e3d6000fd5b505050506040513d601f19601f82011682018060405250810190610ec3919061176f565b905080821115610ed1578091505b6001600960008a815260200190815260200160002060020160146101000a81548160ff021916908315150217905550600160009054906101000a900473ffffffffffffffffffffffffffffffffffffffff1673ffffffffffffffffffffffffffffffffffffffff1663a9059cbb600960008b815260200190815260200160002060020160009054906101000a900473ffffffffffffffffffffffffffffffffffffffff16846040518363ffffffff1660e01b8152600401610f93929190611885565b6020604051808303816000875af1158015610fb2573d6000803e3d6000fd5b505050506040513d601f19601f82011682018060405250810190610fd691906118c3565b611015576040517f08c379a000000000000000000000000000000000000000000000000000000000815260040161100c90611f6f565b60405180910390fd5b505b6002600081548092919061102a90611e68565b9190505550866009600089815260200190815260200160002060020160009054906101000a900473ffffffffffffffffffffffffffffffffffffffff1673ffffffffffffffffffffffffffffffffffffffff167f3fceb718577531f659be1037b1dd265e5e32134c2be981e0bc1579f2250b085060025486600960008d81526020019081526020016000206003015486888b6040516110ce96959493929190611f8f565b60405180910390a350505050505050565b60008060009054906101000a900473ffffffffffffffffffffffffffffffffffffffff169050816000806101000a81548173ffffffffffffffffffffffffffffffffffffffff021916908373ffffffffffffffffffffffffffffffffffffffff1602179055508173ffffffffffffffffffffffffffffffffffffffff168173ffffffffffffffffffffffffffffffffffffffff167f8be0079c531659141344cd1fd0a4f28419497f9722a3daafe3b4186f6b6457e060405160405180910390a35050565b6000806111af836111b7565b119050919050565b600080600090505b6008805490508110156112b1576000600882815481106111e2576111e1611daa565b5b9060005260206000200154905080600160009054906101000a900473ffffffffffffffffffffffffffffffffffffffff1673ffffffffffffffffffffffffffffffffffffffff1663dd62ed3e86306040518363ffffffff1660e01b815260040161124d929190611ff0565b602060405180830381865afa15801561126a573d6000803e3d6000fd5b505050506040513d601f19601f8201168201806040525081019061128e919061176f565b1061129d5780925050506112b7565b5080806112a990611e68565b9150506111bf565b50600090505b919050565b600033905090565b600080670de0b6b3a764000083856112dc9190611eb0565b6112e69190611ef2565b90508091505092915050565b6000819050919050565b611305816112f2565b82525050565b600060208201905061132060008301846112fc565b92915050565b6000604051905090565b600080fd5b600080fd5b611343816112f2565b811461134e57600080fd5b50565b6000813590506113608161133a565b92915050565b60006020828403121561137c5761137b611330565b5b600061138a84828501611351565b91505092915050565b600080fd5b6000601f19601f8301169050919050565b7f4e487b7100000000000000000000000000000000000000000000000000000000600052604160045260246000fd5b6113e182611398565b810181811067ffffffffffffffff82111715611400576113ff6113a9565b5b80604052505050565b6000611413611326565b905061141f82826113d8565b919050565b600067ffffffffffffffff82111561143f5761143e6113a9565b5b602082029050602081019050919050565b600080fd5b600061146861146384611424565b611409565b9050808382526020820190506020840283018581111561148b5761148a611450565b5b835b818110156114b457806114a08882611351565b84526020840193505060208101905061148d565b5050509392505050565b600082601f8301126114d3576114d2611393565b5b81356114e3848260208601611455565b91505092915050565b6000806040838503121561150357611502611330565b5b600061151185828601611351565b925050602083013567ffffffffffffffff81111561153257611531611335565b5b61153e858286016114be565b9150509250929050565b600073ffffffffffffffffffffffffffffffffffffffff82169050919050565b600061157382611548565b9050919050565b61158381611568565b82525050565b60008115159050919050565b61159e81611589565b82525050565b600060e0820190506115b9600083018a6112fc565b6115c660208301896112fc565b6115d3604083018861157a565b6115e06060830187611595565b6115ed6080830186611595565b6115fa60a0830185611595565b61160760c08301846112fc565b98975050505050505050565b6000602082019050611628600083018461157a565b92915050565b61163781611589565b811461164257600080fd5b50565b6000813590506116548161162e565b92915050565b6000602082840312156116705761166f611330565b5b600061167e84828501611645565b91505092915050565b6000819050919050565b60006116ac6116a76116a284611548565b611687565b611548565b9050919050565b60006116be82611691565b9050919050565b60006116d0826116b3565b9050919050565b6116e0816116c5565b82525050565b60006020820190506116fb60008301846116d7565b92915050565b61170a81611568565b811461171557600080fd5b50565b60008135905061172781611701565b92915050565b60006020828403121561174357611742611330565b5b600061175184828501611718565b91505092915050565b6000815190506117698161133a565b92915050565b60006020828403121561178557611784611330565b5b60006117938482850161175a565b91505092915050565b600082825260208201905092915050565b7f4f6e6c79205652462063616e2066756c66696c6c000000000000000000000000600082015250565b60006117e360148361179c565b91506117ee826117ad565b602082019050919050565b60006020820190508181036000830152611812816117d6565b9050919050565b7f436f6e74726163742062616c616e636520697320656d7074792e000000000000600082015250565b600061184f601a8361179c565b915061185a82611819565b602082019050919050565b6000602082019050818103600083015261187e81611842565b9050919050565b600060408201905061189a600083018561157a565b6118a760208301846112fc565b9392505050565b6000815190506118bd8161162e565b92915050565b6000602082840312156118d9576118d8611330565b5b60006118e7848285016118ae565b91505092915050565b7f5769746864726177616c206661696c6564000000000000000000000000000000600082015250565b600061192660118361179c565b9150611931826118f0565b602082019050919050565b6000602082019050818103600083015261195581611919565b9050919050565b6000606082019050611971600083018661157a565b61197e602083018561157a565b61198b60408301846112fc565b949350505050565b7f546f702d7570206661696c656400000000000000000000000000000000000000600082015250565b60006119c9600d8361179c565b91506119d482611993565b602082019050919050565b600060208201905081810360008301526119f8816119bc565b9050919050565b7f506c656173652073656e6420636f727265637420616d6f756e7420746f20706c60008201527f6179207468652067616d652e0000000000000000000000000000000000000000602082015250565b6000611a5b602c8361179c565b9150611a66826119ff565b604082019050919050565b60006020820190508181036000830152611a8a81611a4e565b9050919050565b7f546f6b656e207472616e73666572206661696c65640000000000000000000000600082015250565b6000611ac760158361179c565b9150611ad282611a91565b602082019050919050565b60006020820190508181036000830152611af681611aba565b9050919050565b6000819050919050565b6000819050919050565b60008160001b9050919050565b6000611b39611b34611b2f84611afd565b611b11565b611b07565b9050919050565b611b4981611b1e565b82525050565b600067ffffffffffffffff82169050919050565b6000611b7e611b79611b7484611afd565b611687565b611b4f565b9050919050565b611b8e81611b63565b82525050565b6000819050919050565b600061ffff82169050919050565b6000611bc7611bc2611bbd84611b94565b611687565b611b9e565b9050919050565b611bd781611bac565b82525050565b6000819050919050565b600063ffffffff82169050919050565b6000611c12611c0d611c0884611bdd565b611687565b611be7565b9050919050565b611c2281611bf7565b82525050565b6000611c43611c3e611c3984611b94565b611687565b611be7565b9050919050565b611c5381611c28565b82525050565b600060a082019050611c6e6000830188611b40565b611c7b6020830187611b85565b611c886040830186611bce565b611c956060830185611c19565b611ca26080830184611c4a565b9695505050505050565b7f4f776e61626c653a206e6577206f776e657220697320746865207a65726f206160008201527f6464726573730000000000000000000000000000000000000000000000000000602082015250565b6000611d0860268361179c565b9150611d1382611cac565b604082019050919050565b60006020820190508181036000830152611d3781611cfb565b9050919050565b7f4f776e61626c653a2063616c6c6572206973206e6f7420746865206f776e6572600082015250565b6000611d7460208361179c565b9150611d7f82611d3e565b602082019050919050565b60006020820190508181036000830152611da381611d67565b9050919050565b7f4e487b7100000000000000000000000000000000000000000000000000000000600052603260045260246000fd5b7f4e487b7100000000000000000000000000000000000000000000000000000000600052601260045260246000fd5b6000611e13826112f2565b9150611e1e836112f2565b925082611e2e57611e2d611dd9565b5b828206905092915050565b7f4e487b7100000000000000000000000000000000000000000000000000000000600052601160045260246000fd5b6000611e73826112f2565b91507fffffffffffffffffffffffffffffffffffffffffffffffffffffffffffffffff8203611ea557611ea4611e39565b5b600182019050919050565b6000611ebb826112f2565b9150611ec6836112f2565b9250828202611ed4816112f2565b91508282048414831517611eeb57611eea611e39565b5b5092915050565b6000611efd826112f2565b9150611f08836112f2565b925082611f1857611f17611dd9565b5b828204905092915050565b7f57696e6e696e6773207472616e73666572206661696c65640000000000000000600082015250565b6000611f5960188361179c565b9150611f6482611f23565b602082019050919050565b60006020820190508181036000830152611f8881611f4c565b9050919050565b600060c082019050611fa460008301896112fc565b611fb16020830188611595565b611fbe60408301876112fc565b611fcb60608301866112fc565b611fd86080830185611595565b611fe560a0830184611595565b979650505050505050565b6000604082019050612005600083018561157a565b612012602083018461157a565b939250505056fea26469706673582212200bbbbb12b65b9c5be943692e1c23574f5787e59346ee8dae8c696d7296a7d50464736f6c63430008130033",
  "linkReferences": {},
  "deployedLinkReferences": {}
}